:020000040800F2
:1000000088B8002045010008DD41000869010008AA
:10001000D9410008DD030008B975000800000000A0
:100020000000000000000000000000006151000816
:100030001505000800000000E1410008CD5400084B
:100040005F0100085F0100085F0100085F01000810
:100050005F0100085F0100085F0100085F01000800
:100060005F0100085F0100085F0100085F010008F0
:100070005F010008E50400085F0100085F01000857
:10008000FD040008090500085F0100085F01000881
:100090003D7500085F0100085F0100085F0100086E
:1000A0005F0100085F0100085F0100085F010008B0
:1000B0005F0100085F0100085F0100085F010008A0
:1000C0005F0100085F0100085F0100085F01000890
:1000D0005F0100085F0100085F0100084957000840
:1000E0005F0100085F0100085F0100085F01000870
:1000F000955500085F0100085F0100085F010008D6
:100100005F0100085F0100085F0100085F0100084F
:100110005F0100085F0100085F0100085F0100083F
:100120005F0100085F0100085F0100085F0100082F
:10013000DFF80CD000F094F800480047198100085F
:1001400088B800200648804706480047FEE7FEE7DB
:10015000FEE7FEE7FEE7FEE7FEE7FEE7FEE7FEE777
:1001600091550008310100087046694607F02CFBE4
:10017000FFF7FEFF40EA01039B0703D009E008C92F
:10018000121F08C0042AFAD203E011F8013B00F85C
:10019000013B521EF9D27047D2B201E000F8012BA8
:1001A000491EFBD270470022F6E710B513460A46F7
:1001B00004461946FFF7F0FF204610BD10B504466F
:1001C00004E00B7800F8013B03B1491C521EF8D241
:1001D000204610BD421C10F8011B0029FBD1801ADB
:1001E000704710B5002200E0521C835C8C5CA34277
:1001F00001D1002BF8D1D8B2E1B2401A10BD2DE9DF
:10020000F05F0546002092469B468846064681469A
:1002100040241BE0284641464746224600F041F86C
:1002200053465A46C01A914110D3114618462246E9
:1002300000F028F82D1A67EB01084F4622460120EE
:10024000002100F01FF817EB00094E41201EA4F119
:100250000104DFDC484631462A464346BDE8F09FAC
:10026000064C074D06E0E06840F0010394E8070003
:1002700098471034AC42F6D3FFF75EFFA0AA0008FF
:10028000C0AA0008202A04DB203A00FA02F100206C
:1002900070479140C2F1200320FA03F319439040C4
:1002A0007047202A04DB203A21FA02F0002170472F
:1002B00021FA02F3D040C2F12002914008431946CE
:1002C000704770B58C1810F8015B15F0070301D169
:1002D00010F8013B2A1106D110F8012B03E010F8A9
:1002E000016B01F8016B5B1EF9D12B0705D40023CC
:1002F000521E0DD401F8013BFAE710F8013BCB1A6E
:10030000921C03E013F8015B01F8015B521EF9D562
:10031000A142D8D3002070BD014646F6B820C2F2F3
:10032000000002F0A5B9000080B546F6B820C2F280
:10033000000002F0AFF9043818BF012080BD0000B2
:1003400010B500F01BF801281CBF012010BD46F6B7
:10035000B820C2F2000002F0BBF9044608B1204602
:1003600010BD46F6B820C2F200004FF4006102F062
:1003700039F8002818BF0124204610BD81B00120A3
:100380008DF803009DF8030001B0704780B582B07E
:100390009C4613460A46014646F6B820C2F20000C3
:1003A000CDF800C002F00EFB002818BF012002B0FB
:1003B00080BD000080B582B09C4613460A460146C7
:1003C00046F6B820C2F20000CDF800C002F0E8FB0B
:1003D000002818BF012002B080BD0000FEE7000029
:1003E00080B582B021281CD020282DD140F2FC02FB
:1003F0004879C2F20002D1F800C00B7950718879B7
:100400001371C2F800C090714FF0000C10A011A140
:1004100002220123CDF800C0CDF804C007F0AEFDE4
:1004200012E040F2FC00C2F2000002680A700268AA
:10043000120A4A7042888A70C278CA7002790A71B8
:1004400042794A7180798871002002B080BD00BF76
:100450005732000031353741414141414141413935
:1004600038373635343332313000000000207047E1
:1004700010B546F26044C2F2000445F60471C2F2BF
:1004800000012046002205F061FA45F60431C2F26F
:100490000001204605F054FA002010BD70B582B06E
:1004A00046F260460546C2F200060C463046294632
:1004B00005F046FA304605F025FA2168284600F096
:1004C000D3F84AF23461002605A0C0F600010122EB
:1004D00001230096019607F051FD002002B070BD87
:1004E0005731000080B507F0F5FD46F2FC60C2F21E
:1004F0000000BDE8804000F09DB9000046F2407069
:10050000C2F2000000F096B946F28470C2F2000018
:1005100000F090B97047000047F23A70C2F2000054
:100520000078704780B500F03BF800F017F800F055
:100530004DF800F067F84AF21D61C0F6000103A013
:100540000A46BDE8804007F01FBC00BF6D696E69B8
:100550005F636F6E74726F6C0000000080B540F2D4
:100560008C20C2F2000007F099FC40F26420C2F235
:10057000000007F093FC40F2EC20C2F2000007F00C
:100580008DFC40F2AC20C2F2000007F087FC40F284
:10059000CC20C2F20000BDE8804007F07FBC000024
:1005A00080B540F20C30C2F2000007F0AFFC40F61C
:1005B0003400C2F2000007F0A9FC40F65C50C2F221
:1005C0000000BDE8804007F0A1BC000080B549F202
:1005D000403048F64071C2F20000C2F20001012230
:1005E0004FF4806308F068FB46F6244048F640313B
:1005F000C2F20000C2F200014FF48062BDE8804008
:1006000002F09ABD10B549F2547049F25431C2F269
:100610000000C2F2000101224FF4806308F04CFB9D
:1006200003F068FD47F23A74C2F20004207850B932
:1006300040F23000C2F20000026846F26040C2F2AE
:100640000000002190472078012818BF10BD40F21B
:100650008410C2F20000026846F26040C2F200005C
:100660000021BDE8104010470A46014649F2547087
:10067000C2F2000008F032BBEFF3108072B600BF88
:10068000FEE7000080B546F23043C2F200035A7A1A
:10069000012A84BF012080BD93F809C0864600204E
:1006A00003F80C005A7A03EB8202C2F804E05A7A8B
:1006B0001A44107293F809C00CF101025A720CF13D
:1006C00030020A7042F63A72A1F80120C87080BD6B
:1006D000014690F82100022813D10868D1E90FC320
:1006E000026822F00E020260026822F0010202603B
:1006F000012000FA03F2CCF8042081F82100002048
:1007000002E0042088630120002281F82020704745
:1007100080B590F82110022927D1026840F2040C1C
:100720001368C4F2020C23F00E03136013680CF17B
:100730007C018A4223F0010111601AD940F208417C
:10074000C4F202018A4247D040F21C41C4F20201C5
:100750008A4245D040F23041C4F202018A4243D17C
:100760004FF48073CCF8003457E0042181630120FA
:1007700080BD4321C4F202018A420EDD6B21C4F226
:1007800002018A421BDC4421C4F202018A4239D0B0
:100790005821C4F202018A4231E00821C4F2020168
:1007A0008A4232D01C21C4F202018A4232D0302166
:1007B000C4F202018A4222D14FF480722BE06C21F4
:1007C000C4F202018A4222D08021C4F202018A428C
:1007D00015D14FF080721EE00123CCF800341CE0EC
:1007E0001023CCF8003418E00CF588614FF4803306
:1007F0008A4208BF4FF48053CCF800340DE04FF428
:10080000803208E04FF4805205E0012203E04FF40B
:10081000801200E01022CCF80020012180F8211085
:10082000426B002180F820100AB190470021084651
:1008300080BD000010B5D0E90FE3D0F800C0DEF8AD
:100840000020DCF80010DA4054072DD511F0040424
:100850002AD0DCF80010890605D4DCF8001021F05D
:100860000401CCF800100422C4F2020202F17C015F
:100870008C454CD940F20841C4F202018C4500F08D
:10088000AB8040F21C41C4F202018C4500F0A8800C
:1008900040F23041C4F202018C4540F0A5804FF493
:1008A0008061C2F80014ECE0940745D511F0020411
:1008B00042D0DCF80010890608D4DCF8001021F0E2
:1008C0000A01CCF80010012180F821100422C4F2A2
:1008D000020202F17C018C454BD940F20841C4F27E
:1008E00002018C4500F0AD8040F21C41C4F20201CF
:1008F0008C4500F0AA8040F23041C4F202018C45E0
:1009000040F0A7804FF40071C2F80014C8E0432102
:10091000C4F202018C4540DD6B21C4F202018C451A
:100920004DDC4421C4F202018C4500F09D80582129
:10093000C4F202018C4562E0120740F1B78011F069
:10094000080108BF10BDDCF8001021F00E01CCF842
:100950000010012101FA03F2CEF80420816380F82F
:100960002110016B0022002980F8202040F08B80AC
:100970009CE04321C4F202018C4543DD6B21C4F2AB
:1009800002018C4550DC4421C4F202018C457DD02B
:100990005821C4F202018C456EE00821C4F2020124
:1009A0008C4564D01C21C4F202018C4567D03021F3
:1009B000C4F202018C4522D14FF4806160E06C21C9
:1009C000C4F202018C4554D08021C4F202018C454E
:1009D00015D14FF0806153E00421C2F8001450E0BB
:1009E0004021C2F800144CE002F588634FF48021E6
:1009F0009C4508BF4FF48041C2F8001441E04FF419
:100A000080213DE00821C4F202018C4541D01C2127
:100A1000C4F202018C4541D03021C4F202018C4560
:100A20002AD14FF400713AE06C21C4F202018C45E6
:100A300031D08021C4F202018C451DD14FF00071EC
:100A40002DE00221C2F800142AE02021C2F800148F
:100A500026E002F588634FF400319C4508BF4FF44F
:100A60000051C2F800141BE04FF4804108E004215B
:100A700006E04FF4800103E04FF400310FE0402125
:100A80001160C16A91B1BDE8104008474FF40051B0
:100A900005E0022103E04FF4001100E02021116085
:100AA000816A0022002980F82020ECD110BD0000CE
:100AB000014600284FF0010008BF70472DE9F047BC
:100AC00040F2000CC4F2020C0A684FF6F8330CF541
:100AD000816ECBF6FD73724538BF03F5806303EB7F
:100AE000020E4CF6CD43CCF6CC43AEFB033E6FF08A
:100AF00003060CF5806506EA9E06D1E901A9D1F846
:100B00000C803CBF0025C4F20205C1E90F56022645
:100B100081F82160166843F6F075AE4346EA0A068E
:100B2000D1E9045746EA090646EA0806D1E9064330
:100B30002E43374327433B43136000228A6381F8E7
:100B4000210081F820200020BDE8F0477047000018
:100B5000B0B5044600F00EF9054641F28220C2F21B
:100B600000000078611C18BF044400BF00F002F9C7
:100B7000401BA042FAD3B0BD2DE9F04F82B00E6801
:100B8000002E00F0E880A0F1804241F60045A2F579
:100B90008432C4F2010506244FEAB227A84208BFF6
:100BA000052440F2004E052F38BF4FEAB224C4F2AC
:100BB000010E009400244FF001080F234FF0000AAB
:100BC0004FF0000B09E000BF0E680AF1010A36FA87
:100BD0000AF204F1040400F0BE8008FA0AFC16EAE6
:100BE0000C09F1D04E684FF6FF72C1F21002964226
:100BF00010DC122E50D8DFE806F0330A41454F4F83
:100C00004F4F4F4F4F4F4F4F4F4F4F484C00D1F822
:100C10000CB041E04FF6FF72C1F2210296420FDCA8
:100C20000022C1F2110296421AD00022C1F2120231
:100C3000964215D00022C1F22102964210D02BE03C
:100C40000022C1F2220296420AD00022C1F23102F1
:100C5000964205D00022C1F2320296421CD100BF5A
:100C60008A6842B1012A14BFC0F814C0C0F810C08D
:100C70004FF0080B10E04FF0040B0DE0CA6802F1D2
:100C8000080B09E04FF0000B06E0CA6802F1040B04
:100C900002E0CA6802F10C0B22460646B9F5807FD5
:100CA00024BF203A0436376803FA02F5AF430BFA43
:100CB00002F23A433260CA79D2067FF585AF41F23B
:100CC0001807C4F202073A684FF6084342F00102DF
:100CD0003A603A68CFF6FF7302F001020192019A7E
:100CE0002AF0030272440F25D75804F00C06B540D1
:100CF000AF43009D05FA06F63743D7504E6840F2E1
:100D00000C45F202DEF8082054BF22EA090242EA4A
:100D10000902CEF80820C4F201052A68B70254BFC0
:100D200022EA090242EA09022A60DEF80420B70337
:100D300054BF22EA090242EA0902CEF804200F2336
:100D4000DEF80020F70354BF22EA090242EA090252
:100D5000CEF8002038E702B0BDE8F08F8068084088
:100D600018BF012070470000002A08BF0904016174
:100D70007047000049F26870C2F2000000687047D6
:100D800041F2822049F26871C2F20000C2F2000111
:100D900000780A68104408607047000080B542F28D
:100DA0000000C4F20200016841F01001016003205C
:100DB00000F0BEF80F2000F005F800F055F8002014
:100DC00080BD0000B0B586B041F21801C4F2020146
:100DD0000A68044642F400520A60096801A801F456
:100DE000005101910199694601F01AF901F04EF99B
:100DF0004DF68361C4F21B31A0FB01014FF0FF30BF
:100E000000EB914146F6943043F20042C2F20000FA
:100E1000C4F2010240F2E7330025C0E90021C0E935
:100E200002530561856102F04BF80546C0B946F6EC
:100E30009430C2F2000002F073F8054680B92C200D
:100E400000F03AF80F2C0AD82C202146002200F09E
:100E500043F841F28420C2F20000046000E0012562
:100E6000284606B0B0BD000080B582B041F218003F
:100E7000C4F202000168002241F001010160016832
:100E800001F0010101910199416841F080514160F7
:100E900040680F2100F08050009000986FF0010032
:100EA00000F01AF80420C4F201000168022262F383
:100EB0001A61016002B080BD002848BF704700F091
:100EC0001F01012202FA01F14EF200124009CEF296
:100ED000000242F82010704710B54EF60C5CCEF2BE
:100EE000000CDCF80030C3F3022E8EF00704042C53
:100EF00028BF0424BEF103034FF0FF3E0EFA04F4B2
:100F000038BF0023A14399400EFA03F39A431143DB
:100F100000F1604200F00F03090102F56442043B56
:100F20006344002848BF03F10C02117010BD00009B
:100F30004EF60C51CEF200010A684FF6FF031A403C
:100F400060F30A2242F0806040F0FD700860704754
:100F500080B501F0070C0CEB8C0C00EBCC0C0CF109
:100F6000280C01EB810E090600EBCE0058BF00F5FE
:100F7000B47C4AB101208CF80C00180CACF80A00C3
:100F80000020ACF8083080BD00208CF80C00002058
:100F9000ACF8063080BD00007047000001EB810214
:100FA000D0F8EC3200EBC200C26B184604F00ABF66
:100FB00001EB8102D0F8EC3200EBC200D0F87C21CA
:100FC000184604F061BF000010B5044648B2B0F105
:100FD000FF3F01F0070000EB800104EBC10205DDDB
:100FE00002F5B471002382F8693104E0012302F1B3
:100FF000280182F8293094F8A8220870012A04BF39
:10100000022010BD2068012284F8A82205F0ECFD22
:10101000002084F8A80210BDB0B50446406801F075
:101020000F02824284BF0120B0BD48B2B0F1FF3F41
:1010300001F0070000EB800104EBC10205DD02F5C1
:10104000B471002382F8693104E0012302F1280120
:1010500082F8293094F8A8220025012A8D700870A2
:1010600004BF0220B0BD2068012284F8A82205F048
:1010700049FE284684F8A852B0BD000010B50446C9
:1010800090F8A802012804BF022010BD4BB22068CE
:101090000122B3F1FF3F84F8A82202DD06F04AFAEC
:1010A00003E001F0070106F047FA002084F8A802E7
:1010B00010BD000001F0070101EB810100EBC10050
:1010C000D0F884017047000070B5064648B2B0F110
:1010D000FF3F01F0070000EB800107DD06EBC104D4
:1010E00004F5B471002584F8695106E006EBC10CE3
:1010F00001240CF128018CF8294008700A61022BA8
:10110000CB7004BF0020087196F8A802012804BF24
:10111000022070BD3068012286F8A82205F04CFC40
:10112000002086F8A80270BD10B501F0070C0CEB8A
:101130008C0100EBC10E00680EF5B4710024CEF8EE
:101140007C21CEF88031CEF884418EF869418EF84A
:1011500068C105F02FFE002010BD0000B0B50446A8
:10116000406801F00705854284BF0120B0BD48B248
:10117000B0F1FF3F09DD01EB810004EBC00000F599
:10118000B471002280F8692108E005EB850004EBCA
:10119000C000012200F1280180F8292094F8A8025B
:1011A000012201288A700D7004BF0220B0BD2068A2
:1011B00084F8A82205F0E4FD25B9206804F52C7117
:1011C00005F09EFD002084F8A802B0BD80B501F0B6
:1011D000070C0CEB8C0100EBC10101F828CF006873
:1011E0004FF0010C01F1140781F824C04FF0000EFC
:1011F00087E80C400B6281F801C005F0DBFD0020A0
:1012000080BD00002DE9F04F85B00446006806F06F
:101210009BF901041CD4410500F10784410400F14D
:101220001584810400F12784C10400F12A8401059A
:1012300000F14184810500F18484C00540F10384FC
:101240002068B0F8441021F48071A0F84410FAE34B
:101250002068B0F94410B1F1FF3F00F3F48304F5C6
:101260002C7140F60F76009121E0B0F8501094F800
:10127000682101EBC20100EB4101B1F80C34B4F874
:101280006E2100996FF39F23C4F8843106F060F952
:1012900020680188314080310180204600F028FD1F
:1012A0002068B0F94410B1F1FF3F00F3CC83B0F8EF
:1012B000442012F00F090DD030F929104FEA490AE5
:1012C000B1F1FF3F1FFA81F832DD5FEA0860E7D530
:1012D00059E100BF0188D2066DD4314001F50041CB
:1012E0000180B0F8501094F8282001EBC20100EB07
:1012F0004100B0F80404E16B6FF39F206064084480
:10130000E06320460021FFF749FE94F824000028FE
:10131000C6D0206C0028C3D194F82400216840F086
:101320008000C0B2A1F84C00002084F82400B7E788
:1013300030F81A1040F60F7C3140803120F81A1036
:1013400009EB890104EBC10B9BF874110BF5B47622
:10135000002900F083809BF86B11022940F09080F7
:10136000B0F850203178DBF8803102EBC1075FEA3A
:1013700048420BF5C07200EB470700F19B80B7F8BD
:101380000C7400256FF39F27DB1B38BF2B461360BF
:1013900040F2A5805FEA486200F1B18030F8212078
:1013A00048F2C00302EA0C021A4320F82120002F61
:1013B00040F0A680C9E00A053FF557AF09B2B1F188
:1013C000FF3F3FF76DAF0188314080310180B0F8B9
:1013D000501094F8682101EBC20100EB4101B1F813
:1013E0000C346FF39F23C4F884318BB1D4F87C1193
:1013F00071B1B4F86E2106F0ABF8D4F87C01D4F8E2
:1014000084110844C4F87C0120460021FFF7D0FD78
:10141000206801880A053FF543AF01F44051B1F55A
:10142000405F3FF43DAFB0F8501000F20C42535A09
:101430006FF39F235352D4F878313F2BC0F0E681ED
:10144000DE068E5A4FEA53174FF0FF3508BF05EB03
:10145000531746EA872340F60F766CE2B0F8501037
:10146000327801EBC20100EB4101B1F80C746FF36B
:101470009F27002F69D0DBF87C11BBF86E2161E05B
:10148000317848F2C00330F8212002EA0C021A43F6
:1014900020F8212030F82120B0F85030520403EB1E
:1014A000C10100EB410114D4B1F80C746FF39F2714
:1014B00037BB4AE0B7F8047400256FF39F27DB1BA6
:1014C00038BF2B46136020D95FEA48622CD4AFBBEB
:1014D0003BE0B1F804746FF39F277FBB35E030F831
:1014E000212043F60F731A404CF28003A3F50053FA
:1014F0005A4020F821205FEA48627FF54FAF27B3BA
:10150000DBF87C11BBF872211CE030F8212043F697
:101510000F731A404CF28003A3F500535A4020F891
:1015200021205FEA4862D2D530F8212048F2C0037A
:1015300002EA0C021A4320F8212037B1DBF87C11B3
:10154000BBF870213B4606F003F8DBF88411DBE9B9
:101550005F0239443844CBF88411CBF87C011AB1CE
:10156000DBF87801B84204D931782046FFF720FD36
:1015700003E02068314605F01DFC40F60F765FEA77
:1015800008607FF58DAE206809EB890130F81A20DC
:1015900004EBC10302EA060101F5004120F81A102C
:1015A00093F82B1003F1280B012925D193F834105F
:1015B00000294FF00001196400F022815FEA4861C0
:1015C00000F1868093F82910012900F00481002998
:1015D00040F01681B0F850109BF80020084400EB52
:1015E0000210B0F80C146FF39F21A0F80C14B0F89F
:1015F0000C1441F40041F6E05FEAC8511DD4B0F884
:1016000050209BF800101F6C02EBC10200EB42025D
:10161000B2F8042400256FF39F22BF1A38BF2F466B
:101620001F6440F2EF80D96B5F6C1144D963B91825
:101630005964594605F0BEFB32E6B0F850709BF88D
:1016400000101A4652F8405F40F60F7C5FEA486689
:1016500007EBC10756D400F20C4939F817706FF345
:101660009F27EE1B4FF0000538BF2E46166040F254
:1016700086805FEA484208D430F821204CF2800688
:1016800002EA0C02324320F821201D4615F84C2FA7
:1016900040F60F76012A40F0B8811A4652F8488F7A
:1016A00052E904E652F804AC06EB070C0AEB070615
:1016B000F04542F80CCC42F8046C80F0E880B8F1B8
:1016C000000F00F051810027C64617602F704EE1D1
:1016D00093F82910012900F08980002940F09080BA
:1016E000B0F850109BF80020084400EB0210B0F84E
:1016F00004146FF39F21A0F80414B0F8041441F40B
:1017000000417BE000F2044939F817706FF39F271E
:10171000EE1B4FF0000538BF2E46166048D95FEA31
:10172000484208D530F821204CF2800602EA0C022B
:10173000324320F821201A4612F84C6F012E40F651
:101740000F7640F062811D4655F848EF55E904A632
:1017500055F8048C06EB070C08EB0706D64545F850
:101760000CCC45F8046C80F096804FF00008BEF178
:10177000000F82F8008040F09180BE4690E093F820
:101780002920012A4FD0002A40F60F7640F0AF8082
:10179000B0F8503000EB01173B44B3F804746FF31A
:1017A0009F27A3F80474B3F8047447F4004742E099
:1017B00093F82920012A50D0002A40F0A780B0F8E1
:1017C000503009EB0117FE5A6FF39F26FE52FE5A66
:1017D00046F4004646E0B0F850109BF8002008445C
:1017E00000EB02100021A0F80C1409E0B0F8501032
:1017F0009BF80020084400EB02100021A0F804141C
:101800009BF800102046FFF7C9FB49E5002B00F0CC
:10181000918003F001078E5A07EB530346EA8323B6
:1018200040F60F768CE0B0F8503000EB01173B44E7
:10183000002740F60F76A3F80474012A51D0002A3D
:1018400055D1B0F8500009EB0112135A6FF39F23E2
:101850001352135A43F4004348E0B0F8503009EBF8
:1018600001170026012AFE5248D0002A4ED1B0F8B6
:10187000502000EB01101044B0F80C246FF39F22AD
:10188000A0F80C24B0F80C2442F400423CE0A8EB91
:101890000E0515606BE0AEEB0A08D646C5F8008071
:1018A00093F8292040F60F76012A55D0002A59D105
:1018B000B0F8507009EB0111CA5BBEF13F0F6FF336
:1018C0009F22CA537BD34FEA5E125FEACE6537F898
:1018D00001804FF0FF3508BF05EB5E1248EA822217
:1018E00084E0B0F8500009EB0112002313522046A7
:1018F000FFF754FB5FEA484010D586E0B0F850206F
:1019000000EB011010440022A0F80C242046FFF741
:1019100045FB5FEA484040F60F7676D520689BF895
:1019200000104CF2800330F8212032401A4320F896
:1019300021206AE08B5A48F20007CFF6FF773B433D
:101940008B52018843F60F7211404CF28002A2F5CF
:10195000805251400180A3E4B0F8502009EB0111FE
:1019600021F802E01A8E4BE000222A70BE4693F85E
:10197000292040F60F76012A1AD0002A3FD1B0F86C
:10198000507009EB0111CA5BBEF13F0F6FF39F224C
:10199000CA531FD34FEA5E125FEACE6537F8018063
:1019A0004FF0FF3508BF05EB5E1248EA822223E0C4
:1019B000B0F8502009EB011121F802E01FE0BEF160
:1019C000000F12D00EF001027D5A02EB5E0245EAD2
:1019D00082220DE0BEF1000F0DD00EF001027D5A03
:1019E00002EB5E0245EA822208E07A5A42F40042A3
:1019F0007A521A8E04E07A5A42F400427A525A8E8F
:101A00001FFA8EF3614605F0C5FD20689BF80010B3
:101A100040F63F7330F821201A4048F2C003103BD3
:101A20005A4020F82120FFF73BBC2068B0F8441052
:101A300021F48061A0F84410204600F02BF994F8BE
:101A4000A802012808D105B0BDE8F08F2068B0F8E1
:101A5000441021F4804129E00120002584F8A802E7
:101A600084F824502068002105F08CFD84F8A852E9
:101A700005B0BDE8F08F2068B0F8441021F40051A3
:101A800014E02068B0F8401021F00401A0F84010E4
:101A9000B0F8401021F00801A0F84010204600F0F6
:101AA0000BF92068B0F8441021F48051A0F84410DC
:101AB00005B0BDE8F08F20686FF00102011F01A89A
:101AC00031F8043F871802320E2A7B80F8D1216852
:101AD000B1F8402042F00102A1F84020B1F84020C6
:101AE00022F00102A1F84020B1F844205205FBD5B4
:101AF000B1F844206FF0010322F48062A1F8442081
:101B00000A1F00BFC7187F8802330E2B22F8047FFC
:101B1000F8D1B1F8400040F00800A1F84000B1F859
:101B2000440020F40060A1F84400B1F8400040F007
:101B300004022046A1F8402005B0BDE8F04F00F0B7
:101B4000F9B82168B1F8440020F400722046A1F8E9
:101B5000442005B0BDE8F04F00F0B2B8F0B585B054
:101B6000F8B1044690F8A90228B9002084F8A80228
:101B7000204600F06BF8032084F8A902206805F0E5
:101B8000B5F894E82F50D4E907678DE82050CDE9E7
:101B9000036705F027F830B1022084F8A902012577
:101BA00050E001254EE020680021002505F0E8FC0A
:101BB000616849B301200023002200BF03EB8303C7
:101BC00004EBC30787F828200132D3B2994287F883
:101BD000290087F82B50C7E90E553D64EED8002048
:101BE0000023002203EB830304EBC30787F868217B
:101BF0000132D3B2994287F8690187F86B01C7E9CE
:101C00005E00C7F88001EDD804F10807D4E9056546
:101C100020688CCFD4E907CECDE9007602AE86E805
:101C2000205005F055F820B1022084F8A9020125C2
:101C300008E00025012084F8245084F8A9022068D7
:101C400005F044F8284605B0F0BD000080B582B02C
:101C5000006845F60041C4F2000188421CBF02B092
:101C600080BD41F21C00C4F202000168002241F470
:101C7000000101600068052100F400000190019856
:101C80001420FFF729F9142002B0BDE88040FFF7C7
:101C900013B9000010B504468068022818BFFEF78B
:101CA000EBFCD4F8EC02012104F01AFAD4F8EC02AF
:101CB000BDE8104004F0D4B9D0F8EC0204F0FAB951
:101CC000D0F8EC0204F0FEB910B5044690F8A80272
:101CD000012804BF022010BD012084F8A80284F866
:101CE0002410206805F04EFC002084F8A80210BDE6
:101CF000D0F8EC2200F52C71104604F007BA000071
:101D000010B5044690F8A802012804BF022010BDB7
:101D10002068012184F8A81205F002FC2046012168
:101D2000FFF73AF9206804F0CFFF002084F8A802FA
:101D300010BD000010B50446D0F8EC0204F03AFAE9
:101D4000A069002808BF10BD4EF61050CEF200006A
:101D5000016841F00601016010BD00002DE9F0416D
:101D600082B00446007841F21C06C007C4F20206A5
:101D70004AD0306810F0805808D1306840F0805068
:101D80003060306800F080500190019847F2000701
:101D9000C4F200073868C00512D4386840F4807077
:101DA0003860FEF7E7FF05463868C00508D4FEF73F
:101DB000E1FF401B6428F7D9032002B0BDE8F081A1
:101DC000706810F4407012D0616801F4407188426C
:101DD0000DD0706840F24042C4F24222012320F448
:101DE000407113600023C0071360716029D17068CF
:101DF000616820F440700843B8F1000F706003D1AF
:101E0000306820F0805030602068810707D556F890
:101E1000181CA26821F44041114346F8181CC00662
:101E200003D4002002B0BDE8F08156F8180C6169B7
:101E300020F48000084346F8180C002002B0BDE8EA
:101E4000F081FEF797FF054641F2883770688007FA
:101E5000CDD4FEF78FFF401BB8424FF00300F5D9F9
:101E6000ECE700002DE9F04381B0002800F0858008
:101E700042F20008C4F202080446D8F800000D46F9
:101E800000F0070088420CD2D8F8000020F00700CC
:101E90002843C8F80000D8F8000000F00700A84266
:101EA0006BD1206841F204098107C4F2020917D5F9
:101EB000410705D5D9F8001041F4E061C9F80010D8
:101EC000010705D5D9F8001041F46051C9F8001098
:101ED000D9F80010A26821F0F0011143C9F80010F0
:101EE000C00741D1D8F8000000F00700A8420CD983
:101EF000D8F8000020F007002843C8F80000D8F800
:101F0000000000F00700A84237D12068410707D53C
:101F1000D9F80010E26821F4E0611143C9F800101B
:101F2000000708D5D9F80000216920F4605040EA84
:101F3000C100C9F80000D9F8002002F00C00082800
:101F400041F20020C0F27A004ED14AF23453C2F37B
:101F50008341C0F60003595CD20339D440F6001027
:101F6000C0F23D0048433FE06068022809D00128E4
:101F700029D159F8041C890307D4012001B0BDE818
:101F8000F08359F8041C8901F7D5D9F8001021F025
:101F900003010843C9F80000FEF7ECFE064641F2D3
:101FA000883700BFD9F80000616800F00C00B0EB82
:101FB000810F97D0FEF7DEFE801BB842F2D90320D6
:101FC00001B0BDE8F08359F8041C8907D5D5DCE7DA
:101FD000D9F800204AF29843C2F34042C0F6000309
:101FE0009A5C4843B0FBF2F0D9F800104AF268421C
:101FF000C1F30311C0F60002515C40F22C0220FA3A
:1020000001F141F28420C2F200000068C2F2000235
:102010001160FEF7D7FE002001B0BDE8F08300009C
:102020000F22026041F20402C4F20202136803F0BC
:1020300003034360136803F0F0038360136803F441
:10204000E063C36012684FF4E06303EAD202026106
:1020500042F20000C4F20200006800F007000860CD
:102060007047000040F22C0041F20401C2F200006F
:10207000C4F20201006809684AF27842C1F3022101
:10208000C0F60002515CC8407047000040F22C00CE
:1020900041F20401C2F20000C4F2020100680968C2
:1020A0004AF27842C1F3C221C0F60002515CC84036
:1020B000704700002DE9F04182B0002800F0D78081
:1020C0000446007841F20006C007C4F2020644D07C
:1020D000706800F00C00042817D0706800F00C0045
:1020E000082802D17068C0030FD465682DB1B5F51A
:1020F000A02F10D0B5F5803F11D0306820F480308B
:102100003060306820F480200CE03068800324D5F3
:10211000606810BBABE0306840F48020306030680D
:1021200040F480303060FEF725FE002D054611D0CA
:102130003068800311D4FEF71DFE401B6428F7D9D8
:1021400016E100BFFEF716FE401B64284FF00300A7
:1021500000F28A8030688003F4D42078800718D594
:10216000706810F00C0F07D0706800F00C000828A1
:1021700027D17068C00324D43068800702D5206955
:10218000012874D13068616920F0F80040EAC1008C
:102190003060207800074FD5A06940B30020C4F21A
:1021A00042200121C0F88014FEF7E4FD054600BF7F
:1021B000706A80072DD4FEF7DDFD401B0228F7D999
:1021C000D6E02069002840F20000C4F2422000F06E
:1021D000A68001210160FEF7CDFD0546306880072D
:1021E000D0D4FEF7C7FD401B0228F7D9C0E000207D
:1021F000C4F242200021C0F88014FEF7BBFD054662
:10220000706A800718D5FEF7B5FD401B0228F7D984
:10221000AEE040F22C00C2F20000006844F6D35158
:10222000C1F26201A0FB0101480A019000BF0198C0
:10223000411E00280191F9D1207840071BD4E5699F
:102240008DB1706800F00C00082846D1012D0ED029
:102250007068216A00F480328A4208D1616A00F411
:102260007010884203D1002002B0BDE8F081012047
:1022700002B0BDE8F081F06910F0805808D1F06933
:1022800040F08050F061F06900F0805000900098BC
:1022900047F20007C4F200073868C0050FD4386859
:1022A00040F480703860FEF765FD05463868C0056B
:1022B00005D4FEF75FFD401B6428F7D958E0E568B8
:1022C0001DB1052D3CD0012D3ED0306A20F001001B
:1022D0003062306A20F0040039E00027C4F242275F
:1022E00000203866FEF746FD022D05460CD100BFE2
:1022F0003068800154D5FEF73DFD401B02284FF0A9
:102300000300F5D9B0E700BF30688001ABD5FEF718
:1023100031FD401B02284FF00300F5D9A4E700214E
:102320000160FEF727FD0546306880077FF531AF75
:10233000FEF720FD401B02284FF00300F4D993E77D
:10234000306A40F004003062306A40F001003062D0
:10235000FEF710FD002D054641F2883714D000BF6E
:10236000306A800713D4FEF705FD401BB842F7D949
:10237000032002B0BDE8F081FEF7FCFC401BB84230
:102380004FF003003FF670AF306A8007F4D4B8F125
:10239000000F7FF454AFF06920F08050F0614EE7F9
:1023A000206AB0F5803F05D17168A26821F4003140
:1023B000114371607168626A21F47411114308431A
:1023C000706001203866FEF7D5FC04463068800155
:1023D0003FF549AFFEF7CEFC001B02284FF003008B
:1023E000F4D941E72DE9F04186B00446032084F892
:1023F0003400606C8846032810D14FF08050A16BE8
:1024000040F2FF560843A063A06BC0F2400668B3D9
:1024100020680125866384F8345031E0B8F1000F5C
:1024200041D0B8F5805FE8D0B8F5006F51D10021F8
:10243000206805910491002102F0C8FA80014BD474
:1024400004A9204602F054FD0028D8D19DF81600BA
:1024500040073BD5216D2068090402F0E1FA00280D
:10246000CDD12068022102F025FBC8E794E80F00D7
:10247000D4E90557CDE90085029702F0ABFA0025B3
:1024800020684FF4007102F009FB28B12168012592
:102490008E63A16B0843A0630121284684F83410A1
:1024A00006B0BDE8F081002120680591049100216B
:1024B00002F08CFA80010FD404A9204602F018FD26
:1024C00000289CD19DF81600C00708D14FF080600D
:1024D00095E74FF0006092E74FF400608FE7216DC1
:1024E0002068090402F09CFA00287FF488AF206875
:1024F000002102F0DFFA82E780B5D0E9193ED0F87A
:1025000044C09A0F0A70C3F383624A70C3F3016236
:102510008A701A0CCA701A0A0A714FEA1E524B715D
:10252000CA80CEF303420A72CEF3C0324A72CEF3AF
:1025300080328A72CEF34032CA72CEF300320A730E
:102540000022BCF1010F4A732DD0BCF1000F40F006
:10255000808040F6FC72C36E02EA8E0242EA9372F9
:102560000A61C26EC2F3C2630B75C2F302634B759C
:10257000C2F342538B75C2F38243C2F3C232CB75AE
:102580000A760A690B7E013203F0070302339A4090
:1025900042650B7A03F00F0C012303FA0CF38365F9
:1025A0005B0A5A430FE0B0F86E200EF03F0342EA98
:1025B00003420A610A694FF4806303EB82224FF4FD
:1025C0000073C0E91523C2654FF400720266D0E9BA
:1025D0001B20C2F380334B76C2F3C61302F07F0296
:1025E0008B76CA76C20F0A77C0F341724A77C0F37E
:1025F00082628A77C0F38352CA77C0F3405281F86F
:1026000020200022C0F3004381F8212081F82230ED
:10261000C0F3C03381F82330C0F3803381F8243015
:10262000C0F3403381F82530C0F3003381F8263001
:10263000C0F3812381F82730C0F30123C0B24008E2
:1026400081F8283081F82900012081F82A001046FD
:1026500080BD016840F2FF52C0F240028A63816B84
:10266000012241F08051816380F83420104680BD02
:1026700080B500F1440E9EE80C5081E80C10426DCC
:10268000C1E903E2D0E91623C1E90523026E002067
:10269000CA6180BDB0B5016D04460068090402F04E
:1026A0000FFB10B10546002006E020680021002540
:1026B00002F08CF9C0F34320002D08BFB0BDA16B20
:1026C0002943A163B0BD000090F8340070470000BA
:1026D00010B5D0B1044690F8340020B9002020771E
:1026E000204600F023F9032084F83400204600F04F
:1026F0000FF800284FF0010018BF10BD0021A163A2
:10270000216384F83400002010BD012010BD0000BA
:10271000F0B58FB0044600687621002602910021B2
:10272000002200230096019602F054F900284FF091
:10273000010540F0E580A027C4F230273E60206804
:1027400002F05EF902203D60FEF702FA049620686E
:1027500002F0BCF938B198B1012584F83450A16B6E
:102760000843A063CCE0206802F0D4F900286DD0C3
:1027700020680021A16402F0A9F90028EBD167E0EC
:1027800020680121ADF80E1002F01CF9002800F0BD
:102790009080606C03281DD0206802F01BFA00288E
:1027A00040F089802068002102F010F921686067FC
:1027B0000846042102F00AF92168A06708460821AA
:1027C00002F004F92168E06708460C2102F0FEF8E7
:1027D000C4F88000606C032806D020680DF10E015B
:1027E00002F07AFA002866D1606C03281FD0BDF889
:1027F0000E1020682165090402F020FA00285AD141
:102800002068002102F0E2F8216860660846042191
:1028100002F0DCF82168A0660846082102F0D6F82C
:102820002168E06608460C2102F0D0F82067206895
:10283000042102F0CBF8000DE06404A92046FFF764
:102840005BFE00285FD04FF0805034E00120A06490
:10285000A06C012807D12068002102F0E1F810B136
:102860004FF0805077E704984FF6FE76B0423DD89F
:102870000025CCF2101500BF2068002102F0D0F82E
:1028800000287FF468AF2068294602F0D5F80028B8
:10289000E6D12068002102F099F8049901310491F1
:1028A0000499B14202D8B0F1FF3FE5DCC0F380707B
:1028B0001DE04FF0806030B1012584F83450A16BE9
:1028C0000843A0631CE020684FF4007102F0E6F8B2
:1028D000A8B1216840F2FF52C0F240028A63A16BA6
:1028E00001250843A06384F8345009E000200499CE
:1028F000B1429ABF606400204FF080702BE7002542
:1029000028460FB0F0BD216D20680A04002302F0B4
:1029100055F90028CFD194E88F00D4E90565CDE9B9
:102920000076029502F056F80020C4E7F0B585B0B5
:1029300041F20004C4F20104006804F5E041884259
:102940004FF00000CDE90300CDE9010001D005B052
:10295000F0BD41F21800C4F2020050F8041C01ADB1
:1029600041F4806140F8041C50F8041C022601F474
:102970008061009100990168032741F01001016016
:10298000016801F0100100910099016841F02001F7
:1029900001600068294600F02000009000984FF484
:1029A000F8500190204602960497FEF7E5F80420BF
:1029B000CDE9010604F5806029460497FEF7DCF8AE
:1029C00005B0F0BD2DE9F04F87B09B4615460E4689
:1029D0000446FEF7CFF97EB1804694F83400012812
:1029E0000ED10021A163E06D0BEB050282420FD9ED
:1029F000A06B40F0007006E0A06B40F0006002E0C9
:102A0000A06B40F00050A063012007B0BDE8F08F3C
:102A1000032084F83400626C2068012A4FF0FF32F2
:102A2000C16218BF6D0201924FEA4B224FF00209BA
:102A300002929022CDE90491012701A90392069701
:102A400001F0ACFFBBF1020F07D3C4F8309020684F
:102A5000294602F09BF830B916E027632068294622
:102A600002F0A0F880B1216840F2FF52C0F24002AB
:102A70008A63A16B0843A0630120002184F834001D
:102A8000216307B0BDE8F08FDDF84090029D40F271
:102A90002A3A05E0FEF76EF9A0EB0800484547D258
:102AA0002068426B416B12EA0A0F0FD10804F1D57E
:102AB000002DEFD0043E0827206801F0A7FF013F5A
:102AC00046F8040FF8D1203D0436E3E7BBF1020FCE
:102AD00009D311F4807106D0616C032903D002F090
:102AE00049F90028BFD12068416B090733D4416BF5
:102AF000890739D4416B89063FD42068416B89022C
:102B000044D5002D42D001F081FF46F8040B043D6E
:102B1000FEF730F9A0EB08004845EED3206840F2FC
:102B2000FF51C0F240018163A06B40F00040A2E77A
:102B3000206840F2FF51C0F240018163A06B40F079
:102B40000040A063012084F83400002020630320AB
:102B500007B0BDE8F08F40F2FF51C0F24001816341
:102B6000A06B40F0080086E740F2FF51C0F2400140
:102B70008163A06B40F002007DE740F2FF51C0F29C
:102B800040018163A06B40F0200074E740F23A51AD
:102B90008163012084F83400002007B0BDE8F08F85
:102BA0002DE9F04F87B09846154689460446FEF752
:102BB000E1F8B9F1000F0FD0824694F834000128F3
:102BC0000ED10021A163E06D08EB050282420FD90E
:102BD000A06B40F0007006E0A06B40F0006002E0E7
:102BE000A06B40F00050A063012007B0BDE8F08F5B
:102BF000032084F83400626C2068012A4FF0FF3211
:102C0000C16218BF6D0201924FEA482202929022DF
:102C1000CDE9032105910121069101A901F0BEFE34
:102C2000B8F1020F07D3202020632068294602F064
:102C3000B1F838B917E0102020632068294602F067
:102C4000B5F880B1216840F2FF52C0F240028A63B9
:102C5000A16B0843A0630120002184F834002163A4
:102C600007B0BDE8F08F109EDDF808B040F21A37CB
:102C70006D4605E0FEF77EF8A0EB0A00B0424BD2AD
:102C80002068426B416B3A4225D14804F2D5BBF132
:102C9000000FEFD0A9F104074FF0080917F8040F4F
:102CA0000090797840EA01200090B97840EA01402C
:102CB0000090F97840EA016120680091294601F00E
:102CC000A9FEB9F10109E9D1ABF1200B07F1040923
:102CD00040F21A37CEE7B8F1020F09D311F4807130
:102CE00006D0616C032903D002F044F80028A9D172
:102CF0002068416B090720D4416B890726D4416BBA
:102D0000C9062CD440F23A518163012084F8340082
:102D1000002007B0BDE8F08F206840F2FF51C0F2FC
:102D200040018163A06BA063012084F8340000207F
:102D30002063032007B0BDE8F08F40F2FF51C0F2DE
:102D400040018163A06B40F0080083E740F2FF512F
:102D5000C0F240018163A06B40F002007AE740F2CC
:102D6000FF51C0F240018163A06B40F0100071E799
:102D700070B538B10446406A30B10020206104F1DA
:102D8000140007E0012070BD6068B0F5827F03D0B9
:102D900004F11C00002101600026A66294F8510095
:102DA00020B9204684F8506000F038F8022084F8FA
:102DB000510094E8071001F48271036802F40442A0
:102DC00023F040030360236911440CF400621144B2
:102DD00003F002026369114403F00102A369E5698B
:102DE000114403F40072114405F03802256A1144BD
:102DF00005F08002A56A114305F4005211430160F9
:102E0000042101EA13414160C16921F40061C161FB
:102E10000120666584F85100304670BD70B586B0FB
:102E2000044640F60000C4F20100216800F520527B
:102E3000002691420596CDE90366029601D006B0C0
:102E400070BD41F21801C4F202010A6842F48052D6
:102E50000A600A6802F480520192019A0A6842F0FC
:102E600004020A60096801F0040101910199A0219E
:102E70000291022103910321059102A9FDF77CFE35
:102E800046F2FC653020C2F20005C4F202001021B7
:102E9000802285E843002846C5E90326C5E9056682
:102EA000EE61FDF705FE002818BFFDF7E5FBA56400
:102EB0006C6206B070BD00007047000070470000F3
:102EC000002804BF0120704710B5044690F83D006B
:102ED00028B9002084F83C00204600F01FF80220AA
:102EE00084F83D002068211D02F05AFB012084F87F
:102EF000460084F83E0084F83F0084F8400084F8DF
:102F0000410084F8420084F8430084F8440084F8C7
:102F1000450084F83D00002010BD0000704700000F
:102F200090F83D1001291CBF01207047022180F854
:102F30003D10006840F6FF32C168C4F200029042C2
:102F400041F00101C1600FDCB0F1804F1ED040F2B2
:102F50000041C4F20001884218D040F60001C4F2DA
:102F60000001884212D018E040F60041C4F200018E
:102F700088420BD043F20041C4F20101884205D0DF
:102F800042F60041C4F20101884206D1816801F095
:102F90000701062904BF00207047016841F00101C4
:102FA00001600020704700007047000010B5044623
:102FB00000680169890744BFC1685FEA81713FD435
:102FC00020680169490744BFC1685FEA417143D481
:102FD00020680169090744BFC1685FEA017148D4EC
:102FE00020680169C90644BFC1685FEAC1614CD469
:102FF00020680169C9071CBFC1685FEAC17151D16E
:1030000020680169090644BFC1685FEA016150D4C4
:1030100020680169490644BFC1685FEA41614FD435
:1030200021680869800646BFC8685FEA806010BDF5
:103030006FF0200220460A61BDE81040FFF73EBF56
:103040006FF00201016101212177806980073ED084
:103050002046FFF7A9FF40E06FF004010161022163
:103060002177806910F4407F3AD02046FFF79CFF1B
:103070003CE06FF00801016104212177C0698007FD
:1030800037D02046FFF790FF39E06FF01001016163
:1030900008212177C06910F4407F33D02046FFF724
:1030A00083FF35E06FF001010161204600F038F840
:1030B000A6E76FF0800101612046FFF7FDFEA7E75C
:1030C0006FF040010161204600F034F8A8E7204687
:1030D00000F022F8204600F021F8002020776FE76A
:1030E000204600F019F8204600F018F8002020775C
:1030F0006EE7204600F010F8204600F00FF80020A0
:1031000020776DE7204600F007F8204600F006F82B
:10311000002020776CE70000704700007047000037
:10312000006843F20041C4F20101884218BF7047B1
:10313000FDF726BE7047000081B090F84230202B8A
:1031400036D100294FF0010318BF002A31D00123E6
:10315000036300234363816222218285C285436425
:1031600080F84210016921B10168CA6842F4807296
:10317000CA6001684A6942F001024A61CA6842F0C5
:103180002002CA60026B012A16D1002200920A684E
:103190000092496800910099016851E8031F026894
:1031A00041F0100142E80313002BF5D1002300E0A9
:1031B0000223184601B070470123FAE710B50068F2
:1031C00044F60002C4F20002904218BF10BD48F657
:1031D000403449F24030C2F200040A46C2F2000014
:1031E000214605F07BFD46F62440C2F20000214650
:1031F0004FF48062FFF7A0FF20464FF48061FCF798
:10320000D2FF10BD70470000B0B582B00446006820
:103210000168C368426901F02F05202D03F02005E5
:1032200006D12DB1204602B0BDE8B04002F02ABA66
:103230005FEA017C1EBF02F0010E03F4907212EBF4
:103240000E0253D1226B012A05D111F0100218BFD2
:1032500013F0100236D10A0622D513F080021FD0D7
:1032600094F8411021293FD1A168B1F5805F03D1C5
:103270002169002900F04581216A4A1C22620978EF
:103280004160E18C01390A04E1842DD1C16821F04B
:103290008001C160C16841F04001C16002B0B0BDB1
:1032A000490621D513F040011ED0C16821F040012C
:1032B000C1602021204684F8411002B0BDE8B04032
:1032C00000F00CBB0021019101680191416801915E
:1032D00001994069400611D4A08DE18DE28D002A4C
:1032E00018BF884240F0DF8002B0B0BDC80718BFE9
:1032F00013F4807049D148074DD453E0E06B016866
:1033000049688AB2002AEFD0A38D9A42ECD2E185B7
:103310008069202831D000BF206850E8030F216861
:1033200020F4807041E80302002AF5D1206850E8BB
:10333000050F216820F0010041E80502002AF5D1BF
:10334000206850E8050F216820F0400041E80502A0
:10335000002AF5D1202084F842000020206300BF1D
:10336000206850E8030F216820F0100041E80302B4
:10337000002AF5D1E06BFDF7ABF902206063A08D68
:10338000E18D401A81B22046B6E0606C40F0010049
:103390006064480706D5BEF1000F03D0606C40F0B2
:1033A00002006064880706D5BEF1000F03D0606C90
:1033B00040F004006064BCF1000F09D545EA0E003E
:1033C000B0FA80F0400903D1606C40F008006064FE
:1033D000606C00283FF488AF11F0200018BF002D6A
:1033E00002D0204602F04EF920684069616C00F07E
:1033F000400001F00801401848D000BF206850E8A4
:10340000030F216820F4907041E80302002AF5D1EF
:10341000206850E8050F216820F0010041E805020E
:10342000002AF5D1206B01280AD100BF206850E89E
:10343000030F216820F0100041E80302002AF5D1B3
:10344000202084F842000020206320684069400664
:1034500023D500BF206850E8050F216820F0400008
:1034600041E80502002AF5D1E06BB0B145F279617F
:10347000C0F600014163FDF74BF900283FF434AF7B
:10348000E06B416B02B0BDE8B04008472046FFF753
:10349000B9FE0020606402B0B0BD204602B0BDE8B5
:1034A000B040FFF7AFBE401A216851E8031F226801
:1034B00021F4907142E80313002BF5D1216851E803
:1034C000051F226821F0010142E80513002BF5D108
:1034D000202184F842100021216300BF216851E8B7
:1034E000031F226821F0100142E80313002BF5D1DD
:1034F000022281B22046626302B0BDE8B040FFF70D
:103500005DBE216A31F8022B6FF35F2242602162B7
:10351000B7E60000002804BF0120704710B504463C
:1035200090F8410028B9002084F84000204600F0BF
:1035300061F8242084F841002068D4E90212C368AD
:1035400023F40053C360036923F440531A43026118
:10355000D4E904231143C268194341F20C639A432E
:103560001143C1604169A26921F44071114343F6DE
:103570000002C4F201029042416102D0FEF772FDE6
:1035800001E0FEF783FD6268192148439100B0FB1A
:10359000F1F048F21F51C5F2EB11A0FB01235A09CB
:1035A0004FF69C73C0F6FF7302FB0300322303EB5C
:1035B0000010A0FB0101F02303EA5113206803EB84
:1035C0000212C1F3431111448160016921F4904159
:1035D0000161416921F02A014161C16841F4005152
:1035E000C16000202021606484F8411084F84210FA
:1035F000606310BD2DE9F04186B00446006844F6D2
:103600000001C4F20001002688420596CDE9036658
:10361000029669D044F20041C4F20001884240F0B1
:10362000A58041F21800C4F20200416840F600058E
:1036300041F4003141604168C4F2010501F40031F8
:1036400001910199016802AE41F004010160006836
:1036500040F26C0800F004000190019804200290F0
:10366000022003900320059028463146C4F2020848
:10367000FDF782FA08200290002728463146CDE95E
:103680000377FDF779FA46F24075C2F20005202073
:103690008026C5E906072846C5E90087C5E9027600
:1036A000C5E90477FDF704FA002818BFFCF7E4FF2A
:1036B000E5636C6246F2847508F11400C2F20005FD
:1036C000102185E883002846C5E90367C5E9057729
:1036D000EF61FDF7EDF9002818BFFCF7CDFFA563FA
:1036E0006C6206B0BDE8F08141F21800C4F202003D
:1036F000416802AD41F480214160416801F48021BC
:1037000001910199016841F020010160006829469A
:1037100000F02000019001984FF480700290022088
:1037200003900320059040F60000C4F2010000F56C
:1037300040642046FDF720FA4FF40070CDE9020600
:10374000204629460496FDF717FA0420C4F201002A
:103750000168002241F0E06141F030010160272062
:103760000521FDF7B9FB2720FDF7A6FB06B0BDE854
:10377000F0810000704700002DE9F04381B004465D
:1037800090F8410020281DD10D4600294FF001007E
:1037900000F0A1801646002A00F09D8000206064A1
:1037A0002120984684F84100FDF7E4FAA684E684D7
:1037B000A1688146B1F5805F01D1206930B12F4603
:1037C000002504E0022001B0BDE8F0830027E08C72
:1037D000002842D008F101060AE000BF97B117F8AF
:1037E000010B21684860E08C0138E084E08CA0B3D4
:1037F000206800680006F1D4BEB1B8F1000F0ED108
:1038000016E000BF35F8020B21686FF35F204860B7
:103810000027E8E701680906E0D4002EFAD0FDF79A
:10382000A9FAA0EB0900404502D82068F2E700BFE2
:10383000206850E8030F216820F4D07041E80302AB
:10384000002AF5D1206850E8050F216820F001001A
:1038500041E80502002AF5D10AE020680068400628
:1038600035D4B8F1000F1DD018F101050CD012E0CD
:10387000202084F8410084F84200002084F84000B1
:10388000032001B0BDE8F083206800BF016849064D
:103890001DD4002DFAD0FDF76DFAA0EB09004045CC
:1038A000F2D900BF206850E8030F216820F4D070DF
:1038B00041E80302002AF5D1206850E8050F21688D
:1038C00020F0010041E80502002AF5D1D0E72020D0
:1038D00084F84100002001B0BDE8F083704700008B
:1038E000012818BF704780B582B04AF21A604AF2C8
:1038F000FE514FF0000CC0F60000C0F6000102229D
:103900000123CDF800C0CDF804C004F037FB02B0AD
:1039100080BD0000012818BF704780B582B04AF210
:1039200014604AF2FE514FF0000CC0F60000C0F6E1
:10393000000102220123CDF800C0CDF804C004F03C
:103940001DFB02B080BD0000012818BF704710B5F4
:1039500082B04AF214604AF2D0510024C0F600004E
:10396000C0F60001022201230094019404F006FB3A
:103970004AF217604AF2A251C0F60000C0F60001F8
:10398000022201230094019404F0F8FA4AF21A602A
:103990004AF27451C0F60000C0F600010222012371
:1039A0000094019404F0EAFA02B010BD012818BF97
:1039B000704710B582B04AF214604AF27451002484
:1039C000C0F60000C0F60001022201230094019419
:1039D00004F0D4FA4AF217604AF2A251C0F600008D
:1039E000C0F60001022201230094019404F0C6FAFB
:1039F0004AF21A604AF2D051C0F60000C0F6000147
:103A0000022201230094019404F0B8FA02B010BD20
:103A1000012818BF7047B0B582B04AF2A2544AF2EA
:103A20001460C0F600040025C0F600002146022202
:103A300001230095019504F0A1FA4AF217604AF2B9
:103A40007451C0F60000C0F6000102220123009567
:103A5000019504F093FA4AF21A60C0F6000021467C
:103A6000022201230095019504F088FA02B0B0BD4E
:103A700041F20040C4F201002021FDF76FB90000BF
:103A800041F20040C4F201008021FDF767B9000057
:103A900040F60000C4F201000121FDF75FB900000B
:103AA00041F60000C4F201000121FDF757B9000002
:103AB00041F20040C4F201004021FDF74FB900007F
:103AC000024641F20040C4F201000221FDF74CB968
:103AD000024641F20040C4F201000821FDF744B95A
:103AE000024641F20040C4F201001021FDF73CB94A
:103AF00080B5082006F06AFC014600284FF000005F
:103B00001CBF4860084680BDB0B578B105460820A6
:103B10000C4606F05BFC48B12A466D68002DFBD1CF
:103B20000021C0E9004150600846B0BD0120B0BD91
:103B3000B0B5D0F89052044695F8180280B12046EE
:103B4000812102F013FB687A022818BFB0BD05F589
:103B50000372204601211F23BDE8B04002F06EBA77
:103B6000D5F814020028EAD0687A0028E7D1204668
:103B7000012102F0FBFAE2E7B0B5D0F8905204461A
:103B8000687A022806D12046812102F0EFFA00204F
:103B90006872B0BD49B2B1F1FF3FFADC012808BF3D
:103BA000B0BD45F25530C5F24230C5F82C020120B7
:103BB00085F83802002005F50B7228722046812115
:103BC0000D2302F001FB05F50372204601211F239E
:103BD000BDE8B04002F032BAB0B5D0F89052044619
:103BE000287AC11E02290BD245F25530C5F2423067
:103BF00005F50B72C5F82C02002085F8380219E093
:103C0000022827D195F8191205F21B22204600F050
:103C100009FBB0F1FF3FC8BFB0BDD4F8905245F2E8
:103C20005530C5F24230C5F82C02012005F50B7263
:103C300085F8380200202872204681210D2302F0E9
:103C4000C3FA05F50372204601211F23BDE8B040E9
:103C500002F0F4B9B0BD000070B5D0F8905204463F
:103C6000287A012835D0002875D1D5E98401C5E925
:103C70008C012046012102F05DF91F2811D1D5F8F1
:103C80000C0245F25531C4F24231884209D195F80F
:103C90001912012905D895F81A02113810F1110FDF
:103CA0004DD895F8191220460522202300F062FE17
:103CB000D4F89062022196F81802697298B32046EF
:103CC000812102F053FA707A022844D106F503727A
:103CD00022E095F8191205F21B22204600F0A2FA04
:103CE000B0F1FF3FC8BF70BD45F25530D4F89052D7
:103CF000C4F2423000F18050C5F82C02012085F852
:103D00003802002005F50B722872204681210D2310
:103D100002F05AFA05F50372204601211F23BDE87F
:103D2000704002F08BB9D6F814020028C7D0707A20
:103D30000028C4D12046012102F018FABFE705F29D
:103D40001B22204600F06EFA297AB0F1FF3F03DD16
:103D5000481E032808D270BD204605290DD1012137
:103D6000BDE8704000F046B86A8952B105F10C0117
:103D70002046BDE8704000F05BB8BDE87040FFF73A
:103D8000D7BE20460021BDE8704000F033B80000E7
:103D9000D0F890020021017270470000B0B50446CF
:103DA000D0E9A45000212981A5F85C120168002007
:103DB00088472046012102F0ABF82046812102F01D
:103DC000A7F805F50372204601211F23BDE8B04086
:103DD00002F034B980B5D0F890C24FF4807E0CF573
:103DE000037201211F23ACF808E0BDE8804002F017
:103DF00025B90000B0B50446D0F8905245F25530D0
:103E0000C5F24230C5F82C02002005F50B7285F88A
:103E100038122872204681210D2302F0D5F905F5CC
:103E20000372204601211F23BDE8B04002F006B90D
:103E300010B5D0F890E28C46DEF83412DEF8143279
:103E4000891A934228BF1346CEF834120021042465
:103E50008EF83812812162468EF80840BDE8104085
:103E600002F0B2B980B582B041F21400C4F202008F
:103E70000168002241F0010101600068052100F0A5
:103E80000100019001980D20FDF726F80D20FDF7A7
:103E900013F8102005210022FDF71EF81020FDF771
:103EA0000BF8112005210022FDF716F8112002B0B1
:103EB000BDE88040FDF700B880B54AF2FC4045F20D
:103EC0009C41C0F60000C2F20001FCF7DBFB47F2A8
:103ED0001871C2F20001087080BD000080B545F283
:103EE00085104AF24452C0F60000C0F600020021DC
:103EF00004F08CF946F22C41C2F20001086080BD4A
:103F00002DE9F04F85B04FF0000841F21800CDE9DF
:103F10000388CDE90188C4F20200016840F6000977
:103F200041F0100101600168C4F2010901F01001C3
:103F300000910099016809F5006741F004010160F2
:103F40000168002201F00401009100990168382401
:103F500041F020010160016801F020010091009909
:103F6000016841F0400101600068382100F0400024
:103F7000009000983846FCF7F7FE484610210022D2
:103F80004FF0100BFCF7F0FE09F5406528461A21AA
:103F900001224FF0010AFCF7E7FE01AECDE9014A2C
:103FA000022438463146CDE90344FCF7E5FD484696
:103FB0003146CDE901A80394FCF7DEFD48463146C1
:103FC000CDE901BACDE90344FCF7D6FD4FF40E600C
:103FD000CDE90108284631460394FCF7CDFD1A20AF
:103FE000CDE9010A28463146CDE90384FCF7C4FD3A
:103FF00009F580503146CDE901A80394FCF7BCFDDA
:1040000005B0BDE8F08F000046F6B82048F2000188
:10401000C2F20000C4F201010022C0E90012C0E9AE
:10402000022210304FF480434FF0060C80E80C1051
:104030007047000080B546F63C3043F20001C2F202
:104040000000C4F201014FF4827200234FF4007C9F
:1040500080E80E000A21C0E90333C0E9053CC361D2
:10406000C0E90833C0E90A31FEF782FE002808BF24
:1040700080BDBDE88040FCF7FFBA000080B546F681
:10408000DC3044F20041C2F20000C4F2000100231F
:104090004FF00C0C4FF4E13280E80E00C0E903331E
:1040A000C0E905C3C361FFF735FA002808BF80BD2A
:1040B000BDE88040FCF7E0BA80B546F6244044F6FF
:1040C0000001C2F20000C4F2000100234FF00C0C0A
:1040D0004FF4E13280E80E00C0E90333C0E905C3C4
:1040E000C361FFF717FA002808BF80BDBDE8804014
:1040F000FCF7C2BA80B546F2604040F20C01C2F251
:104100000000C2F20001002201F020FE002818BFCA
:10411000FCF7B2FAFCF700FA01281AD0A0BB46F26D
:10412000604040F23001C2F20000C2F2000102F031
:1041300079F9002818BFFCF79FFA46F2604040F278
:104140007011C2F20000C2F2000101F0F1FBC8B927
:104150001AE046F2604040F28411C2F20000C2F25E
:10416000000102F05FF9002818BFFCF785FA46F25B
:10417000604040F22821C2F20000C2F2000102F0C9
:10418000A3F808B1FCF778FA46F26040C2F20000EA
:1041900002F05EF9002808BF80BDBDE88040FCF752
:1041A0006BBA000080B546F2C87045F60041C2F215
:1041B0000000C4F200010822022380E80E00002162
:1041C000C0E906110162FDF7C9FC002808BF80BDE7
:1041D000BDE88040FCF750BAFEE70000FEE70000B3
:1041E000EFF30980BFF36F8F0D4B1A6820E9F00FD2
:1041F00010602DE908404FF0500080F3118805F061
:104200001FF84FF0000080F31188BDE808401968DE
:104210000868B0E8F00F80F30988BFF36F8F70472C
:104220005C7200202DE9F04182B0164612780446F7
:104230005A2A00F277800D46DFE812F05B00740026
:1042400074008900740074007400740074007400B9
:1042500074007400740074007400740074007400BE
:10426000B60074007400740074007400740074006C
:10427000D700EB0074007400F00074007400740048
:104280007400F50074001A01740074003A0174009F
:1042900078017400740074007400B101740074003B
:1042A000740074007400740074007400740074006E
:1042B000740074007400740074007400740074005E
:1042C000740074007400740074007400740074004E
:1042D000740074007400740074007400740074003E
:1042E000740074007400740074007400740074002E
:1042F000D001D4F89062D6F81402002800F0A4810E
:1043000096F85D02052206EBC0010024013081F819
:104310003C2281F84042C1B2043918BF014686F8F8
:104320005D1222E3D4F89002052390F85D12FF2479
:1043300000EBC10282F83C320023013182F84032A6
:10434000CAB2043A18BF0A4680F85D220DE3D4F8D9
:1043500090020021C160016181838161416190F817
:104360005C1290F85D327022027399424FF00C0299
:10437000C27411D000EBC10292F83C3292F8407244
:1043800092F8412201310276CAB2043A8373477629
:1043900018BF0A4680F85C2212214181317900243D
:1043A000122998BF4181E0E27078D4F89012C007DA
:1043B00040F02781D4F8940205EBC503C26902EBF3
:1043C0008300077930790537874238BF384600289F
:1043D000488100F0F0819B001A440B31013A00241F
:1043E000135C0B540138FBD1BFE2D4F890020821D2
:1043F0004AF2EC42418113300021C0F6000200BFB6
:104400005318DB794354013911F10803F8D1002422
:10441000ABE2D4F8900200244481A6E2D4F89002E2
:1044200000244481A1E2D4F89062002777613761CB
:10443000F760D4F89402694643680DF106022846F5
:104440009847002800F01E81D4F89002022390F8CB
:104450005D12002400EBC102013182F83C3282F887
:104460004072CAB2043A18BF0A4680F85D227CE264
:10447000D4E9A460436806F5187106F25E22284666
:104480009847002800F01481D4F89002022390F895
:104490005D12002400EBC102013182F83C3282F847
:1044A0004042CAB2043A18BF0A4680F85D225CE274
:1044B000D4F89072387A002800F00E814FF400761C
:1044C0007E81D4E9A470D7F86812B7F85E32D7F8C5
:1044D00064225943B1F5007F38BF0E46D0F810C0B2
:1044E000B6FBF3F307F10C0828464146E047B0F16C
:1044F000FF3F40F32A81B3B220468121424601F0BA
:1045000063FEB7F85E02D7E99923B6FBF0F0D7F85F
:1045100034120244181AC7E99920A1EB0600C7F823
:10452000340204BF0320387200241EE2D4F89072D3
:10453000387A002800F0E680D7F86802B7F85E12F3
:10454000D7F8642200FB01F6D4F89402B6F5007F98
:1045500028BF4FF40076D0F814C0B6FBF1F307F192
:104560000C0828464146E047B0F1FF3F40F3018187
:10457000B7F85E02D7F83422B6FBF0F1D7E99935E7
:10458000921B0B44691AC7E99931C7F8342240F0ED
:104590000481204600210024FFF72CFCE5E171781E
:1045A000D4F8900289073DD4D0F86822D0E9983138
:1045B0001144994240F2C68090F85D12052300EB49
:1045C000C1020024013182F83C3282F84042CAB272
:1045D000043A18BF0A4680F85D22C6E1D4F890027A
:1045E00008214AF2E442418113300021C0F6000262
:1045F0005318DB794354013911F10803F8D1002431
:10460000B3E107204AF2F442488101F1120000218F
:10461000C0F6000253189B7943540139CB1DF9D1E0
:104620000024A2E190F85D12052300EBC1020024F2
:10463000013182F83C3282F84042CAB2043A18BFD3
:104640000A4680F85D2290E1D4F8940281682846F9
:104650008847002800F0B180D4F89002022390F837
:104660005D12002400EBC102013182F83C3282F875
:104670004042CAB2043A18BF0A4680F85D220520BB
:10468000307272E100990820F073481E010E3174F7
:10469000010C7174010AB174BDF80610F0740220A7
:1046A000B08208BA000CF0820C20708100245CE11A
:1046B000D6F8600200240138010E3173010C7173C9
:1046C000010AF073B6F85E02B17300BA000C708292
:1046D00008203482708148E197F9180200286FD4CD
:1046E00097F85D02052207EBC0010024013081F834
:1046F0003C2281F84042C1B2043918BF014687F814
:104700005D1232E197F91802B0F1FF3F73DDD4F882
:10471000940281682846884700287ED0D4F8900209
:10472000022390F85D12002400EBC102013182F8EF
:104730003C3282F84042CAB2043A18BF0A4680F8B6
:104740005D2212E1002444810FE1D4F89002042399
:1047500090F85D12002400EBC102013182F83C3276
:1047600082F84042CAB2043A18BF0A4680F85D2275
:10477000FBE0D4F89002042390F85D12002400EBD3
:10478000C102013182F83C3282F84042CAB2043A96
:1047900018BF0A4680F85D22E7E001FB00F32046DF
:1047A00001214246B3F5007F28BF4FF4007301F0AA
:1047B00045FC0024D9E00024D7E000247481D4E033
:1047C000D4F8940281682846884700283FD0D4F85E
:1047D0009002022390F85D12002400EBC102013127
:1047E00082F83C3282F84042CAB2043A18BF0A4604
:1047F00080F85D22B9E097F85D02052207EBC00161
:104800000024013081F83C2281F84042C1B20439D1
:1048100018BF014687F85D12A7E0D4F89402C1687A
:1048200028468847C0B3D4F89002022390F85D125E
:10483000002400EBC102013182F83C3282F8404290
:10484000CAB2043A18BF0A4680F85D228DE0D6F855
:10485000020001BAC7F86412B6F80720D4F8900233
:1048600013BAD0F8606201EB134351BAB342C7F8F0
:10487000681236D990F85D12052300EBC1020024BE
:10488000013182F83C3282F84042CAB2043A18BF81
:104890000A4680F85D2268E0D6F8020001BAC7F83F
:1048A0006412B6F80720D4F8900213BAD0F8606208
:1048B00001EB134351BAB342C7F868122DD990F8EF
:1048C0005D12052300EBC1020024013182F83C3265
:1048D00082F84042CAB2043A18BF0A4680F85D2204
:1048E00043E0B7F85E32D7F81462594302228E4291
:1048F0003A723FF4E3AD90F85D12052300EBC1027C
:104900000024013182F83C3282F84042CAB2043AB3
:1049100018BF0A4680F85D2227E0B7F85E22D7F874
:10492000146201FB02F39E420ED10120B3F5007F19
:1049300028BF4FF40073387207F10C0220460121A2
:1049400001F07CFB002410E090F85D12052300EBE1
:10495000C1020024013182F83C3282F84042CAB2DE
:10496000043A18BF0A4680F85D2260B202B0BDE882
:10497000F0810000D0F8900290F85D1200EBC103C6
:1049800083F83C220022013183F84022CAB2043A63
:1049900018BF0A4680F85D227047000080B50246C5
:1049A00091E809505062936208694EEA0C0318437B
:1049B0004969D36A084323F0F70101430020D1621B
:1049C00080BD0000006800F00300704708444069A3
:1049D0007047000010B58446DDE9024011431943D9
:1049E0002143DDF810E00843DCF8041047F6FF62CD
:1049F00040EA0E00914301430020CCF8041010BDA2
:104A00000146032200200A6070470000D0F88000B1
:104A100070470000096802460020C2F88010704705
:104A20008160C36840F2774161F30B03372141F2A3
:104A30008832C36000F0C6B941F0004141F48011F2
:104A40008160C16840F2694262F30B01C16040F2CB
:104A50002C01C2F20001096844F6D352C1F262028D
:104A6000A1FB0212510A41F288325143C94300BFEF
:104A7000013124BF4FF000407047426B12F0450FE8
:104A8000F6D012F40062F3D1416B042211F004015C
:104A900008BFC52282630846704700008160C36872
:104AA0004FF48A6161F30B03102141F28832C36035
:104AB00000F088B98160C36840F2464161F30B039E
:104AC000062141F28832C36000F07CB90021816088
:104AD000C1684FF4806262F30B01C16040F22C01A7
:104AE000C2F20001096844F6D352C1F26202A1FB8E
:104AF0000212510A41F288325143C943013124BFA5
:104B00004FF000407047426B1206F7D5C521816314
:104B1000002070474FF4D5718160C1684FF48962FD
:104B200062F30B01C16040F22C01C2F2000109687E
:104B300044F6D352C1F26202A1FB0212510A41F2C1
:104B400088325143C94300BF013124BF4FF00040B8
:104B50007047426B12F0450FF6D012F40062F3D1A9
:104B6000416B490709D4416BC90709D1416B49061B
:104B70004FF0000107D5402204E00422042101E0A7
:104B80000122012182630846704700008160C368EA
:104B900040F2524161F30B03122141F28832C360AB
:104BA00000F010B98160C36840F2514161F30B031A
:104BB000112141F28832C36000F004B98260C368F9
:104BC00040F2474161F30B03072141F28832C36091
:104BD00000F0F8B800218160C16840F2C24262F37F
:104BE0000B01C16040F22C01C2F20001096844F6D9
:104BF000D352C1F26202A1FB0212510A41F2883281
:104C00005143C943013124BF4FF000407047426B0C
:104C100012F0450FF6D012F40062F3D1416B490750
:104C200006D4416BC90705D1C521816300207047B7
:104C3000042100E001218163084670478160C1685A
:104C400040F2C94262F30B01C16040F22C01C2F292
:104C50000001096844F6D352C1F26202A1FB0212BC
:104C6000510A41F288325143C94300BF013124BF88
:104C70004FF000407047426B12F0450FF6D012F42F
:104C80000062F3D1416B490706D4416BC90705D1D6
:104C9000C521816300207047042100E00121816368
:104CA0000846704700218160C36840F2734161F398
:104CB0000B03332141F28832C36000F083B8000057
:104CC0008160C36840F24D4161F30B030D2141F255
:104CD0008832C36000F076B800228260C26840F279
:104CE000434363F30B02C26040F22C02C2F20002A3
:104CF000126844F6D353C1F26203A2FB03235A0A9B
:104D000041F288335A43D243013224BF4FF000406E
:104D10007047436B13F0450FF6D013F40063F3D1E3
:104D2000426B52071BD4426BD2071AD10269D2B22E
:104D3000032A1CBF01207047C5228263406910F41A
:104D4000604F12D0410444BF4FF40050704700043C
:104D50004FF4805158BF4FF480310846704704210A
:104D600000E00121816308467047000C08800020A4
:104D70007047000000218160C36840F24C414EF250
:104D8000001261F30B03C0F2F5520C21C36000F076
:104D900019B800008160C36840F2594161F30B0308
:104DA000192141F28832C36000F00CB88160C368F9
:104DB0004FF48B6161F30B03182141F28832C36019
:104DC000AFF3008040F22C03C2F20003D3F800C01E
:104DD00044F6D353C1F26203ACFB033C03464FEAF3
:104DE0005C205043013000BF013804BF4FF0004049
:104DF00070475A6B12F0450FF6D012F40062F3D1EF
:104E0000586B400742BF042098637047586BC00737
:104E10001EBF012098637047C52098631869C0B20F
:104E200088421CBF0120704758694EF20801CFF636
:104E3000FF51084204BF00207047002844BF4FF0D4
:104E400000707047410044BF40207047810044BF5C
:104E500080207047C10044BF4FF48070704701014B
:104E600044BF4FF400707047410144BF4FF480606D
:104E70007047C10144BF4FF400607047010244BF56
:104E80004FF480507047410244BF4FF400507047C8
:104E9000810244BF4FF480407047C10244BF4FF4C9
:104EA00000407047410344BF4FF400307047810316
:104EB00044BF4FF480207047C10344BF4FF400202B
:104EC0007047010444BF4FF480107047410444BF51
:104ED0004FF400107047810444BF4FF480007047C6
:104EE00000074FF4000058BF4FF4803070470000B7
:104EF0002DE9F04188B00C460546FBF73BFF06461E
:104F000000212868019100910821FFF7C7FD10B129
:104F100008B0BDE8F081296D28680904FFF780FD1D
:104F20000028F5D14FF0FF30029008200390302088
:104F30000490022005900020069001212868079126
:104F400002A9FFF72BFD2868FFF7ACFE0028DFD190
:104F50000027E8460DE000BF0846FFF757FD48F878
:104F600027000137FBF706FF801B01304FF00040A0
:104F7000CED02968486B10F02A0F05D1486B80020B
:104F8000EAD4486B8004EDD4486B000712D4486B18
:104F9000800711D4486B800610D440F23A508863E1
:104FA000DDE9001000BA09BAC4E90001002008B028
:104FB000BDE8F081082002E0022000E020208863A4
:104FC00008B0BDE8F081000010B540F22804C2F23C
:104FD000000401202070FBF7B3F908B1207810BD60
:104FE000207800F0FE002070207810BD10B588B049
:104FF00040F22800C2F200000078C0070CD1084639
:1050000003290CD81446DFE800F00B020D136846A4
:10501000FBF782F906980FE0032008B010BD0420CA
:1050200008B010BD6846FBF777F90798208004E0C8
:105030006846FBF771F907982060002008B010BDA2
:1050400010B59C464EF200130846C0F2F5531146C7
:105050006246FBF79BF940B947F65F14CFF6FE7442
:10506000FBF762F918B10134FAD3012010BD00201A
:1050700010BD000010B540F22804C2F20004012067
:105080002070FBF751F908B1207810BD207800F0AE
:10509000FE002070207810BD10B59C464EF2001323
:1050A0000846C0F2F55311466246FBF783F940B952
:1050B00047F65F14CFF6FE74FBF736F918B10134EA
:1050C000FAD3012010BD002010BD000046F6B82C18
:1050D000C2F2000CDCF854304CF6CD40CCF6CC409B
:1050E000A3FB0003980A0860DCF858100020118028
:1050F00070470000002070470020704780B546F6DA
:10510000B820C2F20000FDF7DFFA013818BF012015
:10511000400080BD0020704780B582B046F6B820C0
:105120004FF47A7CC2F20000CDF800C0FDF74AFCD3
:10513000002818BF0120400002B080BD80B582B0B9
:1051400046F6B8204FF47A7CC2F20000CDF800C0D9
:10515000FDF726FD002818BF0120400002B080BDE9
:10516000074B19680868B0E8F00F80F30988BFF3AF
:105170006F8F4FF0000080F311884EF00D0E7047D6
:105180005C7200200A2002F0E7FFFBE741F22059A1
:10519000C2F200094FF0640A4FF0380803E000BF84
:1051A000012002F0D9FFD9F8000047685FB9F7E79E
:1051B000288A00F03C0120F4707040EA0110288237
:1051C0007F68002FECD03D6868690028F8D08047E0
:1051D000298A0446C1F34000A0421FD1FBF7CAFD53
:1051E000298AD5F804C0AB684E0B1CF83620C31AC8
:1051F000934275D9084664F30000E2074FEA910430
:10520000288219D114F00F0201D0052A1ED101F015
:105210003C01142964D120F03C0060E004F001005E
:1052200021F0020141EA40002882FBF7A3FD7F68DC
:10523000A860002FC7D1B3E704F00F04012C0AD0F7
:1052400044BB40F0040020F0380048E040F0140077
:1052500020F0280043E00CEBC602527802FB0AF271
:10526000934217D940F0080020F034002882FBF761
:1052700081FD298A6A6808EA91231A44EB689279C9
:10528000C01A02FB0AF2904217D241F0180020F037
:10529000240024E001F03C060C2E14D0082E1FD16F
:1052A00008EA91226244528802FB0AF2934208D92A
:1052B00040F00C0020F0300011E0FBF75BFDE860EF
:1052C0000EE00C2E0CD108EA91216144898801FB83
:1052D0000AF18B4204D940F0100020F02C00288203
:1052E000288AC0F38311C0F3830081423FF460AF8A
:1052F000A969002918BF88475AE7000040F2FF7AE1
:1053000045F2A04BCFF6F07AC2F2000B4FF00A093B
:1053100003E000BF012002F01FFF45F29440C2F2FB
:1053200000000068466886B9F4E700BFD8F814109A
:10533000002088479BF80000B0F10A0118BF411C0B
:1053400076688BF80010002EE4D0D6F80080D8F8EC
:105350000C0018B3FBF70EFDD8E90341D8F8043070
:10536000C1F3841505EBC51203EB420292F80071FC
:10537000001B07EB8707B0EB470F19D945EAC510AB
:1053800003EB4003C1F3C72001301B5C002B4CD062
:1053900001EA0A0141EAC02002E000BFD8F810008B
:1053A00040F40020C8F81000FBF7E4FCC8F80C003B
:1053B000D8F81000D8F80410C0F3841202EBC2121F
:1053C00001EB4201C0F3C7228B5C303B112B6BD841
:1053D0000FF2080707EB8307BF4600BF00F022B8B3
:1053E00000F03AB800F03AB800F03AB800F03AB835
:1053F00000F03AB800F03AB800F03AB800F03AB825
:1054000000F03AB800F050B800F04EB800F04CB8D8
:1054100000F04AB800F048B800F046B800F044B8D0
:1054200000F04DB820F470002AE092F80101400726
:1054300048D4880642BF21F4FC6061F38A10C8F8A2
:105440001000D8F8100020F40020C8F8100076688A
:10545000002E7FF47AAF5DE701210FE002210DE01D
:1054600003210BE0042109E0052107E0062105E006
:10547000072103E0082101E0092100BF61F3175073
:10548000C8F81000D8F810009BF80010C0F30350C3
:10549000884298BF0A283FF649AFD8F8141000296F
:1054A0003FF444AF012044E7D8F8183040F47000CE
:1054B000002BC8F81000E5D088189847E2E769F398
:1054C0001750DDE701EA0A006AE7000080B54FF0F7
:1054D000500080F31188BFF36F8FBFF34F8F04F03C
:1054E000EBFA30B14EF60450CEF200004FF080518E
:1054F0000160002080F3118880BD000070B596B077
:105500000CAC20462821FAF74EFE01200C9010909A
:105510004FF4E01000254FF480310226159020460C
:105520000B95CDE90955CDE90755CDE90555CDE9EF
:105530000355CDE90155CDE90D15CDE91361FCF712
:10554000B9FD20B1EFF3108072B600BFFEE70F2067
:10555000CDE907064FF48060CDE90A0507A80221CE
:105560000995FCF77FFC20B1EFF3108072B600BF05
:10557000FEE7102001900020069001A8FCF7EEFB4A
:1055800018B1EFF3108072B6FEE716B070BD0000E0
:105590007047000046F69430C2F20000FDF706BDE9
:1055A00010B540F6FF3E0368C4F2000E43F2004C13
:1055B0007045C4F2010C20DCB0F1804F2BD040F2DA
:1055C0000042C4F20002904225D040F60002C4F22C
:1055D000000290421FD0704523DCB0F1804F2ED0E6
:1055E00040F20042C4F20002904228D040F600028D
:1055F000C4F20002904222D025E040F60042C4F2FC
:105600000002904207D0604505D042F60042C4F245
:1056100001029042DFD14A6823F0700313437045C2
:10562000DBDD40F60042C4F20002904207D0604544
:1056300005D042F60042C4F20102904203D1CA688A
:1056400023F44073134323F080024B69D1F800E048
:105650008C681A4360450260C462C0F828E005D037
:1056600042F60042C4F20102904201D1096901638D
:105670000121416110BD0000406A0021C185C18443
:10568000FDF7C0BD81B090F8421022291DD182687B
:10569000B2F5805F02D10169002948D0816AB2F574
:1056A000805F07D00AB9026922B10268526802F02D
:1056B0007F0201E0026852680A70816A01318162EA
:1056C000C18D01390A04C18501D001B0704701685C
:1056D000CA6822F02002CA60CA6822F48072CA60D6
:1056E0004A6922F001024A61202180F8421000211B
:1056F0004163026B012A23D1016300BF016851E8B5
:10570000031F026821F0100142E80313002BF5D1BA
:1057100001680A68D20606D5002200920A68009243
:10572000496800910099818D01B0FDF747BD01687E
:10573000826A49686FF35F2122F8021B8262BFE729
:1057400001B0FEF717B8000046F62440C2F2000090
:10575000FDF75ABD10B5D0F89022C2B101EB81031C
:1057600000EB830E5EF81C4F64B1D0F898C201EBD9
:1057700081030CEBC303D3F838C0B4FBFCF303FB89
:105780001C4333B100242046C2F8144210BD02204D
:1057900010BD002400220023CEF8004000F014FDCC
:1057A000204610BDB0B5D0F89052044600F0C2FBC0
:1057B000D4F89012C5F80C0249B1D4F8940205F55A
:1057C0000371C268D5F8040290470020B0BD0220E2
:1057D000B0BD0000B0B58121044600F0E1FA00251B
:1057E00020460121E56200F0DBFA20468221C4F860
:1057F000585100F0D5FAD4F89002256448B1D4F895
:10580000940240688047D4F8900201F0BFF8C4F8D1
:1058100090520020B0BD000010B5D0F8941269B1CC
:10582000D0F8904294F80002FF2807D08B6894F8D3
:10583000012221469847FF2084F80002002010BD75
:10584000014640F2F0000A22C2F200000A807047CE
:10585000014640F268004322C2F200000A8070470D
:10586000014640F2AC004322C2F200000A807047B9
:10587000014640F204104322C2F200000A80704741
:10588000F0B581B00546007C4027002808BF4FF4E2
:1058900000772846812102223B46402400F0BAFBD3
:1058A00001262846012102223B46EE6200F0B2FBAF
:1058B0002846822103220823C5F8586100F0AAFB7C
:1058C0004FF407702E6401F063F8C5F89002A8B198
:1058D0000746D5F89402006880470026C7F814628E
:1058E000C7F81862287CD7F80422002808BF4FF4B4
:1058F000007428460121234600F0A0FB304601B089
:10590000F0BD000080B5D0F8901271B190F810C0D1
:10591000D1F8042240230121BCF1000F08BF4FF44D
:10592000007300F08BFB002080BD022080BD0000D2
:1059300000290EBF0220C0F894120020704700001A
:10594000D0F890220020C2F804127047D0F89032AC
:105950000020C3F80812C3F81022704770B582B057
:105960000446D0F8906291F900000D46002210F034
:1059700060018DF80720ADF8042011D0202920D136
:10598000EA8822B3B0F1FF3F3CDD6878314686F803
:105990000002204686F8012200F080F8002455E03D
:1059A00068780B281CD00A2820D0C0BB94F8740259
:1059B00003283AD101A92046022200F089F80024E8
:1059C00044E02046294600F05DF802243EE0D4F889
:1059D000940229468368687800220024984735E0BD
:1059E00094F87402032826D100242FE094F874025E
:1059F000032826D10DF107012046012200F068F8A6
:105A0000002423E0D4F894023146836868789847EC
:105A1000EA882046314600F05BF8002416E0204674
:105A2000294600F02FF8022410E02046294600F015
:105A300029F802240AE02046294600F023F802242F
:105A400004E02046294600F01DF80224204602B05A
:105A500070BD000080B5D0F88C22526890470020BD
:105A600080BD000080B513460A46002100F0E6FA2A
:105A7000002080BD80B513460A46002100F0A4FB3B
:105A8000002080BD10B58021044600F06FFB204649
:105A90000021BDE8104000F069BB000080B513464E
:105AA0000A460321C0F86C120021C0E9523300F00D
:105AB000C5FA002080BD000080B50521C0F86C1239
:105AC00000210022002300F0B9FA002080BD000070
:105AD00080B513460A460221C0F86C120021C0E9C5
