:020000040800F2
:1000000068BD0020450100080142000869010008A0
:10001000FD410008ED030008B57200080000000073
:100020000000000000000000000000005151000826
:100030002905000800000000114200085155000881
:100040005F0100085F0100085F0100085F01000810
:100050005F0100085F0100085F0100085F01000800
:100060005F0100085F0100085F0100085F010008F0
:100070005F010008F90400085F0100085F01000843
:10008000110500081D0500085F0100085F01000858
:10009000157200085F0100085F0100085F01000899
:1000A0005F0100085F0100085F0100085F010008B0
:1000B0005F0100085F0100085F0100085F010008A0
:1000C0005F0100085F0100085F0100085F01000890
:1000D0005F0100085F0100085F010008C1570008C8
:1000E0005F0100085F0100085F0100085F01000870
:1000F000195600085F0100085F0100085F01000851
:100100005F0100085F0100085F0100085F0100084F
:100110005F0100085F0100085F0100085F0100083F
:100120005F0100085F0100085F0100085F0100082F
:10013000DFF80CD000F094F8004800477DA60008D6
:1001400068BD00200648804706480047FEE7FEE7F6
:10015000FEE7FEE7FEE7FEE7FEE7FEE7FEE7FEE777
:1001600015560008310100087046694607F0ACF9E1
:10017000FFF7FEFF40EA01039B0703D009E008C92F
:10018000121F08C0042AFAD203E011F8013B00F85C
:10019000013B521EF9D27047D2B201E000F8012BA8
:1001A000491EFBD270470022F6E710B513460A46F7
:1001B00004461946FFF7F0FF204610BD10B504466F
:1001C00004E00B7800F8013B03B1491C521EF8D241
:1001D000204610BD421C10F8011B0029FBD1801ADB
:1001E000704710B5002200E0521C835C8C5CA34277
:1001F00001D1002BF8D1D8B2E1B2401A10BD2DE9DF
:10020000F05F0546002092469B468846064681469A
:1002100040241BE0284641464746224600F047F866
:1002200053465A46C01A914110D3114618462246E9
:1002300000F02EF82D1A67EB01084F4622460120E8
:10024000002100F025F817EB00094E41201EA4F113
:100250000104DFDC484631462A464346BDE8F09FAC
:100260001CB509480090094801900546009C06E02D
:10027000E06840F0010394E8070098471034AC426E
:10028000F6D3FFF759FF000098890308B8890308DF
:10029000202A04DB203A00FA02F100207047914046
:1002A000C2F1200320FA03F3194390407047202A3B
:1002B00004DB203A21FA02F00021704721FA02F310
:1002C000D040C2F12002914008431946704770B5F2
:1002D0008C1810F8015B15F0070301D110F8013BF1
:1002E0002A1106D110F8012B03E010F8016B01F878
:1002F000016B5B1EF9D12B0705D40023521E0DD4D0
:1003000001F8013BFAE710F8013BCB1A921C03E01D
:1003100013F8015B01F8015B521EF9D5A142D8D355
:10032000002070BD014646F68C70C2F2000002F05B
:10033000F5B9000080B546F68C70C2F2000002F0FC
:10034000FFF9043818BF012080BD000010B500F08F
:100350001DF801281CBF012010BD46F68C70C2F2AA
:10036000000002F00BFA002818BF10BD46F68C7191
:10037000C2F20001044608464FF4006102F082F820
:1003800001462046002918BF012010BD81B0012080
:100390008DF803009DF8030001B0704780B582B06E
:1003A0009C4613460A46014646F68C70C2F200008F
:1003B000CDF800C002F052FB002818BF012002B0A7
:1003C00080BD000080B582B09C4613460A460146B7
:1003D00046F68C70C2F20000CDF800C002F02CFC92
:1003E000002818BF012002B080BD0000FEE7000019
:1003F000212822D0202833D180B582B040F2FC02DF
:100400004879C2F20002D1F800C00B7950718879A6
:100410001371C2F800C090714FF0000C11A012A12E
:1004200002220123CDF800C0CDF804C009F08AFCF7
:1004300002B0BDE880400020704740F2FC00C2F2EC
:10044000000002680A700268120A4A7042888A70C4
:10045000C278CA7002790A7142794A7180798871CA
:10046000002070475732000031353741414141414A
:1004700041414139383736353433323130000000AC
:100480000020704710B546F63414C2F2000446F25C
:100490008831C2F200012046002205F095FA45F6A7
:1004A0008871C2F20001204605F088FA002010BDD4
:1004B00070B582B046F634160546C2F200060C4608
:1004C0003046294605F07AFA304605F059FA216897
:1004D000284600F029F942F6D041002605A0C0F6D2
:1004E0000201012201230096019609F02BFC002055
:1004F00002B070BD5731000080B50AF077F846F6BB
:10050000D030C2F20000BDE8804000F0F5B9000034
:1005100046F61440C2F2000000F0EEB946F658402C
:10052000C2F2000000F0E8B97047000047F61B4037
:10053000C2F200000078704780B500F091F800F03A
:1005400019F800F051F800F0A1F800F0BBF842F6FD
:10055000B941C0F6020103A00A46BDE8804007F099
:1005600093BA00BF6D696E695F636F6E74726F6C72
:100570000000000080B540F28C20C2F2000009F0BB
:10058000EDF940F26420C2F2000009F0E7F940F210
:10059000EC20C2F2000009F0E1F940F2AC20C2F216
:1005A000000009F0DBF940F2CC20C2F20000BDE807
:1005B000804009F0D3B90000024641F20000C4F2C5
:1005C0000100102100F06CBC10B5044609F0F8FFE2
:1005D0000028FBD140F60000C4F2010010212246A1
:1005E000BDE8104000F05CBC80B582B040F2516CB8
:1005F00040F2C95040F2B95140F2316240F24163D9
:10060000C0F6000CC0F60000C0F60001C0F6000203
:10061000C0F60003CDF800C009F0D2FD47F29120EA
:10062000C0F6000002B0BDE8804009F0ADBC00009B
:10063000024641F20000C4F20100082100F030BC83
:10064000024641F20000C4F20100202100F028BC63
:100650000A46014647F21000C2F2000002F078BCE0
:1006600080B540F20C30C2F2000009F033FB40F6D6
:100670003400C2F2000009F02DFB40F65C50C2F2DB
:100680000000BDE8804009F025BB000080B549F6B8
:10069000240049F22441C2F20000C2F2000101220A
:1006A0004FF480630AF062FF47F2F80049F2240138
:1006B000C2F20000C2F200014FF48062BDE8804047
:1006C00002F0FCBD10B549F6384049F63801C2F2D7
:1006D0000000C2F2000101224FF480630AF046FFDD
:1006E00003F01AFD47F61B44C2F20004207850B90B
:1006F00040F23000C2F20000026846F63410C2F246
:100700000000002190472078012818BF10BD40F25A
:100710008410C2F20000026846F63410C2F20000F3
:100720000021BDE8104010470A46014649F638400E
:10073000C2F200000AF02CBFEFF3108072B600BFC7
:10074000FEE7000046F6B403C2F200035A7A012A1B
:1007500084BF0120704780B593F809C08646002009
:1007600003F80C005A7A03EB8202C2F804E05A7ACA
:100770001A44107293F809C00CF101025A720CF17C
:1007800030020A7042F63A72A1F80120C87080BDAA
:10079000014690F82100022813D10868D1E90FC35F
:1007A000026822F00E020260026822F0010202607A
:1007B000012000FA03F2CCF8042081F82100002087
:1007C00002E0042088630120002281F82020704785
:1007D00090F82110022927D1026840F2040C136816
:1007E000C4F2020C23F00E03136013680CF17C01B9
:1007F0008A4223F0010111601AD940F20841C4F283
:1008000002018A424ED040F21C41C4F202018A42E7
:1008100041D040F23041C4F202018A4246D14FF445
:100820008073CCF8003457E00421816301207047C5
:100830004321C4F202018A420EDD6B21C4F202019F
:100840008A421BDC4421C4F202018A423BD0582177
:10085000C4F202018A4222E00821C4F202018A4263
:100860002FD01C21C4F202018A4232D03021C4F2BE
:1008700002018A4213D14FF480722BE06C21C4F242
:1008800002018A4222D08021C4F202018A4206D1AA
:100890004FF080721EE01023CCF800341CE04FF4BF
:1008A000803217E00123CCF8003415E00CF58861A4
:1008B0004FF480338A4208BF4FF48053CCF80034A1
:1008C0000AE0012206E04FF4805203E04FF4801268
:1008D00000E01022CCF80020012180F82110416BAB
:1008E0000022002980F8202004BF0020704780B536
:1008F0008847002080BD000010B5D0E90FE3D0F894
:1009000000C0DEF80020DCF80010DA4054072DD5D6
:1009100011F004042AD0DCF80010890605D4DCF8B4
:10092000001021F00401CCF800100422C4F20202ED
:1009300002F17C018C4561D940F20841C4F2020108
:100940008C4500F0A98040F21C41C4F202018C45A4
:1009500000F09B8040F23041C4F202018C4540F02F
:100960009F804FF48061C2F80014DFE094072ED519
:1009700011F002042BD0DCF80010890608D4DCF852
:10098000001021F00A01CCF80010012180F821109C
:100990000422C4F2020202F17C018C4542D940F2E9
:1009A0000841C4F202018C4500F0AB8040F21C41CA
:1009B000C4F202018C4500F09D8040F23041C4F247
:1009C00002018C4540F0A5804FF40071A9E01207A8
:1009D00040F1C18011F0080108BF10BDDCF8001023
:1009E00021F00E01CCF80010012101FA03F2CEF83B
:1009F0000420816380F82110016BA7E04321C4F239
:100A000002018C4522DD6B21C4F202018C452FDCF2
:100A10004421C4F202018C4575D05821C4F2020170
:100A20008C4536E04321C4F202018C4543DD6B2145
:100A3000C4F202018C4550DC4421C4F202018C4511
:100A40007BD05821C4F202018C4557E00821C4F242
:100A500002018C4550D01C21C4F202018C4563D0A8
:100A60003021C4F202018C4513D14FF480615CE067
:100A70006C21C4F202018C4548D08021C4F20201ED
:100A80008C4506D14FF080614FE04021C2F8001440
:100A90004CE04FF4802148E00421C2F8001445E006
:100AA00002F588634FF480219C4508BF4FF48041D4
:100AB000C2F800143AE00821C4F202018C453AD091
:100AC0001C21C4F202018C453DD03021C4F2020148
:100AD0008C4513D14FF4007136E06C21C4F2020151
:100AE0008C452DD08021C4F202018C4506D14FF0F7
:100AF000007129E0202114E0042116E04FF40031B8
:100B000022E002210DE04FF480410EE04FF480011D
:100B10000BE002F588634FF400319C4508BF4FF4A9
:100B20000051C2F8001410E040211160C16A91B177
:100B3000BDE810400847022106E04FF4005103E0F1
:100B40004FF4001100E020211160816A0022002989
:100B500080F82020ECD110BD014600284FF00100A4
:100B600008BF70472DE9F04740F2000CC4F2020CB8
:100B70000A684FF6F8330CF5816ECBF6FD737245BB
:100B800038BF03F5806303EB020E4CF6CD43CCF681
:100B9000CC43AEFB033E0CF580636FF00304D1E958
:100BA000019AD1F80C803CBF0023C4F2020304EA8E
:100BB0009E04C1E90F34022381F82130136843F603
:100BC000F074A34301F1100743EA0903F0CF43EAAD
:100BD0000A0343EA080323432B4333433B43136095
:100BE00000228A6381F8210081F820200020BDE8DE
:100BF000F047704790F820C0BCF1010F04BF0220FD
:100C00007047F0B54FF0010E80F820E090F821C059
:100C1000BCF1010F23D14FF0020C80F821C04FF03E
:100C2000000CC0F838C0D0E900C4C56AC66BDCF857
:100C30000070102C27F00107CCF80070006C0EFA41
:100C400000F070600846CCF8043004BF10460A4635
:100C5000CCF80800CCF80C2035B10E200BE00021B8
:100C600080F820100220F0BDDCF8000020F0040025
:100C7000CCF800000A20DCF800100843CCF8000093
:100C8000DCF8000040F00100CCF800000020F0BDCE
:100C9000B0B5044600F00AF9054641F28220C2F2DE
:100CA00000000078611C18BF044400BF00F0FEF88B
:100CB000401BA042FAD3B0BD2DE9F04F82B00E68C0
:100CC000002E00F0E380A0F1804241F6004540F2A2
:100CD0000043A2F58432C4F201050624C4F20103E4
:100CE0004FEAB227A84208BF05244FF0000E4FF08C
:100CF00001080F254FF0000A4FF0000B052F38BFF9
:100D00004FEAB224009408E00E680AF1010A36FAAC
:100D10000AF20EF1040E00F0B98008FA0AFC16EA95
:100D20000C09F1D04E684FF6FF72C1F210029642E4
:100D300010DC122E50D8DFE806F0330A48454F4F3A
:100D40004F4F4F4F4F4F4F4F4F4F4F414C00D1F8E8
:100D50000CB041E04FF6FF72C1F2210296420FDC67
:100D60000022C1F2110296421AD00022C1F21202F0
:100D7000964215D00022C1F22102964210D02BE0FB
:100D80000022C1F2220296420AD00022C1F23102B0
:100D9000964205D00022C1F2320296421CD100BF19
:100DA0008A6842B1012A14BFC0F814C0C0F810C04C
:100DB0004FF0080B10E04FF0040B0DE0CA6802F191
:100DC000040B09E04FF0000B06E0CA6802F1080BC3
:100DD00002E0CA6802F10C0B02467446B9F5807F46
:100DE00024BF0432203C166805FA04F726EA0707F8
:100DF0000BFA04F637431760CA79D2067FF584AF41
:100E000041F21807C4F202073A684FF6084542F06B
:100E100001023A603A68CFF6FF7502F001020192D2
:100E2000019A2AF003021A440F2457590EF00C06B7
:100E3000B440A743009C04FA06F6374357514E6866
:100E400040F20C44F2029A6854BF22EA090242EAD4
:100E50000902C4F201049A602268B70254BF22EA70
:100E6000090242EA090222605A68B70354BF22EA23
:100E7000090242EA09025A600F251A68F70354BFB3
:100E800022EA090242EA09021A603DE702B0BDE81F
:100E9000F08F00008068084018BF012070470000F4
:100EA000002A08BF090401617047000049F64C4060
:100EB000C2F200000068704741F2822049F64C41BE
:100EC000C2F20000C2F2000100780A681044086013
:100ED0007047000080B542F20000C4F202000168D1
:100EE00041F010010160032000F0C2F80F2000F073
:100EF00005F800F057F8002080BD0000B0B586B0BE
:100F000041F21801C4F202010A68044642F4005298
:100F10000A60096801A801F400510191019969462C
:100F200001F0CAF801F0FEF84DF68361C4F21B31FE
:100F3000A0FB01014FF0FF3000EB914147F2680048
:100F400043F20042C2F20000C4F2010240F2E73371
:100F50000025C0E90021C0E902530561856102F066
:100F600071F808B106B0B0BD47F26800C2F20000E7
:100F700002F098F80028F5D105462C2000F03AF848
:100F80000F2C0CD82C202146002200F045F841F20D
:100F90008420C2F200000460284606B0B0BD0120E3
:100FA00006B0B0BD80B582B041F21800C4F20200B4
:100FB0000168002241F001010160016801F00101B6
:100FC00001910199416841F08051416040680F21D1
:100FD00000F08050009000986FF0010000F01CF8C5
:100FE0000420C4F201000168022262F31A61016068
:100FF00002B080BD002848BF704700F01F010122E9
:1010000002FA01F11C2202EAD0004EF20012CEF2E6
:10101000000281507047000010B54EF60C5CCEF215
:10102000000CDCF80030C3F3022E8EF00704042C11
:1010300028BF0424BEF103034FF0FF3E0EFA04F470
:1010400038BF0023A14399400EFA03F39A4311439A
:1010500000F1604200F00F03090102F56442043B15
:101060006344002848BF03F10C02117010BD00005A
:101070004EF60C51CEF200010A684FF6FF031A40FB
:1010800060F30A2242F0806040F0FD700860704713
:1010900080B501F0070C0CEB8C0C00EBCC0C0CF1C8
:1010A000280C01EB810E090600EBCE0058BF00F5BD
:1010B000B47C3AB10120ACF808301B0C0A218CF842
:1010C0000C0003E000208CF80C00062100202CF816
:1010D000013080BD7047000001EB8102D0F8EC3296
:1010E00000EBC200C26B184604F084BE01EB810223
:1010F000D0F8EC3200EBC200D0F87C21184604F0A6
:10110000DBBE000010B54FFA81FC4FF4B47201F061
:10111000070EBCF1000F48BF282290F8A8420244F5
:101120000EEB8E034FEAD11C02EBC301012C81F8B8
:1011300001C002F833E004BF022010BD02680123A1
:1011400080F8A8320446104605F0E4FC002084F83C
:10115000A80210BDB0B5426801F00F03934284BFEE
:101160000120B0BD4AB24FF4B474002A48BF28240D
:1011700001F0070E021990F8A8420EEB8E034FEA19
:10118000D11C02EBC301012C4FF0000481F801C017
:101190008C7002F833E004BF0220B0BD0268012366
:1011A00080F8A8320546104605F040FD204685F837
:1011B000A842B0BD10B5044690F8A802012804BFAB
:1011C000022010BD4BB220680122B3F1FF3F84F82A
:1011D000A82202DD06F01AF803E001F0070106F08C
:1011E00017F8002084F8A80210BD000001F00701E4
:1011F00001EB810100EBC100D0F8840170470000D1
:10120000B0B54FFA81FC4FF4B47401F0070EBCF195
:10121000000F48BF282404440EEB8E054FEAD11C72
:1012200004EBC50181F801C004F835E00A61022B26
:10123000CB7004BF00220A7190F8A822012A04BFD3
:101240000220B0BD0268012380F8A832044610468F
:1012500005F032FB002084F8A802B0BD10B501F003
:10126000070C0CEB8C0100EBC10E00680EF5B4719D
:101270000024CEF87C21CEF88031CEF884418EF85F
:1012800069418EF868C105F025FD002010BD000001
:10129000B0B5426801F0070494424FF001022BD828
:1012A0004BB24FF4B475002B48BF28254FEAD11C30
:1012B00048BF2146054401EB810305EBC30181F8DA
:1012C00001C090F8A8C28A70BCF1010F05F8334044
:1012D00004BF0220B0BD02680123054680F8A83291
:1012E000104605F0DDFC24B9286805F52C7105F0E1
:1012F0009BFC002285F8A8221046B0BD80B501F005
:10130000070C0CEB8C0100EBC10101F828CF006841
:101310004FF0010C01F1140781F824C04FF0000ECA
:1013200087E80C400B6281F801C005F0D3FC002077
:1013300080BD00002DE9F04F87B00446006805F03D
:101340006FFF01041AD4410500F1C283410400F18A
:10135000D083810400F1E283C10400F1E58301053B
:1013600000F1FC83810500F14084C00540F1BE839B
:101370002068B0F8441021F48071EAE32068B0F9E5
:101380004410B1F1FF3F00F3B18304F5B471019152
:1013900004F12801029104F52C7140F60F780091B8
:1013A00023E0B0F8501094F8682100EB410101EB04
:1013B0000211B1F80C34B4F86E2100996FF39F2339
:1013C000C4F8843105F030FF2068018801EA080183
:1013D00080310180204600F0DFFC00BF2068B0F9BA
:1013E0004410B1F1FF3F00F38183B0F8442012F0C4
:1013F0000F090DD030F929104FEA490BB1F1FF3F29
:101400001FFA81FA34DD5FEA0A60E7D54AE100BFDE
:101410000188D20667D401EA080101F50041018084
:10142000B0F8501094F8282000EB410000EB0210B7
:10143000B0F80404E16B6FF39F2060640844E0633C
:1014400020460021FFF748FE94F824000028C5D06C
:10145000206C0028C2D194F82400216840F080005C
:10146000C0B2A1F84C00002084F82400B6E700BF09
:1014700030F81B1001EA0801803120F81B10019A96
:1014800009EB890102EBC106317B00297DD0F1789F
:10149000022940F08A80B0F85020317857000B01C3
:1014A000B26907445FEA4A453B4400F19880B3F8CB
:1014B0000C7400236FF39F27D21B38BF1A46B2610A
:1014C00040F2A2805FEA4A6200F1AE8030F821204B
:1014D00048F2C00302EA08021A4320F82120002F34
:1014E00040F0A380C2E00A053FF55BAF09B2B1F15D
:1014F000FF3F3FF773AF018801EA080180310180A7
:10150000B0F8501094F8682100EB410101EB021192
:10151000B1F80C346FF39F23C4F884318BB1D4F845
:101520007C1171B1B4F86E2105F07EFED4F87C0117
:10153000D4F884110844C4F87C0120460021FFF748
:10154000D5FD206801880A053FF548AF01F44051F8
:10155000B1F5405F3FF442AFB0F8501000F20C42DA
:10156000535A6FF39F235352D4F878313F2BC0F076
:10157000D781DE068E5A4FEA53174FF0FF3508BF6A
:1015800005EB531746EA87232DE2B0F85010327866
:1015900000EB410101EB0211B1F80C746FF39F27CE
:1015A000002F63D07169F2885DE0327848F2C003A1
:1015B00030F8221001EA0801194320F8221030F80F
:1015C0002230B0F85010120102445B0402EB4101DA
:1015D00014D4B1F80C746FF39F2737BB46E0B3F80F
:1015E000047400236FF39F27D21B38BF1A46B261E1
:1015F0001ED95FEA4A622AD49FBB37E0B1F804746F
:101600006FF39F276FBB31E030F8212043F60F7353
:101610001A404CF28003A3F500535A4020F82120D1
:101620005FEA4A627FF552AF07B3716972891AE0C7
:1016300030F8212043F60F731A404CF28003A3F5D3
:1016400000535A4020F821205FEA4A62D4D530F88E
:10165000212048F2C00302EA08021A4320F82120A0
:1016600027B1716932893B4605F0DEFDF169D6E9A3
:10167000050239443844F161706112B13069B842F1
:1016800008D931782046FFF731FD5FEA0A607FF51F
:10169000A5AE07E02068314605F01CFB5FEA0A6052
:1016A0007FF59CAE206809EB890130F81B20029B76
:1016B00003EBC10602EA080101F5004120F81B1006
:1016C000F178012921D1317B00294FF00001B1616E
:1016D00000F021815FEA4A6173D47178012900F03A
:1016E0000781002940F01781B0F850103278084483
:1016F00000EB0210B0F80C146FF39F21A0F80C144B
:10170000B0F80C1441F40041F9E05FEACA511DD46D
:10171000B0F85020317800EB420202EB0112B2F82F
:101720000424B3696FF39F229B1A4FF0000738BF60
:101730003B46B36140F2F0807169F3691144716115
:101740009918F161314605F0C5FA47E6B0F8503016
:101750003178B5695FEA4A624FEA011700EB01127E
:1017600047D402F20C4E3EF8133000226FF39F2351
:10177000ED1A38BF1546B5616CD95FEA4A4708D4FF
:1017800030F821704CF2800507EA08072F4320F853
:10179000217096F82410012940F08C81D6E904C10B
:1017A000D6E9075719441D4467457161F56180F01A
:1017B000F580002F00F02D81BC46326286F824208F
:1017C0002BE17178012900F09D80002940F0A38071
:1017D000B0F850103278084400EB0210B0F804144E
:1017E0006FF39F21A0F80414B0F8041441F40041F1
:1017F0008FE002F2044E3EF8133000226FF39F2375
:10180000ED1A38BF1546B5614CD95FEA4A4208D592
:1018100030F821204CF2800702EA08023A4320F80F
:10182000212096F82410012940F04481D6E9047162
:10183000D6E9072519441A44BD427161F26180F06E
:10184000B1804FF0000C002D86F824C040F0AD8030
:101850001D46ACE07378012B6CD0002B76D1B0F82C
:10186000505007442F44B7F804546FF39F25A7F84E
:101870000454B7F8045445F40045A7F80454012B68
:1018800060D0002B62D1B0F850003EF800306FF30A
:101890009F232EF800303EF8003043F400432EF82A
:1018A000003053E07378012B57D0002B63D1B0F890
:1018B00050503EF805206FF39F222EF805203EF889
:1018C000052042F400422EF80520012B4CD0002BBD
:1018D00051D1B0F8502038441044B0F80C246FF3C4
:1018E0009F22A0F80C24B0F80C2442F4004240E0FF
:1018F000B0F850103278084400EB02100021A0F834
:101900000C1408E0B0F850103278084400EB0210D4
:101910000021A0F8041431782046FFF7DDFB5DE5D7
:10192000002B5FD003F00107565A07EB530346EA3A
:1019300083235DE0B0F8505007442F44A7F80424F7
:10194000012B9ED1B0F850002EF800202046FFF762
:10195000C3FB5FEA4A4015D5ACE0B0F85020002543
:101960002EF80250012BB2D1B0F850203844104468
:101970000022A0F80C242046FFF7AEFB5FEA4A40A5
:1019800040F19880206831784CF2800330F82120B3
:1019900002EA08021A4320F821208BE0A7EB0C038F
:1019A00033623AE0A5EB070C3D46C6F820C07378D9
:1019B000012B29D0002B6FD1B0F850303F2D3EF8CD
:1019C00003206FF39F222EF8032049D36A09EF0604
:1019D0003EF803C04FF0FF3708BF07EB55124CEA43
:1019E000822255E0535A48F20007CFF6FF773B4377
:1019F0008B52018843F60F7211404CF28002A2F51F
:101A0000805251400180E9E4B0F850202EF8025095
:101A100042E0002786F824709C467378012B1AD088
:101A2000002B42D1B0F85030BCF13F0F3EF80370AC
:101A30006FF39F272EF803701CD35FEACC654FEA43
:101A40005C173EF803504FF0FF3208BF02EB5C1703
:101A500045EA872725E0B0F850302EF803C024E08F
:101A6000A5B105F001023EF8037002EB550247EA0A
:101A700082220FE0BCF1000F11D00CF001073EF8FC
:101A8000035007EB5C0745EA87270CE03EF803208C
:101A900042F400422EF803203289ABB208E03EF84F
:101AA000037047F400472EF8037072891FFA8CF315
:101AB00005F0DCFB2068317840F63F7330F82120D8
:101AC0001A4048F2C003103B5A4020F8212085E418
:101AD0002068B0F8441021F48061A0F8441020463A
:101AE00000F02AF994F8A802012808D107B0BDE84F
:101AF000F08F2068B0F8441021F4804129E00120E3
:101B0000002584F8A80284F824502068002105F0FC
:101B1000A5FB84F8A85207B0BDE8F08F2068B0F8A4
:101B2000441021F4005114E02068B0F8401021F076
:101B30000401A0F84010B0F8401021F00801A0F80E
:101B40004010204600F00AF92068B0F8441021F453
:101B50008051A0F8441007B0BDE8F08F20686FF006
:101B60000102011F03A800BF31F8043F87180232A9
:101B70000E2A7B80F8D12168B1F8402042F00102A2
:101B8000A1F84020B1F8402022F00102A1F8402045
:101B9000B1F844205205FBD5B1F844206FF00103A1
:101BA00022F48062A1F844200A1F00BFC7187F8872
:101BB00002330E2B22F8047FF8D1B1F8400040F038
:101BC0000800A1F84000B1F8440020F40060A1F83A
:101BD0004400B1F8400040F004022046A1F8402043
:101BE00007B0BDE8F04F00F0F9B82168B1F8440043
:101BF00020F400722046A1F8442007B0BDE8F04F61
:101C000000F0B0B8002804BF01207047F0B585B0DF
:101C1000044690F8A90228B9002084F8A8022046BA
:101C200000F068F8032084F8A902206804F0F2FFAD
:101C300094E82F50D4E907678DE82050CDE9036779
:101C400004F066FF002842D120680021002505F03D
:101C500003FB616859B304F128004FF0010C002226
:101C6000002300BF02EB820200F83230013300EBA8
:101C7000C207DAB2914287F801C0FD70C7E9045586
:101C8000BD61EFD804F5B47000220025002300BF29
:101C900005EB850700F837300133DDB200EBC706EE
:101CA000A9427270F270C6E90422B261F0D804F160
:101CB0000807D4E9056520688CCFD4E907CECDE9C3
:101CC000007602AE86E8205004F096FF28B102208C
:101CD00084F8A902012005B0F0BD002084F824009A
:101CE000012084F8A902206804F084FF002005B0D8
:101CF000F0BD0000006845F60041C4F200018842D2
:101D000018BF704780B582B041F21C00C4F20200D7
:101D10000168002241F4000101600068052100F41F
:101D20000000019001981420FFF776F9142002B00A
:101D3000BDE88040FFF75EB910B504468068022810
:101D400018BFFEF7F9FCD4F8EC02012104F0DAF92F
:101D5000D4F8EC02BDE8104004F094B9D0F8EC02DD
:101D600004F0BAB9D0F8EC0204F0BEB990F8A82299
:101D7000012A04BF0220704710B5012280F8A82272
:101D800080F8241002680446104605F067FA002027
:101D900084F8A80210BD0000D0F8EC2200F52C71E8
:101DA000104604F0C5B9000090F8A812012904BF3C
:101DB0000220704710B50168012280F8A82204466D
:101DC000084605F019FA20460121FFF783F920683B
:101DD00004F00EFF002084F8A80210BD10B50446E0
:101DE000D0F8EC0204F0F4F9A069002808BF10BD97
:101DF0004EF61050CEF20000016841F0060101607D
:101E000010BD00002DE9F04182B00446007841F297
:101E10001C06C007C4F202064AD030685FEAC00858
:101E200008D4306840F080503060306800F0805056
:101E30000190019847F20007C4F200073868C00516
:101E400012D4386840F480703860FFF72FF80546E8
:101E50003868C00508D4FFF729F8401B6428F7D973
:101E6000032002B0BDE8F081706810F4407012D019
:101E7000616801F4407188420DD0706840F24042C0
:101E8000C4F24222012320F4407113600023C007F2
:101E90001360716025D17068616820F44070084358
:101EA000B8F1000F706003D4306820F080503060CB
:101EB0002068810707D556F8181CA26821F4404114
:101EC000114346F8181CC00607D556F8180C61696E
:101ED00020F48000084346F8180C002002B0BDE84A
:101EE000F081FEF7E3FF054641F28837706880070E
:101EF000D1D4FEF7DBFF401BB8424FF00300F5D909
:101F0000ECE70000002804BF012070472DE9F043F2
:101F100081B042F20008C4F202080446D8F800007A
:101F20000D4600F0070081420CD9D8F8000020F0DF
:101F300007002843C8F80000D8F8000000F00700A8
:101F4000A8426BD1206841F204098107C4F202095A
:101F500017D5410705D5D9F8001041F4E061C9F85B
:101F60000010010705D5D9F8001041F46051C9F8F7
:101F70000010D9F80010A26821F0F0011143C9F84F
:101F80000010C00741D1D8F8000000F007008542DA
:101F90000CD2D8F8000020F007002843C8F8000051
:101FA000D8F8000000F00700A84237D120684107A8
:101FB00007D5D9F80010E26821F4E0611143C9F8AF
:101FC0000010000708D5D9F80000216920F46050FE
:101FD00040EAC100C9F80000D9F8002002F00C0066
:101FE000082841F20020C0F27A0049D14DF24C732A
:101FF000C2F38341C0F60003595CD20334D440F6E7
:102000000010C0F23D0048433AE0606859F8041CF3
:10201000022807D0012824D1890305D4012001B06A
:10202000BDE8F0838901F9D5D9F8001021F003014A
:102030000843C9F80000FEF739FF064641F2883729
:10204000D9F80000616800F00C00B0EB810F9AD065
:10205000FEF72CFF801BB842F2D9032001B0BDE887
:10206000F0838907DAD5DFE7D9F800204DF28063E5
:10207000C2F34042C0F600039A5C4843B0FBF2F062
:10208000D9F800104DF24F62C1F30311C0F60002FF
:10209000515C40F22C0220FA01F141F28420C2F29C
:1020A00000000068C2F200021160FEF727FF002066
:1020B00001B0BDE8F08300000F22026041F204028B
:1020C000C4F20202136803F003034360136803F0D1
:1020D000F0038360136803F4E063C36012684FF495
:1020E000E06303EAD202026142F20000C4F202009D
:1020F000006800F0070008607047000040F22C0004
:1021000041F20401C2F20000C4F202010068096851
:102110004DF25F62C1F30221C0F60002515CC8407B
:102120007047000040F22C0041F20401C2F20000AE
:10213000C4F20201006809684DF25F62C1F3C22176
:10214000C0F60002515CC84070470000002804BF80
:10215000012070472DE9F04182B00446007841F239
:102160000006C007C4F2020647D0706800F00C00F9
:10217000042808D1306880033FD56068E8BB01209F
:1021800002B0BDE8F081706800F00C00082802D1B0
:102190007068C003EED4656830682DB1B5F5A02F26
:1021A00009D0B5F5803F0AD020F480303060306827
:1021B00020F4802005E040F480203060306840F456
:1021C00080303060FEF772FE002D054612D000BF51
:1021D0003068800311D4FEF769FE401B6428F7D9EC
:1021E00016E100BFFEF762FE401B64284FF00300BB
:1021F00000F2D88030688003F4D42078800719D5A5
:10220000706810F00C0F07D0706800F00C00082800
:1022100027D17068C00324D43068800703D52069B3
:10222000012840F0A6803068616920F0F80040EA9B
:10223000C1003060207800074ED5A06938B3002077
:10224000C4F242200121C0F88014FEF72FFE05469B
:10225000706A80072DD4FEF729FE401B0228F7D9AB
:10226000D6E02069002840F20000C4F2422000F0CD
:10227000A88001210160FEF719FE0546306880073D
:10228000D1D4FEF713FE401B0228F7D9C0E000208E
:10229000C4F242200021C0F88014FEF707FE054674
:1022A000706A800718D5FEF701FE401B0228F7D997
:1022B000AEE040F22C00C2F20000006844F6D351B8
:1022C000C1F26201A0FB0101480A019000BF019820
:1022D000411E00280191F9D12078400717D4E56903
:1022E0008DB1706800F00C00082846D1012D40D057
:1022F0007068216A00F480328A423AD1616A00F43F
:102300007010884235D1002002B0BDE8F081F0693C
:102310005FEAC00808D4F06940F08050F061F069CD
:1023200000F080500090009847F20007C4F20007C8
:102330003868C0050FD4386840F480703860FEF704
:10234000B5FD05463868C00505D4FEF7AFFD401B56
:102350006428F7D95CE0E568306A1DB1052D41D0ED
:10236000012D43D020F001003062306A20F00400DB
:102370003EE0012002B0BDE8F0810027C4F2422710
:1023800000203866FEF792FD022D05460ED100BFF3
:102390003068800153D5FEF789FD401B02284FF0BD
:1023A0000300F5D902B0BDE8F08100BF30688001BC
:1023B000A9D5FEF77BFD401B02284FF00300F5D99D
:1023C000F0E700210160FEF771FD054630688007E7
:1023D0007FF530AFFEF76AFD401B02284FF0030087
:1023E000F4D9DFE740F004003062306A40F00100C9
:1023F0003062FEF75BFD002D054641F2883712D0B2
:10240000306A800712D4FEF751FD401BB842F7D95D
:10241000032002B0BDE8F081FEF748FD401BB84242
:102420004FF00300BED8306A8007F5D4B8F1000F32
:102430003FF555AFF06920F08050F0614FE7206A1A
:10244000B0F5803F05D17168A26821F400311143D5
:1024500071607168626A21F47411114308437060FD
:1024600001203866FEF722FD044600BF3068800177
:102470003FF549AFFEF71AFD001B02284FF003009D
:10248000F4D98FE72DE9F04186B00446032084F8A3
:102490003400606C032811D14FF08050A26B40F2E1
:1024A000FF581043A063A06BC0F2400858B32068E7
:1024B0000125C0F8388084F8345031E0002943D039
:1024C000B1F5805FE8D0B1F5006F51D120680D46BD
:1024D00000210591049102F0A5F9800144D404A9DA
:1024E000204602F039FCE8BB9DF81600400746D5AF
:1024F000216D2068090402F0BFF998BB2068022111
:1025000002F004FA2EE0D4E90005D4E90567D4E925
:102510000223CDE900162946029702F087F900252B
:1025200020684FF4007102F0E5F930B1216801250F
:10253000C1F83880A16B0843A0630121284684F8C4
:10254000341006B0BDE8F08120680D4600210591E9
:10255000049102F067F9800106D404A9204602F034
:10256000FBFB40B1294699E74FF40060294695E707
:102570004FF0006092E79DF81600C00703D14FF0BE
:10258000806029468AE7216D2068090402F074F909
:102590000028E7D12068002102F0B8F9E2E7000046
:1025A00080B5D0E9193ED0F844C09A0F0A70C3F341
:1025B00083624A70C3F301628A701A0CCA701A0AE5
:1025C0000A714FEA1E524B71CA80CEF303420A725F
:1025D000CEF3C0324A72CEF380328A72CEF34032EA
:1025E000CA72CEF300320A730022BCF1010F4A73A3
:1025F0002ED0BCF1000F40F0828040F6FC72C36E1A
:1026000002EA8E0242EA93720A61C26EC2F3C263A8
:102610000B75C2F302634B75C2F342538B75C2F361
:102620008243C2F3C232CB750A760A690B7E01324D
:1026300003F0070302339A4042650B7A03F00F0C54
:10264000012303FA0CF383655B0A5A435C2310E011
:10265000B0F86E200EF03F0342EA03420A610A69B5
:102660004FF4806303EB82224265C2654FF400722F
:102670005823C250D0E91B324FF4007CC0F860C030
:10268000C3F380304876C3F3C610887603F07F002A
:10269000C876D00F0877C2F341704877C2F38260E2
:1026A0008877C2F38350C877C2F3405081F8200086
:1026B0000020C2F3004381F8210081F82230C2F3E8
:1026C000C03381F82330C2F3803381F82430C2F361
:1026D000403381F82530C2F3003381F82630C2F34D
:1026E000812381F82730C2F30123D2B2520881F846
:1026F000283081F82920012281F82A2080BD016834
:1027000040F2FF52C0F240028A63816B41F0805177
:102710008163012180F83410012080BD80B500F173
:10272000440E9EE80C5081E80C10426DC1E903E2B2
:10273000D0E91623C1E90523026E0020CA6180BDDD
:10274000B0B5016D04460068090402F0E9F910B162
:102750000546002006E020680021002502F062F80E
:10276000C0F34320002D08BFB0BDA16B2943A16376
:10277000B0BD000090F8340070470000002804BF8E
:102780000120704710B5044690F8340020B90020AD
:102790002077204600F016F9032084F83400204604
:1027A00000F00CF800284FF0010018BF10BD002108
:1027B000A163216384F83400002010BDF0B58FB010
:1027C00004460068762100260291002100220023A1
:1027D0000096019602F02AF800284FF0010540F01B
:1027E0008B80A027C4F230273E60206802F034F8C6
:1027F00002203D60FEF74CFA0496206802F092F841
:10280000002864D0002871D120680121ADF80E1095
:1028100002F004F8002866D0606C03281CD0206801
:1028200002F004F9002860D12068002101F0FAFFCD
:10283000216860670846042101F0F4FF2168A06761
:102840000846082101F0EEFF2168E06708460C21E8
:1028500001F0E8FFC4F88000606C032806D020680F
:102860000DF10E0102F068F900283ED1606C0328DA
:102870001ED0BDF80E1020682165090402F00CF985
:1028800098BB2068002101F0CDFF216860660846F2
:10289000042101F0C7FF2168A0660846082101F065
:1028A000C1FF2168E06608460C2101F0BBFF2067EC
:1028B0002068042101F0B6FF000DE06404A9204661
:1028C000FFF76EFE00286AD04FF080500DE02068C0
:1028D00002F04CF898B120680021A16402F022F8BF
:1028E00000288FD10DE04FF08060D0B3012584F82F
:1028F0003450A16B0843A06328460FB0F0BD0120FF
:10290000A064A06C012807D12068002101F0B4FF69
:1029100010B14FF0805075E704984FF6FE76B04244
:1029200032D80025CCF210152068002101F0A4FF58
:1029300000287FF467AF2068294601F0A9FF00282E
:10294000E7D12068002101F06DFF04990131049165
:102950000499B14202D8B0F1FF3FE5DCC0F38070CA
:1029600013E020684FF4007101F0C4FFA8B12168A2
:1029700040F2FF52C0F240028A63A16B0125084376
:10298000A06384F83450B7E700200499B1429ABF9D
:10299000606400204FF0807034E70025ACE7216DC3
:1029A00020680A04002302F035F800289DD194E83D
:1029B0008F00D4E90565CDE90076029501F036FF78
:1029C000002092E7F0B585B041F20004C4F20104A2
:1029D000006804F5E04188424FF00000CDE90300B3
:1029E000CDE9010001D005B0F0BD41F21800C4F2FC
:1029F000020050F8041C01AD41F4806140F8041C51
:102A000050F8041C022601F48061009100990168CD
:102A1000032741F010010160016801F010010091ED
:102A20000099016841F0200101600068294600F02A
:102A30002000009000984FF4F85001902046029634
:102A40000497FEF739F90420CDE9010604F580600A
:102A500029460497FEF730F905B0F0BD2DE9F04F97
:102A600087B09B4615460E460446FEF71FFA7EB118
:102A7000804694F8340001280ED10021A163E06D56
:102A80000BEB050282420FD9A06B40F0007006E00C
:102A9000A06B40F0006002E0A06B40F00050A0632B
:102AA000012007B0BDE8F08F032084F83400626C89
:102AB0002068012A4FF0FF32C16218BF6D020192F7
:102AC0004FEA4B224FF0020902929022CDE9049185
:102AD000012701A90392069701F08CFEBBF1020FBA
:102AE00007D3C4F830902068294601F07BFF30B945
:102AF00016E027632068294601F080FF80B1216835
:102B000040F2FF52C0F240028A63A16B0843A06307
:102B10000120002184F83400216307B0BDE8F08F64
:102B2000DDF84090029D40F22A3A05E0FEF7BEF93A
:102B3000A0EB0800484547D22068426B416B12EA7F
:102B40000A0F0FD10804F1D5002DEFD0043E08275D
:102B5000206801F087FE013F46F8040FF8D1203DC0
:102B60000436E3E7BBF1020F09D311F4807106D0FC
:102B7000616C032903D002F02BF80028BFD1206834
:102B8000416B090733D4416B890739D4416B8906FE
:102B90003FD42068416B890244D5002D42D001F01A
:102BA00061FE46F8040B043DFEF780F9A0EB080037
:102BB0004845EED3206840F2FF51C0F240018163E6
:102BC000A06B40F00040A2E7206840F2FF51C0F245
:102BD00040018163A06B40F00040A063012084F8B5
:102BE000340000202063032007B0BDE8F08F40F2DE
:102BF000FF51C0F240018163A06B40F0080086E7FE
:102C000040F2FF51C0F240018163A06B40F002002E
:102C10007DE740F2FF51C0F240018163A06B40F0BC
:102C2000200074E740F23A518163012084F83400B7
:102C3000002007B0BDE8F08F2DE9F04F87B098462F
:102C4000154689460446FEF731F9B9F1000F0FD059
:102C5000824694F8340001280ED10021A163E06D72
:102C600008EB050282420FD9A06B40F0007006E02D
:102C7000A06B40F0006002E0A06B40F00050A06349
:102C8000012007B0BDE8F08F032084F83400626CA7
:102C90002068012A4FF0FF32C16218BF6D02019215
:102CA0004FEA482202929022CDE9032105910121A9
:102CB000069101A901F09EFDB8F1020F07D3202073
:102CC00020632068294601F093FF38B917E01020EF
:102CD00020632068294601F097FF80B1216840F207
:102CE000FF52C0F240028A63A16B0843A063012037
:102CF000002184F83400216307B0BDE8F08F109EF6
:102D0000DDF808B040F21A376D4605E0FEF7CEF860
:102D1000A0EB0A00B0424BD22068426B416B3A42B2
:102D200025D14804F2D5BBF1000FEFD0A9F104077B
:102D30004FF0080917F8040F0090797840EA012055
:102D40000090B97840EA01400090F97840EA0161CA
:102D500020680091294601F089FDB9F10109E9D106
:102D6000ABF1200B07F1040940F21A37CEE7B8F1B6
:102D7000020F09D311F4807106D0616C032903D0CE
:102D800001F026FF0028A9D12068416B090720D453
:102D9000416B890726D4416BC9062CD440F23A51C5
:102DA0008163012084F83400002007B0BDE8F08F73
:102DB000206840F2FF51C0F240018163A06BA06324
:102DC000012084F8340000202063032007B0BDE810
:102DD000F08F40F2FF51C0F240018163A06B40F0E0
:102DE000080083E740F2FF51C0F240018163A06B0D
:102DF00040F002007AE740F2FF51C0F240018163E7
:102E0000A06B40F0100071E77047000070B528B16A
:102E1000416A29B100210161142106E0012070BD41
:102E20004168B1F5827F02D01C2100224250002669
:102E3000866290F8511029B980F85060054600F07C
:102E400039F82846022180F8511090E82E0002F44B
:102E500082720C6803F4044324F040040C601A44AA
:102E600005F4006305691A4405F0020345691A4434
:102E700005F001038569C4691A4405F400731A4416
:102E800004F03803046A1A4404F08003846A1A4385
:102E900004F400531A430A60042202EA15424A600D
:102EA000CA6922F40062CA610121466580F85110A6
:102EB000304670BD70B586B0044640F60000C4F2DE
:102EC0000100216800F52052002691420596CDE9C7
:102ED0000366029601D006B070BD41F21801C4F23B
:102EE00002010A6842F480520A600A6802F48052C1
:102EF0000192019A0A6842F004020A60096801F02E
:102F0000040101910199A021029102210391032161
:102F1000059102A9FDF7D0FE46F6D0353020C2F269
:102F20000005C4F202001021802285E843002846F3
:102F3000C5E90326C5E90566EE61FDF70DFE00282B
:102F400018BFFDF7F9FBA5646C6206B070BD000008
:102F500090F85030012B04BF02207047012380F805
:102F6000503090F85130012B47D100294FF0010328
:102F700018BF002A58D070B5032380F851300023C1
:102F8000044644F8543F44F8241C24F8202C24F828
:102F90001E2C44F81C3C44E9053324F8183C24F862
:102FA000163C54F84C2CB2F5004F08D10268156855
:102FB00025F040051560156845F480451560D0F88A
:102FC00048C044F65D7E44F6657544F63D76C0F62D
:102FD000000EC0F60005C0F600060268CCE90A5EE5
:102FE000CCE90C63C38E05460C326046FDF702FE49
:102FF00028B101231021284611E0022314E02C6897
:1030000028462168490603D4216841F04001216027
:1030100054F8041F002341F020012160022122689E
:1030200011432160BDE87040002180F8501018461F
:1030300070470000704700007047000070470000B4
:1030400070470000002804BF0120704710B50446F7
:1030500090F83D0028B9002084F83C00204600F09C
:103060001FF8022084F83D002068211D02F0DAFAE2
:10307000012084F8460084F83E0084F83F0084F87C
:10308000400084F8410084F8420084F8430084F84A
:10309000440084F8450084F83D00002010BD000085
:1030A0007047000090F83D1001291CBF01207047B7
:1030B000022180F83D10006840F6FF32C168C4F27A
:1030C0000002904241F00101C1600FDCB0F1804F7D
:1030D0001ED040F20041C4F20001884218D040F6F0
:1030E0000001C4F20001884212D018E040F600410D
:1030F000C4F2000188420BD043F20041C4F2010146
:10310000884205D042F60041C4F20101884206D14E
:10311000816801F00701062904BF0020704701689B
:1031200041F001010160002070470000704700007D
:1031300010B5044600680169890744BFC1685FEAA9
:1031400081713FD420680169490744BFC1685FEAC3
:10315000417143D420680169090744BFC1685FEA2F
:10316000017148D420680169C90644BFC1685FEA9B
:10317000C1614CD420680169C9071CBFC1685FEAFE
:10318000C17151D120680169090644BFC1685FEA75
:10319000016150D420680169490644BFC1685FEAF3
:1031A00041614FD421680869800646BFC8685FEA5C
:1031B000806010BD6FF0200220460A61BDE810401B
:1031C000FFF73EBF6FF002010161012121778069A5
:1031D00080073ED02046FFF7A9FF40E06FF00401D2
:1031E000016102212177806910F4407F3AD02046A6
:1031F000FFF79CFF3CE06FF008010161042121779B
:10320000C069800737D02046FFF790FF39E06FF0A4
:103210001001016108212177C06910F4407F33D08B
:103220002046FFF783FF35E06FF001010161204682
:1032300000F038F8A6E76FF0800101612046FFF743
:10324000FDFEA7E76FF040010161204600F034F871
:10325000A8E7204600F022F8204600F021F80020E0
:1032600020776FE7204600F019F8204600F018F8A4
:10327000002020776EE7204600F010F8204600F08E
:103280000FF8002020776DE7204600F007F8204671
:1032900000F006F8002020776CE70000704700007F
:1032A00070470000006843F20041C4F20101884207
:1032B00018BF7047FDF700BE7047000090F842301D
:1032C000202B1CBF0220704700294FF0010318BFBC
:1032D000002A01D1184670470363002343638162CB
:1032E00022218285C285436480F84210016921B1A0
:1032F0000168CA6842F48072CA6001684A6942F093
:1033000001024A61CA6842F02002CA60026B012AC7
:103310001CBF0120704781B0002200920A68009211
:1033200049680091009900BF016851E8031F0268D5
:1033300041F0100142E80313002BF5D1002301B046
:1033400018467047006844F60002C4F2000290423A
:1033500018BF704710B549F2240449F62400C2F2A0
:1033600000040A46C2F20000214608F011F947F2B3
:10337000F800C2F2000021464FF48062FFF79EFF82
:1033800020464FF48061FCF70EFF10BD704700002F
:10339000B0B582B001680A68CC684B6902F02F05AD
:1033A000202D04F0200505D125B102B0BDE8B040C4
:1033B00002F0A6B95FEA027C1EBF03F0010E04F41E
:1033C000907313EB0E0340D1036BD50618D5012B78
:1033D00016D114F0100313D0002201920A68019252
:1033E0004A680192019A4969490647D4818DC28D84
:1033F000C38D002B18BF914240F0108102B0B0BDC8
:1034000013062AD514F0800327D090F84120212AF2
:10341000F4D18268B2F5805F03D10269002A00F01E
:103420003081026A531C036212784A60C28C013AEE
:103430001304C284E2D1C86820F08000C860C86864
:1034400040F04000C86002B0B0BDD10718BF14F40E
:1034500080715CD1510760D466E05206CED514F07D
:103460004002CBD0CA6822F04002CA60202180F816
:10347000411002B0BDE8B04000F03EBAC16B0A682E
:10348000526893B2002BB9D0858DAB42B6D2C285BB
:103490008969202934D000BF016851E8031F026800
:1034A00021F4807142E80313002BF5D1016851E843
:1034B000051F026821F0010142E80513002BF5D138
:1034C000016851E8051F026821F0400142E8051338
:1034D000002BF5D1202180F842100021016300BFAC
:1034E000016851E8031F026821F0100142E803134C
:1034F000002BF5D1C16B04460846FDF749F920467B
:1035000002214163818DC28D891A89B2AFE0416C7D
:1035100041F001014164510706D5BEF1000F03D00F
:10352000416C41F002014164910706D5BEF1000FE4
:1035300003D0416C41F004014164BCF1000F06D599
:103540005EEA050103D0416C41F008014164416C21
:1035500000293FF453AF910604D51DB1044602F093
:10356000CFF8204601684969426C01F0400102F041
:10357000080289184BD000BF016851E8031F026898
:1035800021F4907142E80313002BF5D1016851E852
:10359000051F026821F0010142E80513002BF5D157
:1035A000016B01290AD100BF016851E8031F0268BD
:1035B00021F0100142E80313002BF5D1202180F8FF
:1035C00042100021016301684969490654D500BFD2
:1035D000016851E8051F026821F0400142E8051327
:1035E000002BF5D1C16B002946D045F2F562C0F63B
:1035F0000002044608464A63FDF7EAF800283FF453
:10360000FDAEE06B416B02B0BDE8B0400847044638
:10361000FFF7BCFE0020606402B0B0BD891A00BF95
:10362000026852E8032F036822F4907243E80325EE
:10363000002DF5D1026852E8052F036822F001023F
:1036400043E80525002DF5D1202280F842200022F4
:10365000026300BF026852E8032F036822F01002E1
:1036600043E80325002DF5D1022289B2426302B05E
:10367000BDE8B040FFF766BE02B0BDE8B040FFF75E
:1036800085BE026A32F8023B6FF35F234B60026231
:10369000CCE60000002804BF0120704710B50446A6
:1036A00090F8410028B9002084F84000204600F03E
:1036B00061F8242084F841002068D4E90212C3682C
:1036C00023F40053C360036923F440531A43026197
:1036D000D4E904231143C268194341F20C639A43AD
:1036E0001143C1604169A26921F44071114343F65D
:1036F0000002C4F201029042416102D0FEF7FEFCDA
:1037000001E0FEF70FFDD4E9002319214843990099
:10371000B0FBF1F048F21F5CC5F2EB1CA0FB0C31D2
:103720004FF69C734909C0F6FF7301FB0300322377
:1037300003EB0010A0FB0C03F02000EA531000EB99
:103740000110C3F34311084490601069202120F454
:1037500090401061506920F02A005061D06840F418
:103760000050D0600020606484F8411084F842105A
:10377000606310BD2DE9F04186B00446006844F650
:103780000001C4F20001002688420596CDE90366D7
:10379000029669D044F20041C4F20001884240F030
:1037A000A58041F21800C4F20200416840F600050D
:1037B00041F4003141604168C4F2010501F4003177
:1037C00001910199016802AE41F0040101600068B5
:1037D00040F26C0800F0040001900198042002906F
:1037E000022003900320059028463146C4F20208C7
:1037F000FDF762FA08200290002728463146CDE9FD
:103800000377FDF759FA46F61445C2F20005202069
:103810008026C5E906072846C5E90087C5E902767E
:10382000C5E90477FDF798F9002818BFFCF784FF75
:10383000E5636C6246F6584508F11400C2F20005D3
:10384000102185E883002846C5E90367C5E90577A7
:10385000EF61FDF781F9002818BFFCF76DFFA56344
:103860006C6206B0BDE8F08141F21800C4F20200BB
:10387000416802AD41F480214160416801F480213A
:1038800001910199016841F0200101600068294619
:1038900000F02000019001984FF480700290022007
:1038A00003900320059040F60000C4F2010000F5EB
:1038B00040642046FDF700FA4FF40070CDE902069F
:1038C000204629460496FDF7F7F90420C4F20100CA
:1038D0000168002241F0E06141F0300101602720E1
:1038E0000521FDF799FB2720FDF784FB06B0BDE815
:1038F000F08100007047000070470000012818BFE9
:10390000704780B582B042F6B64042F69A414FF019
:10391000000CC0F60200C0F6020102220123CDF81D
:1039200000C0CDF804C006F00DFA02B080BD000062
:10393000012818BF704780B582B042F6B04042F609
:103940009A414FF0000CC0F60200C0F602010222BC
:103950000123CDF800C0CDF804C006F0F3F902B0A1
:1039600080BD0000012818BF704710B582B042F634
:10397000B04042F66C410024C0F60200C0F60201DD
:10398000022201230094019406F0DCF942F6B340D0
:1039900042F63E41C0F60200C0F6020102220123B7
:1039A0000094019406F0CEF942F6B64042F610417A
:1039B000C0F60200C0F60201022201230094019425
:1039C00006F0C0F902B010BD012818BF704710B54D
:1039D00082B042F6B04042F610410024C0F6020028
:1039E000C0F60201022201230094019406F0AAF914
:1039F00042F6B34042F63E41C0F60200C0F6020174
:103A0000022201230094019406F09CF942F6B6408C
:103A100042F66C41C0F60200C0F602010222012308
:103A20000094019406F08EF902B010BD012818BF71
:103A30007047B0B582B042F63E4442F6B040C0F6A0
:103A400002040025C0F6020021460222012300954F
:103A5000019506F077F942F6B34042F61041C0F600
:103A60000200C0F60201022201230095019506F032
:103A700069F942F6B640C0F602002146022201234F
:103A80000095019506F05EF902B0B0BD41F200402C
:103A9000C4F201002021FDF7FDB9000041F2004011
:103AA000C4F201008021FDF7F5B9000040F60000E6
:103AB000C4F201000121FDF7EDB9000041F600005C
:103AC000C4F201000121FDF7E5B9000041F2004018
:103AD000C4F201004021FDF7DDB90000024641F2C9
:103AE0000040C4F201000221FDF7DAB9024641F2BA
:103AF0000040C4F201000821FDF7D2B9024641F2AC
:103B00000040C4F201001021FDF7CAB980B50820B9
:103B100009F04CFD014600284FF000001CBF486032
:103B2000084680BD002804BF01207047B0B5054697
:103B300008200C4609F03AFD48B100BF2A466D68DE
:103B4000002DFBD10021C0E90041506000E00121BF
:103B5000BDE8B04008467047B0B5D0F89052044672
:103B600095F8180280B12046812102F00DFB687A99
:103B7000022818BFB0BD05F50372204601211F239E
:103B8000BDE8B04002F06CBAD5F814020028EAD0C3
:103B9000687A0028E7D12046012102F0F5FAE2E731
:103BA000B0B5D0F890526A7A022A05D1812102F08C
:103BB000EBFA00206872B0BD49B2B1F1FF3FFADC08
:103BC000012A08BFB0BD45F25531C5F24231C5F8F2
:103BD0002C12012185F83812002105F50B7229728B
:103BE00081210D23044602F0FDFA05F503722046FB
:103BF00001211F23BDE8B04002F032BAB0B5D0F8C1
:103C000090520446297ACA1E022A09D245F2553139
:103C1000C5F2423105F50B72C5F82C12002117E0F0
:103C2000022927D195F8191205F21B22204600F02F
:103C300011FBB0F1FF3FC8BFB0BDD4F8905245F2C0
:103C40005531C5F2423105F50B72C5F82C12012130
:103C500085F8381200212972204681210D2302F0B7
:103C6000C1FA05F50372204601211F23BDE8B040CB
:103C700002F0F6B9B0BD000070B5D0F8905204461D
:103C8000287A012835D0002875D1D5E98401C5E905
:103C90008C012046012102F05DF91F2811D1D5F8D1
:103CA0000C0245F25531C4F24231884209D195F8EF
:103CB0001912012905D895F81A02113810F1110FBF
:103CC0004DD895F8191220460522202300F07EFDDC
:103CD000D4F89062022196F81802697298B32046CF
:103CE000812102F051FA707A022844D106F503725C
:103CF00022E095F8191205F21B22204600F0AAFADC
:103D0000B0F1FF3FC8BF70BD45F25530D4F89052B6
:103D1000C4F2423000F18050C5F82C02012085F831
:103D20003802002005F50B722872204681210D23F0
:103D300002F058FA05F50372204601211F23BDE861
:103D4000704002F08DB9D6F814020028C7D0707AFE
:103D50000028C4D12046012102F016FABFE705F27F
:103D60001B22204600F076FA297AB0F1FF3F03DDEE
:103D7000481E032808D270BD204605290DD1012117
:103D8000BDE8704000F046B86A8952B105F10C01F7
:103D90002046BDE8704000F05BB8BDE87040FFF71A
:103DA000DBBE20460021BDE8704000F033B80000C3
:103DB000D0F890020021017270470000B0B50446AF
:103DC000D0E9A45000212981A5F85C1201680020E7
:103DD00088472046012102F0ABF82046812102F0FD
:103DE000A7F805F50372204601211F23BDE8B04066
:103DF00002F036B980B5D0F890C24FF4807E0CF551
:103E0000037201211F23ACF808E0BDE8804002F0F6
:103E100027B90000B0B50446D0F8905245F25530AD
:103E2000C5F24230C5F82C02002005F50B7285F86A
:103E300038122872204681210D2302F0D3F905F5AE
:103E40000372204601211F23BDE8B04002F008B9EB
:103E500010B5D0F890E28C46DEF81412DEF8343259
:103E6000914228BF11469A1ACEF834220022042427
:103E70008EF838228BB2812162468EF80840BDE868
:103E8000104002F0AFB9000080B582B041F21400DA
:103E9000C4F202000168002241F0010101600068E3
:103EA000052100F00100019001980D20FDF7B4F804
:103EB0000D20FDF79FF8102005210022FDF7ACF83A
:103EC0001020FDF797F8112005210022FDF7A4F836
:103ED000112002B0BDE88040FDF78CB880B54DF2EE
:103EE000147045F62011C0F60000C2F20001FCF784
:103EF00029FC47F6D931C2F20001087080BD0000EC
:103F000080B545F275104DF25C72C0F60000C0F647
:103F10000002002106F0A2FD46F6B001C2F2000147
:103F2000086080BD2DE9F04F85B04FF0000841F2E8
:103F30001800CDE90388CDE90188C4F202000168C8
:103F400040F6000941F0100101600168C4F2010966
:103F500001F0100100910099016809F5006741F036
:103F6000040101600168002201F004010091009940
:103F70000168382441F020010160016801F020014E
:103F800000910099016841F040010160006838210A
:103F900000F04000009000983846FCF781FF48464A
:103FA000102100224FF0100BFCF77AFF09F5406555
:103FB00028461A2101224FF0010AFCF771FF01AED9
:103FC000CDE9014A022438463146CDE90344FCF7E5
:103FD00073FE48463146CDE901A80394FCF76CFE18
:103FE00048463146CDE901BACDE90344FCF764FE09
:103FF0004FF40E60CDE90108284631460394FCF7E2
:104000005BFE1A20CDE9010A28463146CDE903843A
:10401000FCF752FE09F580503146CDE901A8039422
:10402000FCF74AFE05B0BDE8F08F000046F68C7044
:1040300048F20001C2F20000C4F201010022C0E90E
:104040000012C0E9022210304FF480434FF0060CFA
:1040500080E80C107047000080B547F2100043F272
:104060000001C2F20000C4F201014FF48272002389
:104070004FF4007C80E80E000A21C0E90333C0E958
:10408000053CC361C0E90833C0E90A31FEF7BEFE52
:10409000002808BF80BDBDE88040FCF74DBB000094
:1040A00080B547F2B00044F20041C2F20000C4F211
:1040B000000100234FF00C0C4FF4E13280E80E00B9
:1040C000C0E90333C0E905C3C361FFF7E3FA002881
:1040D00008BF80BDBDE88040FCF72EBB80B547F22D
:1040E000F80044F60001C2F20000C4F2000100230F
:1040F0004FF00C0C4FF4E13280E80E00C0E90333BE
:10410000C0E905C3C361FFF7C5FA002808BF80BD39
:10411000BDE88040FCF710BB80B546F6341040F295
:104120000C01C2F20000C2F20001002201F026FEE2
:10413000002818BFFCF700FBFCF7F8F9012819D09C
:10414000A0BB46F6341040F23001C2F20000C2F2C9
:10415000000102F06FF9002818BFFCF7EDFA46F6EF
:10416000341040F27011C2F20000C2F2000101F0FE
:104170001DFC17E046F6341040F28411C2F2000034
:10418000C2F2000102F056F9002818BFFCF7D4FA79
:1041900046F6341040F22821C2F20000C2F20001BB
:1041A00002F0A0F8002818BFFCF7C6FA46F6341053
:1041B000C2F2000002F054F9002808BF80BDBDE83B
:1041C0008040FCF7B9BA000080B546F69C4045F641
:1041D0000041C2F20000C4F200010822022380E87C
:1041E0000E000021C0E906110162FDF70BFD002859
:1041F00008BF80BDBDE88040FCF79EBAFEE7000026
:10420000FEE70000000000000000000000000000C9
:10421000EFF30980BFF36F8F0D4B1A6820E9F00FA1
:1042200010602DE908404FF0500080F3118807F02E
:1042300057FE4FF0000080F31188BDE80840196870
:104240000868B0E8F00F80F30988BFF36F8F7047FC
:104250001C7700202DE9F04182B01378D0F89062ED
:104260005A2B00F2A081DFE813F06B009E019E0143
:10427000E7009E019E019E019E019E019E019E01FE
:104280009E019E019E019E019E019E019E011101C3
:104290009E019E019E019E019E019E019E018E0037
:1042A0005B009E019E015B009E019E019E019E019E
:1042B000B1009E01D6009E019E0165019E01300164
:1042C0009E019E019E019E015E009E019E019E0137
:1042D0009E019E019E019E019E019E019E019E01E6
:1042E0009E019E019E019E019E019E019E019E01D6
:1042F0009E019E019E019E019E019E019E019E01C6
:104300009E019E019E019E019E019E019E019E01B5
:104310009E019E019E019E019E019E019E019F00A5
:10432000002474810BE25078800700F1CC81D6F82C
:104330006812D6E998200844904200F2C481EFE761
:10434000D6F81422002A40F0BE810446D0F8940228
:104350008268084690470028E2D0D4F890020223F1
:1043600090F85D12002400EBC102013182F83C326A
:1043700082F84042CAB2043A18BF0A4680F85D2269
:1043800005203072DBE108204DF20572708106F1E4
:1043900013000021C0F600025318DB7943540139A1
:1043A00011F10803F8D1ACE108204DF2FD627081F3
:1043B00006F113000021C0F6000200BF5318DB799C
:1043C0004354013911F10803F8D19AE100247461D2
:1043D0003461F4600546D0F894026B4647680DF1ED
:1043E000060208461946B847002800F00281D5F8B1
:1043F0009002022390F85D1200EBC102013182F8B5
:104400003C3282F84042CAB2043A18BF0A4680F8E9
:104410005D22002493E10446D0F8940206F5187357
:10442000476806F25E2208461946B847002800F0A1
:10443000F680D4F8900271E10020F0603061B08322
:10444000B061706196F85C0296F85D32702131734C
:1044500098424FF00C01F17411D006EBC00191F8B5
:104460003C3291F8407291F8411201303176C1B27C
:104470000439B373777618BF014686F85C121220B0
:1044800070811079122840F2C7803AE15378DB0737
:1044900040F09980D0F8940201EBC101C069127913
:1044A00000EB810001790531914228BF1146002AB5
:1044B000718100F0268106F10C02002401398BB2D3
:1044C000C75C002BD754F9D139E1337A002B00F0C7
:1044D000BA80D6E99923B6F85E528046D0F89402A5
:1044E00003FB05F7B7F5007F28BF4FF40077446959
:1044F000B7FBF5F306F10C0508462946A047B0F1D5
:10450000FF3F70DDB6F85E02D6E99923B7FBF0F104
:10451000D6F834420A44591AC6E99921A4EB070295
:10452000C6F8342240F0E180404600210024FFF725
:1045300071FC04E1337A002B00F0C1808046D0E9A1
:10454000A4704FF40074D7E99923B7F85E527481D0
:104550006B43B3F5007F38BF1C460669B4FBF5F327
:1045600007F10C0508462946B047B0F1FF3F3ADD98
:10457000A3B2404681212A4601F034FEB7F85E021C
:10458000D7E99912B4FBF0F0D7F834320144101A8D
:10459000C7E99910A3EB0400C7F8340204BF032055
:1045A00038720024CBE096F85D02052206EBC001CC
:1045B00081F83C220022013081F84022C1B2043946
:1045C0004FF0FF048CE007204DF20D72708106F170
:1045D00012000021C0F6000253189B7943540139A0
:1045E000CB1DF9D18DE0D8F89002042390F85D122C
:1045F00097E000990820F073481E010E3174010CF9
:104600007174010AB174BDF80610F0740220B08212
:1046100008BA000CF0820C20708100248FE0D6F8DC
:10462000600200240138010E3173010C7173010A1C
:10463000F073B6F85E02B17300BA000C7082082005
:10464000348270817BE096F91832B3F1FF3F3ADD96
:104650000546D0F894021746826808460C469047F3
:10466000002859D1D5F89402C1682046884700280F
:1046700052D1D7F80200D5F8901202BAC6F86422D7
:10468000B7F8073028461FBAD1F8605202EB174737
:104690005ABAAF42C6F8682200F28680B6F85E3297
:1046A000D6F8147253439F427ED1012106F10C02C9
:1046B000B3F5007F28BF4FF4007331721FE096F905
:1046C0001832002B1FD496F85D02052206EBC001BC
:1046D0000024013081F83C2281F84042C1B2043903
:1046E00018BF014686F85D1229E001FB00F3B3F51F
:1046F000007F28BF4FF40073404601212A4601F095
:10470000AFFC00241BE00546D0F8940217468268EF
:1047100008460C469047B0B1D5F8900290F85D126B
:10472000022300EBC1020024013182F83C3282F8FE
:104730004042CAB2043A18BF0A4680F85D2260B20D
:1047400002B0BDE8F081D7F80200D5F8902201BA96
:10475000C6F86412B7F8073028461FBAD2F860527C
:1047600001EB174759BAAF42C6F868120AD8B6F833
:104770005E72D6F81452794302238D422146337279
:104780003FF4DCAE92F85D02052302EBC001002489
:10479000013081F83C3281F84042C1B2043918BF7F
:1047A000014682F85D12CAE791F85D02052301EB2C
:1047B000C0020024013082F83C3282F84042C2B28A
:1047C000043A18BF024681F85D22B8E7D0F890029B
:1047D00090F85D1200EBC10383F83C220022013106
:1047E00083F84022CAB2043A18BF0A4680F85D2214
:1047F0007047000080B5024691E80950506293620C
:1048000008694EEA0C0318434969D36A084323F048
:10481000F70101430020D16280BD0000006800F074
:1048200003007047084440697047000010B5844693
:10483000DDE90240114319432143DDF810E008434C
:10484000DCF8041047F6FF6240EA0E009143014392
:104850000020CCF8041010BD0146032200200A609D
:1048600070470000D0F880007047000009680246D9
:104870000020C2F8801070478160C36840F2774121
:1048800061F30B03372141F28832C36000F0C8B9ED
:1048900041F0004141F480118160C16840F26942F9
:1048A00062F30B01C16040F22C01C2F20001096801
:1048B00044F6D352C1F26202A1FB0212510A41F244
:1048C00088325143C94300BF013124BF4FF000403B
:1048D0007047426B12F0450FF6D012F40062F3D12C
:1048E000416B042211F0040108BFC522826308460F
:1048F000704700008160C3684FF48A6161F30B0365
:10490000102141F28832C36000F08AB98160C36827
:1049100040F2464161F30B03062141F28832C36045
:1049200000F07EB900218160C1684FF4806262F3BB
:104930000B01C16040F22C01C2F20001096844F68B
:10494000D352C1F26202A1FB0212510A41F2883233
:104950005143C943013124BF4FF000407047426BBF
:104960001206F7D5C5218163002070474FF4D57139
:104970008160C1684FF4896262F30B01C16040F24B
:104980002C01C2F20001096844F6D352C1F262025E
:10499000A1FB0212510A41F288325143C94300BFC0
:1049A000013124BF4FF000407047426B12F0450FB9
:1049B000F6D012F40062F3D1416B490709D4416B80
:1049C000C90709D1416B49064FF0000107D54022C4
:1049D00004E00422042101E001220121826308464F
:1049E000704700008160C36840F2524161F30B03DD
:1049F000122141F28832C36000F012B98160C368AD
:104A000040F2514161F30B03112141F28832C3603E
:104A100000F006B98260C36840F2474161F30B03BE
:104A2000072141F28832C36000F0FAB800218160AA
:104A3000C16840F2C24262F30B01C16040F22C0136
:104A4000C2F20001096844F6D352C1F26202A1FB2E
:104A50000212510A41F288325143C943013124BF45
:104A60004FF000407047426B12F0450FF6D012F441
:104A70000062F3D1416B490706D4416BC90707D1E6
:104A8000C5218163002070470421816304207047A1
:104A900001218163012070478160C16840F2C942F1
:104AA00062F30B01C16040F22C01C2F200010968FF
:104AB00044F6D352C1F26202A1FB0212510A41F242
:104AC00088325143C94300BF013124BF4FF0004039
:104AD0007047426B12F0450FF6D012F40062F3D12A
:104AE000416B490706D4416BC90707D1C5218163D2
:104AF00000207047042181630420704701218163F5
:104B00000120704700218160C36840F2734161F366
:104B10000B03332141F28832C36000F081B80000FA
:104B20008160C36840F24D4161F30B030D2141F2F6
:104B30008832C36000F074B800228260C26840F21C
:104B4000434363F30B02C26040F22C02C2F2000244
:104B5000126844F6D353C1F26203A2FB03235A0A3C
:104B600041F288335A43D243013224BF4FF0004010
:104B70007047436B13F0450FF6D013F40063F3D185
:104B8000426B520718D4426BD20719D10269D2B2D4
:104B9000032A17D1C5228263406910F4604F13D0F5
:104BA000410444BF4FF40050704700044FF480505C
:104BB00058BF4FF480307047042181630420704750
:104BC0000121816301207047000C0880002070479C
:104BD00000218160C36840F24C414EF2001261F343
:104BE0000B03C0F2F5520C21C36000F019B80000AD
:104BF0008160C36840F2594161F30B03192141F20E
:104C00008832C36000F00CB88160C3684FF48B61D8
:104C100061F30B03182141F28832C360AFF30080C7
:104C200040F22C03C2F20003D3F800C044F6D35381
:104C3000C1F26203ACFB033C4FEA5C235A430132EE
:104C4000013A04BF4FF000407047436B13F0450F2B
:104C5000F6D013F40063F3D1426B520773D4426B66
:104C6000D20774D1C52282630269D2B291421CBFBD
:104C70000120704740694EF20801CFF6FF5108420B
:104C800004BF00207047002844BF4FF000707047F9
:104C90000021B1EB907F1CBF40207047B1EB507FEB
:104CA0001CBF80207047B1EB107F1CBF4FF4807099
:104CB0007047B1EBD06F1CBF4FF400707047B1EB81
:104CC000906F1CBF4FF480607047C10144BF4FF428
:104CD00000607047010244BF4FF4805070474102AA
:104CE00044BF4FF400507047810244BF4FF48040EE
:104CF0007047C10244BF4FF400407047410344BFB6
:104D00004FF400307047810344BF4FF48020704758
:104D1000C10344BF4FF400207047010444BF4FF467
:104D200080107047410444BF4FF400107047810465
:104D300044BF4FF48000704700074FF4000058BF95
:104D40004FF4803070470146042088637047014665
:104D500001208863704700002DE9F04188B00C46BF
:104D60000546FCF7A3F8064600212868019100914A
:104D70000821FFF7BFFD10B108B0BDE8F081296D33
:104D800028680904FFF778FD0028F5D14FF0FF30BF
:104D9000029008200390302004900220059000200B
:104DA000069001212868079102A9FFF723FD2868D2
:104DB000FFF7A8FE0028DFD10027E8460CE000BF7F
:104DC000FFF750FD48F827000137FCF76FF8801B0C
:104DD00001304FF00040CFD02868416B11F02A0F0E
:104DE00005D1416B8902EBD4416B8904EDD4416B51
:104DF000090712D4416B890712D4416B890612D47A
:104E000040F23A518163DDE9001000BA09BAC4E901
:104E10000001002008B0BDE8F0810146082004E050
:104E20000146022001E001462020886308B0BDE869
:104E3000F081000010B540F22804C2F20004012005
:104E40002070FBF783FA08B1207810BD207800F0BD
:104E5000FE002070207810BD10B588B040F2280008
:104E6000C2F200000078C0070CD1084603291CD804
:104E7000DFE800F01C020B1268461446FBF752FAFA
:104E800006980EE0032008B010BD68461446FBF7F4
:104E900049FA0798208005E068461446FBF742FA75
:104EA00007982060002008B010BD042008B010BD95
:104EB00010B59C464EF200130846C0F2F553114659
:104EC0006246FBF76BFA40B947F65F14CFF6FE7403
:104ED000FBF730FA18B10134FAD3012010BD0020DD
:104EE00010BD000010B540F22804C2F200040120F9
:104EF0002070FBF71FFA08B1207810BD207800F071
:104F0000FE002070207810BD10B59C464EF20013B4
:104F10000846C0F2F55311466246FBF753FA40B912
:104F200047F65F14CFF6FE74FBF704FA18B10134AC
:104F3000FAD3012010BD002010BD0000406A0168B6
:104F40004A6822F003024A60416D41F01001416558
:104F5000012180F85110FDF757BF0000406AFEF7AD
:104F60006BB80000B0B582B0446A0546FBF79EFFFF
:104F70002968096889062ED403462068642241689E
:104F800021F020014160416821F00201416020468A
:104F9000802100F027F838B1606D40F02000606596
:104FA000606D40F020006065A06838B90020019075
:104FB0002068C16801918068019001980020E08616
:104FC000012084F85100606D28B1204602B0BDE890
:104FD000B040FDF719BF204602B0BDE8B040FEF773
:104FE00029B800002DE9F04381B01E4690460D46D9
:104FF0008146FBF75BFF301A00EB0807FBF756FF13
:1050000040F22C01C2F200010968C1F3CB317943AF
:105010000091D9F8001089682940A94219D10646A3
:1050200008F1010406E000BFD9F8000080682840BC
:10503000A8420ED1002CF7D0FBF738FF801BB842F6
:105040000BD200980099002808BF0746481E009020
:10505000EAE7002001B0BDE8F083D9E90001426829
:10506000B1F5827F22F0E00242600BD1D9F808103E
:10507000B1F5004F02D0B1F5806F03D1016821F086
:1050800040010160D9F82810B1F5005F07D101682F
:1050900021F400510160016841F4005101600120D8
:1050A00089F85100002089F85000032001B0BDE8C4
:1050B000F083000046F68C7CC2F2000CDCF8543021
:1050C0004CF6CD40CCF6CC40A3FB0003980A086018
:1050D000DCF8581000201180704700000020704755
:1050E0000020704780B546F68C70C2F20000FDF7D4
:1050F00041FB013818BF0120400080BD00207047EF
:1051000080B582B046F68C704FF47A7CC2F2000013
:10511000CDF800C0FDF7A2FC002818BF0120400018
:1051200002B080BD80B582B046F68C704FF47A7CB8
:10513000C2F20000CDF800C0FDF77EFD002818BFC8
:105140000120400002B080BD00000000000000000F
:10515000074B19680868B0E8F00F80F30988BFF3BF
:105160006F8F4FF0000080F311884EF00D0E7047E6
:105170001C77002045F2C04045F62011C2F2000025
:10518000C2F20001012203F011FB47F6D83146F6C6
:10519000AE05C2F20001C2F2000509A4087000BF0A
:1051A0002888013081B2642988BF0020288081B21C
:1051B000204607F069FF0A2005F0D4FAF0E700BFA7
:1051C0007768617420636F6C6F723A2564600000C9
:1051D00041F24059C2F200094FF0640A4FF038081A
:1051E00003E000BF012005F0BDFAD9F800004768D0
:1051F0005FB9F7E7288A00F03C0120F4707040EABC
:10520000011028827F68002FECD03D686869002873
:10521000F8D08047298A0446C1F34000A0421DD13E
:10522000FBF744FE298AD5E901C34E0B1CF8362052
:10523000C31A934270D9084664F30000E207C1F331
:105240008304288218D10CB1052C4DD101F03C000B
:10525000142861D121F03D005DE000BF04F00100A1
:1052600021F0020141EA40002882FBF71FFE7F681F
:10527000A860002FC9D1B5E7012C05D01CBB40F0B8
:10528000040020F0380046E00CEBC602527802FB26
:105290000AF2934217D940F0080020F03400288227
:1052A000FBF704FE298A6A6808EA91231A44EB682E
:1052B0009279C01A02FB0AF290421AD241F0180009
:1052C00020F0240027E001F03C060C2E17D0082E19
:1052D00022D108EA91226244528802FB0AF29342E8
:1052E0000BD940F00C0016E041F0140020F029002A
:1052F00011E0FBF7DBFDE8600EE00C2E0CD108EAB4
:1053000091216144898801FB0AF18B4204D940F064
:10531000100020F02C002882288AC0F38311C0F3EB
:10532000830081423FF466AFA969002918BF88470E
:1053300060E7000080B582B0019004F037FEFFE71F
:105340000A2005F00FFAFBE740F2FF7B45F6241731
:10535000C0F2F00BC2F200074FF00A0A03E000BFF0
:10536000012005F0FFF945F2B840C2F200000068E4
:10537000466876B9F4E700BFD9F8141000208847D2
:105380003878B0F10A0118BF411C76683970002ED8
:10539000E6D0D6F80090D9F80C0028B3FBF786FDCC
:1053A000494631F8103F51F80C2CC3F3841444EAF9
:1053B000C41402EB440251F8045C92F80041401B13
:1053C00004EB8405B0EB450F1DD9887843EA004013
:1053D000C0F3C7230133D55C002D5AD000EA0B007F
:1053E00040EAC32006E000BF494631F8100F8A7832
:1053F00040EA024040F400220880100C8870FBF75D
:1054000055FDC9F80C00C84638F8101F98F802007E
:1054100058F80C2C41EA0040C1F3841141EAC11153
:1054200002EB4101C0F3C7228B5C303B112B7DD8CE
:105430000FF2080505EB8305AF4600BF00F022B868
:1054400000F052B800F04EB800F04AB800F044B88E
:1054500000F044B800F04AB800F04AB800F04CB888
:1054600000F048B800F062B800F060B800F05EB834
:1054700000F05CB800F05AB800F058B800F056B828
:1054800000F027B801466FF31F51A8F80000080C80
:1054900039E092F80121520756D4820609D54FF619
:1054A0001F02C0F2FF02024060F38A12100C0A8051
:1054B000887088780A8842EA00404FF6FF72C0F28E
:1054C000F7021040000C88707668002E7FF461AF00
:1054D00046E76AF31F5013E004210FE005210DE0B9
:1054E00003210BE0022109E0012107E0062105E08C
:1054F000072103E0092101E0082100BF61F31F50EB
:10550000A8F80000000C88F8020098F802000009D2
:105510000A283FF631AF397888423FF62DAFD9F8E7
:10552000141000293FF428AF012028E7D9F81830DB
:1055300040F47005A8F80000280C002B88F8020041
:10554000E3D088189847E0E700EA0B0052E7000034
:1055500080B54FF0500080F31188BFF36F8FBFF319
:105560004F8F07F025FB30B14EF60450CEF200000D
:105570004FF080510160002080F3118880BD000051
:1055800070B596B00CAC20462821FAF70CFE01202D
:105590000C9010904FF4E01000254FF4803102265B
:1055A000159020460B95CDE90955CDE90755CDE974
:1055B0000555CDE90355CDE90155CDE90D15CDE9E9
:1055C0001361FCF7C3FD20B1EFF3108072B600BF8A
:1055D000FEE70F20CDE907064FF48060CDE90A050C
:1055E00007A802210995FCF78DFC20B1EFF310808C
:1055F00072B600BFFEE7102001900020069001A8BF
:10560000FCF700FC18B1EFF3108072B6FEE716B09D
:1056100070BD00007047000047F26800C2F2000051
:10562000FDF786BD10B540F6FF320368C4F20002F4
:1056300040F6004E43F2004C9042C4F2000EC4F219
:10564000010C20DCB0F1804F27D040F20044C4F2BE
:105650000004A04221D040F60004C4F20004A0429D
:105660001BD090421FDCB0F1804F26D040F20042A8
:10567000C4F20002904220D040F60002C4F20002C0
:1056800090421AD01DE0704507D0604505D042F623
:105690000044C4F20104A042E3D14C6823F070033B
:1056A00023439042DFDD704507D0604505D042F6C8
:1056B0000042C4F20102904203D1CA6823F440734D
:1056C00013434C6923F08002D1F800E08B68224339
:1056D00060450260C362C0F828E005D042F600428F
:1056E000C4F20102904201D10969016301214161C3
:1056F00010BD0000406A0021C185C184FDF746BE8F
:1057000090F84210222918BF70478268B2F5805F76
:1057100002D1016900294AD0816AB2F5805F07D0C1
:105720000AB9026922B10268526802F07F0201E000
:10573000026852680A70816A01318162C18D013943
:105740000A04C18500D070470168CA6822F02002AF
:10575000CA60CA6822F48072CA604A6922F00102F3
:105760004A61202180F8421000214163026B012A26
:1057700018BFFEF7BFB881B0016300BF016851E8F0
:10578000031F026821F0100142E80313002BF5D13A
:1057900001680A68D20606D5002200920A680092C3
:1057A000496800910099818D01B0FDF7CBBD01687A
:1057B000826A49686FF35F2122F8021B8262BDE7AB
:1057C00047F2F800C2F20000FDF7E2BDD0F89022E7
:1057D000002A04BF0220704710B501EB810300EBE3
:1057E000830C5CF81C3F63B1D0F898E201EB8104B4
:1057F0000EEBC404D4F838E0B3FBFEF404FB1E3314
:105800001BB10020C2F8140210BD00220023CCF806
:10581000002000F0E7FC002010BD0000B0B5D0F87B
:105820009052044600F096FBD4F89012C5F80C0292
:1058300049B1D4F8940205F50371C268D5F80402A1
:1058400090470020B0BD0220B0BD0000B0B581215E
:10585000044600F0BDFA002520460121E56200F073
:10586000B7FA20468221C4F8585100F0B1FAD4F8B2
:105870009002256448B1D4F8940240688047D4F877
:10588000900201F003F8C4F890520020B0BD00006F
:10589000D0F8941281B110B5D0F8904294F800027B
:1058A000FF2807D08B6894F8012221469847FF20F3
:1058B00084F80002BDE8104000207047014640F225
:1058C000F0000A22C2F200000A807047014640F24E
:1058D00068004322C2F200000A807047014640F28D
:1058E000AC004322C2F200000A807047014640F239
:1058F00004104322C2F200000A807047F0B581B064
:105900000546007C4027002808BF4FF40077284652
:10591000812102223B46402400F08EFB01262846CE
:10592000012102223B46EE6200F086FB28468221DE
:1059300003220823C5F8586100F07EFB4FF407707E
:105940002E6400F0A5FFC5F89002A8B10746D5F86F
:105950009402006880470026C7F81462C7F81862EE
:10596000287CD7F80422002808BF4FF4007428468A
:105970000121234600F074FB304601B0F0BD000069
:10598000D0F89012002904BF0220704780B590F82B
:1059900010C0D1F8042240230121BCF1000F08BF40
:1059A0004FF4007300F05CFB002080BD00290EBFA7
:1059B0000220C0F89412002070470000D0F8902216
:1059C0000020C2F804127047D0F890320020C3F8CB
:1059D0000812C3F810227047F0B581B091F9003079
:1059E000D0F89042002513F060028DF80350ADF816
:1059F00000500FD0202A2DD1CA88C2B1B3F1FF3F89
:105A00002DDD497884F8012284F80012214600F047
:105A10005BF832E04A780B2A18D00A2A0ED0CAB9AD
:105A200090F87422032A15D16946022223E0D0F8A7
:105A3000940200228368487898471EE090F8742208
:105A4000032A07D10DF10301012214E090F874221A
:105A5000032A12D000F02CF8022001B0F0BDD0F8DB
:105A6000943206469D684B780F4618462146A84753
:105A7000FA883046214600F041F8002001B0F0BD20
:105A800080B5D0F88C2252689047002080BD00007D
:105A900080B513460A46002100F0E2FA002080BDDE
:105AA00080B513460A46002100F09CFB002080BD13
:105AB00010B58021044600F067FB20460021BDE8B8
:105AC000104000F061BB000080B513460A46032178
:105AD000C0F86C120021C0E9523300F0C1FA002076
