:020000040800F2
:1000000090970020450100083D6B00086901000839
:10001000396B0008D108000865DE00080000000008
:10002000000000000000000000000000D194000863
:10003000B50A000800000000C1720008899A000893
:100040005F0100085F0100085F0100085F01000810
:100050005F0100085F0100085F0100085F01000800
:100060005F0100085F0100085F0100085F010008F0
:100070005F010008310A00085F0100085F01000805
:10008000450A0008550A00085F0100085F010008E2
:10009000B9DC00085F0100085F0100085F0100088B
:1000A0005F0100085F0100085F0100085F010008B0
:1000B0005F0100085F0100085F0100085F010008A0
:1000C0005F0100085F0100085F0100085F01000890
:1000D0005F0100085F0100085F0100087DA10008C2
:1000E0005F0100085F0100085F0100085F01000870
:1000F0005D9B00085F0100085F0100085F010008C8
:100100005F0100085F0100085F0100085F0100084F
:100110005F0100085F0100085F0100085F0100083F
:100120005F0100085F0100085F0100085F0100082F
:10013000DFF80CD000F06EFA004800470D210108EE
:10014000909700200648804706480047FEE7FEE7F4
:10015000FEE7FEE7FEE7FEE7FEE7FEE7FEE7FEE777
:10016000599B000831010008704669460EF086F977
:10017000FFF7FEFF40EA01039B0703D009E008C92F
:10018000121F08C0042AFAD203E011F8013B00F85C
:10019000013B521EF9D27047D2B201E000F8012BA8
:1001A000491EFBD270470022F6E710B513460A46F7
:1001B00004461946FFF7F0FF204610BD421E12F814
:1001C000013F002BFBD111F8013B02F8013B002B52
:1001D000F9D1704710B5044604E00B7800F8013BF4
:1001E00003B1491C521EF8D2204610BD421C10F823
:1001F000011B0029FBD1801A704710B5002200E0D6
:10020000521C835C8C5CA34201D1002BF8D1D8B284
:10021000E1B2401A10BD30B50B4601460020202245
:10022000012409E021FA02F59D4205D303FA02F503
:10023000491B04FA02F52844151EA2F10102F1DC63
:1002400030BD2DE9F05F0546002092469B4688466A
:100250000646814640241BE0284641464746224642
:1002600000F0F9F953465A46C01A914110D311468D
:100270001846224600F0E0F92D1A67EB01084F46B8
:1002800022460120002100F0D7F917EB00094E416A
:10029000201EA4F10104DFDC484631462A464346CD
:1002A000BDE8F09F2DE9FE4F804681EA0300C00FB4
:1002B0000C46009021F0004123F00045B8EB02000D
:1002C000A94105D24046214690461C460B460246AF
:1002D00023F00040104347D0270DC7F30A00C3F3B3
:1002E0000A510290401A019040286BDAC3F31300C0
:1002F00040F4801B0098924620B10023D2EB030A01
:1003000063EB0B0B01985946C0F14002504600F0D8
:1003100093F906460D4650465946019A00F0ABF94E
:1003200010EB08006141002487EA115284EAE77368
:100330001A4340D0009A62B3019A012A4FEA075249
:1003400015DC001B61EB02014FF0004202EA07528C
:10035000CDE90042001C41F5801132462B4600F0E9
:10036000ABF903B0BDE8F08F40462146F9E7001B2A
:1003700061EB0201001C41F5801300185B4120185D
:10038000A2F5001747EB030140EAD570B6196D419D
:1003900011E06D084FEA360645EAC0754FEA07528C
:1003A000001B61EB0201001C41F5801149084FEA76
:1003B00030000019514132462B4603B0BDE8F04FE2
:1003C00000F06BB90098012240000023D0EB02023C
:1003D00063EBE073009821464FEAE074B8EB00004D
:1003E00061EB0401E9E783F000435BE781F0004142
:1003F00058E72DE9FE4F81EA030404F0004421F0A0
:10040000004100944FF0000B23F0004350EA010438
:100410005ED052EA03045BD0C3F30A54C1F30A5519
:100420002C44A4F2F3340194A0FB0254C1F3130151
:1004300041F48011C3F3130343F4801301FB02441E
:1004400000FB034E840A970A44EA815447EA835723
:10045000A4FB076802958D0A05FB07854FEA932CDC
:1004600004FB0C542705029D4FEA065847EA16374D
:10047000B5EB08056EEB070C870E920E47EA811765
:1004800042EA8312A7FB0201B6EB0B0164EB000406
:100490002B0D43EA0C335E1844EB1C50DA465146F0
:1004A000E7FB0201C5F313044FEA0B3343EA14538D
:1004B0004FEA0432019C43EA0603A4F10C040294BF
:1004C000009CCDE900B400F0F7F803B0BDE8F08F70
:1004D00000200146F9E72DE9F04D81EA030404F01C
:1004E000004B21F0004514464FF0000A23F0004174
:1004F00050EA050220D054EA01021DD0C5F30A5784
:100500000246C5F31303C1F31300C1F30A5640F4C6
:10051000801543F48013A7EB0608101BD64608F29B
:10052000FD3873EB050002D308F1010801E09218D1
:100530005B41B8F1000F03DA00200146BDE8F08D01
:1005400000204FF48011064684460EE0171B73EB23
:10055000050705D3121B63EB050306434CEA010CA8
:1005600049084FEA300092185B4150EA0107EDD18B
:1005700052EA030012D082EA040083EA050108432C
:1005800005D0101BAB4106D20122002306E0002259
:100590004FF0004302E06FF0010253101AEB060027
:1005A0004CEB085110EB0A0041EB0B01BDE8F04D9C
:1005B00000F073B8C1F30A52C1F3130140F2FF33E4
:1005C00041F480119A4202DA00200146704740F25D
:1005D00033439A42A2F2334202DC524200F03BB86B
:1005E00000F02AB830B5041E71F1000404DB4FF0AE
:1005F0000044404264EB0101141E73F1000405DB6A
:100600001C464FF00043524263EB0403994208BF7B
:10061000904230BD064C074D06E0E06840F0010313
:1006200094E8070098471034AC42F6D3FFF784FDF6
:100630003423040854230408202A04DB203A00FA57
:1006400002F1002070479140C2F1200320FA03F329
:10065000194390407047202A04DB203A21FA02F027
:100660000021704721FA02F3D040C2F120029140EC
:10067000084319467047202A06DBCB17203A41FA77
:1006800002F043EAE07306E041FA02F3D040C2F11F
:100690002002914008431946704710B5141E73F1AB
:1006A000000408DA401C41F1000192185B411A4332
:1006B00001D120F0010010BD2DE9F04D92469B467E
:1006C00011B1B1FA81F202E0B0FA80F22032904624
:1006D000FFF7B2FF04460F4640EA0A0041EA0B0169
:1006E00053465A46084313D0114653EA010019D025
:1006F000C8F140025046FFF7AEFF05460E46504691
:1007000059464246FFF798FF084305D0012004E010
:1007100020463946BDE8F08D0020054346EAE076E4
:100720002C4337430A986305E40AA0EB0800002233
:10073000FD0A44EA47540A3002D500200146E9E7A1
:10074000010510196941DDE9084500196941BDE855
:10075000F04DA2E770B58C1810F8015B15F0070397
:1007600001D110F8013B2A1106D110F8012B03E04A
:1007700010F8016B01F8016B5B1EF9D12B0705D452
:100780000023521E0DD401F8013BFAE710F8013B9B
:10079000CB1A921C03E013F8015B01F8015B521EB7
:1007A000F9D5A142D8D3002070BD000080B582B039
:1007B0000190019944F6A410C2F2000003F04EFE2D
:1007C00002B080BD80B544F6A410C2F2000003F070
:1007D0006BFE043818BF012080BD000080B582B0D8
:1007E00000208DF8060000F02BF8012804D0FFE768
:1007F00001208DF807001FE044F6A410C2F20000AB
:1008000003F074FE8DF806009DF8060078B9FFE746
:1008100044F6A410C2F200004FF4006103F03AFC69
:1008200020B1FFE701208DF80600FFE7FFE79DF804
:1008300006008DF80700FFE79DF8070002B080BDB5
:1008400081B001208DF803009DF8030001B07047CE
:1008500080B586B0059004910392029300208DF834
:1008600007000599049A039B0298EC46CCF8000017
:1008700044F6A410C2F2000003F04EFF20B1FFE7DF
:1008800001208DF80700FFE79DF8070006B080BD46
:1008900080B586B0059004910392029300208DF8F4
:1008A00007000599049A039B0298EC46CCF80000D7
:1008B00044F6A410C2F2000004F032F920B1FFE7C0
:1008C00001208DF80700FFE79DF8070006B080BD06
:1008D000FFE7FEE780B586B08DF817000491ADF80C
:1008E0000E209DF8170001460291232800F258803F
:1008F0000299DFE801F01213141516555555555598
:100900005555555555555555555555555555555597
:100910005555555555551738535442E041E040E080
:100920003FE03EE00498006840F2FC01C2F20001A2
:100930000860049800790871049840794871049817
:100940008079887169460020486008604CF2277001
:10095000C0F602004CF20671C0F602010222012329
:1009600010F0DEFE1DE040F2FC00C2F20000016863
:10097000049A11700168090A049A51704188049A16
:100980009170C178049AD1700179049A11714179FA
:10099000049A517180790499887102E001E000E0C5
:1009A000FFE7002006B080BD0020704780B582B010
:1009B00044F24C30C2F20000009043F68851C2F27B
:1009C00000010022019209F0BBFD009843F6881156
:1009D000C2F2000109F0A6FD019802B080BD00003E
:1009E00080B586B005900491059944F24C30C2F26E
:1009F0000000029009F096FD029809F04DFD05985F
:100A00000499096800F07AF969460020039048606B
:100A100008604CF21F70C0F602004CF25071C0F634
:100A2000020101231A4610F07BFE039806B080BD38
:100A300080B511F037FA44F2E850C2F2000000F03D
:100A4000B5FB80BD80B544F22C60C2F2000000F01E
:100A5000ADFB80BD80B544F27060C2F2000000F0D2
:100A6000A5FB80BD84B0039002910192009303988E
:100A7000C16B026C0120904048600098039909689E
:100A8000486003984068102809D1FFE7019803994E
:100A900009688860029803990968C86008E00298AC
:100AA000039909688860019803990968C860FFE79D
:100AB00004B070477047000045F24060C2F2000089
:100AC0000078704780B500F0ADF800F013F800F042
:100AD00057F800F0BBF800F0F5F84CF23C70C0F6A7
:100AE00002004CF23872C0F6020211460DF056FEBA
:100AF00080BD000080B540F29020C2F2000010F0EE
:100B00004FFD40F26820C2F2000010F049FD40F2B3
:100B1000F020C2F2000010F043FD40F2B020C2F21B
:100B2000000010F03DFD40F2D020C2F2000010F0B5
:100B300037FD80BD80B582B08DF807009DF8072095
:100B400041F20000C4F20100102101F037F902B0B7
:100B500080BD000080B582B08DF80700FFE711F07E
:100B60008BF908B1FFE7FAE79DF8072040F600008F
:100B7000C4F20100102101F021F902B080BD000093
:100B800080B582B040F60540C0F6000069460860B6
:100B900040F65530C0F6000040F63531C0F6000191
:100BA00040F6C532C0F6000240F6E533C0F6000359
:100BB00011F02CF84DF61D60C0F6000010F002FF99
:100BC00002B080BD80B582B08DF807009DF8072087
:100BD00041F20000C4F20100082101F0EFF802B078
:100BE00080BD000080B582B08DF807009DF8072019
:100BF00041F20000C4F20100202101F0DFF802B050
:100C000080BD000080B582B00190ADF8021001995E
:100C1000BDF8022044F62820C2F2000004F00AFACF
:100C200002B080BD80B540F21030C2F2000010F07A
:100C300017FD40F63800C2F2000010F011FD40F63A
:100C40006050C2F2000010F00BFD80BD80B582B094
:100C500047F24820C2F2000046F64861C2F20001A5
:100C600001224FF48063019313F08EF8019A44F649
:100C70001030C2F2000046F64821C2F2000104F032
:100C8000BBFC02B080BD000080B584B0039002912F
:100C900001920020009003984CF24971C0F60201C5
:100CA000FFF7ABFA50B9FFE70299019A47F24820E3
:100CB000C2F2000013F086F80090FFE7009804B03D
:100CC00080BD000080B547F25C60C2F2000047F2D0
:100CD0005C21C2F2000101224FF4806313F054F84A
:100CE00005F0A8FE40F23000C2F20000026844F2B3
:100CF0004C30C2F200000021904780BD80B582B028
:100D0000019000910199009A47F25C60C2F20000E4
:100D100013F058F802B080BD81B0EFF3108072B6C6
:100D20000090FFE7FEE7000080B582B001900091DF
:100D300001980099002200F003F802B080BD000085
:100D400084B0039002918DF8072001208DF80600F1
:100D500000208DF8050044F2B820C2F20000407A6D
:100D6000012827DCFFE744F2B823C2F20003009316
:100D7000597A0020585403995A7A03EB8202516041
:100D80009DF807105A7A1A441172597A4A1C5A72FD
:100D90008DF805109DF805103031029A1170029AF5
:100DA0003A215170029A2F2191700299C8708DF8E2
:100DB0000600FFE79DF8060004B0704780B584B0D8
:100DC0004FF2E870C1F6FF70006803904FF2EC70CC
:100DD000C1F6FF70006802904FF2F070C1F6FF702C
:100DE000006801900199039808440390039888B122
:100DF000FFE7039840F24821C2F20001009102315E
:100E0000082205F07FF8009902981231042205F0BB
:100E100079F8FFE704B080BD83B0019000208DF821
:100E20000300019890F8210002280DD0FFE70199F6
:100E300004208863FFE70199002081F82000FFE784
:100E400001208DF80B0021E001980168086820F06E
:100E50000E00086001980168086820F00100086031
:100E60000198C16B026C012090404860FFE7019936
:100E7000012081F82100FFE70199002081F820007E
:100E8000FFE79DF803008DF80B00FFE79DF80B00CE
:100E900003B0704780B596B0159000208DF85300D0
:100EA000159890F82100022807D0FFE71599042033
:100EB000886301208DF8530074E115980168086873
:100EC00020F00E00086015980168086820F0010005
:100ED0000860159800688121C4F202018842C0F0C0
:100EE000A880FFE7159800680821C4F20201884233
:100EF00003D1FFE70120139094E0159800681C21AE
:100F0000C4F20201884203D1FFE71020129086E06C
:100F1000159800683021C4F20201884204D1FFE72D
:100F20004FF48070119077E0159800684421C4F266
:100F30000201884204D1FFE74FF48050109068E02E
:100F4000159800685821C4F20201884204D1FFE7D5
:100F50004FF480300F9059E0159800686C21C4F26E
:100F60000201884204D1FFE74FF480100E904AE05E
:100F7000159800688021C4F20201884204D1FFE77D
:100F80004FF080700D903BE01598006840F20841EA
:100F9000C4F20201884203D1FFE701200C902CE04B
:100FA0001598006840F21C41C4F20201884203D146
:100FB000FFE710200B901DE01598006840F23041CB
:100FC000C4F20201884204D1FFE74FF480700A9016
:100FD0000DE01598016840F24442C4F202024FF459
:100FE0008030914208BF4FF480500A90FFE70A9882
:100FF0000B90FFE70B980C90FFE70C980D90FFE724
:101000000D980E90FFE70E980F90FFE70F98109045
:10101000FFE710981190FFE711981290FFE71298E0
:101020001390FFE7139840F20441C4F202010860F4
:10103000A5E0159800680821C4F20201884203D196
:10104000FFE70120099094E0159800681C21C4F284
:101050000201884203D1FFE71020089086E015982E
:1010600000683021C4F20201884204D1FFE74FF446
:101070008070079077E0159800684421C4F202015F
:10108000884204D1FFE74FF48050069068E015983D
:1010900000685821C4F20201884204D1FFE74FF4EE
:1010A0008030059059E0159800686C21C4F2020167
:1010B000884204D1FFE74FF4801004904AE015986D
:1010C00000688021C4F20201884204D1FFE74FF09A
:1010D000807003903BE01598006840F20841C4F22C
:1010E0000201884203D1FFE7012002902CE015980D
:1010F000006840F21C41C4F20201884203D1FFE7BC
:10110000102001901DE01598006840F23041C4F2B3
:101110000201884204D1FFE74FF4807000900DE097
:101120001598016840F24442C4F202024FF4803044
:10113000914208BF4FF480500090FFE70098019063
:10114000FFE701980290FFE702980390FFE70398FA
:101150000490FFE704980590FFE705980690FFE7E5
:1011600006980790FFE707980890FFE7089809900E
:10117000FFE709980421C4F202010860FFE715990E
:10118000012081F82100FFE71599002081F8200057
:10119000FFE71598406B20B1FFE71598416B884732
:1011A000FFE7FFE79DF8530016B080BD80B5ACB0F7
:1011B0002B902B98C06B00682A902B9800680068D1
:1011C00029902A982B99096CC8404007002840F1C3
:1011D0007581FFE79DF8A4004007002840F16E816B
:1011E000FFE72B98006800688006002807D4FFE717
:1011F0002B980168086820F004000860FFE72B982E
:1012000000688121C4F202018842C0F0A880FFE793
:101210002B9800680821C4F20201884203D1FFE73D
:101220000420289094E02B9800681C21C4F202014D
:10123000884203D1FFE74020279086E02B98006882
:101240003021C4F20201884204D1FFE74FF48060EC
:10125000269077E02B9800684421C4F2020188426E
:1012600004D1FFE74FF48040259068E02B98006898
:101270005821C4F20201884204D1FFE74FF48020D4
:10128000249059E02B9800686C21C4F20201884236
:1012900004D1FFE74FF4800023904AE02B980068C8
:1012A0008021C4F20201884204D1FFE74FF0806040
:1012B00022903BE02B98006840F20841C4F2020102
:1012C000884203D1FFE7042021902CE02B9800688E
:1012D00040F21C41C4F20201884203D1FFE74020E2
:1012E00020901DE02B98006840F23041C4F20201CA
:1012F000884204D1FFE74FF480601F900DE02B98E7
:10130000016840F24442C4F202024FF4802091424C
:1013100008BF4FF480401F90FFE71F982090FFE721
:1013200020982190FFE721982290FFE722982390B0
:10133000FFE723982490FFE724982590FFE725985E
:101340002690FFE726982790FFE727982890FFE749
:10135000289840F20441C4F202010860A5E02B98ED
:1013600000680821C4F20201884203D1FFE704208B
:101370001E9094E02B9800681C21C4F20201884260
:1013800003D1FFE740201D9086E02B9800683021B4
:10139000C4F20201884204D1FFE74FF480601C9040
:1013A00077E02B9800684421C4F20201884204D1FE
:1013B000FFE74FF480401B9068E02B9800685821AD
:1013C000C4F20201884204D1FFE74FF480201A9052
:1013D00059E02B9800686C21C4F20201884204D1C4
:1013E000FFE74FF4800019904AE02B9800688021B5
:1013F000C4F20201884204D1FFE74FF080601890E8
:101400003BE02B98006840F20841C4F20201884298
:1014100003D1FFE7042017902CE02B98006840F2DE
:101420001C41C4F20201884203D1FFE7402016901C
:101430001DE02B98006840F23041C4F2020188425E
:1014400004D1FFE74FF4806015900DE02B98016800
:1014500040F24442C4F202024FF48020914208BF9D
:101460004FF480401590FFE715981690FFE7169807
:101470001790FFE717981890FFE718981990FFE763
:1014800019981A90FFE71A981B90FFE71B981C9079
:10149000FFE71C981D90FFE71D981E90FFE71E9820
:1014A0000421C4F202010860FFE72B98C06A20B152
:1014B000FFE72B98C16A8847FFE7B7E12A982B9985
:1014C000096CC8408007002840F17F81FFE79DF844
:1014D000A4008007002840F17881FFE72B9800687E
:1014E0000068800600280BD4FFE72B980168086885
:1014F00020F00A0008602B99012081F82100FFE705
:101500002B9800688121C4F202018842C0F0A880B3
:10151000FFE72B9800680821C4F20201884203D13A
:10152000FFE70220149094E02B9800681C21C4F27D
:101530000201884203D1FFE72020139086E02B9818
:1015400000683021C4F20201884204D1FFE74FF461
:101550000070129077E02B9800684421C4F20201D9
:10156000884204D1FFE74FF40050119068E02B98B7
:1015700000685821C4F20201884204D1FFE74FF409
:101580000030109059E02B9800686C21C4F20201E1
:10159000884204D1FFE74FF400100F904AE02B98E7
:1015A00000688021C4F20201884204D1FFE74FF0B5
:1015B00000700E903BE02B98006840F20841C4F2A6
:1015C0000201884203D1FFE702200D902CE02B9806
:1015D000006840F21C41C4F20201884203D1FFE7D7
:1015E00020200C901DE02B98006840F23041C4F29E
:1015F0000201884204D1FFE74FF400700B900DE028
:101600002B98016840F24442C4F202024FF40030C9
:10161000914208BF4FF400500B90FFE70B980C90DD
:10162000FFE70C980D90FFE70D980E90FFE70E98DE
:101630000F90FFE70F981090FFE710981190FFE7C9
:1016400011981290FFE712981390FFE713981490E7
:10165000FFE7149840F20441C4F202010860A5E0DB
:101660002B9800680821C4F20201884203D1FFE7E9
:1016700002200A9094E02B9800681C21C4F2020119
:10168000884203D1FFE72020099086E02B9800686C
:101690003021C4F20201884204D1FFE74FF4007008
:1016A000089077E02B9800684421C4F20201884238
:1016B00004D1FFE74FF40050079068E02B980068D2
:1016C0005821C4F20201884204D1FFE74FF40030F0
:1016D000069059E02B9800686C21C4F20201884200
:1016E00004D1FFE74FF4001005904AE02B98006802
:1016F0008021C4F20201884204D1FFE74FF000705C
:1017000004903BE02B98006840F20841C4F20201CB
:10171000884203D1FFE7022003902CE02B98006859
:1017200040F21C41C4F20201884203D1FFE72020AD
:1017300002901DE02B98006840F23041C4F2020193
:10174000884204D1FFE74FF4007001900DE02B9820
:10175000016840F24442C4F202024FF40030914268
:1017600008BF4FF400500190FFE701980290FFE797
:1017700002980390FFE703980490FFE70498059010
:10178000FFE705980690FFE706980790FFE70798A0
:101790000890FFE708980990FFE709980A90FFE78B
:1017A0000A980421C4F202010860FFE7FFE72B99C1
:1017B000002081F82000FFE72B98806A20B1FFE726
:1017C0002B98816A8847FFE72FE02A982B99096CAC
:1017D000C8400007002827D5FFE79DF8A4000007B0
:1017E000002821D5FFE72B980168086820F00E003B
:1017F00008602B98C26B016C012000FA01F1516066
:101800002B9988632B9981F82100FFE72B99002001
:1018100081F82000FFE72B98006B20B1FFE72B98A1
:10182000016B8847FFE7FFE7FFE7FFE72CB080BDCC
:1018300083B0019000200090019820B9FFE70120BB
:101840008DF80B006AE00198006840F20741C4F28D
:101850000201884218D8FFE7019908684FF6F8722C
:10186000CBF6FD7210444CF6CD42CCF6CC42A0FB38
:1018700002026FF0030000EA920008640199002060
:10188000C4F20200C86318E0019908684FF6F83204
:10189000CBF6FD7210444CF6CD42CCF6CC42A0FB08
:1018A00002026FF0030000EA92000864019940F21E
:1018B0000040C4F20200C863FFE70199022081F8EA
:1018C00021000198006800680090009843F6F071CC
:1018D0008843009001994868D1F808C0CB680A692C
:1018E00040EA0C00184310434A6910438A691043C8
:1018F000C96901430098084300900098019909685C
:101900000860019900208863019A012182F8211062
:10191000019981F820008DF80B00FFE79DF80B007E
:1019200003B0704780B586B0049003910292019392
:1019300000208DF80300FFE7049890F820000128AC
:1019400004D1FFE702208DF817004CE00499012034
:1019500081F82000FFE7FFE7049890F821000128B4
:1019600032D1FFE70499022081F821000499002078
:10197000886304980168086820F0010008600498F2
:101980000399029A019BFFF76DF80498C06A38B179
:10199000FFE704980168086840F00E0008600CE05A
:1019A00004980168086820F0040008600498016841
:1019B000086840F00A000860FFE7049801680868BA
:1019C00040F00100086009E0FFE70499002081F879
:1019D0002000FFE702208DF80300FFE79DF80300D9
:1019E0008DF81700FFE79DF8170006B080BD0000D6
:1019F00080B584B0039000F0F9F90290039801904B
:101A00000198013048B1FFE741F28B20C2F200009B
:101A10000178019808440190FFE7FFE700F0E6F93C
:101A20000299401A0199884201D2FFE7F6E704B013
:101A300080BD000092B01190109100200F900B908B
:101A4000FFE7109800680F99C840002800F09B81BC
:101A5000FFE70F99012088400E90109800680E99BA
:101A600008400D900D980E99884240F08881FFE75C
:101A7000109840680790002851D0FFE70798012888
:101A80003AD0FFE7079802283FD0FFE707980328DE
:101A90005FD0FFE70798112832D0FFE70798122898
:101AA00038D0FFE707980021C1F21101884236D0F3
:101AB000FFE707980021C1F2120188422FD0FFE70B
:101AC00007980021C1F22101884228D0FFE707983A
:101AD0000021C1F22201884221D0FFE707980021AE
:101AE000C1F2310188421AD0FFE707980021C1F204
:101AF0003201884213D02FE01098C0680B902CE080
:101B00001098C06804300B9027E01098C068083027
:101B10000B9022E01098C0680C300B901DE01098DC
:101B2000806818B9FFE704200B9011E010988068D6
:101B3000012806D1FFE708200B900E981199086143
:101B400005E008200B900E9811994861FFE7FFE728
:101B500003E000200B9000E0FFE70D98FF2803D87A
:101B6000FFE71198069003E0119804300690FFE714
:101B700006980A900D98FF2804D8FFE70F98800078
:101B8000059006E00F996FF01F0000EB81000590B3
:101B9000FFE7059809900A980068099A0F2191407B
:101BA00088430B99914008430A9908601098C079BE
:101BB000C006002840F1E280FFE7FFE741F218008D
:101BC000C4F20200016841F001010160006800F008
:101BD000010008900898FFE70F9820F00300082103
:101BE000C4F2010140580C900F9800F003008100EE
:101BF0000F2000FA01F10C9888430C90119840F6E0
:101C00000001C4F20101884203D1FFE700200490E3
:101C100042E0119840F60041C4F20101884203D12C
:101C2000FFE70120039034E0119841F20001C4F273
:101C30000101884203D1FFE70220029026E01198BB
:101C400041F20041C4F20101884203D1FFE70320C1
:101C5000019018E0119841F60001C4F20101884298
:101C600003D1FFE7042000900AE0119941F60042F9
:101C7000C4F201020620914208BF05200090FFE750
:101C800000980190FFE701980290FFE70298039007
:101C9000FFE703980490FFE704980F9901F0030110
:101CA000890000FA01F10C9808430C900C980F99E8
:101CB00021F003010822C4F20102885010988079B3
:101CC000C006002809D5FFE70D9A40F20841C4F28A
:101CD000010108681043086008E00D9A40F20841CD
:101CE000C4F20101086890430860FFE7109880790A
:101CF0008006002809D5FFE70D9A40F20C41C4F296
:101D0000010108681043086008E00D9A40F20C4198
:101D1000C4F20101086890430860FFE710988079D9
:101D20008007002809D5FFE70D9A40F20441C4F26C
:101D3000010108681043086008E00D9A40F2044170
:101D4000C4F20101086890430860FFE710988079A9
:101D5000C00748B1FFE70D9A40F20041C4F201010B
:101D600008681043086008E00D9A40F20041C4F290
:101D70000101086890430860FFE7FFE7FFE70F985D
:101D800001300F905DE612B07047000082B0019004
:101D9000ADF8021001988068BDF80210084204D026
:101DA000FFE701208DF8010003E000208DF801001D
:101DB000FFE79DF8010002B07047000082B001907B
:101DC000ADF802108DF801209DF8010028B1FFE761
:101DD000BDF802000199086105E0BDF802000004A9
:101DE00001990861FFE702B07047000047F2706098
:101DF000C2F200000068704741F28B20C2F200007E
:101E0000027847F27061C2F200010868104408606D
:101E10007047000080B542F20001C4F20201086878
:101E200040F010000860032000F0D4F80F2000F00C
:101E300005F800F071F8002080BD000080B58CB07E
:101E40000B900020059004908DF80B00FFE741F205
:101E50001800C4F20200016841F4005101600068FA
:101E600000F4005001900198FFE706A803A901F0D3
:101E700021FD01F061FD059005984DF68361C4F2E6
:101E80001B31A0FB01014FF0FF3000EB91400490AB
:101E900044F68020C2F2000043F20041C4F2010186
:101EA000016040F2E731C1600499416000210161A5
:101EB0008160816103F084F98DF80B009DF80B00BF
:101EC00028BBFFE744F68020C2F2000003F0CAF905
:101ED0008DF80B009DF80B00C0B9FFE72C2000F037
:101EE00055F80B980F280CD8FFE70B992C200022EF
:101EF00000F056F80B9841F28C21C2F20001086004
:101F000003E001208DF80B00FFE7FFE7FFE79DF8F6
:101F10000B000CB080BD000080B584B0FFE741F23B
:101F20001800C4F20200016841F00101016000687C
:101F300000F0010003900398FFE7FFE741F21C0067
:101F4000C4F20200016841F080510160006800F0B5
:101F5000805002900298FFE76FF001000F210022ED
:101F600000F01EF8FFE70421C4F2010108680190A7
:101F7000019820F0E0600190019840F0007001901D
:101F800001980860FFE704B080BD000080B582B012
:101F90008DF807009DF907000BF09EFF02B080BD91
:101FA00080B586B08DF8170004910392002002904E
:101FB0000BF0AAFF02909DF9170001900298049976
:101FC000039A04F0BDFD014601980BF0A5FF06B091
:101FD00080BD000080B582B0019001980BF0BEFF7B
:101FE00002B080BD84B00390ADF80A10ADF80820AF
:101FF0000193BDF80A00000600280CD5FFE70398FE
:10200000BDF80A1001F0070101EB810100EBC100EE
:10201000283000900AE00398BDF80A1001EB810116
:1020200000EBC10000F5B4700090FFE7BDF80800B8
:1020300038B9FFE700990020087301980099C8801B
:102040000AE0009901200873019800990881BDF801
:10205000060000994881FFE7002004B070470000A7
:1020600082B001908DF803109DF80300012801D182
:10207000FFE700E0FFE702B07047000080B582B0E4
:1020800001908DF80310019AD2F8EC029DF803102C
:1020900001EB810302EBC302D26B08F05BFF02B0DD
:1020A00080BD000080B582B001908DF80310019AC8
:1020B000D2F8EC029DF8031001EB810302EBC3029E
:1020C000D2F87C2108F0F8FF02B080BD80B584B062
:1020D00002908DF807109DF80700000600280FD524
:1020E000FFE702989DF8071001F0070101EB81015D
:1020F00000EBC100283000900099012048700FE0EB
:1021000002989DF8071001F0070101EB810100EB37
:10211000C10000F5B4700090009900204870FFE7FE
:102120009DF8070000F0070000990870FFE702988B
:1021300090F8A802012804D1FFE702208DF80F00D3
:1021400014E00299012081F8A802FFE7FFE7029856
:10215000006800990AF0AAFBFFE70299002081F8C5
:10216000A802FFE700208DF80F00FFE79DF80F00A1
:1021700004B080BD80B584B002908DF807109DF842
:10218000070000F00F0002994968884204D9FFE770
:1021900001208DF80F004DE09DF807000006002893
:1021A0000FD5FFE702989DF8071001F0070101EB3A
:1021B000810100EBC1002830009000990120487097
:1021C0000FE002989DF8071001F0070101EB810173
:1021D00000EBC10000F5B470009000990020487039
:1021E000FFE70099002088709DF8070000F00700C5
:1021F00000990870FFE7029890F8A802012804D11E
:10220000FFE702208DF80F0014E00299012081F809
:10221000A802FFE7FFE70298006800990AF03CFD7A
:10222000FFE70299002081F8A802FFE700208DF85F
:102230000F00FFE79DF80F0004B080BD80B586B0A9
:1022400005900491ADF80E20BDF80E004004002862
:1022500077D5FFE705980068B0F850000499097831
:1022600000EBC1010598006800EB4100B0F80404E0
:102270006FF39F20ADF80C0004988069BDF80C1036
:10228000884207D3FFE7BDF80C2004998869801ABB
:10229000886103E0049900208861FFE70498806961
:1022A000F8B9FFE7FFE7059800680499097830F866
:1022B00021004BF68F710840ADF80A00BDF80A0006
:1022C00080F40050ADF80A00BDF80A0048F2800121
:1022D000084305990968049A127821F82200FFE75B
:1022E000FFE7BDF80E00400600281BD5FFE7FFE71B
:1022F000FFE7059800680499097830F8210048F64E
:102300008F710840ADF80800BDF8080048F2C00120
:10231000084305990968049A127821F82200FFE71A
:10232000FFE7FFE7BDF80C0050B1FFE70598006834
:10233000049A51691289BDF80C300BF0CFFCFFE70D
:1023400076E005980068B0F850000499097800EB31
:10235000C1010598006800EB4100B0F80C046FF370
:102360009F20ADF80C0004988069BDF80C108842DD
:1023700007D3FFE7BDF80C2004998869801A8861AB
:1023800003E0049900208861FFE704988069F8B9A8
:10239000FFE7FFE7059800680499097830F8210005
:1023A0004BF68F710840ADF80600BDF8060080F4CA
:1023B0000050ADF80600BDF8060048F28001084361
:1023C00005990968049A127821F82200FFE7FFE7CF
:1023D000BDF80E00400600281BD4FFE7FFE7FFE72B
:1023E000059800680499097830F8210048F68F7143
:1023F0000840ADF80400BDF8040048F2C0010843ED
:1024000005990968049A127821F82200FFE7FFE78E
:10241000FFE7BDF80C0050B1FFE705980068049A8B
:1024200051695289BDF80C300BF058FCFFE7FFE70B
:10243000BDF80C0006B080BD80B5A6B025902491F3
:10244000ADF88E20BDF88E004006002840F1BB811B
:10245000FFE725980068B0F850002499097800EB50
:10246000C1012598006800EB4100B0F804046FF347
:102470009F20ADF8860024988069BDF886108842B8
:1024800007D9FFE7BDF8862024998869801A8861FA
:1024900003E0249900208861FFE7249880690028E0
:1024A00040F0B080FFE7FFE72498407808BBFFE7E3
:1024B000FFE725980068209025980068B0F8501034
:1024C00020980844209020982499097800EB011066
:1024D00000F204401F90FFE71F9908886FF39F20C8
:1024E00008801F99088840F400400880FFE7FFE754
:1024F0001DE024984078012818D1FFE7FFE72598D0
:1025000000681D9025980068B0F850101D98084488
:102510001D901D982499097800EB011000F20440E9
:102520001C901C9900200880FFE7FFE7FFE7FFE70A
:10253000FFE7259800681B902498407808BBFFE7C8
:10254000FFE725980068199025980068B0F85010AA
:1025500019980844199019982499097800EB0110EA
:1025600000F20C401890FFE7189908886FF39F203D
:1025700008801899088840F400400880FFE7FFE7CA
:1025800018E024984078012813D1FFE725980068C7
:10259000B0F850101B9808441B901B982499097898
:1025A00000EB011000F20C401A901A9900200880EC
:1025B000FFE7FFE7FFE7259824990978FFF75EFD1D
:1025C000BDF88E00400400281BD5FFE7FFE7FFE7BA
:1025D000259800682499097830F8210048F68F7111
:1025E0000840ADF85A00BDF85A004CF2800108438B
:1025F00025990968249A127821F82200FFE7FFE75D
:10260000FFE7DFE0BDF88E00400400281BD5FFE7A0
:10261000FFE7FFE7259800682499097830F8210042
:1026200048F68F710840ADF85800BDF858004CF2DC
:102630008001084325990968249A127821F822001C
:10264000FFE7FFE7FFE7249890F82400012840F017
:10265000B880FFE7BDF88620249948691044486196
:10266000BDF886202499C8691044C861249801697E
:10267000006A884209D3FFE7249800692290229AD1
:102680002499086A801A086216E02498006A40B902
:10269000FFE7BDF8860022902499002081F82400ED
:1026A00009E02499002081F824002499096A2291E4
:1026B00024990862FFE7FFE7FFE7249840780028A5
:1026C00056D1FFE7FFE72598006815902598006828
:1026D000B0F8501015980844159015982499097869
:1026E00000EB011000F204401490FFE714990888F1
:1026F0006FF39F20088022983F2817D3FFE7FFE75A
:102700002298400913909DF88800C00620B9FFE781
:10271000139801381390FFE7139A1499088840EA38
:10272000822040F400400880FFE71EE0229830B984
:10273000FFE71499088840F40040088014E0FFE7A0
:102740002298400813909DF88800C00720B1FFE749
:10275000139801301390FFE7139A1499088840EA00
:1027600082200880FFE7FFE7FFE7FFE7FFE71DE0C4
:1027700024984078012818D1FFE7FFE725980068E2
:10278000129025980068B0F85010129808441290E2
:1027900012982499097800EB011000F2044011907E
:1027A000229811990880FFE7FFE7FFE7FFE72598E8
:1027B0000068249A51691289BDF888300BF0ECFA50
:1027C000FFE7FFE7B7E125980068B0F850002499CB
:1027D000097800EBC1012598006800EB4100B0F8D2
:1027E0000C046FF39F20ADF8860024988069BDF833
:1027F0008610884207D3FFE7BDF8862024998869B0
:10280000801A886103E0249900208861FFE72498FA
:102810008069002840F0B080FFE7FFE72498407807
:1028200008BBFFE7FFE7259800681090259800682F
:10283000B0F8501010980844109010982499097816
:1028400000EB011000F204400F90FFE70F99088899
:102850006FF39F2008800F99088840F4004008809B
:10286000FFE7FFE71DE024984078012818D1FFE733
:10287000FFE7259800680D9025980068B0F8501083
:102880000D9808440D900D982499097800EB0110DB
:1028900000F204400C900C9900200880FFE7FFE74D
:1028A000FFE7FFE7FFE7259800680B902498407842
:1028B00008BBFFE7FFE725980068099025980068A6
:1028C000B0F850100998084409900998249909789B
:1028D00000EB011000F20C400890FFE7089908880F
:1028E0006FF39F2008800899088840F40040088012
:1028F000FFE7FFE718E024984078012813D1FFE7AD
:1029000025980068B0F850100B9808440B900B986D
:102910002499097800EB011000F20C400A900A9902
:1029200000200880FFE7FFE7FFE725982499097852
:10293000FFF7A4FBBDF88E00400400281BD4FFE77E
:10294000FFE7FFE7259800682499097830F821000F
:1029500048F68F710840ADF81A00BDF81A004CF225
:102960008001084325990968249A127821F82200E9
:10297000FFE7FFE7FFE7DDE0BDF88E004004002839
:102980001BD4FFE7FFE7FFE7259800682499097843
:1029900030F8210048F68F710840ADF81800BDF8F6
:1029A00018004CF28001084325990968249A12788E
:1029B00021F82200FFE7FFE7FFE7249890F82400C2
:1029C000012840F0B680FFE7BDF8862024994869C9
:1029D00010444861BDF886202499C8691044C86134
:1029E00024980169006A884209D3FFE724980069A6
:1029F0002290229A2499086A801A086216E0249884
:102A0000006A40B9FFE7BDF88600229024990020B3
:102A100081F8240009E02498006A2290249900207B
:102A20000862249981F82400FFE7FFE7FFE7259873
:102A30000068059024984078002856D1FFE7FFE70A
:102A400025980068039025980068B0F85010039806
:102A50000844039003982499097800EB011000F2D0
:102A60000C400290FFE7029908886FF39F200880CE
:102A700022983F2817D3FFE7FFE7229840090190EB
:102A80009DF88800C00620B9FFE701980138019041
:102A9000FFE7019A0299088840EA822040F400404A
:102AA0000880FFE71EE0229830B9FFE70299088806
:102AB00040F40040088014E0FFE7229840080190AD
:102AC0009DF88800C00720B1FFE701980130019010
:102AD000FFE7019A0299088840EA82200880FFE710
:102AE000FFE7FFE7FFE7FFE718E0249840780128B9
:102AF00013D1FFE725980068B0F8501005980844F6
:102B0000059005982499097800EB011000F20C401B
:102B10000490229804990880FFE7FFE7FFE72598D3
:102B20000068249A51695289BDF888300BF034F955
:102B3000FFE7FFE7FFE7FFE725980068249909789A
:102B400030F8210048F6BF710840ADF80200BDF82A
:102B5000020080F01000ADF80200BDF8020080F025
:102B60002000ADF80200BDF8020048F280010843E1
:102B700025990968249A127821F82200FFE700209D
:102B800026B080BD80B584B002908DF80710FFE7B5
:102B9000029890F8A802012804D1FFE702208DF8DE
:102BA0000F0023E00299012081F8A802FFE7FFE768
:102BB0009DF807000006002809D5FFE70298006885
:102BC0009DF8071001F007010BF070F804E002987F
:102BD00000680BF065F8FFE7FFE70299002081F835
:102BE000A802FFE700208DF80F00FFE79DF80F0017
:102BF00004B080BD82B001908DF8031001989DF85B
:102C0000031001F0070101EB810100EBC100D0F8D6
:102C1000840102B07047000080B586B004908DF842
:102C20000F10ADF80C208DF80B3000208DF80A0045
:102C30009DF80F00000600280FD5FFE704989DF8C7
:102C40000F1001F0070101EB810100EBC1002830FA
:102C500001900199012048700FE004989DF80F1031
:102C600001F0070101EB810100EBC10000F5B47038
:102C70000190019900204870FFE79DF80F0000F0D7
:102C8000070001990870BDF80C00019908619DF8D2
:102C90000B000199C8709DF80B00022804D1FFE7D2
:102CA000019900200871FFE7FFE7049890F8A80257
:102CB000012804D1FFE702208DF8170015E00499E0
:102CC000012081F8A802FFE7FFE704980068019956
:102CD00009F088FAFFE70499002081F8A802FFE7CD
:102CE0009DF80A008DF81700FFE79DF8170006B061
:102CF00080BD000080B586B005908DF8131003925A
:102D0000029305989DF8131001F0070101EB810172
:102D100000EBC10000F5B47001900398019948617F
:102D2000029801998861019900200090C861019979
:102D300048709DF8130000F007000199087005988D
:102D4000006801990AF090F8009806B080BD000074
:102D500080B584B002908DF807109DF8070000F050
:102D6000070002994968884204D9FFE701208DF8DD
:102D70000F0057E09DF80700000600280FD5FFE779
:102D800002989DF8071001F0070101EB810100EBAB
:102D9000C100283000900099012048700DE0029891
:102DA0009DF8071001EB810100EBC10000F5B47044
:102DB0000090009900204870FFE70099012088707A
:102DC0009DF8070000F0070000990870FFE70298DF
:102DD00090F8A802012804D1FFE702208DF80F0027
:102DE00020E00299012081F8A802FFE7FFE702989E
:102DF0000068009909F0F4FF9DF80700400738B912
:102E0000FFE70299086801F52C7109F03FFFFFE721
:102E1000FFE70299002081F8A802FFE700208DF863
:102E20000F00FFE79DF80F0004B080BD80B586B0AD
:102E300005908DF813100392029305989DF81310D6
:102E400001F0070101EB810100EBC1002830019086
:102E500003980199486102980199886101990120BC
:102E600081F824000299019A1162019A00210091CF
:102E7000D161019948709DF8130000F00700019995
:102E8000087005980068019909F0EEFF009806B0F7
:102E900080BD000080B588B00790079800680AF0F0
:102EA00013FF06909DF819000006002804D5FFE7DF
:102EB000079803F07BFEEDE09DF81900400700281D
:102EC00010D5FFE707980168B1F8440020F480604E
:102ED000A1F84400079800F02BFA0798002100F0B1
:102EE00057FAD7E09DF819004006002809D5FFE7FA
:102EF00007980168B1F8440020F48040A1F844002C
:102F0000C8E09DF819008006002809D5FFE707985A
:102F10000168B1F8440020F40050A1F84400B9E081
:102F20009DF81900C00600281CD5FFE70798016826
:102F3000B1F8400020F00400A1F8400007980168B3
:102F4000B1F8400020F00800A1F84000079800F018
:102F50000BFA07980168B1F8440020F48050A1F8FA
:102F6000440097E09DF819000007002872D5FFE79C
:102F700000208DF80700FFE79DF80700072812D80A
:102F8000FFE7079800689DF8071030F821009DF8CA
:102F9000072002A921F81200FFE79DF80700013081
:102FA0008DF80700E8E707980168B1F8400040F0A5
:102FB0000100A1F8400007980168B1F8400020F036
:102FC0000100A1F84000FFE707980068B0F844004E
:102FD0004005002801D4FFE7F6E707980168B1F83B
:102FE000440020F48060A1F8440000208DF8070020
:102FF000FFE79DF80700072810D8FFE79DF8072096
:1030000002A830F812000799096821F82200FFE7AA
:103010009DF8070001308DF80700EAE7079801687E
:10302000B1F8400040F00800A1F84000079801689E
:10303000B1F8440020F40060A1F84400079801684A
:10304000B1F8400040F00400A1F84000079800F0FB
:1030500009FA1FE09DF81900800700280CD5FFE74A
:1030600007980168B1F8440020F40070A1F844000A
:10307000079800F083F90DE09DF81900C00748B1EA
:10308000FFE707980168B1F8440020F48070A1F8C8
:103090004400FFE708B080BDF0B58DB00B900B98F1
:1030A00020B9FFE701208DF8330015E10B9890F867
:1030B000A90240B9FFE70B99002081F8A8020B98FC
:1030C00000F00EF9FFE70B99032081F8A9020B9895
:1030D000006809F0CBFDDDF82CE0CDF824E0DEF847
:1030E0000000DEF80410DEF80820DEF80C30DEF810
:1030F00010C0DEF81440DEF81850DEF81C60DEF870
:103100002070EE46CEF81070CEF80C60CEF8085065
:10311000CEF80440CEF800C009F0B0FB40B1FFE7A4
:103120000B99022081F8A90201208DF83300D3E029
:103130000B980068002108910AF016FE08988DF897
:103140002B00FFE79DF82B000B99496888423CD281
:10315000FFE70B989DF82B1001EB810100EBC101FB
:10316000012081F829009DF82B000B9900EB8002CB
:1031700001EBC20181F828000B989DF82B1001EBA0
:10318000810100EBC101002081F82B000B999DF813
:103190002B2002EB820201EBC20188630B999DF8A0
:1031A0002B2002EB820201EBC201C8630B999DF850
:1031B0002B2002EB820201EBC2010864FFE79DF8BD
:1031C0002B0001308DF82B00BCE700208DF82B0080
:1031D000FFE79DF82B000B99496888423ED2FFE734
:1031E0000B989DF82B1001EB810100EBC101002031
:1031F00081F869019DF82B100B9A01EB810302EB1A
:10320000C30282F868110B999DF82B2002EB820211
:1032100001EBC20181F86B010B999DF82B2002EBA9
:10322000820201EBC201C1F878010B999DF82B20B5
:1032300002EB820201EBC201C1F87C010B999DF8FF
:103240002B2002EB820201EBC201C1F88001FFE7F3
:103250009DF82B0001308DF82B00BAE7DDF82CE04B
:10326000CDF81CE0DEF80000DEF80410DEF80820DF
:10327000DEF80C30DEF810C0DEF81440DEF818502E
:10328000DEF81C60DEF82070EE46CEF81070CEF846
:103290000C60CEF80850CEF80440CEF800C009F01B
:1032A000C1FC40B1FFE70B99022081F8A90201207F
:1032B0008DF8330010E00B990020069081F824006F
:1032C0000B99012081F8A9020B98006809F0A4FC71
:1032D00006988DF83300FFE79DF833000DB0F0BD80
:1032E00080B584B003900398006845F60041C4F2AD
:1032F0000001884219D1FFE7FFE741F21C00C4F248
:103300000200016841F400010160006800F400005F
:1033100002900298FFE71420019005210022FEF799
:103320003FFE0198FEF732FEFFE704B080BD0000CB
:1033300080B582B0019001208DF80300019880686B
:10334000022803D0FFE7FDF7E7FCFFE70198D0F87C
:10335000EC029DF8031008F0A1F80198D0F8EC02F7
:1033600008F03EF802B080BD80B582B001900198AF
:10337000D0F8EC0208F06EF802B080BD80B582B0E3
:1033800001900198D0F8EC0208F06EF802B080BD10
:1033900080B584B002908DF80710FFE7029890F88E
:1033A000A802012804D1FFE702208DF80F001AE0DF
:1033B0000299012081F8A802FFE7FFE79DF80700C6
:1033C000029981F82400029800689DF807100AF01D
:1033D000D3FCFFE70299002081F8A802FFE7002054
:1033E0008DF80F00FFE79DF80F0004B080BD0000CE
:1033F00080B582B001900199D1F8EC0201F52C71F1
:1034000008F076F802B080BD80B582B00090FFE78A
:10341000009890F8A802012804D1FFE702208DF857
:1034200007001BE00099012081F8A802FFE7FFE7F1
:10343000009800680AF024FC00980121FEF710FEB5
:103440000098006809F0E2FBFFE70099002081F88E
:10345000A802FFE700208DF80700FFE79DF80700AE
:1034600002B080BD80B582B001900198D0F8EC0226
:1034700008F0B8F80198806948B1FFE74EF610519E
:10348000CEF20001086840F006000860FFE702B0D5
:1034900080BD000080B586B00490002003900290AB
:1034A00004980078C007002800F0AC80FFE70020F7
:1034B0008DF8070041F21C00C4F202000068C00051
:1034C000002813D4FFE7FFE741F21C00C4F202001A
:1034D000016841F080510160006800F08050009068
:1034E0000098FFE701208DF80700FFE747F2000092
:1034F000C4F200000068C005002822D4FFE747F2AC
:103500000001C4F20001086840F480700860FEF712
:103510006DFC0390FFE747F20000C4F20000006872
:10352000C00500280CD4FFE7FEF760FC0399401AA1
:10353000652804D3FFE703208DF817008AE0EAE747
:10354000FFE741F22000C4F20200006800F440707E
:1035500002900298E0B3FFE702980499496801F4E9
:103560004071884234D0FFE741F22001C4F20201E9
:10357000086820F44070029040F24042C4F24222B7
:103580000120106000201060029808609DF808007B
:10359000C007E0B1FFE7FEF729FC0390FFE741F227
:1035A0002000C4F202000068800700280ED4FFE764
:1035B000FEF71CFC0399401A41F28931884204D37A
:1035C000FFE703208DF8170044E0E8E7FFE7FFE797
:1035D00041F22001C4F20201086820F44070049A0C
:1035E0005268104308609DF80700012809D1FFE7E1
:1035F00041F21C01C4F20201086820F0805008600A
:10360000FFE7FFE704980078800700280CD5FFE764
:1036100041F20401C4F20201086820F44040049A17
:10362000926810430860FFE704980078C0060028FD
:103630000CD5FFE741F20401C4F20201086820F44E
:103640008000049A526910430860FFE700208DF85B
:103650001700FFE79DF8170006B080BD80B584B065
:1036600002900191029820B9FFE701208DF80F0028
:103670001BE1019842F20001C4F20201096801F065
:103680000701884216D9FFE742F20000C4F20200A7
:10369000016821F00701019A11430160006800F000
:1036A00007000199884204D0FFE701208DF80F0040
:1036B000FBE0FFE702980078800700282AD5FFE7A3
:1036C000029800784007002809D5FFE741F204017D
:1036D000C4F20201086840F4E0600860FFE7029865
:1036E00000780007002809D5FFE741F20401C4F281
:1036F0000201086840F460500860FFE741F20401ED
:10370000C4F20201086820F0F000029A92681043A7
:103710000860FFE702980078C007002860D0FFE744
:103720000298406801280ED1FFE741F20000C4F280
:10373000020000688003002804D4FFE701208DF810
:103740000F00B2E021E00298406802280ED1FFE7A6
:1037500041F20000C4F2020000688001002804D495
:10376000FFE701208DF80F009FE00DE041F200001F
:10377000C4F2020000688007002804D4FFE701209B
:103780008DF80F0091E0FFE7FFE741F20401C4F27A
:103790000201086820F00300029A52681043086092
:1037A000FEF724FB0090FFE741F20400C4F20200A0
:1037B000006800F00C0002994968B0EB810F0ED050
:1037C000FFE7FEF713FB0099401A41F28931884266
:1037D00004D3FFE703208DF80F0066E0E4E7FFE77E
:1037E000019842F20001C4F20201096801F00701E8
:1037F000884216D2FFE742F20000C4F202000168DC
:1038000021F00701019A11430160006800F00700F0
:103810000199884204D0FFE701208DF80F0044E0B1
:10382000FFE702980078400700280CD5FFE741F237
:103830000401C4F20201086820F4E060029AD26830
:1038400010430860FFE702980078000700280DD5B4
:10385000FFE741F20401C4F20201086820F460505D
:10386000029A126940EAC2000860FFE700F076F8A9
:1038700041F20401C4F202010968C9B20A0946F61C
:103880004441C0F60101895CC84040F22C01C2F2FB
:103890000001086041F28C20C2F200000068FEF7CF
:1038A000CDFA00208DF80F00FFE79DF80F0004B05F
:1038B00080BD000082B00190009101990F20086046
:1038C00041F20400C4F20200016801F00301019A10
:1038D0005160016801F0F001019A9160016801F402
:1038E000E061019AD160006800F46050C00801995D
:1038F000086142F20000C4F20200006800F0070014
:103900000099086002B0704740F22C00C2F200003B
:103910000068704780B5FFF7F7FF41F20401C4F279
:1039200002010968C1F3022246F65441C0F60101C2
:10393000895CC84080BD000080B5FFF7E5FF41F21B
:103940000401C4F202010968C1F3C22246F65441DF
:10395000C0F60101895CC84080BD000086B000202F
:103960000590049003900290019041F20400C4F28B
:10397000020000680590059800F00C0001460091D7
:1039800000283FD0FFE70098042804D0FFE7009804
:10399000082806D037E041F20020C0F27A000190FA
:1039A00037E00598C0F3834146F67440C0F6010045
:1039B000405C02909DF81600C007C0B1FFE741F2DD
:1039C0000400C4F202000068C0F3404146F684409F
:1039D000C0F60100405C0490029841F20021C0F260
:1039E0007A0148430499B0FBF1F0039007E0029894
:1039F00040F60011C0F23D0148430390FFE70398F1
:103A0000019006E0FFE741F20020C0F27A00019049
:103A1000FFE7019806B0704780B586B0049004981F
:103A200020B9FFE701208DF817002EE304980078F5
:103A3000C007002800F0AE80FFE741F20400C4F2A6
:103A40000200006800F00C00042813D0FFE741F2E8
:103A50000400C4F20200006800F00C0008281BD12A
:103A6000FFE741F20400C4F202000068C00300282E
:103A700012D5FFE741F20000C4F2020000688003A3
:103A8000002808D5FFE70498406820B9FFE7012027
:103A90008DF81700F9E27CE0FFE704984068B0F584
:103AA000803F09D1FFE741F20001C4F2020108683A
:103AB00040F48030086032E00498406868B9FFE75D
:103AC00041F20001C4F20201086820F4803008606D
:103AD000086820F48020086020E004984068B0F571
:103AE000A02F0DD1FFE741F20001C4F202010868E6
:103AF00040F480200860086840F4803008600CE0E2
:103B000041F20001C4F20201086820F4803008602C
:103B1000086820F480200860FFE7FFE7FFE7FFE781
:103B200004984068D0B1FFE7FEF760F90390FFE723
:103B300041F20000C4F202000068800300280CD4A7
:103B4000FFE7FEF753F90399401A652804D3FFE70E
:103B500003208DF8170098E2EAE719E0FEF746F92E
:103B60000390FFE741F20000C4F202000068800306
:103B700000280CD5FFE7FEF739F90399401A6528AC
:103B800004D3FFE703208DF817007EE2EAE7FFE7A2
:103B9000FFE7FFE7049800788007002840F18D8058
:103BA000FFE741F20400C4F20200006810F00C0FBD
:103BB00013D0FFE741F20400C4F20200006800F0F5
:103BC0000C00082829D1FFE741F20400C4F20200EA
:103BD0000068C003002820D4FFE741F20000C4F2CF
:103BE000020000688007002809D5FFE704980069F3
:103BF000012804D0FFE701208DF8170045E241F2CB
:103C00000001C4F20201086820F0F800049A526929
:103C100040EAC2000860FFE74EE00498006958B32C
:103C2000FFE70021C4F2422101200860FEF7DEF820
:103C30000390FFE741F20000C4F202000068800731
:103C400000280CD4FFE7FEF7D1F80399401A0328A7
:103C500004D3FFE703208DF8170016E2EAE741F2EC
:103C60000001C4F20201086820F0F800049A5269C9
:103C700040EAC20008601EE00021C4F24221002098
:103C80000860FEF7B3F80390FFE741F20000C4F2CA
:103C900002000068800700280CD5FFE7FEF7A6F8B1
:103CA0000399401A032804D3FFE703208DF8170077
:103CB000EBE1EAE7FFE7FFE7FFE70498007800079A
:103CC000002848D5FFE70498806918B3FFE740F261
:103CD0008041C4F2422101200860FEF787F803907A
:103CE000FFE741F22400C4F20200006880070028C8
:103CF0000CD4FFE7FEF77AF80399401A032804D39F
:103D0000FFE703208DF81700BFE1EAE7012003F089
:103D1000F9FA1FE040F28041C4F24221002008601D
:103D2000FEF764F80390FFE741F22400C4F20200BA
:103D30000068800700280CD5FFE7FEF757F80399C5
:103D4000401A032804D3FFE703208DF817009CE1F5
:103D5000EAE7FFE7FFE7049800784007002840F112
:103D6000D880FFE700208DF8070041F21C00C4F264
:103D700002000068C000002813D4FFE7FFE741F20B
:103D80001C00C4F20200016841F08051016000682B
:103D900000F0805000900098FFE701208DF80700A8
:103DA000FFE747F20000C4F200000068C0050028E9
:103DB00022D4FFE747F20001C4F20001086840F492
:103DC00080700860FEF712F80390FFE747F20000EA
:103DD000C4F200000068C00500280CD4FFE7FEF71D
:103DE00005F80399401A652804D3FFE703208DF8EE
:103DF00017004AE1EAE7FFE7FFE70498C0680128F7
:103E000009D1FFE741F22001C4F20201086840F045
:103E10000100086031E00498C06868B9FFE741F22A
:103E20002001C4F20201086820F00100086008685F
:103E300020F0040008601FE00498C06805280DD138
:103E4000FFE741F22001C4F20201086840F00400DB
:103E50000860086840F0010008600CE041F22001B1
:103E6000C4F20201086820F001000860086820F030
:103E700004000860FFE7FFE7FFE7FFE70498C0687A
:103E8000E0B1FFE7FDF7B2FF0390FFE741F220004A
:103E9000C4F202000068800700280ED4FFE7FDF797
:103EA000A5FF0399401A41F28931884204D3FFE704
:103EB00003208DF81700E8E0E8E71BE0FDF796FF28
:103EC0000390FFE741F22000C4F20200006880077F
:103ED00000280ED5FFE7FDF789FF0399401A41F24C
:103EE0008931884204D3FFE703208DF81700CCE026
:103EF000E8E7FFE79DF80700012809D1FFE741F255
:103F00001C01C4F20201086820F080500860FFE73D
:103F1000FFE70498C069002800F0B380FFE741F292
:103F20000400C4F20200006800F00C00082800F051
:103F30008280FFE70498C06902285CD1FFE7602116
:103F4000C4F2422100200860FDF750FF0390FFE714
:103F500041F20000C4F202000068800100280CD584
:103F6000FFE7FDF743FF0399401A032804D3FFE757
:103F700003208DF8170088E0EAE70498006AB0F59E
:103F8000803F0CD1FFE741F20401C4F2020108684E
:103F900020F40030049A926810430860FFE741F271
:103FA0000401C4F20201086820F47410049B1A6A28
:103FB0005B6A1A43104308606021C4F24221012069
:103FC0000860FDF713FF0390FFE741F20000C4F221
:103FD00002000068800100280CD4FFE7FDF706FF0F
:103FE0000399401A032804D3FFE703208DF8170034
:103FF0004BE0EAE71EE06021C4F2422100200860A5
:10400000FDF7F4FE0390FFE741F20000C4F2020066
:104010000068800100280CD5FFE7FDF7E7FE039953
:10402000401A032804D3FFE703208DF817002CE083
:10403000EAE7FFE724E00498C069012804D1FFE71C
:1040400001208DF8170020E041F20400C4F20200C4
:1040500000680290029800F480300499096A88424E
:1040600008D1FFE7029800F470100499496A884269
:1040700004D0FFE701208DF8170006E0FFE7FFE717
:10408000FFE700208DF81700FFE79DF8170006B046
:1040900080BD0000B0B58EB00D900C9100208DF861
:1040A00013000D99032081F834000D98406C03280B
:1040B00030D0FFE70C98B0F5805F06D1FFE70D998F
:1040C000886B40F08050886323E00C98B0F5006F57
:1040D0000AD1FFE70D9804F0F5FE0590059A0D99B9
:1040E000886B1043886313E00C9850B9FFE70D9874
:1040F00004F0A2FE0590059A0D99886B1043886321
:1041000005E00D99886B40F000608863FFE7FFE7EA
:10411000FFE705E00D99886B40F080508863FFE76A
:104120000D98806B70B1FFE70D98016840F2FF5069
:10413000C0F2400088630D99012081F834008DF8A9
:10414000130023E00D98406806900D988068079052
:104150000D98C06808900C9809900D9840690A90D5
:104160000D9880690B900D9800680699079A089B36
:10417000DDF824C00A9C0B9DEE46CEF80850CEF820
:104180000440CEF800C003F0D9FEFFE70D980068A8
:104190004FF4007103F07AFF0590059880B1FFE7B6
:1041A0000D98016840F2FF50C0F240008863059A04
:1041B0000D99886B1043886301208DF81300FFE789
:1041C0000D99012081F834009DF813000EB0B0BDA8
:1041D00083B0019000910198406E800F00990870A3
:1041E0000198406EC0F38360009948700198406E5A
:1041F000C0F30160009988700198B0F866000099DA
:10420000C8700198406E000A009908710198406ECC
:10421000009948710198806E000D0099C88001983E
:10422000806EC0F30340009908720198B0F86800EE
:10423000C00B009948720198806EC0F380300099DD
:1042400088720198806EC0F340300099C87201985E
:10425000806EC0F300300099087300990020487305
:104260000198406C00284BD1FFE70199886EC96E18
:104270006FF39F20800040EA9170009908610198D7
:10428000C06EC0F3C260009908750198C06EC0F39B
:104290000260009948750198C06EC0F342500099C1
:1042A00088750198C06EC0F382400099C875019866
:1042B000C06EC0F3C23000990876009800690130E2
:1042C000019948650098007E00F00700811C0120DC
:1042D00000FA01F3019A516D594351650099097A29
:1042E00001F00F018840019988650199486D8A6D38
:1042F000520A5043C86501994FF40070086635E0D2
:104300000198406C01281DD1FFE70198816E01F0F2
:104310003F01B0F86E0040EA014000990861009842
:1043200001694FF4806000EB812001994865019993
:10433000486DC86501994FF4007088650199886DD2
:10434000086612E00198016840F2FF50C0F2400098
:1043500088630199886B40F080508863019901203F
:1043600081F834008DF80B0073E0FFE70198C06E10
:10437000C0F38030009948760198C06EC0F3C61033
:10438000009988760198C06E00F07F000099C87689
:104390000198006FC00F009908770198006FC0F373
:1043A0004170009948770198006FC0F382600099CE
:1043B00088770198006FC0F383500099C8770198FF
:1043C000006FC0F34050009981F820000099002050
:1043D00081F821000199096FC1F30041009A82F828
:1043E00022100199B1F87010C90B009A82F82310BD
:1043F0000199096FC1F38031009A82F82410019964
:10440000096FC1F34031009A82F825100199096FB4
:10441000C1F30031009A82F826100199096FC1F3A7
:104420008121009A82F827100199096FC1F30121B7
:10443000009A82F82810019991F870104908009AA2
:1044400082F82910009A012182F82A108DF80B00B9
:10445000FFE79DF80B0003B07047000082B00190A9
:1044600000910198406C009908600198806C009957
:1044700048600198C06C009988600198006D0099AF
:10448000C8600198406D009908610198806D00999D
:1044900048610198C06D009988610198006E00998B
:1044A000C861002002B0704780B584B0039000203E
:1044B00000900398694604F097FC0190019830B190
:1044C000FFE7019A0399886B10438863FFE7009820
:1044D000C0F343200290029804B080BD81B00090E8
:1044E000009890F8340001B07047000080B582B0A9
:1044F0000090009820B9FFE701208DF8070024E024
:10450000009890F8340038B9FFE700990020087748
:10451000009800F0A1F8FFE70099032081F834002B
:10452000009800F017F820B1FFE701208DF8070090
:104530000BE000990020886300990863009A01212C
:1045400082F834108DF80700FFE79DF8070002B0ED
:1045500080BD0000B0B58EB00C9000200490059096
:10456000069007900890762009900C9800680499AE
:10457000059A069BDDF81CC0089C099DEE46CEF806
:104580000850CEF80440CEF800C003F0D7FC8DF8F8
:104590002B009DF82B0020B1FFE701208DF837009C
:1045A00056E0A021C4F230210391002008600C984D
:1045B000006803F0F1FC0399012008600220FDF778
:1045C00017FA0C9804F070FB0B900B9860B1FFE7A2
:1045D0000C99012081F834000B9B0C9A916B1943C4
:1045E00091638DF8370033E00C9804F097FA0B9044
:1045F0000B9860B1FFE70C99012081F834000B9B08
:104600000C9A916B194391638DF8370020E00C9858
:1046100000684FF4007103F039FD0B900B9898B1CE
:10462000FFE70C98016840F2FF50C0F24000886339
:104630000B9A0C99886B104388630C99012081F8C0
:1046400034008DF8370003E000208DF83700FFE7D5
:104650009DF837000EB0B0BD80B58CB00B90002037
:104660000A900990089007900B98006848F20001A2
:10467000C4F2010188424CD1FFE7FFE741F2140088
:10468000C4F20200016841F480610160006800F436
:10469000806006900698FFE7FFE741F21800C4F239
:1046A0000200016841F010010160006800F0100094
:1046B00005900598FFE7FFE741F21800C4F20200F9
:1046C000016841F020010160006800F020000490C2
:1046D0000498FFE74FF4F8500790022001900890EB
:1046E000032002900A9041F20000C4F2010007A9E1
:1046F0000391FDF79FF9019A029803990423079308
:1047000008920A9041F20040C4F20100FDF792F9CC
:10471000FFE70CB080BD000080B594B0DDF858C054
:104720001290119110920F93FDF760FB0790109873
:10473000039011980290119848B9FFE71299886B7D
:1047400040F00060886301208DF84F00E3E112988B
:1047500090F83400012840F0D581FFE7129900203D
:10476000886303980F9908441299C96D884209D942
:10477000FFE71299886B40F00070886301208DF884
:104780004F00C8E11299032081F8340012980168A3
:104790000020C8621298406C012804D0FFE70398FB
:1047A00040020390FFE74FF0FF3009900F9840025E
:1047B0000A9090200B9002200C9000200D90012078
:1047C0000E901298006809A903F078FB0F98022850
:1047D0000AD3FFE712990220086312980068039930
:1047E00003F0C0FC089009E01299012008631298B8
:1047F0000068039903F0D4FC0890FFE70898B0B173
:10480000FFE71298016840F2FF50C0F24000886351
:10481000089A1299886B104388631299012081F8D5
:104820003400129A002111638DF84F0073E10A9849
:104830000490FFE712980068406B40F22A3108426A
:1048400066D1FFE712980068406B000400283CD551
:10485000FFE70498C8B3FFE700200690FFE706983B
:10486000072831D8FFE71298006803F09DFB0590F8
:104870000598029908700298013002900498013856
:1048800004900598000A029908700298013002907D
:10489000049801380490BDF8160002990870029837
:1048A000013002900498013804909DF81700029995
:1048B0000870029801300290049801380490FFE7D4
:1048C000069801300690CAE7FFE7FDF78FFA0799CF
:1048D000401A1699884203D2FFE71698B8B9FFE745
:1048E0001298016840F2FF50C0F2400088631299AC
:1048F000886B40F0004088631299012081F83400F1
:1049000012990020086303208DF84F0003E191E71E
:1049100012980068406BC005002829D5FFE70F9862
:10492000022825D3FFE71298406C03281FD0FFE729
:104930001298006803F0FAFC08900898B0B1FFE7FD
:104940001298016840F2FF50C0F240008863089A54
:104950001299886B104388631299012081F8340002
:10496000129A002111638DF84F00D4E0FFE7FFE7B2
:1049700012980068406B0007002816D5FFE71298D0
:10498000016840F2FF50C0F2400088631299886BC2
:1049900040F0080088631299012081F83400129ACF
:1049A000002111638DF84F00B5E012980068406B4C
:1049B0008007002816D5FFE71298016840F2FF50E3
:1049C000C0F2400088631299886B40F0020088634F
:1049D0001299012081F83400129A002111638DF898
:1049E0004F0098E012980068406B8006002816D5AA
:1049F000FFE71298016840F2FF50C0F24000886360
:104A00001299886B40F0200088631299012081F888
:104A10003400129A002111638DF84F007BE0FFE70C
:104A2000FFE7FFE7FFE712980068416B002089026B
:104A30000029019006D5FFE70498002818BF01203F
:104A40000190FFE70198C00700284ED0FFE71298B9
:104A5000006803F0A9FA0590059802990870029879
:104A6000013002900498013804900598000A0299D8
:104A70000870029801300290049801380490BDF843
:104A800016000299087002980130029004980138CB
:104A900004909DF817000299087002980130029066
:104AA000049801380490FDF7A1F90799401A169966
:104AB000884203D2FFE71698B0B9FFE71298016861
:104AC00040F2FF50C0F2400088631299886B40F0BA
:104AD000004088631299012081F83400129A002165
:104AE00011638DF84F0016E09DE71298016840F2BF
:104AF0003A5088631299012081F8340000208DF823
:104B00004F0008E01299886B40F000508863012044
:104B10008DF84F00FFE79DF84F0014B080BD0000F6
:104B200080B592B0DDF850C010900F910E920D93A9
:104B3000FDF75CF905900E9801900F9800900F9882
:104B400048B9FFE71099886B40F000608863012046
:104B50008DF8470086E1109890F83400012840F065
:104B60007881FFE710990020886301980D99084427
:104B70001099C96D884209D9FFE71099886B40F0F8
:104B80000070886301208DF847006BE110990320C5
:104B900081F83400109801680020C8621098406CB9
:104BA000012804D0FFE7019840020190FFE74FF091
:104BB000FF3007900D984002089090200990002047
:104BC0000A900B9001200C901098006807A903F040
:104BD00075F90D9802280AD3FFE710992020086381
:104BE00010980068019903F0BFFB069009E0109946
:104BF0001020086310980068019903F0D3FB069019
:104C0000FFE70698B0B1FFE71098016840F2FF5047
:104C1000C0F240008863069A1099886B104388633D
:104C20001099012081F83400109A002111638DF849
:104C3000470017E108980290FFE710980068406B62
:104C400040F21A3108426DD1FFE710980068406BBE
:104C50004004002843D5FFE7029800283FD0FFE733
:104C600000200490FFE70498072837D8FFE7009852
:104C7000007803900098013000900298013802906B
:104C800000980178039840EA0120039000980130D1
:104C9000009002980138029000980178039840EA49
:104CA0000140039000980130009002980138029072
:104CB00000980178039840EA016003900098013061
:104CC00000900298013802901098006803A903F040
:104CD00095F9FFE7049801300490C4E7FFE7FDF77A
:104CE00085F80599401A1499884203D2FFE7149871
:104CF000B8B9FFE71098016840F2FF50C0F24000D9
:104D00008863069A1099886B104388631099012074
:104D100081F8340010990020086303208DF84700C3
:104D2000A0E08AE710980068406BC005002829D5EC
:104D3000FFE70D98022825D3FFE71098406C032861
:104D40001FD0FFE71098006803F0F0FA069006986D
:104D5000B0B1FFE71098016840F2FF50C0F2400088
:104D60008863069A1099886B104388631099012014
:104D700081F83400109A002111638DF8470071E02A
:104D8000FFE7FFE710980068406B0007002816D582
:104D9000FFE71098016840F2FF50C0F240008863BE
:104DA0001099886B40F0080088631099012081F801
:104DB0003400109A002111638DF8470052E01098DA
:104DC0000068406B8007002816D5FFE7109801683F
:104DD00040F2FF50C0F2400088631099886B40F0A9
:104DE000020088631099012081F83400109A002194
:104DF00011638DF8470035E010980068406BC006DD
:104E0000002816D5FFE71098016840F2FF50C0F265
:104E1000400088631099886B40F0100088631099F7
:104E2000012081F83400109A002111638DF84700A9
:104E300018E0FFE7FFE7FFE71098016840F23A50FB
:104E400088631099012081F8340000208DF8470014
:104E500008E01099886B40F00050886301208DF8BD
:104E60004700FFE79DF8470012B080BD81B0009079
:104E700001B0704780B584B00290029820B9FFE776
:104E800001208DF80F006DE00298406A60B9FFE7DD
:104E900002984068B0F5827F01D1FFE703E00299F4
:104EA0000020C861FFE705E002990020086102992F
:104EB0004861FFE7029900208862029890F851004B
:104EC00040B9FFE70299002081F85000029800F0F5
:104ED0004DF8FFE70299022081F85100029801681D
:104EE000086820F040000860029A0192116850683A
:104EF000D2F808C0D36800F482700CF4044C60440B
:104F000003F400631844136903F00203184453695F
:104F100003F001031844936903F400731844D36940
:104F200003F038031844136A03F080031843926AAD
:104F300002F40052104308600299488B00F004000C
:104F40000968486002980168C86920F40060C86177
:104F5000029900204865029A012182F851108DF8CB
:104F60000F00FFE79DF80F0004B080BD80B588B04A
:104F70000790002006900590049003900798006821
:104F800043F20001C4F20101884250D1FFE7FFE77C
:104F900041F21800C4F20200016841F4805101603E
:104FA000006800F4805002900298FFE7FFE741F2AA
:104FB0001800C4F20200016841F0040101600068B9
:104FC00000F0040001900198FFE7A0200390022068
:104FD00004900320069040F60000C4F2010003A9EB
:104FE000FCF728FD44F2E850C2F2000000903021A6
:104FF000C4F2020101601021416000218160802221
:10500000C260016141618161C161FCF711FC18B1AD
:10501000FFE7FBF781FEFFE7FFE7079844F2E8515F
:10502000C2F20001816407984862FFE7FFE708B019
:1050300080BD000080B584B002900191ADF80220DF
:1050400000208DF80100FFE7029890F85000012839
:1050500004D1FFE702208DF80F009CE002990120A7
:1050600081F85000FFE7FFE7029890F8510001280F
:1050700004D0FFE702208DF8010081E0019820B103
:10508000FFE7BDF8020020B9FFE701208DF801001D
:1050900076E00299032081F85100029900204865CA
:1050A0000199029A1163BDF80210029A9186BDF827
:1050B0000210029AD1860299886302994864029983
:1050C0000864029988870299C88702988068B0F5B9
:1050D000004F0DD1FFE702980168086820F04000FA
:1050E000086002980168086840F480400860FFE7A3
:1050F0000298816C49F27510C0F60000C8620298EF
:10510000816C49F28D10C0F6000088620298816CB3
:1051100049F24110C0F6000008630298816C00203B
:105120004863029B1A68196B986C0C32DB8EFCF793
:10513000F9FB48B1FFE70299486D40F0100048655F
:1051400001208DF801001BE002980068006800F063
:105150004000402807D0FFE702980168086840F047
:1051600040000860FFE702980168486840F02000AE
:10517000486002980168486840F002004860FFE714
:10518000FFE70299002081F85000FFE79DF8010039
:105190008DF80F00FFE79DF80F0004B080BD000000
:1051A00081B0009001B0704781B0009001B07047AD
:1051B00081B0009001B0704781B0009001B070479D
:1051C00080B582B00090009820B9FFE701208DF8EB
:1051D00007003FE0009890F83D0040B9FFE70099D4
:1051E000002081F83C00009800F038F8FFE70099B3
:1051F000022081F83D00009951F8040B04F0B6FC40
:105200000099012081F84600FFE70099012081F80C
:105210003E00009981F83F00009981F84000009914
:1052200081F84100FFE7FFE70099012081F8420083
:10523000009981F84300009981F84400009981F8B1
:105240004500FFE70099012081F83D0000208DF81E
:105250000700FFE79DF8070002B080BD81B0009015
:1052600001B0704783B00190019890F83D0001288B
:1052700004D0FFE701208DF80B0059E001990220CE
:1052800081F83D0001980168C86840F00100C860DD
:105290000198006842F60041C4F2010188422AD018
:1052A000FFE70198006843F20041C4F2010188421F
:1052B00021D0FFE701980068B0F1804F1BD0FFE7D5
:1052C0000198006840F20041C4F20001884212D007
:1052D000FFE70198006840F60001C4F2000188422F
:1052E00009D0FFE70198006840F60041C4F20001D0
:1052F000884212D1FFE701980068806800F007003B
:1053000000900098062807D0FFE701980168086818
:1053100040F001000860FFE706E0019801680868B6
:1053200040F001000860FFE700208DF80B00FFE768
:105330009DF80B0003B0704781B0009001B070473A
:1053400080B582B0019001980068006900F0020108
:105350000020B0EB510F28D0FFE701980068C0682B
:1053600000F002010020B0EB510F1DD0FFE70198C3
:1053700001686FF002000861019901200877019827
:1053800000688069800720B1FFE70198FFF7D4FF2C
:1053900006E0019800F012F9019800F013F9FFE718
:1053A000019900200877FFE7FFE70198006800698E
:1053B00000F004010020B0EB910F29D0FFE7019825
:1053C0000068C06800F004010020B0EB910F1ED00F
:1053D000FFE7019801686FF004000861019902205D
:1053E000087701980068806910F4407F04D0FFE7D7
:1053F0000198FFF7A1FF06E0019800F0DFF801989F
:1054000000F0E0F8FFE7019900200877FFE7FFE7E9
:1054100001980068006900F008010020B0EBD10F8E
:1054200028D0FFE701980068C06800F0080100205C
:10543000B0EBD10F1DD0FFE7019801686FF00800B5
:10544000086101990420087701980068C069800705
:1054500020B1FFE70198FFF76FFF06E0019800F029
:10546000ADF8019800F0AEF8FFE701990020087749
:10547000FFE7FFE701980068006900F010010020D5
:10548000B0EB111F29D0FFE701980068C06800F059
:1054900010010020B0EB111F1ED0FFE7019801683A
:1054A0006FF01000086101990820087701980068E2
:1054B000C06910F4407F04D0FFE70198FFF73CFF7C
:1054C00006E0019800F07AF8019800F07BF8FFE719
:1054D000019900200877FFE7FFE70198006800695D
:1054E000C00780B1FFE701980068C068C00748B1F5
:1054F000FFE7019801686FF001000861019800F072
:1055000065F8FFE7FFE7019800680069C1B2002075
:10551000B0EBD11F13D0FFE701980068C068C1B29B
:105520000020B0EBD11F09D0FFE7019801686FF0B0
:10553000800008610198FFF73BFEFFE7FFE7019855
:105540000068006900F040010020B0EB911F14D00A
:10555000FFE701980068C06800F040010020B0EB50
:10556000911F09D0FFE7019801686FF040000861C2
:10557000019800F03DF8FFE7FFE701980068006937
:1055800000F020010020B0EB511F14D0FFE701987C
:105590000068C06800F020010020B0EB511F09D066
:1055A000FFE7019801686FF0200008610198FFF79C
:1055B00003FEFFE7FFE702B080BD000081B000906E
:1055C00001B0704781B0009001B0704780B582B0E3
:1055D00001900198006843F20041C4F20101884241
:1055E00003D1FFE7FCF708FCFFE702B080BD000035
:1055F00081B0009001B0704780B586B004900391EF
:10560000ADF80A20049890F8420020284DD1FFE719
:10561000039820B1FFE7BDF80A0020B9FFE7012099
:105620008DF8170045E004990120086304990020D3
:10563000486304980399BDF80A2004F0B9FC8DF87A
:1056400009009DF8090058BBFFE70498006B01288A
:1056500021D1FFE7FFE7002001900498006800686F
:10566000019004980068406801900198FFE7FFE707
:10567000FFE70498006850E8030F40F01000009026
:10568000FFE700990498026842E803100028F0D16F
:10569000FFE7FFE703E001208DF80900FFE7FFE7E0
:1056A0009DF809008DF8170003E002208DF817001F
:1056B000FFE79DF8170006B080BD000080B584B0FC
:1056C0000390ADF80A100398006844F60001C4F294
:1056D000000188421CD1FFE7BDF80A204CF2497056
:1056E000C0F6020046F64821C2F200010191FBF724
:1056F000CBFA019944F61030C2F200004FF48062F8
:105700000092FFF779FF00990198FAF74CFDFFE747
:1057100004B080BD81B0009001B0704780B592B0F8
:105720001190119800680068109011980068C06886
:105730000F901198006840690E9000200D900C9019
:10574000109800F00F000D900D9888B9FFE79DF8B4
:105750004000800600280AD5FFE79DF83C0080063F
:10576000002804D5FFE7119804F00EFBE9E1FFE7FC
:105770000D98002800F0C280FFE79DF83800C007B0
:1057800038B9FFE7BDF83C0010F4907F00F0B68018
:10579000FFE79DF84000C00758B1FFE79DF83D00C6
:1057A000C00730B1FFE71199486C40F00100486430
:1057B000FFE79DF84000400700280BD5FFE79DF864
:1057C0003800C00730B1FFE71199486C40F0020083
:1057D0004864FFE79DF84000800700280BD5FFE7ED
:1057E0009DF83800C00730B1FFE71199486C40F0D0
:1057F00004004864FFE79DF840000007002811D529
:10580000FFE79DF83C008006002805D4FFE79DF8DF
:105810003800C00730B1FFE71199486C40F008002C
:105820004864FFE71198406C002866D0FFE79DF8B8
:105830004000800600280AD5FFE79DF83C0080065E
:10584000002804D5FFE7119804F09EFAFFE71198AD
:1058500000684069C0F380100C901198406C0007FC
:10586000002804D4FFE70C9800283ED0FFE71198E9
:1058700004F02CFA119800684069400600282FD5E2
:10588000FFE7FFE7FFE71198006850E8050F20F0F9
:1058900040000B90FFE70B991198026842E8051051
:1058A0000028F0D1FFE7FFE71198C06B98B1FFE740
:1058B0001198C16B49F6AD40C0F6000048631198DD
:1058C000C06BFBF7E7FA28B1FFE71198C06B416B9B
:1058D0008847FFE703E01198FFF71CFFFFE703E0AD
:1058E0001198FFF717FFFFE706E01198FFF712FF87
:1058F000119900204864FFE7FFE722E11198006B4F
:10590000012840F0FE80FFE79DF84000C006002817
:1059100040F1F780FFE79DF83C00C006002840F109
:10592000F080FFE7FFE700200A9011980068006808
:105930000A901198006840680A900A98FFE7119849
:10594000006840694006002840F18180FFE7119817
:10595000C06B00684068ADF82600BDF8260000283E
:1059600074D0FFE7BDF826001199898D88426DDA61
:10597000FFE7BDF826001199C8851198C06B8069B2
:10598000202858D0FFE7FFE7FFE71198006850E8AC
:10599000030F20F480700890FFE7089911980268BF
:1059A00042E803100028F0D1FFE7FFE7FFE7FFE739
:1059B0001198006850E8050F20F001000790FFE7FC
:1059C00007991198026842E805100028F0D1FFE716
:1059D000FFE7FFE7FFE71198006850E8050F20F0A8
:1059E00040000690FFE706991198026842E805100A
:1059F0000028F0D1FFE7FFE71199202081F842004D
:105A0000119900200863FFE7FFE71198006850E84C
:105A1000030F20F010000590FFE705991198026828
:105A200042E803100028F0D1FFE7FFE71198C06BB0
:105A3000FBF7F2F9FFE71199022048631198818D75
:105A4000C28D891A89B2FFF739FEFFE779E0119913
:105A5000888DC98D401AADF812001198C08D0028AC
:105A60004ED0FFE7BDF81200002849D0FFE7FFE75E
:105A7000FFE71198006850E8030F20F4907003903E
:105A8000FFE703991198026842E803100028F0D15B
:105A9000FFE7FFE7FFE7FFE71198006850E8050F11
:105AA00020F001000290FFE702991198026842E895
:105AB00005100028F0D1FFE7FFE71199202081F8B9
:105AC0004200119900200863FFE7FFE71198006882
:105AD00050E8030F20F010000190FFE701991198A2
