:020000040800F2
:100000006897002045010008A14200086901000826
:100010009D420008DD030008797800080000000018
:10002000000000000000000000000000B1530008C4
:100030001505000800000000B142000869570008DB
:100040005F0100085F0100085F0100085F01000810
:100050005F0100085F0100085F0100085F01000800
:100060005F0100085F0100085F0100085F010008F0
:100070005F010008E50400085F0100085F01000857
:10008000FD040008090500085F0100085F01000881
:10009000D97700085F0100085F0100085F010008D0
:1000A0005F0100085F0100085F0100085F010008B0
:1000B0005F0100085F0100085F0100085F010008A0
:1000C0005F0100085F0100085F0100085F01000890
:1000D0005F0100085F0100085F010008E5590008A2
:1000E0005F0100085F0100085F0100085F01000870
:1000F000315800085F0100085F0100085F01000837
:100100005F0100085F0100085F0100085F0100084F
:100110005F0100085F0100085F0100085F0100083F
:100120005F0100085F0100085F0100085F0100082F
:10013000DFF80CD000F094F800480047DDAC000870
:10014000689700200648804706480047FEE7FEE71C
:10015000FEE7FEE7FEE7FEE7FEE7FEE7FEE7FEE777
:100160002D580008310100087046694607F08CFCE4
:10017000FFF7FEFF40EA01039B0703D009E008C92F
:10018000121F08C0042AFAD203E011F8013B00F85C
:10019000013B521EF9D27047D2B201E000F8012BA8
:1001A000491EFBD270470022F6E710B513460A46F7
:1001B00004461946FFF7F0FF204610BD10B504466F
:1001C00004E00B7800F8013B03B1491C521EF8D241
:1001D000204610BD421C10F8011B0029FBD1801ADB
:1001E000704710B5002200E0521C835C8C5CA34277
:1001F00001D1002BF8D1D8B2E1B2401A10BD2DE9DF
:10020000F05F0546002092469B468846064681469A
:1002100040241BE0284641464746224600F041F86C
:1002200053465A46C01A914110D3114618462246E9
:1002300000F028F82D1A67EB01084F4622460120EE
:10024000002100F01FF817EB00094E41201EA4F119
:100250000104DFDC484631462A464346BDE8F09FAC
:10026000064C074D06E0E06840F0010394E8070003
:1002700098471034AC42F6D3FFF75EFF2490030892
:1002800044900308202A04DB203A00FA02F10020FF
:1002900070479140C2F1200320FA03F319439040C4
:1002A0007047202A04DB203A21FA02F0002170472F
:1002B00021FA02F3D040C2F12002914008431946CE
:1002C000704770B58C1810F8015B15F0070301D169
:1002D00010F8013B2A1106D110F8012B03E010F8A9
:1002E000016B01F8016B5B1EF9D12B0705D40023CC
:1002F000521E0DD401F8013BFAE710F8013BCB1A6E
:10030000921C03E013F8015B01F8015B521EF9D562
:10031000A142D8D3002070BD014644F69010C2F22D
:10032000000002F047BA000080B544F69010C2F217
:10033000000002F051FA043818BF012080BD00000F
:1003400010B500F01BF801281CBF012010BD44F6B9
:100350009010C2F2000002F05DFA044608B1204697
:1003600010BD44F69010C2F200004FF4006102F09C
:10037000DBF8002818BF0124204610BD81B0012001
:100380008DF803009DF8030001B0704780B582B07E
:100390009C4613460A46014644F69010C2F20000FD
:1003A000CDF800C002F0B0FB002818BF012002B059
:1003B00080BD000080B582B09C4613460A460146C7
:1003C00044F69010C2F20000CDF800C002F08AFCA2
:1003D000002818BF012002B080BD0000FEE7000029
:1003E00080B582B021281CD020282DD140F2FC02FB
:1003F0004879C2F20002D1F800C00B7950718879B7
:100400001371C2F800C090714FF0000C10A011A140
:1004100002220123CDF800C0CDF804C009F0CAFFC4
:1004200012E040F2FC00C2F2000002680A700268AA
:10043000120A4A7042888A70C278CA7002790A71B8
:1004400042794A7180798871002002B080BD00BF76
:100450005732000031353741414141414141413935
:1004600038373635343332313000000000207047E1
:1004700010B544F23834C2F2000443F68851C2F297
:1004800000012046002205F0AFFB43F68811C2F2BE
:100490000001204605F0A2FB002010BD70B582B01F
:1004A00044F238360546C2F200060C46304629466C
:1004B00005F094FB304605F073FB2168284600F0F8
:1004C00029F943F25C31002605A0C0F602010122A1
:1004D00001230096019609F06DFF002002B070BD67
:1004E0005731000080B50AF0B1FB44F2D450C2F29B
:1004F0000000BDE8804000F0F3B9000044F218604D
:10050000C2F2000000F0ECB944F25C60C2F20000FC
:1005100000F0E6B97047000045F21B60C2F200002F
:100520000078704780B500F091F800F019F800F0FD
:1005300051F800F0A1F800F0BBF843F24531C0F6E5
:10054000020103A00A46BDE8804007F07DBD00BF60
:100550006D696E695F636F6E74726F6C000000008E
:1005600080B540F29020C2F2000009F05DFD40F23B
:100570006820C2F2000009F057FD40F2F020C2F2FC
:10058000000009F051FD40F2B020C2F2000009F075
:100590004BFD40F2D020C2F20000BDE8804009F0DF
:1005A00043BD0000024641F20000C4F201001021E8
:1005B00000F07CBC10B504460AF032FB0028FBD1E9
:1005C00040F60000C4F2010010212246BDE81040B0
:1005D00000F06CBC80B582B040F23D6C40F2B5508A
:1005E00040F2A55140F21D6240F22D63C0F6000CAE
:1005F000C0F60000C0F60001C0F60002C0F600031D
:10060000CDF800C00AF00EF947F65500C0F600001C
:1006100002B0BDE8804009F0E1BF0000024641F2AF
:100620000000C4F20100082100F040BC024641F283
:100630000000C4F20100202100F038BC0A46014647
:1006400044F61420C2F2000002F0DABC80B540F299
:100650001030C2F2000009F075FE40F63800C2F218
:10066000000009F06FFE40F66050C2F20000BDE8E5
:10067000804009F067BE000080B547F2242046F6AE
:100680002461C2F20000C2F2000101224FF4806333
:100690000BF0F0FA44F6FC2046F62421C2F20000EA
:1006A000C2F200014FF48062BDE8804002F056BE05
:1006B00010B547F2386047F23821C2F20000C2F2AA
:1006C000000101224FF480630BF0D4FA03F074FDB3
:1006D00045F21B64C2F20004207850B940F23000A9
:1006E000C2F20000026844F23830C2F20000002179
:1006F00090472078012818BF10BD40F28410C2F244
:100700000000026844F23830C2F200000021BDE867
:10071000104010470A46014647F23860C2F2000016
:100720000BF0BABAEFF3108072B600BFFEE700001C
:1007300080B544F2B823C2F200035A7A012A84BF7A
:10074000012080BD93F809C08646002003F80C0004
:100750005A7A03EB8202C2F804E05A7A1A44107201
:1007600093F809C00CF101025A720CF130020A70C0
:1007700042F63A72A1F80120C87080BD014690F897
:100780002100022813D10868D1E90FC3026822F0C2
:100790000E020260026822F001020260012000FAEB
:1007A00003F2CCF8042081F82100002002E00420AC
:1007B00088630120002281F82020704780B590F8DE
:1007C0002110022927D1026840F2040C1368C4F2F8
:1007D000020C23F00E03136013680CF17C018A42B3
:1007E00023F0010111601AD940F20841C4F202015C
:1007F0008A4247D040F21C41C4F202018A4245D0ED
:1008000040F23041C4F202018A4243D14FF4807376
:10081000CCF8003457E004218163012080BD4321DE
:10082000C4F202018A420EDD6B21C4F202018A4247
:100830001BDC4421C4F202018A4239D05821C4F29F
:1008400002018A4231E00821C4F202018A4232D018
:100850001C21C4F202018A4232D03021C4F20201CA
:100860008A4222D14FF480722BE06C21C4F2020143
:100870008A4222D08021C4F202018A4215D14FF06F
:1008800080721EE00123CCF800341CE01023CCF869
:10089000003418E00CF588614FF480338A4208BFB9
:1008A0004FF48053CCF800340DE04FF4803208E070
:1008B0004FF4805205E0012203E04FF4801200E083
:1008C0001022CCF80020012180F82110426B002179
:1008D00080F820100AB190470021084680BD000032
:1008E00010B5D0E90FE3D0F800C0DEF80020DCF846
:1008F0000010DA4054072DD511F004042AD0DCF89A
:100900000010890605D4DCF8001021F00401CCF8B1
:1009100000100422C4F2020202F17C018C454CD981
:1009200040F20841C4F202018C4500F0AB8040F275
:100930001C41C4F202018C4500F0A88040F2304115
:10094000C4F202018C4540F0A5804FF48061C2F8EA
:100950000014ECE0940745D511F0020442D0DCF815
:100960000010890608D4DCF8001021F00A01CCF848
:100970000010012180F821100422C4F2020202F1C9
:100980007C018C454BD940F20841C4F202018C45F0
:1009900000F0AD8040F21C41C4F202018C4500F031
:1009A000AA8040F23041C4F202018C4540F0A78099
:1009B0004FF40071C2F80014C8E04321C4F20201F0
:1009C0008C4540DD6B21C4F202018C454DDC442195
:1009D000C4F202018C4500F09D805821C4F202014E
:1009E0008C4562E0120740F1B78011F0080108BFA2
:1009F00010BDDCF8001021F00E01CCF80010012130
:100A000001FA03F2CEF80420816380F82110016B13
:100A10000022002980F8202040F08B809CE04321B8
:100A2000C4F202018C4543DD6B21C4F202018C4506
:100A300050DC4421C4F202018C457DD05821C4F21F
:100A400002018C456EE00821C4F202018C4564D09D
:100A50001C21C4F202018C4567D03021C4F202018E
:100A60008C4522D14FF4806160E06C21C4F2020118
:100A70008C4554D08021C4F202018C4515D14FF031
:100A8000806153E00421C2F8001450E04021C2F814
:100A900000144CE002F588634FF480219C4508BFA8
:100AA0004FF48041C2F8001441E04FF480213DE052
:100AB0000821C4F202018C4541D01C21C4F202017C
:100AC0008C4541D03021C4F202018C452AD14FF42B
:100AD00000713AE06C21C4F202018C4531D08021D2
:100AE000C4F202018C451DD14FF000712DE00221AE
:100AF000C2F800142AE02021C2F8001426E002F512
:100B000088634FF400319C4508BF4FF40051C2F890
:100B100000141BE04FF4804108E0042106E04FF48C
:100B2000800103E04FF400310FE040211160C16A01
:100B300091B1BDE8104008474FF4005105E0022193
:100B400003E04FF4001100E020211160816A0022CF
:100B5000002980F82020ECD110BD000001460028BB
:100B60004FF0010008BF70472DE9F04740F2000C3C
:100B7000C4F2020C0A684FF6F8330CF5816ECBF61E
:100B8000FD73724538BF03F5806303EB020E4CF62C
:100B9000CD43CCF6CC43AEFB033E6FF003060CF521
:100BA000806506EA9E06D1E901A9D1F80C803CBF18
:100BB0000025C4F20205C1E90F56022681F8216022
:100BC000166843F6F075AE4346EA0A06D1E90457C3
:100BD00046EA090646EA0806D1E906432E433743AA
:100BE00027433B43136000228A6381F8210081F888
:100BF00020200020BDE8F04770470000F0B590F8D5
:100C000020C0BCF1010F2FD04FF0010E80F820E082
:100C100090F821C0BCF1010F23D14FF0020C80F8F5
:100C200021C04FF0000CC0F838C0D0E900C4C56A3C
:100C3000C66BDCF80070102C27F00107CCF80070B0
:100C4000006C0EFA00F070600846CCF8043004BF67
:100C500010460A46CCF80800CCF80C2035B10E201E
:100C60000BE0002180F820100220F0BDDCF800002D
:100C700020F00400CCF800000A20DCF80010084343
:100C8000CCF80000DCF8000040F00100CCF80000D7
:100C90000020F0BDB0B5044600F00EF9054641F263
:100CA0008620C2F200000078611C18BF044400BF17
:100CB00000F002F9401BA042FAD3B0BD2DE9F04F7D
:100CC00082B00E68002E00F0E880A0F1804241F66C
:100CD0000045A2F58432C4F2010506244FEAB2278A
:100CE000A84208BF052440F2004E052F38BF4FEA46
:100CF000B224C4F2010E009400244FF001080F2327
:100D00004FF0000A4FF0000B09E000BF0E680AF137
:100D1000010A36FA0AF204F1040400F0BE8008FA6F
:100D20000AFC16EA0C09F1D04E684FF6FF72C1F2C8
:100D30001002964210DC122E50D8DFE806F0330A7B
:100D400041454F4F4F4F4F4F4F4F4F4F4F4F4F48D2
:100D50004C00D1F80CB041E04FF6FF72C1F2210215
:100D600096420FDC0022C1F2110296421AD00022F4
:100D7000C1F21202964215D00022C1F2210296421F
:100D800010D02BE00022C1F2220296420AD00022AB
:100D9000C1F23102964205D00022C1F232029642DF
:100DA0001CD100BF8A6842B1012A14BFC0F814C028
:100DB000C0F810C04FF0080B10E04FF0040B0DE02E
:100DC000CA6802F1080B09E04FF0000B06E0CA68A0
:100DD00002F1040B02E0CA6802F10C0B224606463F
:100DE000B9F5807F24BF203A0436376803FA02F54C
:100DF000AF430BFA02F23A433260CA79D2067FF56A
:100E000085AF41F21807C4F202073A684FF608436B
:100E100042F001023A603A68CFF6FF7302F0010235
:100E20000192019A2AF0030272440F25D75804F068
:100E30000C06B540AF43009D05FA06F63743D75080
:100E40004E6840F20C45F202DEF8082054BF22EA58
:100E5000090242EA0902CEF80820C4F201052A6814
:100E6000B70254BF22EA090242EA09022A60DEF808
:100E70000420B70354BF22EA090242EA0902CEF86D
:100E800004200F23DEF80020F70354BF22EA0902F2
:100E900042EA0902CEF8002038E702B0BDE8F08F40
:100EA0008068084018BF012070470000002A08BF72
:100EB000090401617047000047F24C60C2F2000073
:100EC0000068704741F2862047F24C61C2F2000090
:100ED000C2F2000100780A68104408607047000000
:100EE00080B542F20000C4F20200016841F0100136
:100EF0000160032000F0BEF80F2000F005F800F0BC
:100F000055F8002080BD0000B0B586B041F2180150
:100F1000C4F202010A68044642F400520A600968F9
:100F200001A801F4005101910199694601F01AF9F3
:100F300001F04EF94DF68361C4F21B31A0FB0101B3
:100F40004FF0FF3000EB914144F66C2043F2004239
:100F5000C2F20000C4F2010240F2E7330025C0E90A
:100F60000021C0E902530561856102F0BBF8054626
:100F7000C0B944F66C20C2F2000002F0E3F8054666
:100F800080B92C2000F03AF80F2C0AD82C202146EA
:100F9000002200F043F841F28820C2F20000046011
:100FA00000E00125284606B0B0BD000080B582B043
:100FB00041F21800C4F202000168002241F0010170
:100FC0000160016801F0010101910199416841F05E
:100FD0008051416040680F2100F0805000900098DF
:100FE0006FF0010000F01AF80420C4F2010001685B
:100FF000022262F31A61016002B080BD002848BF7E
:10100000704700F01F01012202FA01F14EF20012B6
:101010004009CEF2000242F82010704710B54EF69B
:101020000C5CCEF2000CDCF80030C3F3022E8EF024
:101030000704042C28BF0424BEF103034FF0FF3E35
:101040000EFA04F438BF0023A14399400EFA03F3CB
:101050009A43114300F1604200F00F03090102F5C9
:101060006442043B6344002848BF03F10C02117042
:1010700010BD00004EF60C51CEF200010A684FF68A
:10108000FF031A4060F30A2242F0806040F0FD70D6
:101090000860704780B501F0070C0CEB8C0C00EB7E
:1010A000CC0C0CF1280C01EB810E090600EBCE00F4
:1010B00058BF00F5B47C4AB101208CF80C00180C24
:1010C000ACF80A000020ACF8083080BD00208CF895
:1010D0000C000020ACF8063080BD00007047000016
:1010E00001EB8102D0F8EC3200EBC200C26B184673
:1010F00004F0B6BF01EB8102D0F8EC3200EBC20085
:10110000D0F87C21184605F00DB8000010B5044653
:1011100048B2B0F1FF3F01F0070000EB800104EBA3
:10112000C10205DD02F5B471002382F8693104E0E3
:10113000012302F1280182F8293094F8A8220870CE
:10114000012A04BF022010BD2068012284F8A822D1
:1011500005F098FE002084F8A80210BDB0B5044642
:10116000406801F00F02824284BF0120B0BD48B246
:10117000B0F1FF3F01F0070000EB800104EBC1027A
:1011800005DD02F5B471002382F8693104E0012322
:1011900002F1280182F8293094F8A8220025012ABA
:1011A0008D70087004BF0220B0BD2068012284F851
:1011B000A82205F0F5FE284684F8A852B0BD00002C
:1011C00010B5044690F8A802012804BF022010BD03
:1011D0004BB220680122B3F1FF3F84F8A82202DD60
:1011E00006F0F6FA03E001F0070106F0F3FA00203A
:1011F00084F8A80210BD000001F0070101EB810195
:1012000000EBC100D0F884017047000070B50646BD
:1012100048B2B0F1FF3F01F0070000EB800107DDAD
:1012200006EBC10404F5B471002584F8695106E0A9
:1012300006EBC10C01240CF128018CF82940087040
:101240000A61022BCB7004BF0020087196F8A80237
:10125000012804BF022070BD3068012286F8A82250
:1012600005F0F8FC002086F8A80270BD10B501F06A
:10127000070C0CEB8C0100EBC10E00680EF5B4718D
:101280000024CEF87C21CEF88031CEF884418EF84F
:1012900069418EF868C105F0DBFE002010BD00003A
:1012A000B0B50446406801F00705854284BF0120BF
:1012B000B0BD48B2B0F1FF3F09DD01EB810004EBA6
:1012C000C00000F5B471002280F8692108E005EB48
:1012D000850004EBC000012200F1280180F82920DC
:1012E00094F8A802012201288A700D7004BF022020
:1012F000B0BD206884F8A82205F090FE25B92068CA
:1013000004F52C7105F04AFE002084F8A802B0BD57
:1013100080B501F0070C0CEB8C0100EBC10101F86A
:1013200028CF00684FF0010C01F1140781F824C0A8
:101330004FF0000E87E80C400B6281F801C005F009
:1013400087FE002080BD00002DE9F04F85B00446E7
:10135000006806F047FA01041CD4410500F1078437
:10136000410400F11584810400F12784C10400F1D7
:101370002A84010500F14184810500F18484C005BF
:1013800040F103842068B0F8441021F48071A0F883
:101390004410FAE32068B0F94410B1F1FF3F00F3C4
:1013A000F48304F52C7140F60F76009121E0B0F83B
:1013B000501094F8682101EBC20100EB4101B1F833
:1013C0000C34B4F86E2100996FF39F23C4F8843174
:1013D00006F00CFA206801883140803101802046F7
:1013E00000F028FD2068B0F94410B1F1FF3F00F390
:1013F000CC83B0F8442012F00F090DD030F9291039
:101400004FEA490AB1F1FF3F1FFA81F832DD5FEA86
:101410000860E7D559E100BF0188D2066DD431409C
:1014200001F500410180B0F8501094F8282001EB3C
:10143000C20100EB4100B0F80404E16B6FF39F20A0
:1014400060640844E06320460021FFF749FE94F8F9
:1014500024000028C6D0206C0028C3D194F82400B2
:10146000216840F08000C0B2A1F84C00002084F850
:101470002400B7E730F81A1040F60F7C3140803175
:1014800020F81A1009EB890104EBC10B9BF87411C9
:101490000BF5B476002900F083809BF86B110229CC
:1014A00040F09080B0F850203178DBF8803102EBCA
:1014B000C1075FEA48420BF5C07200EB470700F135
:1014C0009B80B7F80C7400256FF39F27DB1B38BF98
:1014D0002B46136040F2A5805FEA486200F1B180BC
:1014E00030F8212048F2C00302EA0C021A4320F827
:1014F0002120002F40F0A680C9E00A053FF557AF34
:1015000009B2B1F1FF3F3FF76DAF01883140803143
:101510000180B0F8501094F8682101EBC20100EB93
:101520004101B1F80C346FF39F23C4F884318BB1BF
:10153000D4F87C1171B1B4F86E2106F057F9D4F8E3
:101540007C01D4F884110844C4F87C0120460021B1
:10155000FFF7D0FD206801880A053FF543AF01F48D
:101560004051B1F5405F3FF43DAFB0F8501000F28C
:101570000C42535A6FF39F235352D4F878313F2BC8
:10158000C0F0E681DE068E5A4FEA53174FF0FF3562
:1015900008BF05EB531746EA872340F60F766CE247
:1015A000B0F85010327801EBC20100EB4101B1F804
:1015B0000C746FF39F27002F69D0DBF87C11BBF808
:1015C0006E2161E0317848F2C00330F8212002EA50
:1015D0000C021A4320F8212030F82120B0F85030B6
:1015E000520403EBC10100EB410114D4B1F80C74B7
:1015F0006FF39F2737BB4AE0B7F8047400256FF3F9
:101600009F27DB1B38BF2B46136020D95FEA486257
:101610002CD4AFBB3BE0B1F804746FF39F277FBBC2
:1016200035E030F8212043F60F731A404CF2800366
:10163000A3F500535A4020F821205FEA48627FF565
:101640004FAF27B3DBF87C11BBF872211CE030F8F8
:10165000212043F60F731A404CF28003A3F5005388
:101660005A4020F821205FEA4862D2D530F8212084
:1016700048F2C00302EA0C021A4320F8212037B1D5
:10168000DBF87C11BBF870213B4606F0AFF8DBF8C5
:101690008411DBE95F0239443844CBF88411CBF87C
:1016A0007C011AB1DBF87801B84204D931782046C0
:1016B000FFF720FD03E02068314605F0C9FC40F645
:1016C0000F765FEA08607FF58DAE206809EB89012F
:1016D00030F81A2004EBC10302EA060101F50041CB
:1016E00020F81A1093F82B1003F1280B012925D1AB
:1016F00093F8341000294FF00001196400F02281A2
:101700005FEA486100F1868093F82910012900F012
:101710000481002940F01681B0F850109BF8002099
:10172000084400EB0210B0F80C146FF39F21A0F8EE
:101730000C14B0F80C1441F40041F6E05FEAC85113
:101740001DD4B0F850209BF800101F6C02EBC102B2
:1017500000EB4202B2F8042400256FF39F22BF1A67
:1017600038BF2F461F6440F2EF80D96B5F6C114485
:10177000D963B9185964594605F06AFC32E6B0F8E5
:1017800050709BF800101A4652F8405F40F60F7CEC
:101790005FEA486607EBC10756D400F20C4939F8F6
:1017A00017706FF39F27EE1B4FF0000538BF2E46D2
:1017B000166040F286805FEA484208D430F8212063
:1017C0004CF2800602EA0C02324320F821201D462A
:1017D00015F84C2F40F60F76012A40F0B8811A46D2
:1017E00052F8488F52E904E652F804AC06EB070CB5
:1017F0000AEB0706F04542F80CCC42F8046C80F086
:10180000E880B8F1000F00F051810027C64617604C
:101810002F704EE193F82910012900F089800029EA
:1018200040F09080B0F850109BF80020084400EB86
:101830000210B0F804146FF39F21A0F80414B0F85C
:10184000041441F400417BE000F2044939F81770B8
:101850006FF39F27EE1B4FF0000538BF2E46166032
:1018600048D95FEA484208D530F821204CF280067A
:1018700002EA0C02324320F821201A4612F84C6F7B
:10188000012E40F60F7640F062811D4655F848EF74
:1018900055E904A655F8048C06EB070C08EB07067F
:1018A000D64545F80CCC45F8046C80F096804FF096
:1018B0000008BEF1000F82F8008040F09180BE4623
:1018C00090E093F82920012A4FD0002A40F60F76A5
:1018D00040F0AF80B0F8503000EB01173B44B3F854
:1018E00004746FF39F27A3F80474B3F8047447F4E7
:1018F000004742E093F82920012A50D0002A40F006
:10190000A780B0F8503009EB0117FE5A6FF39F26FD
:10191000FE52FE5A46F4004646E0B0F850109BF8DE
:101920000020084400EB02100021A0F80C1409E08C
:10193000B0F850109BF80020084400EB0210002182
:10194000A0F804149BF800102046FFF7C9FB49E5F6
:10195000002B00F0918003F001078E5A07EB530330
:1019600046EA832340F60F768CE0B0F8503000EB67
:1019700001173B44002740F60F76A3F80474012AB0
:1019800051D0002A55D1B0F8500009EB0112135A7A
:101990006FF39F231352135A43F4004348E0B0F807
:1019A000503009EB01170026012AFE5248D0002AC8
:1019B0004ED1B0F8502000EB01101044B0F80C24C8
:1019C0006FF39F22A0F80C24B0F80C2442F40042DC
:1019D0003CE0A8EB0E0515606BE0AEEB0A08D646BE
:1019E000C5F8008093F8292040F60F76012A55D0DB
:1019F000002A59D1B0F8507009EB0111CA5BBEF151
:101A00003F0F6FF39F22CA537BD34FEA5E125FEA08
:101A1000CE6537F801804FF0FF3508BF05EB5E1249
:101A200048EA822284E0B0F8500009EB011200235A
:101A300013522046FFF754FB5FEA484010D586E07A
:101A4000B0F8502000EB011010440022A0F80C2444
:101A50002046FFF745FB5FEA484040F60F7676D513
:101A600020689BF800104CF2800330F821203240AF
:101A70001A4320F821206AE08B5A48F20007CFF67B
:101A8000FF773B438B52018843F60F7211404CF2B3
:101A90008002A2F5805251400180A3E4B0F85020AA
:101AA00009EB011121F802E01A8E4BE000222A70A6
:101AB000BE4693F8292040F60F76012A1AD0002A54
:101AC0003FD1B0F8507009EB0111CA5BBEF13F0F76
:101AD0006FF39F22CA531FD34FEA5E125FEACE65AF
:101AE00037F801804FF0FF3508BF05EB5E1248EA7A
:101AF000822223E0B0F8502009EB011121F802E026
:101B00001FE0BEF1000F12D00EF001027D5A02EB71
:101B10005E0245EA82220DE0BEF1000F0DD00EF00C
:101B200001027D5A02EB5E0245EA822208E07A5AFF
:101B300042F400427A521A8E04E07A5A42F4004289
:101B40007A525A8E1FFA8EF3614605F071FE2068B4
:101B50009BF8001040F63F7330F821201A4048F2FD
:101B6000C003103B5A4020F82120FFF73BBC2068FF
:101B7000B0F8441021F48061A0F84410204600F031
:101B80002BF994F8A802012808D105B0BDE8F08F20
:101B90002068B0F8441021F4804129E0012000259C
:101BA00084F8A80284F824502068002105F038FE4B
:101BB00084F8A85205B0BDE8F08F2068B0F8441052
:101BC00021F4005114E02068B0F8401021F0040125
:101BD000A0F84010B0F8401021F00801A0F8401023
:101BE000204600F00BF92068B0F8441021F4805131
:101BF000A0F8441005B0BDE8F08F20686FF0010236
:101C0000011F01A831F8043F871802320E2A7B8099
:101C1000F8D12168B1F8402042F00102A1F840203B
:101C2000B1F8402022F00102A1F84020B1F8442090
:101C30005205FBD5B1F844206FF0010322F4806215
:101C4000A1F844200A1F00BFC7187F8802330E2B5B
:101C500022F8047FF8D1B1F8400040F00800A1F864
:101C60004000B1F8440020F40060A1F84400B1F84D
:101C7000400040F004022046A1F8402005B0BDE835
:101C8000F04F00F0F9B82168B1F8440020F4007278
:101C90002046A1F8442005B0BDE8F04F00F0B2B8EE
:101CA000F0B585B0F8B1044690F8A90228B9002033
:101CB00084F8A802204600F06BF8032084F8A902FB
:101CC000206805F061F994E82F50D4E907678DE8A2
:101CD0002050CDE9036705F0D3F830B1022084F835
:101CE000A902012550E001254EE0206800210025D1
:101CF00005F094FD616849B301200023002200BF74
:101D000003EB830304EBC30787F828200132D3B227
:101D1000994287F8290087F82B50C7E90E553D6492
:101D2000EED800200023002203EB830304EBC3075B
:101D300087F868210132D3B2994287F8690187F8A0
:101D40006B01C7E95E00C7F88001EDD804F1080710
:101D5000D4E9056520688CCFD4E907CECDE90076BB
:101D600002AE86E8205005F001F920B1022084F887
:101D7000A902012508E00025012084F8245084F8F8
:101D8000A902206805F0F0F8284605B0F0BD000073
:101D900080B582B0006845F60041C4F20001884277
:101DA0001CBF02B080BD41F21C00C4F202000168F9
:101DB000002241F4000101600068052100F40000E8
:101DC000019001981420FFF729F9142002B0BDE812
:101DD0008040FFF713B9000010B504468068022860
:101DE00018BFFEF79FFCD4F8EC02012104F0C6FAFC
:101DF000D4F8EC02BDE8104004F080BAD0F8EC0250
:101E000004F0A6BAD0F8EC0204F0AABA10B5044661
:101E100090F8A802012804BF022010BD012084F818
:101E2000A80284F82410206805F0FAFC002084F849
:101E3000A80210BDD0F8EC2200F52C71104604F079
:101E4000B3BA000010B5044690F8A802012804BFF8
:101E5000022010BD2068012184F8A81205F0AEFC14
:101E600020460121FFF73AF9206805F07BF80020B1
:101E700084F8A80210BD000010B50446D0F8EC02AA
:101E800004F0E6FAA069002808BF10BD4EF6105015
:101E9000CEF20000016841F00601016010BD0000B3
:101EA0002DE9F04182B00446007841F21C06C007DB
:101EB000C4F202064AD0306810F0805808D1306869
:101EC00040F080503060306800F080500190019800
:101ED00047F20007C4F200073868C00512D438681A
:101EE00040F480703860FEF7E7FF05463868C005AB
:101EF00008D4FEF7E1FF401B6428F7D9032002B0A5
:101F0000BDE8F081706810F4407012D0616801F48F
:101F1000407188420DD0706840F24042C4F24222C3
:101F2000012320F4407113600023C0071360716027
:101F300029D17068616820F440700843B8F1000F3F
:101F4000706003D1306820F08050306020688107D5
:101F500007D556F8181CA26821F44041114346F8F1
:101F6000181CC00603D4002002B0BDE8F08156F86A
:101F7000180C616920F48000084346F8180C002012
:101F800002B0BDE8F081FEF797FF054641F28837C1
:101F900070688007CDD4FEF78FFF401BB8424FF02A
:101FA0000300F5D9ECE700002DE9F04381B00028EB
:101FB00000F0858042F20008C4F202080446D8F816
:101FC00000000D4600F0070088420CD2D8F800004F
:101FD00020F007002843C8F80000D8F8000000F0FF
:101FE0000700A8426BD1206841F204098107C4F2BE
:101FF000020917D5410705D5D9F8001041F4E06171
:10200000C9F80010010705D5D9F8001041F4605156
:10201000C9F80010D9F80010A26821F0F0011143AE
:10202000C9F80010C00741D1D8F8000000F007003F
:10203000A8420CD9D8F8000020F007002843C8F8BF
:102040000000D8F8000000F00700A84237D120684F
:10205000410707D5D9F80010E26821F4E061114387
:10206000C9F80010000708D5D9F80000216920F44C
:10207000605040EAC100C9F80000D9F8002002F021
:102080000C00082841F20020C0F27A004ED14DF633
:10209000D853C2F38341C0F60003595CD20339D44C
:1020A00040F60010C0F23D0048433FE0606802285F
:1020B00009D0012829D159F8041C890307D401202B
:1020C00001B0BDE8F08359F8041C8901F7D5D9F8AF
:1020D000001021F003010843C9F80000FEF7ECFEF0
:1020E000064641F2883700BFD9F80000616800F069
:1020F0000C00B0EB810F97D0FEF7DEFE801BB842DC
:10210000F2D9032001B0BDE8F08359F8041C890717
:10211000D5D5DCE7D9F800204DF60C53C2F3404288
:10212000C0F600039A5C4843B0FBF2F0D9F8001007
:102130004DF6DB42C1F30311C0F60002515C40F2E0
:102140002C0220FA01F141F28820C2F2000000685E
:10215000C2F200021160FEF7D7FE002001B0BDE818
:10216000F08300000F22026041F20402C4F2020276
:10217000136803F003034360136803F0F003836004
:10218000136803F4E063C36012684FF4E06303EA8A
:10219000D202026142F20000C4F20200006800F0C4
:1021A000070008607047000040F22C0041F2040173
:1021B000C2F20000C4F20201006809684DF6EB4269
:1021C000C1F30221C0F60002515CC8407047000014
:1021D00040F22C0041F20401C2F20000C4F20201FC
:1021E000006809684DF6EB42C1F3C221C0F6000257
:1021F000515CC840704700002DE9F04182B00028D2
:1022000000F0D7800446007841F20006C007C4F20F
:10221000020644D0706800F00C00042817D07068E3
:1022200000F00C00082802D17068C0030FD4656864
:102230002DB1B5F5A02F10D0B5F5803F11D0306885
:1022400020F480303060306820F480200CE030686A
:10225000800324D5606810BBABE0306840F4802078
:102260003060306840F480303060FEF725FE002D8D
:10227000054611D03068800311D4FEF71DFE401BC7
:102280006428F7D916E100BFFEF716FE401B64284C
:102290004FF0030000F28A8030688003F4D4207885
:1022A000800718D5706810F00C0F07D0706800F028
:1022B0000C00082827D17068C00324D43068800738
:1022C00002D52069012874D13068616920F0F800D6
:1022D00040EAC1003060207800074FD5A06940B3C4
:1022E0000020C4F242200121C0F88014FEF7E4FD72
:1022F000054600BF706A80072DD4FEF7DDFD401B48
:102300000228F7D9D6E02069002840F20000C4F284
:10231000422000F0A68001210160FEF7CDFD0546B8
:1023200030688007D0D4FEF7C7FD401B0228F7D9DC
:10233000C0E00020C4F242200021C0F88014FEF763
:10234000BBFD0546706A800718D5FEF7B5FD401B3A
:102350000228F7D9AEE040F22C00C2F2000000687B
:1023600044F6D351C1F26201A0FB0101480A019079
:1023700000BF0198411E00280191F9D12078400743
:102380001BD4E5698DB1706800F00C00082846D1B7
:10239000012D0ED07068216A00F480328A4208D183
:1023A000616A00F47010884203D1002002B0BDE8D9
:1023B000F081012002B0BDE8F081F06910F0805892
:1023C00008D1F06940F08050F061F06900F0805071
:1023D0000090009847F20007C4F200073868C00573
:1023E0000FD4386840F480703860FEF765FD05460C
:1023F0003868C00505D4FEF75FFD401B6428F7D997
:1024000058E0E5681DB1052D3CD0012D3ED0306A65
:1024100020F001003062306A20F0040039E000272B
:10242000C4F2422700203866FEF746FD022D05461D
:102430000CD100BF3068800154D5FEF73DFD401B34
:1024400002284FF00300F5D9B0E700BF30688001E3
:10245000ABD5FEF731FD401B02284FF00300F5D944
:10246000A4E700210160FEF727FD054630688007DC
:102470007FF531AFFEF720FD401B02284FF003002F
:10248000F4D993E7306A40F004003062306A40F0DB
:1024900001003062FEF710FD002D054641F288373D
:1024A00014D000BF306A800713D4FEF705FD401B2F
:1024B000B842F7D9032002B0BDE8F081FEF7FCFC7A
:1024C000401BB8424FF003003FF670AF306A800700
:1024D000F4D4B8F1000F7FF454AFF06920F08050CD
:1024E000F0614EE7206AB0F5803F05D17168A268BF
:1024F00021F40031114371607168626A21F4741132
:1025000011430843706001203866FEF7D5FC04468D
:10251000306880013FF549AFFEF7CEFC001B022872
:102520004FF00300F4D941E72DE9F04186B00446AD
:10253000032084F83400606C8846032810D14FF0E3
:102540008050A16B40F2FF560843A063A06BC0F21D
:10255000400668B320680125866384F8345031E072
:10256000B8F1000F41D0B8F5805FE8D0B8F5006F42
:1025700051D10021206805910491002102F08EFACA
:1025800080014BD404A9204602F01AFD0028D8D1BE
:102590009DF8160040073BD5216D2068090402F024
:1025A000A7FA0028CDD12068022102F0EBFAC8E793
:1025B00094E80F00D4E90557CDE90085029702F0B1
:1025C00071FA002520684FF4007102F0CFFA28B1AB
:1025D000216801258E63A16B0843A0630121284671
:1025E00084F8341006B0BDE8F08100212068059120
:1025F0000491002102F052FA80010FD404A9204670
:1026000002F0DEFC00289CD19DF81600C00708D11E
:102610004FF0806095E74FF0006092E74FF4006064
:102620008FE7216D2068090402F062FA00287FF428
:1026300088AF2068002102F0A5FA82E780B5D0E9D2
:10264000193ED0F844C09A0F0A70C3F383624A70EF
:10265000C3F301628A701A0CCA701A0A0A714FEA2F
:102660001E524B71CA80CEF303420A72CEF3C032BF
:102670004A72CEF380328A72CEF34032CA72CEF3FF
:1026800000320A730022BCF1010F4A732DD0BCF155
:10269000000F40F0808040F6FC72C36E02EA8E02AA
:1026A00042EA93720A61C26EC2F3C2630B75C2F34F
:1026B00002634B75C2F342538B75C2F38243C2F37C
:1026C000C232CB750A760A690B7E013203F007032A
:1026D00002339A4042650B7A03F00F0C012303FA90
:1026E0000CF383655B0A5A430FE0B0F86E200EF0DE
:1026F0003F0342EA03420A610A694FF4806303EB35
:1027000082224FF40073C0E91523C2654FF40072B2
:102710000266D0E91B20C2F380334B76C2F3C613A6
:1027200002F07F028B76CA76C20F0A77C0F341723D
:102730004A77C0F382628A77C0F38352CA77C0F3C4
:10274000405281F820200022C0F3004381F821206C
:1027500081F82230C0F3C03381F82330C0F38033D6
:1027600081F82430C0F3403381F82530C0F30033C2
:1027700081F82630C0F3812381F82730C0F301238C
:10278000C0B2400881F8283081F82900012081F882
:102790002A00104680BD016840F2FF52C0F240029C
:1027A0008A63816B012241F08051816380F834207B
:1027B000104680BD80B500F1440E9EE80C5081E8C3
:1027C0000C10426DC1E903E2D0E91623C1E90523EB
:1027D000026E0020CA6180BDB0B5016D044600687C
:1027E000090402F0D5FA10B10546002006E0206881
:1027F0000021002502F052F9C0F34320002D08BF4C
:10280000B0BDA16B2943A163B0BD000090F83400B6
:102810007047000010B5D0B1044690F8340020B9DC
:1028200000202077204600F023F9032084F83400AC
:10283000204600F00FF800284FF0010018BF10BD2F
:102840000021A163216384F83400002010BD012021
:1028500010BD0000F0B58FB0044600687621002658
:1028600002910021002200230096019602F01AF93D
:1028700000284FF0010540F0E580A027C4F2302782
:102880003E60206802F024F902203D60FEF702FA63
:102890000496206802F082F938B198B1012584F8D5
:1028A0003450A16B0843A063CCE0206802F09AF991
:1028B00000286DD020680021A16402F06FF9002883
:1028C000EBD167E020680121ADF80E1002F0E2F8CC
:1028D000002800F09080606C03281DD0206802F072
:1028E000E1F9002840F089802068002102F0D6F844
:1028F000216860670846042102F0D0F82168A067CB
:102900000846082102F0CAF82168E06708460C2151
:1029100002F0C4F8C4F88000606C032806D0206878
:102920000DF10E0102F040FA002866D1606C032818
:102930001FD0BDF80E1020682165090402F0E6F9E9
:1029400000285AD12068002102F0A8F821686066AA
:102950000846042102F0A2F82168A0660846082172
:1029600002F09CF82168E06608460C2102F096F817
:1029700020672068042102F091F8000DE06404A9AA
:102980002046FFF75BFE00285FD04FF0805034E018
:102990000120A064A06C012807D12068002102F06A
:1029A000A7F810B14FF0805077E704984FF6FE7605
:1029B000B0423DD80025CCF2101500BF20680021A0
:1029C00002F096F800287FF468AF2068294602F0EC
:1029D0009BF80028E6D12068002102F05FF80499F6
:1029E000013104910499B14202D8B0F1FF3FE5DC16
:1029F000C0F380701DE04FF0806030B1012584F895
:102A00003450A16B0843A0631CE020684FF40071B0
:102A100002F0ACF8A8B1216840F2FF52C0F24002C7
:102A20008A63A16B01250843A06384F8345009E050
:102A300000200499B1429ABF606400204FF080707A
:102A40002BE7002528460FB0F0BD216D20680A0451
:102A5000002302F01BF90028CFD194E88F00D4E9BD
:102A60000565CDE90076029502F01CF80020C4E768
:102A7000F0B585B041F20004C4F20104006804F529
:102A8000E04188424FF00000CDE90300CDE90100AC
:102A900001D005B0F0BD41F21800C4F2020050F8B8
:102AA000041C01AD41F4806140F8041C50F8041C82
:102AB000022601F48061009100990168032741F02A
:102AC00010010160016801F0100100910099016896
:102AD00041F0200101600068294600F020000090CC
:102AE00000984FF4F8500190204602960497FEF7A4
:102AF000E5F80420CDE9010604F580602946049735
:102B0000FEF7DCF805B0F0BD2DE9F04F87B09B462D
:102B100015460E460446FEF7CFF97EB1804694F87E
:102B2000340001280ED10021A163E06D0BEB0502FA
:102B300082420FD9A06B40F0007006E0A06B40F01D
:102B4000006002E0A06B40F00050A063012007B0DD
:102B5000BDE8F08F032084F83400626C2068012AFD
:102B60004FF0FF32C16218BF6D0201924FEA4B2253
:102B70004FF0020902929022CDE90491012701A9A8
:102B80000392069701F072FFBBF1020F07D3C4F85E
:102B900030902068294602F061F830B916E02763CA
:102BA0002068294602F066F880B1216840F2FF52A1
:102BB000C0F240028A63A16B0843A0630120002198
:102BC00084F83400216307B0BDE8F08FDDF8409051
:102BD000029D40F22A3A05E0FEF76EF9A0EB0800EC
:102BE000484547D22068426B416B12EA0A0F0FD169
:102BF0000804F1D5002DEFD0043E0827206801F02D
:102C00006DFF013F46F8040FF8D1203D0436E3E79D
:102C1000BBF1020F09D311F4807106D0616C032956
:102C200003D002F00FF90028BFD12068416B0907DB
:102C300033D4416B890739D4416B89063FD420686E
:102C4000416B890244D5002D42D001F047FF46F880
:102C5000040B043DFEF730F9A0EB08004845EED325
:102C6000206840F2FF51C0F240018163A06B40F048
:102C70000040A2E7206840F2FF51C0F240018163AA
:102C8000A06B40F00040A063012084F834000020D5
:102C90002063032007B0BDE8F08F40F2FF51C0F27F
:102CA00040018163A06B40F0080086E740F2FF51CD
:102CB000C0F240018163A06B40F002007DE740F26A
:102CC000FF51C0F240018163A06B40F0200074E727
:102CD00040F23A518163012084F83400002007B0AB
:102CE000BDE8F08F2DE9F04F87B09846154689462C
:102CF0000446FEF7E1F8B9F1000F0FD0824694F8D0
:102D0000340001280ED10021A163E06D08EB05021B
:102D100082420FD9A06B40F0007006E0A06B40F03B
:102D2000006002E0A06B40F00050A063012007B0FB
:102D3000BDE8F08F032084F83400626C2068012A1B
:102D40004FF0FF32C16218BF6D0201924FEA482274
:102D500002929022CDE9032105910121069101A95A
:102D600001F084FEB8F1020F07D320202063206811
:102D7000294602F077F838B917E010202063206860
:102D8000294602F07BF880B1216840F2FF52C0F280
:102D900040028A63A16B0843A0630120002184F8EC
:102DA0003400216307B0BDE8F08F109EDDF808B055
:102DB00040F21A376D4605E0FEF77EF8A0EB0A00F8
:102DC000B0424BD22068426B416B3A4225D1480455
:102DD000F2D5BBF1000FEFD0A9F104074FF00809BD
:102DE00017F8040F0090797840EA01200090B97834
:102DF00040EA01400090F97840EA016120680091C2
:102E0000294601F06FFEB9F10109E9D1ABF1200BC0
:102E100007F1040940F21A37CEE7B8F1020F09D3DF
:102E200011F4807106D0616C032903D002F00AF816
:102E30000028A9D12068416B090720D4416B89077C
:102E400026D4416BC9062CD440F23A51816301204B
:102E500084F83400002007B0BDE8F08F206840F20D
:102E6000FF51C0F240018163A06BA063012084F890
:102E7000340000202063032007B0BDE8F08F40F24B
:102E8000FF51C0F240018163A06B40F0080083E76E
:102E900040F2FF51C0F240018163A06B40F002009C
:102EA0007AE740F2FF51C0F240018163A06B40F02D
:102EB000100071E77047000070B538B10446406AF1
:102EC00030B10020206104F1140007E0012070BD42
:102ED0006068B0F5827F03D004F11C00002101601E
:102EE0000026A66294F8510020B9204684F850606C
:102EF00000F038F8022084F8510094E8071001F43B
:102F00008271036802F4044223F0400303602369E2
:102F100011440CF40062114403F00202636911448D
:102F200003F00102A369E569114403F4007211443E
:102F300005F03802256A114405F08002A56A1143A4
:102F400005F4005211430160042101EA134141607C
:102F5000C16921F40061C1610120666584F85100F6
:102F6000304670BD70B586B0044640F60000C4F22D
:102F70000100216800F52052002691420596CDE916
:102F80000366029601D006B070BD41F21801C4F28A
:102F900002010A6842F480520A600A6802F4805210
:102FA0000192019A0A6842F004020A60096801F07D
:102FB000040101910199A0210291022103910321B1
:102FC000059102A9FDF77AFE44F2D4553020C2F2F1
:102FD0000005C4F202001021802285E84300284643
:102FE000C5E90326C5E90566EE61FDF7B7FD0028D2
:102FF00018BFFDF797FBA5646C6206B070BD0000BA
:1030000070B5044690F85000012804BF022070BD3E
:10301000012084F8500094F85100012842D1002981
:103020004FF0010018BF002A50D00320002325468E
:1030300084F8510045F8543F45F8241C25F8202C0D
:1030400025F81E2C45F81C3C45E9053325F8183CAD
:1030500025F8163C55F84C0CB0F5004F08D1206807
:10306000026822F040020260026842F4804202607C
:10307000A06C45F2BD1C45F2C51E45F29D16C0F67A
:10308000000CC0F6000EC0F600062268C0E90AEC8B
:10309000C0E90C63E38E0C32FDF7B0FD20B10120D6
:1030A000102110E0022011E025682868400603D4B2
:1030B000286840F04000286055F8040F022140F0D5
:1030C0002000286000202A6811432960002184F82C
:1030D000501070BD7047000070470000704700003E
:1030E00070470000002804BF0120704710B5044657
:1030F00090F83D0028B9002084F83C00204600F0FC
:103100001FF8022084F83D002068211D02F096FB84
:10311000012084F8460084F83E0084F83F0084F8DB
:10312000400084F8410084F8420084F8430084F8A9
:10313000440084F8450084F83D00002010BD0000E4
:103140007047000090F83D1001291CBF0120704716
:10315000022180F83D10006840F6FF32C168C4F2D9
:103160000002904241F00101C1600FDCB0F1804FDC
:103170001ED040F20041C4F20001884218D040F64F
:103180000001C4F20001884212D018E040F600416C
:10319000C4F2000188420BD043F20041C4F20101A5
:1031A000884205D042F60041C4F20101884206D1AE
:1031B000816801F00701062904BF002070470168FB
:1031C00041F00101016000207047000070470000DD
:1031D00010B5044600680169890744BFC1685FEA09
:1031E00081713FD420680169490744BFC1685FEA23
:1031F000417143D420680169090744BFC1685FEA8F
:10320000017148D420680169C90644BFC1685FEAFA
:10321000C1614CD420680169C9071CBFC1685FEA5D
:10322000C17151D120680169090644BFC1685FEAD4
:10323000016150D420680169490644BFC1685FEA52
:1032400041614FD421680869800646BFC8685FEABB
:10325000806010BD6FF0200220460A61BDE810407A
:10326000FFF73EBF6FF00201016101212177806904
:1032700080073ED02046FFF7A9FF40E06FF0040131
:10328000016102212177806910F4407F3AD0204605
:10329000FFF79CFF3CE06FF00801016104212177FA
:1032A000C069800737D02046FFF790FF39E06FF004
:1032B0001001016108212177C06910F4407F33D0EB
:1032C0002046FFF783FF35E06FF0010101612046E2
:1032D00000F038F8A6E76FF0800101612046FFF7A3
:1032E000FDFEA7E76FF040010161204600F034F8D1
:1032F000A8E7204600F022F8204600F021F8002040
:1033000020776FE7204600F019F8204600F018F803
:10331000002020776EE7204600F010F8204600F0ED
:103320000FF8002020776DE7204600F007F82046D0
:1033300000F006F8002020776CE7000070470000DE
:1033400070470000006843F20041C4F20101884266
:1033500018BF7047FDF7B6BD7047000081B090F808
:103360004230202B36D100294FF0010318BF002A2C
:1033700031D00123036300234363816222218285CC
:10338000C285436480F84210016921B10168CA68AE
:1033900042F48072CA6001684A6942F001024A61DF
:1033A000CA6842F02002CA60026B012A16D10022CC
:1033B00000920A680092496800910099016851E8FA
:1033C000031F026841F0100142E80313002BF5D1FE
:1033D000002300E00223184601B070470123FAE7FA
:1033E00010B5006844F60002C4F20002904218BF13
:1033F00010BD46F6242447F22420C2F200040A46F7
:10340000C2F20000214608F047FC44F6FC20C2F25C
:10341000000021464FF48062FFF7A0FF20464FF4E2
:103420008061FCF7C0FE10BD70470000B0B582B0EF
:10343000044600680168C368426901F02F05202D29
:1034400003F0200506D12DB1204602B0BDE8B04002
:1034500002F066BA5FEA017C1EBF02F0010E03F4BF
:10346000907212EB0E0253D1226B012A05D111F09A
:10347000100218BF13F0100236D10A0622D513F03D
:1034800080021FD094F8411021293FD1A168B1F5E5
:10349000805F03D12169002900F04581216A4A1C1F
:1034A000226209784160E18C01390A04E1842DD15E
:1034B000C16821F08001C160C16841F04001C16074
:1034C00002B0B0BD490621D513F040011ED0C1683D
:1034D00021F04001C1602021204684F8411002B053
:1034E000BDE8B04000F05ABA002101910168019195
:1034F0004168019101994069400611D4A08DE18D88
:10350000E28D002A18BF884240F0DF8002B0B0BDD3
:10351000C80718BF13F4807049D148074DD453E051
:10352000E06B016849688AB2002AEFD0A38D9A4205
:10353000ECD2E1858069202831D000BF206850E8B6
:10354000030F216820F4807041E80302002AF5D1BE
:10355000206850E8050F216820F0010041E80502CD
:10356000002AF5D1206850E8050F216820F04000BE
:1035700041E80502002AF5D1202084F8420000200D
:10358000206300BF206850E8030F216820F010007E
:1035900041E80302002AF5D1E06BFDF7EFF80220C5
:1035A0006063A08DE18D401A81B22046B6E0606C68
:1035B00040F001006064480706D5BEF1000F03D05B
:1035C000606C40F002006064880706D5BEF1000F11
:1035D00003D0606C40F004006064BCF1000F09D5BA
:1035E00045EA0E00B0FA80F0400903D1606C40F06B
:1035F00008006064606C00283FF488AF11F0200080
:1036000018BF002D02D0204602F08AF920684069D8
:10361000616C00F0400001F00801401848D000BF84
:10362000206850E8030F216820F4907041E80302FD
:10363000002AF5D1206850E8050F216820F001002C
:1036400041E80502002AF5D1206B01280AD100BF0C
:10365000206850E8030F216820F0100041E80302C1
:10366000002AF5D1202084F8420000202063206841
:103670004069400623D500BF206850E8050F216847
:1036800020F0400041E80502002AF5D1E06BB0B11E
:1036900045F61511C0F600014163FDF78FF80028CB
:1036A0003FF434AFE06B416B02B0BDE8B040084777
:1036B0002046FFF7B9FE0020606402B0B0BD20468E
:1036C00002B0BDE8B040FFF7AFBE401A216851E834
:1036D000031F226821F4907142E80313002BF5D1F7
:1036E000216851E8051F226821F0010142E8051315
:1036F000002BF5D1202184F842100021216300BF66
:10370000216851E8031F226821F0100142E80313E9
:10371000002BF5D1022281B22046626302B0BDE8DF
:10372000B040FFF75DBE216A31F8022B6FF35F22D4
:1037300042602162B7E60000002804BF0120704704
:1037400010B5044690F8410028B9002084F84000E4
:10375000204600F061F8242084F841002068D4E974
:103760000212C36823F40053C360036923F4405377
:103770001A430261D4E904231143C268194341F298
:103780000C639A431143C1604169A26921F44071FD
:10379000114343F60002C4F201029042416102D09B
:1037A000FEF702FD01E0FEF713FD626819214843B0
:1037B0009100B0FBF1F048F21F51C5F2EB11A0FBF4
:1037C00001235A094FF69C73C0F6FF7302FB0300F6
:1037D000322303EB0010A0FB0101F02303EA511395
:1037E000206803EB0212C1F34311114481600169A7
:1037F00021F490410161416921F02A014161C168D0
:1038000041F40051C16000202021606484F841101F
:1038100084F84210606310BD2DE9F04186B0044683
:10382000006844F60001C4F20001002688420596B3
:10383000CDE90366029669D044F20041C4F200016A
:10384000884240F0A58041F21800C4F202004168AD
:1038500040F6000541F4003141604168C4F20105C1
:1038600001F4003101910199016802AE41F00401B7
:103870000160006840F26C0800F0040001900198BB
:103880000420029002200390032005902846314630
:10389000C4F20208FDF712FA082002900027284619
:1038A0003146CDE90377FDF709FA44F21865C2F213
:1038B000000520208026C5E906072846C5E90087BF
:1038C000C5E90276C5E90477FDF748F9002818BF75
:1038D000FCF728FFE5636C6244F25C6508F11400B4
:1038E000C2F20005102185E883002846C5E9036778
:1038F000C5E90577EF61FDF731F9002818BFFCF73E
:1039000011FFA5636C6206B0BDE8F08141F21800BA
:10391000C4F20200416802AD41F480214160416877
:1039200001F4802101910199016841F020010160B9
:103930000068294600F02000019001984FF4807043
:103940000290022003900320059040F60000C4F28C
:10395000010000F540642046FDF7B0F94FF4007017
:10396000CDE90206204629460496FDF7A7F9042072
:10397000C4F201000168002241F0E06141F0300131
:10398000016027200521FDF749FB2720FDF736FBC5
:1039900006B0BDE8F08100007047000070470000ED
:1039A000012818BF704780B582B043F2423043F21D
:1039B00026314FF0000CC0F60200C0F602010222D0
:1039C0000123CDF800C0CDF804C006F0F3FC02B02E
:1039D00080BD0000012818BF704780B582B043F257
:1039E0003C3043F226314FF0000CC0F60200C0F626
:1039F000020102220123CDF800C0CDF804C006F078
:103A0000D9FC02B080BD0000012818BF704710B576
:103A100082B043F23C3043F2F8210024C0F60200A9
:103A2000C0F60201022201230094019406F0C2FCB8
:103A300043F23F3043F2CA21C0F60200C0F6020151
:103A4000022201230094019406F0B4FC43F24230B8
:103A500043F29C21C0F60200C0F6020102220123BB
:103A60000094019406F0A6FC02B010BD012818BF16
:103A7000704710B582B043F23C3043F29C210024E1
:103A8000C0F60200C0F60201022201230094019454
:103A900006F090FC43F23F3043F2CA21C0F6020028
:103AA000C0F60201022201230094019406F082FC78
:103AB00043F2423043F2F821C0F60200C0F60201A0
:103AC000022201230094019406F074FC02B010BDA0
:103AD000012818BF7047B0B582B043F2CA2443F240
:103AE0003C30C0F602040025C0F602002146022246
:103AF00001230095019506F05DFC43F23F3043F24F
:103B00009C21C0F60200C0F60201022201230095AA
:103B1000019506F04FFC43F24230C0F60200214608
:103B2000022201230095019506F044FC02B0B0BDCD
:103B300041F20040C4F201002021FDF7B1B90000BC
:103B400041F20040C4F201008021FDF7A9B9000054
:103B500040F60000C4F201000121FDF7A1B9000008
:103B600041F60000C4F201000121FDF799B90000FF
:103B700041F20040C4F201004021FDF791B900007C
:103B8000024641F20040C4F201000221FDF78EB965
:103B9000024641F20040C4F201000821FDF786B957
:103BA000024641F20040C4F201001021FDF77EB947
:103BB00080B508200AF040F8014600284FF00000C8
:103BC0001CBF4860084680BDB0B578B105460820E6
:103BD0000C460AF031F848B12A466D68002DFBD139
:103BE0000021C0E9004150600846B0BD0120B0BDD1
:103BF000B0B5D0F89052044695F8180280B120462E
:103C0000812102F001FC687A022818BFB0BD05F5D9
:103C10000372204601211F23BDE8B04002F05CBBC7
:103C2000D5F814020028EAD0687A0028E7D12046A7
:103C3000012102F0E9FBE2E7B0B5D0F8905204466A
:103C4000687A022806D12046812102F0DDFB00209F
:103C50006872B0BD49B2B1F1FF3FFADC012808BF7C
:103C6000B0BD45F25530C5F24230C5F82C020120F6
:103C700085F83802002005F50B7228722046812154
:103C80000D2302F0EFFB05F50372204601211F23EF
:103C9000BDE8B04002F020BBB0B5D0F89052044669
:103CA000287AC11E02290BD245F25530C5F24230A6
:103CB00005F50B72C5F82C02002085F8380219E0D2
:103CC000022827D195F8191205F21B22204600F090
:103CD00011FBB0F1FF3FC8BFB0BDD4F8905245F220
:103CE0005530C5F24230C5F82C02012005F50B72A3
:103CF00085F8380200202872204681210D2302F029
:103D0000B1FB05F50372204601211F23BDE8B04039
:103D100002F0E2BAB0BD000070B5D0F8905204468F
:103D2000287A012835D0002875D1D5E98401C5E964
:103D30008C012046012102F04BFA1F2811D1D5F841
:103D40000C0245F25531C4F24231884209D195F84E
:103D50001912012905D895F81A02113810F1110F1E
:103D60004DD895F8191220460522202300F06AFE4E
:103D7000D4F89062022196F81802697298B320462E
:103D8000812102F041FB707A022844D106F50372CA
:103D900022E095F8191205F21B22204600F0AAFA3B
:103DA000B0F1FF3FC8BF70BD45F25530D4F8905216
:103DB000C4F2423000F18050C5F82C02012085F891
:103DC0003802002005F50B722872204681210D2350
:103DD00002F048FB05F50372204601211F23BDE8D0
:103DE000704002F079BAD6F814020028C7D0707A71
:103DF0000028C4D12046012102F006FBBFE705F2EE
:103E00001B22204600F076FA297AB0F1FF3F03DD4D
:103E1000481E032808D270BD204605290DD1012176
:103E2000BDE8704000F046B86A8952B105F10C0156
:103E30002046BDE8704000F05BB8BDE87040FFF779
:103E4000D7BE20460021BDE8704000F033B8000026
:103E5000D0F890020021017270470000B0B504460E
:103E6000D0E9A45000212981A5F85C120168002046
:103E700088472046012102F099F92046812102F06D
:103E800095F905F50372204601211F23BDE8B040D6
:103E900002F022BA80B5D0F890C24FF4807E0CF5C3
:103EA000037201211F23ACF808E0BDE8804002F056
:103EB00013BA0000B0B50446D0F8905245F2553020
:103EC000C5F24230C5F82C02002005F50B7285F8CA
:103ED00038122872204681210D2302F0C3FA05F51D
:103EE0000372204601211F23BDE8B04002F0F4B95F
:103EF00010B5D0F890E28C46DEF83412DEF81432B9
:103F0000891A934228BF1346CEF8341200210424A4
:103F10008EF83812812162468EF80840BDE81040C4
:103F200002F0A0BA80B582B041F21400C4F20200DF
:103F30000168002241F0010101600068052100F0E4
:103F40000100019001980D20FDF768F80D20FDF7A4
:103F500055F8102005210022FDF760F81020FDF72C
:103F60004DF8112005210022FDF758F8112002B06C
:103F7000BDE88040FDF742B880B54DF6A05043F251
:103F80002031C0F60000C2F20001FCF7D1FB45F27F
:103F9000D951C2F20001087080BD000080B545F221
:103FA000D5304DF6E852C0F60000C0F60002002100
:103FB00007F080F844F2B421C2F20001086080BD2D
:103FC0002DE9F04F85B04FF0000841F21800CDE91F
:103FD0000388CDE90188C4F20200016840F60009B7
:103FE00041F0100101600168C4F2010901F0100103
:103FF00000910099016809F5006741F00401016032
:104000000168002201F00401009100990168382440
:1040100041F020010160016801F020010091009948
:10402000016841F0400101600068382100F0400063
:10403000009000983846FCF739FF484610210022CE
:104040004FF0100BFCF732FF09F5406528461A21A6
:1040500001224FF0010AFCF729FF01AECDE9014A28
:10406000022438463146CDE90344FCF727FE484692
:104070003146CDE901A80394FCF720FE48463146BD
:10408000CDE901BACDE90344FCF718FE4FF40E6008
:10409000CDE90108284631460394FCF70FFE1A20AB
:1040A000CDE9010A28463146CDE90384FCF706FE36
:1040B00009F580503146CDE901A80394FCF7FEFDD7
:1040C00005B0BDE8F08F000044F6901048F2000102
:1040D000C2F20000C4F201010022C0E90012C0E9EE
:1040E000022210304FF480434FF0060C80E80C1091
:1040F0007047000080B544F6142043F20001C2F27C
:104100000000C4F201014FF48272002380E80E0027
:1041100000F114014FF4007C4FF0080E81E80850C4
:104120000A21C0E90333C0E90833C0E90A31FEF7C8
:10413000C3FE002808BF80BDBDE88040FCF7F2BA8E
:1041400080B544F6B42044F20041C2F20000C4F24B
:10415000000100234FF00C0C4FF4E13280E80E0018
:10416000C0E90333C0E905C3C361FFF7E5FA0028DE
:1041700008BF80BDBDE88040FCF7D4BA80B544F6E6
:10418000FC2044F60001C2F20000C4F2000100234A
:104190004FF00C0C4FF4E13280E80E00C0E903331D
:1041A000C0E905C3C361FFF7C7FA002808BF80BD97
:1041B000BDE88040FCF7B6BA80B544F2383040F232
:1041C0000C01C2F20000C2F20001002201F00CFF5B
:1041D000002818BFFCF7A6FAFCF79EF901281AD0B0
:1041E000A0BB44F2383040F23001C2F20000C2F20B
:1041F000000102F065FA002818BFFCF793FA44F2B8
:10420000383040F27011C2F20000C2F2000101F039
:10421000DDFCC8B91AE044F2383040F28411C2F231
:104220000000C2F2000102F04BFA002818BFFCF7B0
:1042300079FA44F2383040F22821C2F20000C2F28A
:10424000000102F08FF908B1FCF76CFA44F2383043
:10425000C2F2000002F04AFA002808BF80BDBDE8A3
:104260008040FCF75FBA000080B544F2A06045F6DC
:104270000041C2F20000C4F200010822022380E8DB
:104280000E000021C0E906110162FDF709FD0028BA
:1042900008BF80BDBDE88040FCF744BAFEE70000DF
:1042A000FEE7000000000000000000000000000029
:1042B000EFF30980BFF36F8F0D4B1A6820E9F00F01
:1042C00010602DE908404FF0500080F3118808F08D
:1042D0002FF94FF0000080F31188BDE808401968FD
:1042E0000868B0E8F00F80F30988BFF36F8F70475C
:1042F0001C5100202DE9F04182B016461278044688
:104300005A2A00F277800D46DFE812F05B00740055
:1043100074008900740074007400740074007400E8
:1043200074007400740074007400740074007400ED
:10433000B60074007400740074007400740074009B
:10434000D700EB0074007400F00074007400740077
:104350007400F50074001A01740074003A017400CE
:1043600078017400740074007400B101740074006A
:10437000740074007400740074007400740074009D
:10438000740074007400740074007400740074008D
:10439000740074007400740074007400740074007D
:1043A000740074007400740074007400740074006D
:1043B000740074007400740074007400740074005D
:1043C000D001D4F89062D6F81402002800F0A4813D
:1043D00096F85D02052206EBC0010024013081F849
:1043E0003C2281F84042C1B2043918BF014686F828
:1043F0005D1222E3D4F89002052390F85D12FF24A9
:1044000000EBC10282F83C320023013182F84032D5
:10441000CAB2043A18BF0A4680F85D220DE3D4F808
:1044200090020021C160016181838161416190F846
:104430005C1290F85D327022027399424FF00C02C8
:10444000C27411D000EBC10292F83C3292F8407273
:1044500092F8412201310276CAB2043A8373477658
:1044600018BF0A4680F85C2212214181317900246C
:10447000122998BF4181E0E27078D4F89012C00709
:1044800040F02781D4F8940205EBC503C26902EB22
:104490008300077930790537874238BF38460028CE
:1044A000488100F0F0819B001A440B31013A00244E
:1044B000135C0B540138FBD1BFE2D4F89002082101
:1044C0004DF69152418113300021C0F6000200BF29
:1044D0005318DB794354013911F10803F8D1002452
:1044E000ABE2D4F8900200244481A6E2D4F8900212
:1044F00000244481A1E2D4F89062002777613761FB
:10450000F760D4F89402694643680DF10602284624
:104510009847002800F01E81D4F89002022390F8FA
:104520005D12002400EBC102013182F83C3282F8B6
:104530004072CAB2043A18BF0A4680F85D227CE293
:10454000D4E9A460436806F5187106F25E22284695
:104550009847002800F01481D4F89002022390F8C4
:104560005D12002400EBC102013182F83C3282F876
:104570004042CAB2043A18BF0A4680F85D225CE2A3
:10458000D4F89072387A002800F00E814FF400764B
:104590007E81D4E9A470D7F86812B7F85E32D7F8F4
:1045A00064225943B1F5007F38BF0E46D0F810C0E1
:1045B000B6FBF3F307F10C0828464146E047B0F19B
:1045C000FF3F40F32A81B3B220468121424601F0E9
:1045D00049FFB7F85E02D7E99923B6FBF0F0D7F8A8
:1045E00034120244181AC7E99920A1EB0600C7F853
:1045F000340204BF0320387200241EE2D4F8907203
:10460000387A002800F0E680D7F86802B7F85E1222
:10461000D7F8642200FB01F6D4F89402B6F5007FC7
:1046200028BF4FF40076D0F814C0B6FBF1F307F1C1
:104630000C0828464146E047B0F1FF3F40F30181B6
:10464000B7F85E02D7F83422B6FBF0F1D7E9993516
:10465000921B0B44691AC7E99931C7F8342240F01C
:104660000481204600210024FFF724FCE5E1717855
:10467000D4F8900289073DD4D0F86822D0E9983167
:104680001144994240F2C68090F85D12052300EB78
:10469000C1020024013182F83C3282F84042CAB2A1
:1046A000043A18BF0A4680F85D22C6E1D4F89002A9
:1046B00008214DF68952418113300021C0F60002D5
:1046C0005318DB794354013911F10803F8D1002460
:1046D000B3E107204DF69952488101F11200002103
:1046E000C0F6000253189B7943540139CB1DF9D110
:1046F0000024A2E190F85D12052300EBC102002422
:10470000013182F83C3282F84042CAB2043A18BF02
:104710000A4680F85D2290E1D4F894028168284628
:104720008847002800F0B180D4F89002022390F866
:104730005D12002400EBC102013182F83C3282F8A4
:104740004042CAB2043A18BF0A4680F85D220520EA
:10475000307272E100990820F073481E010E317426
:10476000010C7174010AB174BDF80610F0740220D6
:10477000B08208BA000CF0820C20708100245CE149
:10478000D6F8600200240138010E3173010C7173F8
:10479000010AF073B6F85E02B17300BA000C7082C1
:1047A00008203482708148E197F9180200286FD4FC
:1047B00097F85D02052207EBC0010024013081F863
:1047C0003C2281F84042C1B2043918BF014687F843
:1047D0005D1232E197F91802B0F1FF3F73DDD4F8B2
:1047E000940281682846884700287ED0D4F8900239
:1047F000022390F85D12002400EBC102013182F81F
:104800003C3282F84042CAB2043A18BF0A4680F8E5
:104810005D2212E1002444810FE1D4F890020423C8
:1048200090F85D12002400EBC102013182F83C32A5
:1048300082F84042CAB2043A18BF0A4680F85D22A4
:10484000FBE0D4F89002042390F85D12002400EB02
:10485000C102013182F83C3282F84042CAB2043AC5
:1048600018BF0A4680F85D22E7E001FB00F320460E
:1048700001214246B3F5007F28BF4FF4007301F0D9
:104880002BFD0024D9E00024D7E000247481D4E07B
:10489000D4F8940281682846884700283FD0D4F88D
:1048A0009002022390F85D12002400EBC102013156
:1048B00082F83C3282F84042CAB2043A18BF0A4633
:1048C00080F85D22B9E097F85D02052207EBC00190
:1048D0000024013081F83C2281F84042C1B2043901
:1048E00018BF014687F85D12A7E0D4F89402C168AA
:1048F00028468847C0B3D4F89002022390F85D128E
:10490000002400EBC102013182F83C3282F84042BF
:10491000CAB2043A18BF0A4680F85D228DE0D6F884
:10492000020001BAC7F86412B6F80720D4F8900262
:1049300013BAD0F8606201EB134351BAB342C7F81F
:10494000681236D990F85D12052300EBC1020024ED
:10495000013182F83C3282F84042CAB2043A18BFB0
:104960000A4680F85D2268E0D6F8020001BAC7F86E
:104970006412B6F80720D4F8900213BAD0F8606237
:1049800001EB134351BAB342C7F868122DD990F81E
:104990005D12052300EBC1020024013182F83C3294
:1049A00082F84042CAB2043A18BF0A4680F85D2233
:1049B00043E0B7F85E32D7F81462594302228E42C0
:1049C0003A723FF4E3AD90F85D12052300EBC102AB
:1049D0000024013182F83C3282F84042CAB2043AE3
:1049E00018BF0A4680F85D2227E0B7F85E22D7F8A4
:1049F000146201FB02F39E420ED10120B3F5007F49
:104A000028BF4FF40073387207F10C0220460121D1
:104A100001F062FC002410E090F85D12052300EB29
:104A2000C1020024013182F83C3282F84042CAB20D
:104A3000043A18BF0A4680F85D2260B202B0BDE8B1
:104A4000F0810000D0F8900290F85D1200EBC103F5
:104A500083F83C220022013183F84022CAB2043A92
:104A600018BF0A4680F85D227047000080B50246F4
:104A700091E809505062936208694EEA0C031843AA
:104A80004969D36A084323F0F70101430020D1624A
:104A900080BD0000006800F00300704708444069D2
:104AA0007047000010B58446DDE902401143194308
:104AB0002143DDF810E00843DCF8041047F6FF62FC
:104AC00040EA0E00914301430020CCF8041010BDD1
:104AD0000146032200200A6070470000D0F88000E1
:104AE00070470000096802460020C2F88010704735
:104AF0008160C36840F2774161F30B03372141F2D3
:104B00008832C36000F0C6B941F0004141F4801121
:104B10008160C16840F2694262F30B01C16040F2FA
:104B20002C01C2F20001096844F6D352C1F26202BC
:104B3000A1FB0212510A41F288325143C94300BF1E
:104B4000013124BF4FF000407047426B12F0450F17
:104B5000F6D012F40062F3D1416B042211F004018B
:104B600008BFC52282630846704700008160C368A1
:104B70004FF48A6161F30B03102141F28832C36064
:104B800000F088B98160C36840F2464161F30B03CD
:104B9000062141F28832C36000F07CB900218160B7
:104BA000C1684FF4806262F30B01C16040F22C01D6
:104BB000C2F20001096844F6D352C1F26202A1FBBD
:104BC0000212510A41F288325143C943013124BFD4
:104BD0004FF000407047426B1206F7D5C521816344
:104BE000002070474FF4D5718160C1684FF489622D
:104BF00062F30B01C16040F22C01C2F200010968AE
:104C000044F6D352C1F26202A1FB0212510A41F2F0
:104C100088325143C94300BF013124BF4FF00040E7
:104C20007047426B12F0450FF6D012F40062F3D1D8
:104C3000416B490709D4416BC90709D1416B49064A
:104C40004FF0000107D5402204E00422042101E0D6
:104C50000122012182630846704700008160C36819
:104C600040F2524161F30B03122141F28832C360DA
:104C700000F010B98160C36840F2514161F30B0349
:104C8000112141F28832C36000F004B98260C36828
:104C900040F2474161F30B03072141F28832C360C0
:104CA00000F0F8B800218160C16840F2C24262F3AE
:104CB0000B01C16040F22C01C2F20001096844F608
:104CC000D352C1F26202A1FB0212510A41F28832B0
:104CD0005143C943013124BF4FF000407047426B3C
:104CE00012F0450FF6D012F40062F3D1416B490780
:104CF00006D4416BC90705D1C521816300207047E7
:104D0000042100E001218163084670478160C16889
:104D100040F2C94262F30B01C16040F22C01C2F2C1
:104D20000001096844F6D352C1F26202A1FB0212EB
:104D3000510A41F288325143C94300BF013124BFB7
:104D40004FF000407047426B12F0450FF6D012F45E
:104D50000062F3D1416B490706D4416BC90705D105
:104D6000C521816300207047042100E00121816397
:104D70000846704700218160C36840F2734161F3C7
:104D80000B03332141F28832C36000F083B8000086
:104D90008160C36840F24D4161F30B030D2141F284
:104DA0008832C36000F076B800228260C26840F2A8
:104DB000434363F30B02C26040F22C02C2F20002D2
:104DC000126844F6D353C1F26203A2FB03235A0ACA
:104DD00041F288335A43D243013224BF4FF000409E
:104DE0007047436B13F0450FF6D013F40063F3D113
:104DF000426B52071BD4426BD2071AD10269D2B25E
:104E0000032A1CBF01207047C5228263406910F449
:104E1000604F12D0410444BF4FF40050704700046B
:104E20004FF4805158BF4FF4803108467047042139
:104E300000E00121816308467047000C08800020D3
:104E40007047000000218160C36840F24C414EF27F
:104E5000001261F30B03C0F2F5520C21C36000F0A5
:104E600019B800008160C36840F2594161F30B0337
:104E7000192141F28832C36000F00CB88160C36828
:104E80004FF48B6161F30B03182141F28832C36048
:104E9000AFF3008040F22C03C2F20003D3F800C04D
:104EA00044F6D353C1F26203ACFB033C03464FEA22
:104EB0005C205043013000BF013804BF4FF0004078
:104EC00070475A6B12F0450FF6D012F40062F3D11E
:104ED000586B400742BF042098637047586BC00767
:104EE0001EBF012098637047C52098631869C0B23F
:104EF00088421CBF0120704758694EF20801CFF666
:104F0000FF51084204BF00207047002844BF4FF003
:104F100000707047410044BF40207047810044BF8B
:104F200080207047C10044BF4FF48070704701017A
:104F300044BF4FF400707047410144BF4FF480609C
:104F40007047C10144BF4FF400607047010244BF85
:104F50004FF480507047410244BF4FF400507047F7
:104F6000810244BF4FF480407047C10244BF4FF4F8
:104F700000407047410344BF4FF400307047810345
:104F800044BF4FF480207047C10344BF4FF400205A
:104F90007047010444BF4FF480107047410444BF80
:104FA0004FF400107047810444BF4FF480007047F5
:104FB00000074FF4000058BF4FF4803070470000E6
:104FC0002DE9F04188B00C460546FBF775FF064613
:104FD00000212868019100910821FFF7C7FD10B159
:104FE00008B0BDE8F081296D28680904FFF780FD4D
:104FF0000028F5D14FF0FF300290082003903020B8
:105000000490022005900020069001212868079155
:1050100002A9FFF72BFD2868FFF7ACFE0028DFD1BF
:105020000027E8460DE000BF0846FFF757FD48F8A7
:1050300027000137FBF740FF801B01304FF0004095
:10504000CED02968486B10F02A0F05D1486B80023A
:10505000EAD4486B8004EDD4486B000712D4486B47
:10506000800711D4486B800610D440F23A50886310
:10507000DDE9001000BA09BAC4E90001002008B057
:10508000BDE8F081082002E0022000E020208863D3
:1050900008B0BDE8F081000010B540F22804C2F26B
:1050A000000401202070FBF74BF908B1207810BDF7
:1050B000207800F0FE002070207810BD10B588B078
:1050C00040F22800C2F200000078C0070CD1084668
:1050D00003290CD81446DFE800F00B020D136846D4
:1050E000FBF71AF906980FE0032008B010BD042062
:1050F00008B010BD6846FBF70FF90798208004E060
:105100006846FBF709F907982060002008B010BD39
:1051100010B59C464EF200130846C0F2F5531146F6
:105120006246FBF733F940B947F65F14CFF6FE74D9
:10513000FBF7FAF818B10134FAD3012010BD0020B2
:1051400010BD000010B540F22804C2F20004012096
:105150002070FBF7E9F808B1207810BD207800F046
:10516000FE002070207810BD10B59C464EF2001352
:105170000846C0F2F55311466246FBF71BF940B9E9
:1051800047F65F14CFF6FE74FBF7CEF818B1013482
:10519000FAD3012010BD002010BD0000406A016854
:1051A0004A6822F003024A60416D41F010014165F6
:1051B000012180F85110FDF77DBE0000406AFDF727
:1051C0008BBF0000B0B582B0446A0546FBF774FEA1
:1051D0002968096889062ED403462068642241683C
:1051E00021F020014160416821F002014160204628
:1051F000802100F027F838B1606D40F02000606534
:10520000606D40F020006065A06838B90020019012
:105210002068C16801918068019001980020E086B3
:10522000012084F85100606D28B1204602B0BDE82D
:10523000B040FDF73FBE204602B0BDE8B040FDF7EC
:1052400049BF00002DE9F04381B01E4690460D464F
:105250008146FBF731FE301A00EB0807FBF72CFE06
:1052600040F22C01C2F200010968C1F3CB3179434D
:105270000091D9F8001089682940A94219D1064641
:1052800008F1010406E000BFD9F80000806828405A
:10529000A8420ED1002CF7D0FBF70EFE801BB842BF
:1052A0000BD200980099002808BF0746481E0090BE
:1052B000EAE7002001B0BDE8F083D9E900014268C7
:1052C000B1F5827F22F0E00242600BD1D9F80810DC
:1052D000B1F5004F02D0B1F5806F03D1016821F024
:1052E00040010160D9F82810B1F5005F07D10168CD
:1052F00021F400510160016841F400510160012076
:1053000089F85100002089F85000032001B0BDE861
:10531000F083000044F6901CC2F2000CDCF854301C
:105320004CF6CD40CCF6CC40A3FB0003980A0860B5
:10533000DCF85810002011807047000000207047F2
:105340000020704780B544F69010C2F20000FDF7CF
:105350005DFA013818BF0120400080BD0020704771
:1053600080B582B044F690104FF47A7CC2F200000F
:10537000CDF800C0FDF7C8FB002818BF0120400091
:1053800002B080BD80B582B044F690104FF47A7CB4
:10539000C2F20000CDF800C0FDF7A4FC002818BF41
:1053A0000120400002B080BD0000000000000000AD
:1053B000074B19680868B0E8F00F80F30988BFF35D
:1053C0006F8F4FF0000080F311884EF00D0E704784
:1053D0001C51002042F6C06043F22031C2F20000AE
:1053E000C2F20001012203F045FD45F2D85144F21A
:1053F000B024C2F20001C2F200040870208801301B
:1054000081B2642988BF00202080642005F0DAFC86
:10541000F4E7000041F24059C2F200094FF0640A7B
:105420004FF0380803E000BF012005F0CBFCD9F8AD
:10543000000047685FB9F7E7288A00F03C0120F4D4
:10544000707040EA011028827F68002FECD03D6820
:1054500068690028F8D08047298A0446C1F34000D3
:10546000A0421FD1FBF728FD298AD5F804C0AB68FC
:105470004E0B1CF83620C31A934275D9084664F3C4
:105480000000E2074FEA9104288219D114F00F02BC
:1054900001D0052A1ED101F03C01142964D120F06D
:1054A0003C0060E004F0010021F0020141EA40000C
:1054B0002882FBF701FD7F68A860002FC7D1B3E702
:1054C00004F00F04012C0AD044BB40F0040020F08B
:1054D000380048E040F0140020F0280043E00CEBD6
:1054E000C602527802FB0AF2934217D940F0080034
:1054F00020F034002882FBF7DFFC298A6A6808EA7A
:1055000091231A44EB689279C01A02FB0AF2904286
:1055100017D241F0180020F0240024E001F03C06EE
:105520000C2E14D0082E1FD108EA91226244528812
:1055300002FB0AF2934208D940F00C0020F0300040
:1055400011E0FBF7B9FCE8600EE00C2E0CD108EA84
:1055500091216144898801FB0AF18B4204D940F012
:10556000100020F02C002882288AC0F38311C0F399
:10557000830081423FF460AFA969002918BF8847C2
:105580005AE7000080B582B0019005F039F8FFE7D6
:105590000A2005F017FCFBE740F2FF7A43F2243BB8
:1055A000CFF6F07AC2F2000B4FF00A0903E000BF19
:1055B000012005F007FC42F6B860C2F20000006866
:1055C000466886B9F4E700BFD8F814100020884771
:1055D0009BF80000B0F10A0118BF411C76688BF8F7
:1055E0000010002EE4D0D6F80080D8F80C0018B3D4
:1055F000FBF762FCD8E90341D8F80430C1F3841505
:1056000005EBC51203EB420292F80071001B07EB99
:105610008707B0EB470F19D945EAC51003EB4003E4
:10562000C1F3C72001301B5C002B4CD001EA0A01FA
:1056300041EAC02002E000BFD8F8100040F400208A
:10564000C8F81000FBF738FCC8F80C00D8F81000B8
:10565000D8F80410C0F3841202EBC21201EB42012D
:10566000C0F3C7228B5C303B112B6BD80FF20807BD
:1056700007EB8307BF4600BF00F022B800F03AB83E
:1056800000F03AB800F03AB800F03AB800F03AB892
:1056900000F03AB800F03AB800F03AB800F03AB882
:1056A00000F050B800F04EB800F04CB800F04AB826
:1056B00000F048B800F046B800F044B800F04DB82B
:1056C00020F470002AE092F80101400748D48806CF
:1056D00042BF21F4FC6061F38A10C8F81000D8F8CA
:1056E000100020F40020C8F810007668002E7FF427
:1056F0007AAF5DE701210FE002210DE003210BE00D
:10570000042109E0052107E0062105E0072103E067
:10571000082101E0092100BF61F31750C8F810000B
:10572000D8F810009BF80010C0F30350884298BFCF
:105730000A283FF649AFD8F8141000293FF444AFC7
:10574000012044E7D8F8183040F47000002BC8F866
:105750001000E5D088189847E2E769F31750DDE7B5
:1057600001EA0A006AE7000080B54FF0500080F3BC
:105770001188BFF36F8FBFF34F8F07F061FD30B11A
:105780004EF60450CEF200004FF080510160002030
:1057900080F3118880BD000070B596B00CAC204637
:1057A0002821FAF700FD01200C9010904FF4E01032
:1057B00000254FF480310226159020460B95CDE947
:1057C0000955CDE90755CDE90555CDE90355CDE995
:1057D0000155CDE90D15CDE91361FCF70DFD20B1A3
:1057E000EFF3108072B600BFFEE70F20CDE9070689
:1057F0004FF48060CDE90A0507A802210995FCF75E
:10580000D3FB20B1EFF3108072B600BFFEE710208B
:1058100001900020069001A8FCF742FB18B1EFF3BD
:10582000108072B6FEE716B070BD00007047000031
:1058300044F66C20C2F20000FDF7CABC10B540F679
:10584000FF3E0368C4F2000E43F2004C7045C4F200
:10585000010C20DCB0F1804F2BD040F20042C4F2AA
:105860000002904225D040F60002C4F200029042AD
:105870001FD0704523DCB0F1804F2ED040F20042A3
:10588000C4F20002904228D040F60002C4F20002A6
:10589000904222D025E040F60042C4F2000290423D
:1058A00007D0604505D042F60042C4F201029042A2
:1058B000DFD14A6823F0700313437045DBDD40F607
:1058C0000042C4F20002904207D0604505D042F683
:1058D0000042C4F20102904203D1CA6823F440732B
:1058E000134323F080024B69D1F800E08C681A431F
:1058F00060450260C462C0F828E005D042F600426C
:10590000C4F20102904201D10969016301214161A0
:1059100010BD0000406A0021C185C184FDF784BD2F
:1059200081B090F8421022291DD18268B2F5805FC3
:1059300002D10169002948D0816AB2F5805F07D0A1
:105940000AB9026922B10268526802F07F0201E0DE
:10595000026852680A70816A01318162C18D013921
:105960000A04C18501D001B070470168CA6822F0FD
:105970002002CA60CA6822F48072CA604A6922F0B2
:1059800001024A61202180F8421000214163026B2C
:10599000012A23D1016300BF016851E8031F026897
:1059A00021F0100142E80313002BF5D101680A68C9
:1059B000D20606D5002200920A680092496800913A
:1059C0000099818D01B0FDF70BBD0168826A4968BD
:1059D0006FF35F2122F8021B8262BFE701B0FDF77F
:1059E000DBBF000044F6FC20C2F20000FDF71EBD44
:1059F00010B5D0F89022C2B101EB810300EB830E09
:105A00005EF81C4F64B1D0F898C201EB81030CEB37
:105A1000C303D3F838C0B4FBFCF303FB1C4333B11E
:105A200000242046C2F8144210BD022010BD0024FC
:105A300000220023CEF8004000F014FD204610BDE7
:105A4000B0B5D0F89052044600F0C2FBD4F89012E2
:105A5000C5F80C0249B1D4F8940205F50371C26887
:105A6000D5F8040290470020B0BD0220B0BD000070
:105A7000B0B58121044600F0E1FA0025204601215D
:105A8000E56200F0DBFA20468221C4F8585100F0AC
:105A9000D5FAD4F89002256448B1D4F8940240684D
:105AA0008047D4F8900201F0BFF8C4F8905200206B
:105AB000B0BD000010B5D0F8941269B1D0F8904292
:105AC00094F80002FF2807D08B6894F80122214641
:105AD0009847FF2084F80002002010BD014640F2E4
