:020000040800F2
:10000000A09000204501000891410008893B0008AC
:100010008D41000859020008558C000800000000BE
:10002000000000000000000000000000014C00087B
:10003000D1030008000000002149000819520008FF
:100040005F0100085F0100085F0100085F01000810
:100050005F0100085F0100085F0100085F01000800
:100060005F0100085F0100085F0100085F010008F0
:100070005F0100086D0300085F0100085F010008D0
:100080005F0100085F0100085F0100085F010008D0
:10009000A98A00085F0100085F0100085F010008ED
:1000A0005F0100085F0100085F0100085F010008B0
:1000B0005F0100085F0100085F0100085F010008A0
:1000C0005F0100085F0100085F0100085F01000890
:1000D0005F0100085F0100085F0100085F01000880
:1000E0005F0100085F0100085F0100085F01000870
:1000F000ED5200085F0100085F0100085F01000881
:100100005F0100085F0100085F0100085F0100084F
:100110005F0100085F0100085F0100085F0100083F
:100120005F0100085F0100085F0100085F0100082F
:10013000DFF80CD000F052F800480047159800088E
:10014000A09000200648804706480047FEE7FEE7EB
:10015000FEE7FEE7FEE7FEE7FEE7FEE7FEE7FEE777
:10016000E95200083101000840EA01039B0703D06F
:1001700009E008C9121F08C0042AFAD203E011F8E6
:10018000013B00F8013B521EF9D27047D2B201E0A8
:1001900000F8012B491EFBD270470022F6E710B58C
:1001A00013460A4604461946FFF7F0FF204610BDE5
:1001B000421C10F8011B0029FBD1801A704710B5B2
:1001C000002200E0521C835C8C5CA34201D1002B16
:1001D000F8D1D8B2E1B2401A10BD0000064C074D6C
:1001E00006E0E06840F0010394E807009847103407
:1001F000AC42F6D3FFF7A0FF10C6000830C60008D7
:1002000070B58C1810F8015B15F0070301D110F8D8
:10021000013B2A1106D110F8012B03E010F8016B05
:1002200001F8016B5B1EF9D12B0705D40023521E88
:100230000DD401F8013BFAE710F8013BCB1A921CF0
:1002400003E013F8015B01F8015B521EF9D5A142EE
:10025000D8D3002070BD0000FFE7FEE784B08DF822
:100260000F000291ADF806209DF80F0001460091A5
:10027000232800F248800099DFE801F012131415DA
:10028000164545454545454545454545454545454D
:10029000454545454545454545454545172843445C
:1002A00032E031E030E02FE02EE00298006840F2CA
:1002B000F401C2F200010860029800790871029806
:1002C000407948710298807988711DE040F2F4000D
:1002D000C2F200000168029A11700168090A029ACC
:1002E00051704188029A9170C178029AD170017957
:1002F000029A11714179029A51718079029988713B
:1003000002E001E000E0FFE7002004B070470000D9
:100310000020704780B582B045F26C70C2F20000D8
:10032000009045F26431C2F200010022019205F012
:100330005FFA009844F66471C2F2000105F04AFACF
:10034000019802B080BD000080B584B00390029196
:10035000039945F26C70C2F20000019005F03AFA80
:10036000019805F0F1F9002004B080BD80B509F0D6
:1003700009FA45F63020C2F2000000F015F980BD00
:1003800084B003900291019200930398C16B026CB8
:1003900001209040486000980399096848600398DC
:1003A0004068102809D1FFE701980399096888601F
:1003B000029803990968C86008E0029803990968DF
:1003C0008860019803990968C860FFE704B0704726
:1003D0007047000080B500F09DF800F003F800F0D1
:1003E00047F880BD80B540F2AC10C2F2000008F0C2
:1003F000F3FC40F28410C2F2000008F0EDFC40F281
:100400000C20C2F2000008F0E7FC40F2CC10C2F26F
:10041000000008F0E1FC40F2EC10C2F2000008F02D
:10042000DBFC80BD80B582B08DF807009DF8072009
:1004300041F20000C4F20100102100F0BDFE02B044
:1004400080BD000080B582B08DF80700FFE709F09D
:1004500083F908B1FFE7FAE79DF8072040F60000AE
:10046000C4F20100102100F0A7FE02B080BD000020
:1004700080B582B040F2F540C0F6000069460860E1
:1004800040F24540C0F6000040F22541C0F60001B0
:1004900040F2B542C0F6000240F2D543C0F6000378
:1004A00009F024F848F60D40C0F6000008F000FFFF
:1004B00002B080BD80B582B08DF807009DF807209E
:1004C00041F20000C4F20100082100F075FE02B004
:1004D00080BD000080B582B08DF807009DF8072030
:1004E00041F20000C4F20100202100F065FE02B0DC
:1004F00080BD000080B582B00190ADF80210019976
:10050000BDF8022045F66450C2F2000003F05AF82C
:1005100002B080BD80B540F22C20C2F2000008F08D
:10052000BBFC40F25470C2F2000008F0B5FC40F68B
:100530007C40C2F2000008F0AFFC80BD81B0EFF358
:10054000108072B60090FFE7FEE7000080B584B02F
:100550004FF2E870C1F6FF70006803904FF2EC7044
:10056000C1F6FF70006802904FF2F070C1F6FF70A4
:10057000006801900199039808440390039888B19A
:10058000FFE7039840F26811C2F2000100910231C6
:10059000082203F0FBFA009902981231042203F0BA
:1005A000F5FAFFE704B080BD80B5ACB02B902B9876
:1005B000C06B00682A902B980068006829902A98E0
:1005C0002B99096CC8404007002840F17581FFE76E
:1005D0009DF8A4004007002840F16E81FFE72B98AA
:1005E000006800688006002807D4FFE72B980168A0
:1005F000086820F004000860FFE72B98006881215C
:10060000C4F202018842C0F0A880FFE72B9800687E
:100610000821C4F20201884203D1FFE70420289098
:1006200094E02B9800681C21C4F20201884203D197
:10063000FFE74020279086E02B9800683021C4F225
:100640000201884204D1FFE74FF48060269077E0F2
:100650002B9800684421C4F20201884204D1FFE7CC
:100660004FF48040259068E02B9800685821C4F230
:100670000201884204D1FFE74FF48020249059E022
:100680002B9800686C21C4F20201884204D1FFE774
:100690004FF4800023904AE02B9800688021C4F238
:1006A0000201884204D1FFE74FF0806022903BE0D6
:1006B0002B98006840F20841C4F20201884203D13D
:1006C000FFE7042021902CE02B98006840F21C41A9
:1006D000C4F20201884203D1FFE7402020901DE0D0
:1006E0002B98006840F23041C4F20201884204D1E4
:1006F000FFE74FF480601F900DE02B98016840F2F7
:100700004442C4F202024FF48020914208BF4FF4E9
:1007100080401F90FFE71F982090FFE720982190CE
:10072000FFE721982290FFE722982390FFE7239884
:100730002490FFE724982590FFE725982690FFE76F
:1007400026982790FFE727982890FFE7289840F2FF
:100750000441C4F202010860A5E02B98006808215A
:10076000C4F20201884203D1FFE704201E9094E006
:100770002B9800681C21C4F20201884203D1FFE7D4
:1007800040201D9086E02B9800683021C4F20201C1
:10079000884204D1FFE74FF480601C9077E02B98EB
:1007A00000684421C4F20201884204D1FFE74FF4FB
:1007B00080401B9068E02B9800685821C4F2020129
:1007C000884204D1FFE74FF480201A9059E02B981B
:1007D00000686C21C4F20201884204D1FFE74FF4A3
:1007E000800019904AE02B9800688021C4F2020131
:1007F000884204D1FFE74FF0806018903BE02B98CF
:10080000006840F20841C4F20201884203D1FFE7C8
:10081000042017902CE02B98006840F21C41C4F291
:100820000201884203D1FFE7402016901DE02B987B
:10083000006840F23041C4F20201884204D1FFE76F
:100840004FF4806015900DE02B98016840F244420F
:10085000C4F202024FF48020914208BF4FF480405E
:100860001590FFE715981690FFE716981790FFE789
:1008700017981890FFE718981990FFE719981A90A1
:10088000FFE71A981B90FFE71B981C90FFE71C9846
:100890001D90FFE71D981E90FFE71E980421C4F2EB
:1008A00002010860FFE72B98C06A20B1FFE72B9890
:1008B000C16A8847FFE7B7E12A982B99096CC840BD
:1008C0008007002840F17F81FFE79DF8A4008007A2
:1008D000002840F17881FFE72B98006800688006C7
:1008E00000280BD4FFE72B980168086820F00A0065
:1008F00008602B99012081F82100FFE72B98006800
:100900008121C4F202018842C0F0A880FFE72B9841
:1009100000680821C4F20201884203D1FFE70220E7
:10092000149094E02B9800681C21C4F202018842C4
:1009300003D1FFE72020139086E02B980068302138
:10094000C4F20201884204D1FFE74FF40070129014
:1009500077E02B9800684421C4F20201884204D158
:10096000FFE74FF40050119068E02B980068582181
:10097000C4F20201884204D1FFE74FF40030109026
:1009800059E02B9800686C21C4F20201884204D11E
:10099000FFE74FF400100F904AE02B980068802189
:1009A000C4F20201884204D1FFE74FF000700E90BC
:1009B0003BE02B98006840F20841C4F202018842F3
:1009C00003D1FFE702200D902CE02B98006840F245
:1009D0001C41C4F20201884203D1FFE720200C90A1
:1009E0001DE02B98006840F23041C4F202018842B9
:1009F00004D1FFE74FF400700B900DE02B980168D5
:100A000040F24442C4F202024FF40030914208BF67
:100A10004FF400500B90FFE70B980C90FFE70C98F9
:100A20000D90FFE70D980E90FFE70E980F90FFE7EF
:100A30000F981090FFE710981190FFE7119812900F
:100A4000FFE712981390FFE713981490FFE71498AC
:100A500040F20441C4F202010860A5E02B9800684E
:100A60000821C4F20201884203D1FFE702200A9064
:100A700094E02B9800681C21C4F20201884203D143
:100A8000FFE72020099086E02B9800683021C4F20F
:100A90000201884204D1FFE74FF40070089077E02C
:100AA0002B9800684421C4F20201884204D1FFE778
:100AB0004FF40050079068E02B9800685821C4F26A
:100AC0000201884204D1FFE74FF40030069059E05C
:100AD0002B9800686C21C4F20201884204D1FFE720
:100AE0004FF4001005904AE02B9800688021C4F272
:100AF0000201884204D1FFE74FF0007004903BE010
:100B00002B98006840F20841C4F20201884203D1E8
:100B1000FFE7022003902CE02B98006840F21C4174
:100B2000C4F20201884203D1FFE7202002901DE0B9
:100B30002B98006840F23041C4F20201884204D18F
:100B4000FFE74FF4007001900DE02B98016840F230
:100B50004442C4F202024FF40030914208BF4FF405
:100B600000500190FFE701980290FFE70298039080
:100B7000FFE703980490FFE704980590FFE70598C6
:100B80000690FFE706980790FFE707980890FFE7B1
:100B900008980990FFE709980A90FFE70A9804214E
:100BA000C4F202010860FFE7FFE72B99002081F8FB
:100BB0002000FFE72B98806A20B1FFE72B98816A1D
:100BC0008847FFE72FE02A982B99096CC840000757
:100BD000002827D5FFE79DF8A4000007002821D5AD
:100BE000FFE72B980168086820F00E0008602B983A
:100BF000C26B016C012000FA01F151602B998863EE
:100C00002B9981F82100FFE72B99002081F8200023
:100C1000FFE72B98006B20B1FFE72B98016B88470B
:100C2000FFE7FFE7FFE7FFE72CB080BD83B001904F
:100C300000200090019820B9FFE701208DF80B00FB
:100C40006AE00198006840F20741C4F2020188425C
:100C500018D8FFE7019908684FF6F872CBF6FD72D5
:100C600010444CF6CD42CCF6CC42A0FB02026FF011
:100C7000030000EA9200086401990020C4F2020017
:100C8000C86318E0019908684FF6F832CBF6FD7298
:100C900010444CF6CD42CCF6CC42A0FB02026FF0E1
:100CA000030000EA92000864019940F20040C4F297
:100CB0000200C863FFE70199022081F82100019832
:100CC000006800680090009843F6F0718843009037
:100CD00001994868D1F808C0CB680A6940EA0C005D
:100CE000184310434A6910438A691043C969014394
:100CF00000980843009000980199096808600199DC
:100D000000208863019A012182F82110019981F85D
:100D100020008DF80B00FFE79DF80B0003B0704733
:100D200080B586B0049003910292019300208DF863
:100D30000300FFE7049890F82000012804D1FFE7A2
:100D400002208DF817004CE00499012081F8200062
:100D5000FFE7FFE7049890F82100012832D1FFE770
:100D60000499022081F821000499002088630498E6
:100D70000168086820F00100086004980399029A4D
:100D8000019BFFF7FDFA0498C06A38B1FFE70498A9
:100D90000168086840F00E0008600CE004980168E3
:100DA000086820F00400086004980168086840F0B2
:100DB0000A000860FFE704980168086840F0010035
:100DC000086009E0FFE70499002081F82000FFE7B0
:100DD00002208DF80300FFE79DF803008DF817004F
:100DE000FFE79DF8170006B080BD000080B584B015
:100DF000039000F0F9F902900398019001980130F6
:100E000048B1FFE741F2A210C2F200000178019858
:100E100008440190FFE7FFE700F0E6F90299401A65
:100E20000199884201D2FFE7F6E704B080BD0000D7
:100E300092B01190109100200F900B90FFE7109846
:100E400000680F99C840002800F09B81FFE70F99C8
:100E5000012088400E90109800680E9908400D906F
:100E60000D980E99884240F08881FFE710984068FD
:100E70000790002851D0FFE7079801283AD0FFE7F4
:100E8000079802283FD0FFE7079803285FD0FFE7C5
:100E90000798112832D0FFE70798122838D0FFE7CB
:100EA00007980021C1F21101884236D0FFE7079868
:100EB0000021C1F2120188422FD0FFE707980021DC
:100EC000C1F22101884228D0FFE707980021C1F232
:100ED0002201884221D0FFE707980021C1F23101A9
:100EE00088421AD0FFE707980021C1F232018842F8
:100EF00013D02FE01098C0680B902CE01098C068B9
:100F000004300B9027E01098C06808300B9022E066
:100F10001098C0680C300B901DE01098806818B9CC
:100F2000FFE704200B9011E010988068012806D19B
:100F3000FFE708200B900E981199086105E0082042
:100F40000B900E9811994861FFE7FFE703E000203E
:100F50000B9000E0FFE70D98FF2803D8FFE71198FA
:100F6000069003E0119804300690FFE706980A9077
:100F70000D98FF2804D8FFE70F988000059006E041
:100F80000F996FF01F0000EB81000590FFE70598B7
:100F900009900A980068099A0F21914088430B999B
:100FA000914008430A9908601098C079C00600284B
:100FB00040F1E280FFE7FFE741F21800C4F20200CF
:100FC000016841F001010160006800F00100089033
:100FD0000898FFE70F9820F003000821C4F20101F0
:100FE00040580C900F9800F0030081000F2000FA89
:100FF00001F10C9888430C90119840F60001C4F25E
:101000000101884203D1FFE70020049042E01198DB
:1010100040F60041C4F20101884203D1FFE70120FC
:10102000039034E0119841F20001C4F201018842BA
:1010300003D1FFE70220029026E0119841F200411F
:10104000C4F20101884203D1FFE70320019018E0B8
:10105000119841F60001C4F20101884203D1FFE773
:10106000042000900AE0119941F60042C4F2010206
:101070000620914208BF05200090FFE700980190EC
:10108000FFE701980290FFE702980390FFE70398BB
:101090000490FFE704980F9901F00301890000FA1A
:1010A00001F10C9808430C900C980F9921F0030162
:1010B0000822C4F20102885010988079C0060028E6
:1010C00009D5FFE70D9A40F20841C4F20101086812
:1010D0001043086008E00D9A40F20841C4F2010193
:1010E000086890430860FFE7109880798006002820
:1010F00009D5FFE70D9A40F20C41C4F201010868DE
:101100001043086008E00D9A40F20C41C4F201015E
:10111000086890430860FFE71098807980070028EE
:1011200009D5FFE70D9A40F20441C4F201010868B5
:101130001043086008E00D9A40F20441C4F2010136
:10114000086890430860FFE710988079C00748B1AD
:10115000FFE70D9A40F20041C4F201010868104314
:10116000086008E00D9A40F20041C4F201010868ED
:1011700090430860FFE7FFE7FFE70F9801300F900B
:101180005DE612B07047000082B00190ADF8021029
:1011900001988068BDF80210084204D0FFE70120E2
:1011A0008DF8010003E000208DF80100FFE79DF8B5
:1011B000010002B07047000082B00190ADF802104B
:1011C0008DF801209DF8010028B1FFE7BDF802006D
:1011D0000199086105E0BDF8020000040199086169
:1011E000FFE702B07047000046F68470C2F20000CC
:1011F0000068704741F2A210C2F20000027846F681
:101200008471C2F200010868104408607047000051
:1012100080B542F20001C4F20201086840F01000FB
:101220000860032000F0D4F80F2000F005F800F06B
:1012300071F8002080BD000080B58CB00B900020BC
:10124000059004908DF80B00FFE741F21800C4F2FE
:101250000200016841F400510160006800F4005090
:1012600001900198FFE706A803A901F0E9FC01F04D
:1012700017FD059005984DF68361C4F21B31A0FB64
:1012800001014FF0FF3000EB9140049045F6BC5057
:10129000C2F2000043F20041C4F20101016040F2D9
:1012A000E731C16004994160002101618160816181
:1012B00002F04EFA8DF80B009DF80B0028BBFFE7FB
:1012C00045F6BC50C2F2000002F094FA8DF80B0013
:1012D0009DF80B00C0B9FFE72C2000F055F80B98E3
:1012E0000F280CD8FFE70B992C20002200F056F8AD
:1012F0000B9841F2A411C2F20001086003E0012042
:101300008DF80B00FFE7FFE7FFE79DF80B000CB03F
:1013100080BD000080B584B0FFE741F21800C4F240
:101320000200016841F001010160006800F0010065
:1013300003900398FFE7FFE741F21C00C4F20200AC
:10134000016841F080510160006800F08050029017
:101350000298FFE76FF001000F21002200F01EF855
:10136000FFE70421C4F2010108680190019820F010
:10137000E0600190019840F00070019001980860D1
:10138000FFE704B080BD000080B582B08DF8070093
:101390009DF9070007F098FC02B080BD80B586B0CB
:1013A0008DF81700049103920020029007F0A4FC2E
:1013B00002909DF91700019002980499039A02F097
:1013C000E9FE0146019807F09FFC06B080BD0000D1
:1013D00080B582B00190019807F0B8FC02B080BDE2
:1013E00084B00390ADF80A10ADF808200193BDF861
:1013F0000A00000600280CD5FFE70398BDF80A1084
:1014000001F0070101EB810100EBC10028300090E1
:101410000AE00398BDF80A1001EB810100EBC1005E
:1014200000F5B4700090FFE7BDF8080038B9FFE799
:1014300000990020087301980099C8800AE000997B
:1014400001200873019800990881BDF806000099F1
:101450004881FFE7002004B07047000082B001908F
:101460008DF803109DF80300012801D1FFE700E08B
:10147000FFE702B07047000080B582B001908DF8A0
:101480000310019AD2F8EC029DF8031001EB8103DE
:1014900002EBC302D26B04F0AFFE02B080BD0000CD
:1014A00080B582B001908DF80310019AD2F8EC0259
:1014B0009DF8031001EB810302EBC302D2F87C21FB
:1014C00004F04CFF02B080BD80B584B002908DF86E
:1014D00007109DF80700000600280FD5FFE70298C7
:1014E0009DF8071001F0070101EB810100EBC1003D
:1014F000283000900099012048700FE002989DF874
:10150000071001F0070101EB810100EBC10000F5BC
:10151000B4700090009900204870FFE79DF8070024
:1015200000F0070000990870FFE7029890F8A80201
:10153000012804D1FFE702208DF80F0014E0029982
:10154000012081F8A802FFE7FFE7029800680099F0
:1015500006F0B0F8FFE70299002081F8A802FFE743
:1015600000208DF80F00FFE79DF80F0004B080BD4C
:1015700080B584B002908DF807109DF8070000F048
:101580000F0002994968884204D9FFE701208DF8CD
:101590000F004DE09DF80700000600280FD5FFE77B
:1015A00002989DF8071001F0070101EB810100EBA3
:1015B000C100283000900099012048700FE0029887
:1015C0009DF8071001F0070101EB810100EBC1005C
:1015D00000F5B4700090009900204870FFE7009972
:1015E000002088709DF8070000F00700009908703F
:1015F000FFE7029890F8A802012804D1FFE7022033
:101600008DF80F0014E00299012081F8A802FFE78D
:10161000FFE702980068009906F042FAFFE7029996
:10162000002081F8A802FFE700208DF80F00FFE7F7
:101630009DF80F0004B080BD80B586B00590049180
:10164000ADF80E20BDF80E004004002877D5FFE766
:1016500005980068B0F850000499097800EBC101C2
:101660000598006800EB4100B0F804046FF39F2078
:10167000ADF80C0004988069BDF80C10884207D3BF
:10168000FFE7BDF80C2004998869801A886103E09F
:10169000049900208861FFE704988069F8B9FFE7A2
:1016A000FFE7059800680499097830F821004BF6A7
:1016B0008F710840ADF80A00BDF80A0080F40050B0
:1016C000ADF80A00BDF80A0048F280010843059908
:1016D0000968049A127821F82200FFE7FFE7BDF8B5
:1016E0000E00400600281BD5FFE7FFE7FFE705983F
:1016F00000680499097830F8210048F68F71084095
:10170000ADF80800BDF8080048F2C001084305998B
:101710000968049A127821F82200FFE7FFE7FFE743
:10172000BDF80C0050B1FFE705980068049A5169B4
:101730001289BDF80C3007F0C9F9FFE776E005988B
:101740000068B0F850000499097800EBC1010598D1
:10175000006800EB4100B0F80C046FF39F20ADF877
:101760000C0004988069BDF80C10884207D3FFE78D
:10177000BDF80C2004998869801A886103E00499F7
:1017800000208861FFE704988069F8B9FFE7FFE768
:10179000059800680499097830F821004BF68F719C
:1017A0000840ADF80600BDF8060080F40050ADF822
:1017B0000600BDF8060048F2800108430599096853
:1017C000049A127821F82200FFE7FFE7BDF80E0027
:1017D000400600281BD4FFE7FFE7FFE705980068F5
:1017E0000499097830F8210048F68F710840ADF867
:1017F0000400BDF8040048F2C001084305990968D7
:10180000049A127821F82200FFE7FFE7FFE7BDF80E
:101810000C0050B1FFE705980068049A516952899D
:10182000BDF80C3007F052F9FFE7FFE7BDF80C00F8
:1018300006B080BD80B5A6B025902491ADF88E206D
:10184000BDF88E004006002840F1BB81FFE72598D7
:101850000068B0F850002499097800EBC101259880
:10186000006800EB4100B0F804046FF39F20ADF86E
:10187000860024988069BDF88610884207D9FFE762
:10188000BDF8862024998869801A886103E024992C
:1018900000208861FFE724988069002840F0B0802C
:1018A000FFE7FFE72498407808BBFFE7FFE72598AC
:1018B0000068209025980068B0F8501020980844DF
:1018C000209020982499097800EB011000F2044040
:1018D0001F90FFE71F9908886FF39F2008801F99CA
:1018E000088840F400400880FFE7FFE71DE02498E7
:1018F0004078012818D1FFE7FFE7259800681D9080
:1019000025980068B0F850101D9808441D901D9847
:101910002499097800EB011000F204401C901C99F6
:1019200000200880FFE7FFE7FFE7FFE7FFE72598D4
:1019300000681B902498407808BBFFE7FFE72598D4
:101940000068199025980068B0F85010199808445C
:10195000199019982499097800EB011000F20C40B5
:101960001890FFE7189908886FF39F20088018994E
:10197000088840F400400880FFE7FFE718E024985B
:101980004078012813D1FFE725980068B0F850107F
:101990001B9808441B901B982499097800EB0110B0
:1019A00000F20C401A901A9900200880FFE7FFE728
:1019B000FFE7259824990978FFF75EFDBDF88E00B2
:1019C000400400281BD5FFE7FFE7FFE725980068E4
:1019D0002499097830F8210048F68F710840ADF855
:1019E0005A00BDF85A004CF2800108432599096855
:1019F000249A127821F82200FFE7FFE7FFE7DFE0F3
:101A0000BDF88E00400400281BD5FFE7FFE7FFE785
:101A1000259800682499097830F8210048F68F71DC
:101A20000840ADF85800BDF858004CF2800108435A
:101A300025990968249A127821F82200FFE7FFE728
:101A4000FFE7249890F82400012840F0B880FFE7D1
:101A5000BDF886202499486910444861BDF8862065
:101A60002499C8691044C86124980169006A8842B1
:101A700009D3FFE7249800692290229A2499086AE2
:101A8000801A086216E02498006A40B9FFE7BDF8A2
:101A9000860022902499002081F8240009E02499EE
:101AA000002081F824002499096A2291249908626F
:101AB000FFE7FFE7FFE724984078002856D1FFE7CB
:101AC000FFE725980068159025980068B0F8501039
:101AD00015980844159015982499097800EB011081
:101AE00000F204401490FFE7149908886FF39F20D8
:101AF000088022983F2817D3FFE7FFE72298400984
:101B000013909DF88800C00620B9FFE713980138AC
:101B10001390FFE7139A1499088840EA822040F452
:101B200000400880FFE71EE0229830B9FFE71499D3
:101B3000088840F40040088014E0FFE7229840083D
:101B400013909DF88800C00720B1FFE7139801307B
:101B50001390FFE7139A1499088840EA82200880BE
:101B6000FFE7FFE7FFE7FFE7FFE71DE02498407886
:101B7000012818D1FFE7FFE7259800681290259803
:101B80000068B0F8501012980844129012982499E6
:101B9000097800EB011000F204401190229811998D
:101BA0000880FFE7FFE7FFE7FFE725980068249A32
:101BB00051691289BDF8883006F0E6FFFFE7FFE7BC
:101BC000B7E125980068B0F850002499097800EB37
:101BD000C1012598006800EB4100B0F80C046FF3D8
:101BE0009F20ADF8860024988069BDF88610884251
:101BF00007D3FFE7BDF8862024998869801A886199
:101C000003E0249900208861FFE724988069002878
:101C100040F0B080FFE7FFE72498407808BBFFE77B
:101C2000FFE725980068109025980068B0F85010DC
:101C300010980844109010982499097800EB01102E
:101C400000F204400F90FFE70F9908886FF39F2080
:101C500008800F99088840F400400880FFE7FFE7FC
:101C60001DE024984078012818D1FFE7FFE7259868
:101C700000680D9025980068B0F850100D98084441
:101C80000D900D982499097800EB011000F20440A2
:101C90000C900C9900200880FFE7FFE7FFE7FFE7C3
:101CA000FFE7259800680B902498407808BBFFE771
:101CB000FFE725980068099025980068B0F8501053
:101CC00009980844099009982499097800EB0110B3
:101CD00000F20C400890FFE7089908886FF39F20F6
:101CE00008800899088840F400400880FFE7FFE773
:101CF00018E024984078012813D1FFE72598006860
:101D0000B0F850100B9808440B900B982499097860
:101D100000EB011000F20C400A900A9900200880A4
:101D2000FFE7FFE7FFE7259824990978FFF7A4FB71
:101D3000BDF88E00400400281BD4FFE7FFE7FFE753
:101D4000259800682499097830F8210048F68F71A9
:101D50000840ADF81A00BDF81A004CF280010843A3
:101D600025990968249A127821F82200FFE7FFE7F5
:101D7000FFE7DDE0BDF88E00400400281BD4FFE73C
:101D8000FFE7FFE7259800682499097830F82100DB
:101D900048F68F710840ADF81800BDF818004CF2F5
:101DA0008001084325990968249A127821F82200B5
:101DB000FFE7FFE7FFE7249890F82400012840F0B0
:101DC000B680FFE7BDF88620249948691044486131
:101DD000BDF886202499C8691044C8612498016917
:101DE000006A884209D3FFE7249800692290229A6A
:101DF0002499086A801A086216E02498006A40B99B
:101E0000FFE7BDF8860022902499002081F8240085
:101E100009E02498006A22902499002008622499FD
:101E200081F82400FFE7FFE7FFE7259800680590A9
:101E300024984078002856D1FFE7FFE725980068EE
:101E4000039025980068B0F8501003980844039058
:101E500003982499097800EB011000F20C400290DD
:101E6000FFE7029908886FF39F20088022983F2897
:101E700017D3FFE7FFE72298400901909DF88800FB
:101E8000C00620B9FFE7019801380190FFE7019AE9
:101E90000299088840EA822040F400400880FFE769
:101EA0001EE0229830B9FFE70299088840F400400C
:101EB000088014E0FFE72298400801909DF8880010
:101EC000C00720B1FFE7019801300190FFE7019AB8
:101ED0000299088840EA82200880FFE7FFE7FFE7D1
:101EE000FFE7FFE718E024984078012813D1FFE7C7
:101EF00025980068B0F8501005980844059005989A
:101F00002499097800EB011000F20C40049022980B
:101F100004990880FFE7FFE7FFE725980068249A07
:101F200051695289BDF8883006F02EFEFFE7FFE7C1
:101F3000FFE7FFE7259800682499097830F8210029
:101F400048F6BF710840ADF80200BDF8020080F00D
:101F50001000ADF80200BDF8020080F02000ADF8DE
:101F60000200BDF8020048F2800108432599096883
:101F7000249A127821F82200FFE7002026B080BDC5
:101F800082B001908DF8031001989DF8031001F0C4
:101F9000070101EB810100EBC100D0F8840102B020
:101FA0007047000080B586B004908DF80F10ADF832
:101FB0000C208DF80B3000208DF80A009DF80F00E2
:101FC000000600280FD5FFE704989DF80F1001F0D8
:101FD000070101EB810100EBC1002830019001995C
:101FE000012048700FE004989DF80F1001F00701E0
:101FF00001EB810100EBC10000F5B4700190019983
:1020000000204870FFE79DF80F0000F007000199DD
:102010000870BDF80C00019908619DF80B0001994A
:10202000C8709DF80B00022804D1FFE70199002039
:102030000871FFE7FFE7049890F8A802012804D18F
:10204000FFE702208DF8170015E00499012081F8C0
:10205000A802FFE7FFE704980068019904F0C6FFB3
:10206000FFE70499002081F8A802FFE79DF80A0025
:102070008DF81700FFE79DF8170006B080BD00003F
:1020800080B586B005908DF81310039202930598E1
:102090009DF8131001F0070101EB810100EBC10075
:1020A00000F5B47001900398019948610298019974
:1020B0008861019900200090C861019948709DF8DD
:1020C000130000F007000199087005980068019955
:1020D00005F0CEFD009806B080BD000080B584B04C
:1020E00002908DF807109DF8070000F00700029994
:1020F0004968884204D9FFE701208DF80F0057E0B6
:102100009DF80700000600280FD5FFE702989DF80C
:10211000071001F0070101EB810100EBC10028303D
:1021200000900099012048700DE002989DF807107A
:1021300001EB810100EBC10000F5B4700090009943
:1021400000204870FFE70099012088709DF8070083
:1021500000F0070000990870FFE7029890F8A802C5
:10216000012804D1FFE702208DF80F0020E002993A
:10217000012081F8A802FFE7FFE7029800680099B4
:1021800005F032FD9DF80700400738B9FFE70299D6
:10219000086801F52C7105F07DFCFFE7FFE7029967
:1021A000002081F8A802FFE700208DF80F00FFE76C
:1021B0009DF80F0004B080BD80B586B005908DF805
:1021C00013100392029305989DF8131001F0070174
:1021D00001EB810100EBC1002830019003980199C7
:1021E00048610298019988610199012081F82400D1
:1021F0000299019A1162019A00210091D16101991D
:1022000048709DF8130000F00700019908700598C8
:102210000068019905F02CFD009806B080BD000013
:1022200080B588B007900798006806F045FC0690D6
:102230009DF819000006002804D5FFE7079801F073
:10224000DFFFEDE09DF819004007002810D5FFE7FB
:1022500007980168B1F8440020F48060A1F84400B8
:10226000079800F02BFA0798002100F057FAD7E002
:102270009DF819004006002809D5FFE70798016876
:10228000B1F8440020F48040A1F84400C8E09DF873
:1022900019008006002809D5FFE707980168B1F802
:1022A000440020F40050A1F84400B9E09DF8190062
:1022B000C00600281CD5FFE707980168B1F8400068
:1022C00020F00400A1F8400007980168B1F8400030
:1022D00020F00800A1F84000079800F00BFA0798DA
:1022E0000168B1F8440020F48050A1F8440097E060
:1022F0009DF819000007002872D5FFE700208DF82F
:102300000700FFE79DF80700072812D8FFE70798A6
:1023100000689DF8071030F821009DF8072002A9F9
:1023200021F81200FFE79DF8070001308DF8070043
:10233000E8E707980168B1F8400040F00100A1F813
:10234000400007980168B1F8400020F00100A1F8B2
:102350004000FFE707980068B0F8440040050028F7
:1023600001D4FFE7F6E707980168B1F8440020F4CC
:102370008060A1F8440000208DF80700FFE79DF879
:102380000700072810D8FFE79DF8072002A830F8BB
:1023900012000799096821F82200FFE79DF807005D
:1023A00001308DF80700EAE707980168B1F84000AE
:1023B00040F00800A1F8400007980168B1F8440017
:1023C00020F40060A1F8440007980168B1F84000CB
:1023D00040F00400A1F84000079800F009FA1FE05F
:1023E0009DF81900800700280CD5FFE707980168C1
:1023F000B1F8440020F40070A1F84400079800F000
:1024000083F90DE09DF81900C00748B1FFE7079870
:102410000168B1F8440020F48070A1F84400FFE79F
:1024200008B080BDF0B58DB00B900B9820B9FFE7D8
:1024300001208DF8330015E10B9890F8A90240B9FE
:10244000FFE70B99002081F8A8020B9800F00EF925
:10245000FFE70B99032081F8A9020B98006805F0AB
:1024600009FBDDF82CE0CDF824E0DEF80000DEF812
:102470000410DEF80820DEF80C30DEF810C0DEF8BC
:102480001440DEF81850DEF81C60DEF82070EE46CE
:10249000CEF81070CEF80C60CEF80850CEF804409C
:1024A000CEF800C005F0EEF840B1FFE70B9902202E
:1024B00081F8A90201208DF83300D3E00B98006861
:1024C0000021089106F048FB08988DF82B00FFE7E3
:1024D0009DF82B000B99496888423CD2FFE70B9886
:1024E0009DF82B1001EB810100EBC101012081F867
:1024F00029009DF82B000B9900EB800201EBC20133
:1025000081F828000B989DF82B1001EB810100EB5E
:10251000C101002081F82B000B999DF82B2002EBC4
:10252000820201EBC20188630B999DF82B2002EB1C
:10253000820201EBC201C8630B999DF82B2002EBCC
:10254000820201EBC2010864FFE79DF82B00013015
:102550008DF82B00BCE700208DF82B00FFE79DF8DD
:102560002B000B99496888423ED2FFE70B989DF8F3
:102570002B1001EB810100EBC101002081F8690102
:102580009DF82B100B9A01EB810302EBC30282F83A
:1025900068110B999DF82B2002EB820201EBC2011E
:1025A00081F86B010B999DF82B2002EB820201EB65
:1025B000C201C1F878010B999DF82B2002EB820231
:1025C00001EBC201C1F87C010B999DF82B2002EBB5
:1025D000820201EBC201C1F88001FFE79DF82B00E8
:1025E00001308DF82B00BAE7DDF82CE0CDF81CE0C7
:1025F000DEF80000DEF80410DEF80820DEF80C300B
:10260000DEF810C0DEF81440DEF81850DEF81C606A
:10261000DEF82070EE46CEF81070CEF80C60CEF8E2
:102620000850CEF80440CEF800C005F0FFF940B1E4
:10263000FFE70B99022081F8A90201208DF83300F1
:1026400010E00B990020069081F824000B990120DE
:1026500081F8A9020B98006805F0E2F906988DF858
:102660003300FFE79DF833000DB0F0BD80B584B0B6
:1026700003900398006845F60041C4F200018842C7
:1026800019D1FFE7FFE741F21C00C4F20200016824
:1026900041F400010160006800F40000029002981B
:1026A000FFE71420019005210022FEF777FE019834
:1026B000FEF76AFEFFE704B080BD000080B582B07F
:1026C000019001208DF8030001988068022803D052
:1026D000FFE7FDF733FFFFE70198D0F8EC029DF824
:1026E000031003F0F9FF0198D0F8EC0203F08EFF1D
:1026F00002B080BD80B582B001900198D0F8EC02A4
:1027000003F0BEFF02B080BD80B582B00190019899
:10271000D0F8EC0203F0C6FF02B080BD80B584B0F3
:1027200002908DF80710FFE7029890F8A8020128A0
:1027300004D1FFE702208DF80F001AE00299012072
:1027400081F8A802FFE7FFE79DF80700029981F8EA
:102750002400029800689DF8071006F005FAFFE7CC
:102760000299002081F8A802FFE700208DF80F00F1
:10277000FFE79DF80F0004B080BD000080B582B077
:1027800001900199D1F8EC0201F52C7103F0CEFF14
:1027900002B080BD80B582B00090FFE7009890F84D
:1027A000A802012804D1FFE702208DF807001BE0F2
:1027B0000099012081F8A802FFE7FFE70098006870
:1027C00006F062F900980121FEF748FE00980068C3
:1027D00005F020F9FFE70099002081F8A802FFE743
:1027E00000208DF80700FFE79DF8070002B080BDCC
:1027F00080B582B001900198D0F8EC0204F010F896
:102800000198806948B1FFE74EF61051CEF2000101
:10281000086840F006000860FFE702B080BD0000D5
:1028200080B586B004900020039002900498007850
:10283000C007002800F0AC80FFE700208DF80700FB
:1028400041F21C00C4F202000068C000002813D44A
:10285000FFE7FFE741F21C00C4F20200016841F00B
:1028600080510160006800F0805000900098FFE700
:1028700001208DF80700FFE747F20000C4F20000D6
:102880000068C005002822D4FFE747F20001C4F227
:102890000001086840F480700860FEF7A5FC039012
:1028A000FFE747F20000C4F200000068C0050028FE
:1028B0000CD4FFE7FEF798FC0399401A652804D36F
:1028C000FFE703208DF817008AE0EAE7FFE741F20F
:1028D0002000C4F20200006800F4407002900298E8
:1028E000E0B3FFE702980499496801F44071884217
:1028F00034D0FFE741F22001C4F20201086820F45D
:102900004070029040F24042C4F242220120106026
:1029100000201060029808609DF80800C007E0B130
:10292000FFE7FEF761FC0390FFE741F22000C4F2ED
:1029300002000068800700280ED4FFE7FEF754FC71
:102940000399401A41F28931884204D3FFE70320FA
:102950008DF8170044E0E8E7FFE7FFE741F22001C8
:10296000C4F20201086820F44070049A52681043CF
:1029700008609DF80700012809D1FFE741F21C011A
:10298000C4F20201086820F080500860FFE7FFE70A
:1029900004980078800700280CD5FFE741F2040175
:1029A000C4F20201086820F44040049A926810437F
:1029B0000860FFE704980078C00600280CD5FFE700
:1029C00041F20401C4F20201086820F48000049A74
:1029D000526910430860FFE700208DF81700FFE7F9
:1029E0009DF8170006B080BD80B584B002900191BB
:1029F000029820B9FFE701208DF80F001BE1019834
:102A000042F20001C4F20201096801F007018842A4
:102A100016D9FFE742F20000C4F20200016821F07B
:102A20000701019A11430160006800F00700019955
:102A3000884204D0FFE701208DF80F00FBE0FFE79C
:102A400002980078800700282AD5FFE702980078CE
:102A50004007002809D5FFE741F20401C4F2020152
:102A6000086840F4E0600860FFE70298007800071B
:102A7000002809D5FFE741F20401C4F20201086809
:102A800040F460500860FFE741F20401C4F2020123
:102A9000086820F0F000029A926810430860FFE78F
:102AA00002980078C007002860D0FFE702984068CD
:102AB00001280ED1FFE741F20000C4F202000068D5
:102AC0008003002804D4FFE701208DF80F00B2E056
:102AD00021E00298406802280ED1FFE741F2000091
:102AE000C4F2020000688001002804D4FFE701203E
:102AF0008DF80F009FE00DE041F20000C4F20200EB
:102B000000688007002804D4FFE701208DF80F003B
:102B100091E0FFE7FFE741F20401C4F20201086817
:102B200020F00300029A526810430860FEF75CFB35
:102B30000090FFE741F20400C4F20200006800F0D8
:102B40000C0002994968B0EB810F0ED0FFE7FEF749
:102B50004BFB0099401A41F28931884204D3FFE7C8
:102B600003208DF80F0066E0E4E7FFE7019842F2EA
:102B70000001C4F20201096801F00701884216D27F
:102B8000FFE742F20000C4F20200016821F00701F1
:102B9000019A11430160006800F007000199884222
:102BA00004D0FFE701208DF80F0044E0FFE7029812
:102BB0000078400700280CD5FFE741F20401C4F279
:102BC0000201086820F4E060029AD26810430860AD
:102BD000FFE702980078000700280DD5FFE741F2D3
:102BE0000401C4F20201086820F46050029A1269DC
:102BF00040EAC2000860FFE700F064F841F2040117
:102C0000C4F202010968C9B20A094CF2B841C0F61F
:102C10000001895CC84040F22401C2F20001086052
:102C200041F2A410C2F200000068FEF705FB00208C
:102C30008DF80F00FFE79DF80F0004B080BD000085
:102C400082B00190009101990F20086041F20400C8
:102C5000C4F20200016801F00301019A51600168A9
:102C600001F0F001019A9160016801F4E061019ABC
:102C7000D160006800F46050C0080199086142F218
:102C80000000C4F20200006800F00700009908602C
:102C900002B0704740F22400C2F2000000687047A2
:102CA00080B5FFF7F7FF41F20401C4F202010968A1
:102CB000C1F3C2224CF2C841C0F60001895CC84091
:102CC00080BD000086B00020059004900390029023
:102CD000019041F20400C4F20200006805900598DA
:102CE00000F00C000146009100283FD0FFE700985B
:102CF000042804D0FFE70098082806D037E041F206
:102D00000020C0F27A00019037E00598C0F38341BB
:102D10004CF2D040C0F60000405C02909DF81600D6
:102D2000C007C0B1FFE741F20400C4F2020000682E
:102D3000C0F340414CF2E040C0F60000405C04901B
:102D4000029841F20021C0F27A0148430499B0FB95
:102D5000F1F0039007E0029840F60011C0F23D0147
:102D600048430390FFE70398019006E0FFE741F234
:102D70000020C0F27A000190FFE7019806B070478A
:102D800080B586B00490049820B9FFE701208DF843
:102D900017002EE304980078C007002800F0AE80EA
:102DA000FFE741F20400C4F20200006800F00C00EA
:102DB000042813D0FFE741F20400C4F202000068C7
:102DC00000F00C0008281BD1FFE741F20400C4F218
:102DD00002000068C003002812D5FFE741F200009E
:102DE000C4F2020000688003002808D5FFE70498B9
:102DF000406820B9FFE701208DF81700F9E27CE078
:102E0000FFE704984068B0F5803F09D1FFE741F241
:102E10000001C4F20201086840F48030086032E02A
:102E20000498406868B9FFE741F20001C4F202016A
:102E3000086820F480300860086820F4802008606A
:102E400020E004984068B0F5A02F0DD1FFE741F2D3
:102E50000001C4F20201086840F48020086008689C
:102E600040F4803008600CE041F20001C4F202013D
:102E7000086820F480300860086820F4802008602A
:102E8000FFE7FFE7FFE7FFE704984068D0B1FFE7FF
:102E9000FEF7AAF90390FFE741F20000C4F2020036
:102EA0000068800300280CD4FFE7FEF79DF9039922
:102EB000401A652804D3FFE703208DF8170098E235
:102EC000EAE719E0FEF790F90390FFE741F200000E
:102ED000C4F202000068800300280CD5FFE7FEF76B
:102EE00083F90399401A652804D3FFE703208DF87E
:102EF00017007EE2EAE7FFE7FFE7FFE704980078C4
:102F00008007002840F18D80FFE741F20400C4F201
:102F10000200006810F00C0F13D0FFE741F204002C
:102F2000C4F20200006800F00C00082829D1FFE775
:102F300041F20400C4F202000068C003002820D45B
:102F4000FFE741F20000C4F2020000688007002899
:102F500009D5FFE704980069012804D0FFE70120A4
:102F60008DF8170045E241F20001C4F20201086841
:102F700020F0F800049A526940EAC2000860FFE7B6
:102F80004EE00498006958B3FFE70021C4F24221E3
:102F900001200860FEF728F90390FFE741F20000E6
:102FA000C4F202000068800700280CD4FFE7FEF797
:102FB0001BF90399401A032804D3FFE703208DF877
:102FC000170016E2EAE741F20001C4F202010868C4
:102FD00020F0F800049A526940EAC20008601EE03E
:102FE0000021C4F2422100200860FEF7FDF80390A2
:102FF000FFE741F20000C4F20200006880070028E9
:103000000CD5FFE7FEF7F0F80399401A032804D324
:10301000FFE703208DF81700EBE1EAE7FFE7FFE7A2
:10302000FFE7049800780007002848D5FFE70498D8
:10303000806918B3FFE740F28041C4F242210120C9
:103040000860FEF7D1F80390FFE741F22400C4F2D4
:1030500002000068800700280CD4FFE7FEF7C4F8E0
:103060000399401A032804D3FFE703208DF81700C3
:10307000BFE1EAE7012001F075FC1FE040F280416A
:10308000C4F2422100200860FEF7AEF80390FFE78B
:1030900041F22400C4F202000068800700280CD529
:1030A000FFE7FEF7A1F80399401A032804D3FFE7CE
:1030B00003208DF817009CE1EAE7FFE7FFE704989B
:1030C00000784007002840F1D880FFE700208DF805
:1030D000070041F21C00C4F202000068C000002892
:1030E00013D4FFE7FFE741F21C00C4F202000168BD
:1030F00041F080510160006800F08050009000981D
:10310000FFE701208DF80700FFE747F20000C4F257
:1031100000000068C005002822D4FFE747F2000144
:10312000C4F20001086840F480700860FEF75CF8A3
:103130000390FFE747F20000C4F200000068C005FA
:1031400000280CD4FFE7FEF74FF80399401A6528D2
:1031500004D3FFE703208DF817004AE1EAE7FFE711
:10316000FFE70498C068012809D1FFE741F2200178
:10317000C4F20201086840F00100086031E00498E0
:10318000C06868B9FFE741F22001C4F20201086893
:1031900020F001000860086820F0040008601FE0CB
:1031A0000498C06805280DD1FFE741F22001C4F260
:1031B0000201086840F004000860086840F001005F
:1031C00008600CE041F22001C4F20201086820F01E
:1031D00001000860086820F004000860FFE7FFE7CE
:1031E000FFE7FFE70498C068E0B1FFE7FDF7FCFFE9
:1031F0000390FFE741F22000C4F20200006880075C
:1032000000280ED4FFE7FDF7EFFF0399401A41F2C3
:103210008931884204D3FFE703208DF81700E8E0E6
:10322000E8E71BE0FDF7E0FF0390FFE741F2200035
:10323000C4F202000068800700280ED5FFE7FDF702
:10324000D3FF0399401A41F28931884204D3FFE742
:1032500003208DF81700CCE0E8E7FFE79DF80700B2
:10326000012809D1FFE741F21C01C4F202010868FC
:1032700020F080500860FFE7FFE70498C06900284D
:1032800000F0B380FFE741F20400C4F202000068DE
:1032900000F00C00082800F08280FFE70498C06965
:1032A00002285CD1FFE76021C4F2422100200860BF
:1032B000FDF79AFF0390FFE741F20000C4F202001D
:1032C0000068800100280CD5FFE7FDF78DFF03990A
:1032D000401A032804D3FFE703208DF8170088E085
:1032E000EAE70498006AB0F5803F0CD1FFE741F2AD
:1032F0000401C4F20201086820F40030049A9268C4
:1033000010430860FFE741F20401C4F202010868BB
:1033100020F47410049B1A6A5B6A1A431043086015
:103320006021C4F2422101200860FDF75DFF039097
:10333000FFE741F20000C4F20200006880010028AB
:103340000CD4FFE7FDF750FF0399401A032804D37C
:10335000FFE703208DF817004BE0EAE71EE060214D
:10336000C4F2422100200860FDF73EFF0390FFE712
:1033700041F20000C4F202000068800100280CD570
:10338000FFE7FDF731FF0399401A032804D3FFE755
:1033900003208DF817002CE0EAE7FFE724E004980B
:1033A000C069012804D1FFE701208DF8170020E053
:1033B00041F20400C4F2020000680290029800F496
:1033C00080300499096A884208D1FFE7029800F426
:1033D00070100499496A884204D0FFE701208DF8F3
:1033E000170006E0FFE7FFE7FFE700208DF8170072
:1033F000FFE79DF8170006B080BD000081B0009087
:1034000001B0704780B584B00290029820B9FFE700
:1034100001208DF80F006DE00298406A60B9FFE767
:1034200002984068B0F5827F01D1FFE703E002997E
:103430000020C861FFE705E00299002008610299B9
:103440004861FFE7029900208862029890F85100D5
:1034500040B9FFE70299002081F85000029800F07F
:103460004DF8FFE70299022081F8510002980168A7
:10347000086820F040000860029A019211685068C4
:10348000D2F808C0D36800F482700CF4044C604495
:1034900003F400631844136903F0020318445369EA
:1034A00003F001031844936903F400731844D369CB
:1034B00003F038031844136A03F080031843926A38
:1034C00002F40052104308600299488B00F0040097
:1034D0000968486002980168C86920F40060C86102
:1034E000029900204865029A012182F851108DF856
:1034F0000F00FFE79DF80F0004B080BD80B588B0D5
:1035000007900020069005900490039007980068AB
:1035100043F20001C4F20101884250D1FFE7FFE706
:1035200041F21800C4F20200016841F480510160C8
:10353000006800F4805002900298FFE7FFE741F234
:103540001800C4F20200016841F004010160006843
:1035500000F0040001900198FFE7A02003900220F2
:1035600004900320069040F60000C4F2010003A975
:10357000FDF75EFC45F63020C2F2000000903021DD
:10358000C4F20201016010214160002181608022AB
:10359000C260016141618161C161FDF747FB18B102
:1035A000FFE7FCF7CBFFFFE7FFE7079845F6302181
:1035B000C2F20001816407984862FFE7FFE708B0A4
:1035C00080BD000080B584B002900191ADF802206A
:1035D00000208DF80100FFE7029890F850000128C4
:1035E00004D1FFE702208DF80F009CE00299012032
:1035F00081F85000FFE7FFE7029890F8510001289A
:1036000004D0FFE702208DF8010081E0019820B18D
:10361000FFE7BDF8020020B9FFE701208DF80100A7
:1036200076E00299032081F8510002990020486554
:103630000199029A1163BDF80210029A9186BDF8B1
:103640000210029AD186029988630299486402990D
:103650000864029988870299C88702988068B0F543
:10366000004F0DD1FFE702980168086820F0400084
:10367000086002980168086840F480400860FFE72D
:103680000298816C44F6D510C0F60000C86202981A
:10369000816C44F6ED10C0F6000088620298816CDF
:1036A00044F6A110C0F6000008630298816C002067
:1036B0004863029B1A68196B986C0C32DB8EFDF71D
:1036C0002FFB48B1FFE70299486D40F010004865B4
:1036D00001208DF801001BE002980068006800F0EE
:1036E0004000402807D0FFE702980168086840F0D2
:1036F00040000860FFE702980168486840F0200039
:10370000486002980168486840F002004860FFE79E
:10371000FFE70299002081F85000FFE79DF80100C3
:103720008DF80F00FFE79DF80F0004B080BD00008A
:1037300081B0009001B0704781B0009001B0704737
:1037400081B0009001B0704781B0009001B0704727
:1037500080B582B00090009820B9FFE701208DF875
:1037600007003FE0009890F83D0040B9FFE700995E
:10377000002081F83C00009800F038F8FFE700993D
:10378000022081F83D00009951F8040B01F0B6FDCC
:103790000099012081F84600FFE70099012081F897
:1037A0003E00009981F83F00009981F8400000999F
:1037B00081F84100FFE7FFE70099012081F842000E
:1037C000009981F84300009981F84400009981F83C
:1037D0004500FFE70099012081F83D0000208DF8A9
:1037E0000700FFE79DF8070002B080BD81B00090A0
:1037F00001B0704783B00190019890F83D00012816
:1038000004D0FFE701208DF80B0059E00199022058
:1038100081F83D0001980168C86840F00100C86067
:103820000198006842F60041C4F2010188422AD0A2
:10383000FFE70198006843F20041C4F201018842A9
:1038400021D0FFE701980068B0F1804F1BD0FFE75F
:103850000198006840F20041C4F20001884212D091
:10386000FFE70198006840F60001C4F200018842B9
:1038700009D0FFE70198006840F60041C4F200015A
:10388000884212D1FFE701980068806800F00700C5
:1038900000900098062807D0FFE7019801680868A3
:1038A00040F001000860FFE706E001980168086841
:1038B00040F001000860FFE700208DF80B00FFE7F3
:1038C0009DF80B0003B0704781B0009001B07047C5
:1038D00080B582B0019001980068006900F0020193
:1038E0000020B0EB510F28D0FFE701980068C068B6
:1038F00000F002010020B0EB510F1DD0FFE701984E
:1039000001686FF0020008610199012008770198B1
:1039100000688069800720B1FFE70198FFF7D4FFB6
:1039200006E0019800F012F9019800F013F9FFE7A2
:10393000019900200877FFE7FFE701980068006918
:1039400000F004010020B0EB910F29D0FFE70198AF
:103950000068C06800F004010020B0EB910F1ED099
:10396000FFE7019801686FF00400086101990220E7
:10397000087701980068806910F4407F04D0FFE761
:103980000198FFF7A1FF06E0019800F0DFF8019829
:1039900000F0E0F8FFE7019900200877FFE7FFE774
:1039A00001980068006900F008010020B0EBD10F19
:1039B00028D0FFE701980068C06800F008010020E7
:1039C000B0EBD10F1DD0FFE7019801686FF0080040
:1039D000086101990420087701980068C069800790
:1039E00020B1FFE70198FFF76FFF06E0019800F0B4
:1039F000ADF8019800F0AEF8FFE7019900200877D4
:103A0000FFE7FFE701980068006900F0100100205F
:103A1000B0EB111F29D0FFE701980068C06800F0E3
:103A200010010020B0EB111F1ED0FFE701980168C4
:103A30006FF010000861019908200877019800686C
:103A4000C06910F4407F04D0FFE70198FFF73CFF06
:103A500006E0019800F07AF8019800F07BF8FFE7A3
:103A6000019900200877FFE7FFE7019800680069E7
:103A7000C00780B1FFE701980068C068C00748B17F
:103A8000FFE7019801686FF001000861019800F0FC
:103A900065F8FFE7FFE7019800680069C1B2002000
:103AA000B0EBD11F13D0FFE701980068C068C1B226
:103AB0000020B0EBD11F09D0FFE7019801686FF03B
:103AC000800008610198FFF73BFEFFE7FFE70198E0
:103AD0000068006900F040010020B0EB911F14D095
:103AE000FFE701980068C06800F040010020B0EBDB
:103AF000911F09D0FFE7019801686FF0400008614D
:103B0000019800F03DF8FFE7FFE7019800680069C1
:103B100000F020010020B0EB511F14D0FFE7019806
:103B20000068C06800F020010020B0EB511F09D0F0
:103B3000FFE7019801686FF0200008610198FFF726
:103B400003FEFFE7FFE702B080BD000081B00090F8
:103B500001B0704781B0009001B0704780B582B06D
:103B600001900198006843F20041C4F201018842CB
:103B700003D1FFE7FDF73EFBFFE702B080BD000089
:103B800081B0009001B07047FFE7FEE783B002907C
:103B900001918DF8032000208DF802008DF80200BD
:103BA000FFE79DF802009DF80310884229DAFFE73D
:103BB0000298000F092809D8FFE70298000F30305B
:103BC00001999DF8022001F8120009E002993720BE
:103BD00000EB117001999DF8022001F81200FFE737
:103BE00002980001029001989DF8021000EB41013B
:103BF00000204870FFE79DF8020001308DF80200B8
:103C0000CFE703B07047000080B584B08DF80F0097
:103C10009DF80F000146029106281DD80299DFE8A1
:103C200001F00405161718191A0015E0694601235A
:103C30004B60002008604CF29850C0F600004CF237
:103C4000A051C0F60001322205F086F904E003E03D
:103C500002E001E000E0FFE704B080BD80B584B081
:103C60008DF80F009DF80F000146029106281DD81F
:103C70000299DFE801F00405161718191A0015E07B
:103C8000694601234B60002008604CF29250C0F658
:103C900000004CF2A051C0F60001322205F05CF9A0
:103CA00004E003E002E001E000E0FFE704B080BDD3
:103CB00080B584B08DF80F009DF80F000146029189
:103CC00006281DD80299DFE801F004051617181917
:103CD0001A0015E0694601234B60002008604CF291
:103CE0009850C0F600004CF29B51C0F600011E2215
:103CF00005F032F904E003E002E001E000E0FFE754
:103D000004B080BD80B584B08DF80F009DF80F0021
:103D10000146029106281DD80299DFE801F004054A
:103D2000161718191A0015E0694601234B60002088
:103D300008604CF29550C0F600004CF29B51C0F662
:103D400000011E2205F008F904E003E002E001E0B2
:103D500000E0FFE704B080BD80B584B08DF80F00AF
:103D60009DF80F000146029106281DD80299DFE850
:103D700001F00405161718191A0015E06946012309
:103D80004B60002008604CF29550C0F600004CF2E9
:103D9000A051C0F60001322205F0DEF804E003E095
:103DA00002E001E000E0FFE704B080BD80B541F231
:103DB0000040C4F201002021FDF7E6F980BD0000BB
:103DC00080B541F20040C4F201008021FDF7DCF92A
:103DD00080BD000080B540F60000C4F20100012162
:103DE000FDF7D2F980BD000080B541F60000C4F2B5
:103DF00001000121FDF7C8F980BD000080B541F246
:103E00000040C4F201004021FDF7BEF980BD000072
:103E100080B582B08DF807009DF8072041F2004080
:103E2000C4F201000221FDF7C7F902B080BD000015
:103E300080B582B08DF807009DF8072041F2004060
:103E4000C4F201000821FDF7B7F902B080BD0000FF
:103E500080B582B08DF807009DF8072041F2004040
:103E6000C4F201001021FDF7A7F902B080BD0000E7
:103E700080B582B0082008F0E9FA0090009818B9DF
:103E8000FFE70020019005E00099002048600098BD
:103E90000190FFE7019802B080BD000080B586B0B8
:103EA0000490039104980290049820B9FFE7012040
:103EB0008DF817001FE0082008F0C8FA019001985B
:103EC00020B9FFE701208DF8170014E0FFE7029802
:103ED000406820B1FFE7029840680290F7E7039836
:103EE000019908600199002048600199029A516087
:103EF0008DF81700FFE79DF8170006B080BD0000A1
:103F000080B582B0FFE741F21400C4F202000168FC
:103F100041F001010160006800F00100019001988A
:103F2000FFE70D20009005210022FDF737FA0098E9
:103F3000FDF72AFA02B080BD80B544F62540C0F6F0
:103F400000004CF25052C0F60002002105F01EFDA8
:103F500045F26871C2F20001086080BD80B592B080
:103F60000020119010900F900E90FFE741F2180082
:103F7000C4F20200016841F010010160006800F025
:103F800010000D900D98FFE7FFE741F21800C4F212
:103F90000200016841F004010160006800F00400C3
:103FA0000C900C98FFE7FFE741F21800C4F2020002
:103FB000016841F020010160006800F020000B90D2
:103FC0000B98FFE7FFE741F21800C4F20200016816
:103FD00041F040010160006800F040000A900A983A
:103FE000FFE741F20000C4F2010001903821009186
:103FF00000220792FDF7E0F8079A40F60000C4F2AD
:104000000100039010210291FDF7D6F841F2004023
:10401000C4F2010004901A21059101220692FDF7D5
:10402000CBF8009A019806990E920F9102210891FF
:10403000109111910EA90991FCF7FAFE0398DDF891
:1040400018C0079B089A0999CDF838C00F931092B1
:10405000FCF7EEFEDDF808C00398069B089A099964
:10406000CDF838C00F9310921192FCF7E1FE04983E
:10407000079B089A09994FF40E6CCDF838C00F933E
:104080001092FCF7D5FE0498DDF818C0079B089A3B
:104090000999DDF814E0CDF838E0CDF83CC0109374
:1040A0001192FCF7C5FE069B079A089809990E9392
:1040B0000F92109041F60000C4F20100FCF7B8FE28
:1040C00012B080BD80B582B045F66450C2F20000E7
:1040D000009043F20001C4F2010101604FF48271CB
:1040E0004160002101918160C160016141614FF433
:1040F00000728261C1610162416281620A21C16212
:10410000FFF780F918B1FFE7FCF718FAFFE702B0F4
:1041100080BD000080B545F26C70C2F2000040F234
:104120000801C2F20001002201F0F8FF18B1FFE718
:10413000FCF704FAFFE745F26C70C2F2000040F2AF
:104140002801C2F2000102F0BFFB18B1FFE7FCF743
:10415000F5F9FFE745F26C70C2F2000040F254112D
:10416000C2F2000101F020FB18B1FFE7FCF7E6F90D
:10417000FFE745F26C70C2F2000002F0DBFC18B100
:10418000FFE7FCF7DBF9FFE780BD0000FFE7FEE794
:10419000FFE7FEE788B0079006910592079800F0C8
:1041A000070004900498C0F10700052803D3FFE737
:1041B0000420019004E00498C0F107000190FFE79B
:1041C0000198039004980430062803D8FFE70020E4
:1041D000009003E0049803380090FFE700980290F5
:1041E00006980399012202FA01F101390840029B65
:1041F000984005999A40013A1140084308B0704729
:1042000080B596B01590FFE715980068B0F84400A7
:104210000004002840F17A83FFE715980068B0F8A1
:104220004400ADF84C00BDF84C0000F00F008DF8D4
:1042300047009DF84700002840F05981FFE7BDF88E
:104240004C00C006002846D4FFE7FFE71598006839
:10425000008848F60F710840ADF84400BDF84400EE
:1042600040F40040159909680880FFE71598283048
:10427000149015980068B0F8500014990A7800EB73
:10428000C2021598006800EB4200B0F804046FF316
:104290009F20C86114994869CA69104448611598FB
:1042A0000021FDF7E9F8159890F8240090B1FFE798
:1042B0001498806970B9FFE7159890F8240040F0D1
:1042C000800015990968A1F84C001599002081F823
:1042D0002400FFE70AE1159800F5B47014901598D2
:1042E00000680088ADF84A00BDF84A0000050028C3
:1042F0002FD5FFE715980068B0F8500014990A7898
:1043000000EBC2021598006800EB4200B0F80C0404
:104310006FF39F20C8611599086801F52C71149BF3
:10432000DA889B8B04F0D2FBFFE7159800680088C1
:1043300040F68F710840ADF84200BDF8420040F0F1
:104340008000159909680880FFE71598FEF716FAAE
:10435000CBE0BDF84A000004002840F1C580FFE72B
:10436000FFE715980068008840F68F710840ADF8A7
:104370004000BDF8400040F08000159909680880B1
:10438000FFE715980068B0F8500014990A7800EB20
:10439000C2021598006800EB4200B0F80C046FF3FD
:1043A0009F20C8611498C069B0B1FFE714984069B4
:1043B00090B1FFE715980068149B5969DA889B8BC8
:1043C00004F084FB14994869CA691044486115983F
:1043D0000021FDF765F8FFE7159800680088ADF843
:1043E0004A00BDF84A00000500287CD4FFE7BDF86C
:1043F0004A0000F44050B0F5405F74D0FFE7FFE79B
:10440000159800680F9015980068B0F850100F9834
:1044100008440F900F9800F20C400E90FFE70E99A1
:1044200008886FF39F200880149800693F2818D3EC
:10443000FFE7FFE71498006940090D901498007C8D
:10444000C00620B9FFE70D9801380D90FFE70D9ADF
:104450000E99088840EA822040F400400880FFE777
:1044600020E01498006930B9FFE70E99088840F4FD
:104470000040088015E0FFE71498006940080D909F
:104480001498007CC00720B1FFE70D9801300D9013
:10449000FFE70D9A0E99088840EA82200880FFE71E
:1044A000FFE7FFE7FFE7FFE7FFE7159800680088F1
:1044B0004BF68F710840ADF83200BDF8320080F441
:1044C0008050ADF83200BDF8320080F40050ADF8F5
:1044D0003200BDF8320048F280010843159909689E
:1044E0000880FFE7FFE7FFE7FFE7FFE70CE215982B
:1044F00000689DF8471030F82100ADF84A00BDF87B
:104500004A000004002840F1E180FFE7FFE715982A
:1045100000689DF8471030F8210040F68F71084080
:10452000ADF83000BDF8300040F080001599096802
:104530009DF8472021F82200FFE715989DF84710C5
:1045400001EB810100EBC10000F5B47014901498E8
:10455000007B08BBFFE715980068B0F8500014997D
:10456000097800EBC1011598006800EB4100B0F834
:104570000C046FF39F20ADF84E00BDF84E0050B113
:10458000FFE715980068149A5169D288BDF84E303B
:1045900004F09CFAFFE775E01498C078022809D16E
:1045A000FFE715981499BDF84A20FDF745F8ADF8D6
:1045B0004E0066E0FFE7FFE7159800681499097858
:1045C00030F8210048F68F710840ADF82E00BDF894
:1045D0002E0048F2C001084315990968149A127810
:1045E00021F82200FFE7FFE7159800681499097881
:1045F00030F821004004002821D5FFE71598006815
:10460000B0F850001499097800EBC10115980068C2
:1046100000EB4100B0F804046FF39F20ADF84E00AA
:10462000BDF84E0050B1FFE715980068149A516923
:104630001289BDF84E3004F049FAFFE720E01598E2
:104640000068B0F850001499097800EBC101159882
:10465000006800EB4100B0F80C046FF39F20ADF848
:104660004E00BDF84E0050B1FFE715980068149A4F
:1046700051695289BDF84E3004F028FAFFE7FFE790
:10468000FFE7FFE7BDF84E201499C8691044C861E0
:10469000BDF84E2014994869104448611498806907
:1046A00038B1FFE7BDF84E0014990969884206D277
:1046B000FFE7159814990978FCF7F2FE05E01598C4
:1046C0000068149903F0D4FAFFE7FFE7BDF84A0049
:1046D0000006002840F11781FFE715989DF8471064
:1046E00001EB810100EBC10028301490FFE7159821
:1046F00000689DF8471030F8210048F60F71084017
:10470000ADF82C00BDF82C0040F400401599096864
:104710009DF8472021F82200FFE71498C07801286F
:1047200040F0A180FFE71499002088611498007B75
:10473000002800F09280FFE7BDF84A0040060028FC
:1047400046D5FFE7FFE71498407808BBFFE7FFE78F
:10475000159800680A9015980068B0F850100A98EB
:1047600008440A900A981499097800EB011000F2A5
:1047700004400990FFE7099908886FF39F2008809B
:104780000999088840F400400880FFE7FFE71DE032
:1047900014984078012818D1FFE7FFE715980068C2
:1047A000079015980068B0F85010079808440790D3
:1047B00007981499097800EB011000F20440069064
:1047C000069900200880FFE7FFE7FFE7FFE743E0E7
:1047D000FFE71598006805901498407808BBFFE73C
:1047E000FFE715980068039015980068B0F850101E
:1047F00003980844039003981499097800EB01107A
:1048000000F20C400290FFE7029908886FF39F20A6
:1048100008800299088840F400400880FFE7FFE71D
:1048200018E014984078012813D1FFE71598006824
:10483000B0F8501005980844059005981499097827
:1048400000EB011000F20C40049004990020088055
:10485000FFE7FFE7FFE7FFE7FFE7159814990978FF
:10486000FCF70AFE4EE0BDF84A00C005002841D41E
:10487000FFE715980068B0F850001499097800EB2C
:10488000C1011598006800EB4100B0F804046FF313
:104890009F20ADF8480014988069BDF84810884200
:1048A00007D9FFE7BDF8482014998869801A886104
:1048B00003E0149900208861FFE71498806930B9FB
:1048C000FFE7159814990978FCF7D6FD11E0BDF8BB
:1048D00048201499486910444861BDF8482014994B
:1048E000C8691044C86115980068149903F0C0F9AC
:1048F000FFE706E015981499BDF84A20FCF79AFFE7
:10490000FFE7FFE7FFE7FFE7FFF77EBC002016B0F9
:1049100080BD00000000000000000000000000005A
:10492000EFF30980BFF36F8F0D4B1A6820E9F00F8A
:1049300010602DE908404FF0500080F3118806F018
:10494000A9FC4FF0000080F31188BDE80840196809
:104950000868B0E8F00F80F30988BFF36F8F7047E5
:10496000F85E002082B00190019840F22401C2F26A
:1049700000010968C90844F6D352C1F26202A1FBE2
:104980000221890948430090FFE700BFFFE7009834
:10499000411E00910028F8D1FFE702B070470000E7
:1049A00080B582B001900198406A0090009801683B
:1049B000486820F0030048600099486D40F01000FE
:1049C00048650099012081F851000098FEF716FD16
:1049D00002B080BD80B582B001900198406A00901D
:1049E0000098FEF7A9FE02B080BD000080B584B03B
:1049F00003900398406A0290FCF7F6FB019003983D
:104A00000068006800F0200020283BD0FFE70298F3
:104A10000168486820F020004860029801684868F2
:104A200020F0020048600298019A642100F030F8FA
:104A300030B1FFE70299486D40F020004865FFE77C
:104A40000298806870B9FFE7FFE7002000900298A5
:104A50000068C06800900298006880680090009824
:104A6000FFE7FFE702990020C8860299012081F83C
:104A700051000298406D20B1FFE70298FEF7BEFC9E
:104A800004E0FFE70298FEF753FEFFE704B080BDA5
:104A900080B586B00490039102920498039B02991A
:104AA0006A4611608021002200F014F848B1FFE747
:104AB0000499486D40F02000486503208DF81700E8
:104AC00003E000208DF81700FFE79DF8170006B0FF
:104AD00080BD000080B58AB0DDF830C00890079135
:104AE0008DF81B20059305980190FCF77DFB02468D
:104AF00001980C99891A08440390FCF775FB029001
:104B0000039840F22401C2F200010968C1F3CB31DD
:104B100048430490FFE708980068806807990840B8
:104B2000401AB0FA80F040099DF81B1088425ED010
:104B3000FFE705980130002858D0FFE7FCF754FB49
:104B40000299401A0399884204D2FFE7039800288B
:104B500042D1FFE708980168486820F0E00048600B
:104B600008984068B0F5827F13D1FFE70898806805
:104B7000B0F5004F06D0FFE708988068B0F5806F69
:104B800007D1FFE708980168086820F04000086036
:104B9000FFE70898806AB0F5005F0FD1FFE7FFE7F5
:104BA00008980168086820F40050086008980168B7
:104BB000086840F400500860FFE7FFE7089901200B
:104BC00081F85100FFE70899002081F85000FFE7C5
:104BD00003208DF827000EE0049818B9FFE70020A5
:104BE0000390FFE7049801380490FFE793E7002063
:104BF0008DF82700FFE79DF827000AB080BD000070
:104C0000074B19680868B0E8F00F80F30988BFF314
:104C10006F8F4FF0000080F311884EF00D0E70473B
:104C2000F85E002080B582B001904CF29250C0F640
:104C300000000221009104F079FA00994CF295509D
:104C4000C0F6000004F072FA00994CF29850C0F6D9
:104C5000000004F06BFAFFF75DFAFFE705F0A6FF2E
:104C600046F27031C2F20001086005F087FF46F29B
:104C70007431C2F20001086005F08CFF46F2783111
:104C8000C2F2000108604FF47A7004F0DDFDE5E740
:104C900080B586B00590FFE741F21040C2F20000F7
:104CA000006840680190FFE70198002800F01B8130
:104CB000FFE70198006804900498406908B9FFE78D
:104CC0000DE10498406980478DF80B009DF80B00BA
:104CD0000499098AC1F34001884210D0FFE79DF88A
:104CE0000B200499088A02F0010220F0020040EA39
:104CF00042000882FCF778FA04998860EFE0FCF73C
:104D000073FA04998968401A03900398049A5168C9
:104D1000138A382202EA9322895C884240F2C180D9
:104D2000FFE79DF80B200499088A62F300000882CF
:104D30000498007CC007002800F08880FFE70498F2
:104D4000008A8008000740B9FFE70499088A40F00C
:104D5000040020F03800088277E00498008AC0F34D
:104D60008300012834D1FFE70398049A5168138A1D
:104D7000382202EA9322114449786422514388423E
:104D800026D9FFE70499088A40F0080020F0340093
:104D90000882FCF729FA049A5168D368C01A138A6A
:104DA000382202EA932211448979642251438842CD
:104DB00008D2FFE70499088A40F0180020F0240088
:104DC000088204E0FCF710FA0499C860FFE73BE0B2
:104DD0000498008AC0F38300022816D1FFE70398E5
:104DE000049A5168138A382202EA932211444988AE
:104DF00064225143884208D9FFE70499088A40F0A9
:104E00000C0020F0300008821DE00498008AC0F3F6
:104E10008300032816D1FFE70398049A5168138A88
:104E2000382202EA9322114489886422514388423D
:104E300008D9FFE70499088A40F0100020F02C0000
:104E40000882FFE7FFE7FFE7FFE729E00498007C1F
:104E5000C00720BBFFE70498008A8008000778B1EC
:104E6000FFE70498008AC0F38300052808D0FFE715
:104E70000499088A40F0140020F0280008820DE010
:104E80000498008AC0F38300052806D1FFE704993F
:104E9000088A20F03C000882FFE7FFE7FFE7FFE712
:104EA000FFE70498018AC1F38310C1F383018842AC
:104EB0000BD0FFE70498806938B1FFE70498816957
:104EC000008AC0F383008847FFE70499088A00F04E
:104ED0003C0220F4707040EA02100882FFE701985B
:104EE00040680190E0E6012004F0AEFCD4E600004A
:104EF00080B582B0019004F0EDF945F26470C2F221
:104F00000000008804F044FBFFE745F26470C2F241
:104F1000000001884A1C62F304010180018801221B
:104F200002EB511202F03F0221F4FC6141EA42110E
:104F30000180018801F500610180008804F028FBF0
:104F40000A2004F081FCE0E780B586B00590FFE719
:104F500044F2D860C2F20000006840680390FFE7A6
:104F60000398002800F05481FFE70398006804903C
:104F70000498C06850B9FFE70499086940F400201C
:104F80000861FCF731F90499C86080E0FCF72CF95E
:104F9000049A5168D3681269C01AC2F3841202EBF2
:104FA000C21201EB420191F8001101EB8101B0EB5B
:104FB000410F6BD9FFE7049841680069C0F3841280
:104FC00042EAC21201EB4201C0F3C7200844407814
:104FD000B0BBFFE7049948680969C1F3841141EA4D
:104FE000C11100EB410090F801018008C00758B1E1
:104FF000FFE70499086920F4FF2008610499086913
:1050000040F4002008611AE0049800694009C007D4
:1050100078B1FFE70499086900F01F0220F4F860F6
:1050200040EA821008610499086920F020000861B4
:10503000FFE70499086920F400200861E4E020E01B
:10504000049841680069C0F3841242EAC21201EB7D
:105050004201C0F3C7200844407888B1FFE70499B3
:105060000869012202EBD022D2B220F4FF2040EAEC
:10507000C22008610499086940F400200861FFE734
:10508000FFE7FCF7B1F80499C860FFE7FFE7049970
:1050900048680969C1F3841202EBC21200EB4200B6
:1050A000C1F3C721405C303801460291112857D81E
:1050B0000299DFE801F0090F161D242B3239404711
:1050C000555555555555554E0499086920F47000AD
:1050D00008615EE004990869012262F317500861D3
:1050E00057E004990869022262F31750086150E002
:1050F00004990869032262F31750086149E0049992
:105100000869042262F31750086142E004990869B3
:10511000052262F3175008613BE0049908690622F2
:1051200062F31750086134E004990869072262F3BA
:10513000175008612DE004990869082262F317509E
:10514000086126E004990869092262F31750086192
:105150001FE0049908690A2262F31750086118E0F9
:105160000499086940F4700008610498806978B176
:10517000FFE7049948680A698969C2F3841303EB5D
:10518000C31300EB4300C2F3C72210448847FFE774
:10519000FFE704980069C0F3035044F2E061C2F2F3
:1051A00000010978884210DCFFE704980069C0F329
:1051B00003500A2809DCFFE70498406928B1FFE79B
:1051C000049841690120884704E00498416900205F
:1051D0008847FFE744F2E060C2F2000000780A2846
:1051E00003D1FFE70020019007E044F2E060C2F243
:1051F0000000007801300190FFE7019844F2E0617F
:10520000C2F200010870FFE7039840680390A7E628
:10521000012004F019FB9BE680B582B04FF05000EE
:1052200080F31188BFF36F8FBFF34F8F009006F0AC
:10523000D7FD40B1FFE74EF60451CEF200014FF02A
:1052400080500860FFE700200190019880F31188EA
:1052500002B080BD80B598B00EA801902821FAF761
:105260009CFF0198002302930D930C930B930A93D8
:1052700009930893079306930593049303930122DC
:105280000E924FF480310F911093129202221592D8
:1052900016914FF4E0111791FDF772FD18B1FFE779
:1052A000FBF74CF9FFE70F20099002210A9100203B
:1052B0000B904FF480620C920D9009A8FDF794FBBF
:1052C00018B1FFE7FBF73AF9FFE710200390002041
:1052D000089003A8FDF7A4FA18B1FFE7FBF72EF931
:1052E000FFE718B080BD00007047000080B545F6AC
:1052F000BC50C2F20000FEF7EBFA80BD83B0029012
:105300000191029800680090029842F60041C4F2B0
:105310000101884225D0FFE7029843F20041C4F220
:10532000010188421DD0FFE70298B0F1804F18D0EC
:10533000FFE7029840F20041C4F20001884210D019
:10534000FFE7029840F60001C4F20001884208D04D
:10535000FFE7029840F60041C4F2000188420AD1FA
:10536000FFE7009820F070000090019841680098D5
:1053700008430090FFE7029842F60041C4F20101A1
:10538000884225D0FFE7029843F20041C4F20101B0
:1053900088421DD0FFE70298B0F1804F18D0FFE798
:1053A000029840F20041C4F20001884210D0FFE7A9
:1053B000029840F60001C4F20001884208D0FFE7DD
:1053C000029840F60041C4F2000188420AD1FFE78A
:1053D000009820F4407000900198C168009808433C
:1053E0000090FFE7009820F0800001994969084388
:1053F0000090009802990860019880680299C8623C
:105400000198006802998862029842F60041C4F24D
:105410000101884208D0FFE7029843F20041C4F23C
:105420000101884205D1FFE70198006902990863EC
:10543000FFE702990120486103B0704780B586B04C
:1054400004908DF80F100498D0F8B80202900498D8
:10545000D0F8C00201900498D0F8B802A8B3FFE7D2
:1054600004989DF80F1001EB810100EB8100C069E9
:1054700010B3FFE704989DF80F1001EB810100EBDA
:105480008100C269019800EBC100816BB2FBF1F0B1
:1054900000FB112080B9FFE704989DF80F1001EB85
:1054A000810100EB81000023C36104989DF80F1077
:1054B0001A4601F0C3F904E002990020C1F8140271
:1054C000FFE700208DF8170003E002208DF8170099
:1054D000FFE79DF8170006B080BD000080B584B0DE
:1054E00002908DF807100298D0F8B8020090029848
:1054F0009DF8071000F0B4FF0099C1F80C02029863
:10550000D0F8B80270B1FFE70298D0F8BC02C268C8
:105510000099D1F8040201F50371904700208DF83D
:105520000F0003E002208DF80F00FFE79DF80F0049
:1055300004B080BD80B584B003908DF80B100020BE
:1055400001908DF80A000398812100F037FE019840
:105550000399C8620398012100F030FE0198039975
:10556000C1F86C010398822100F028FE019803998C
:1055700008640398D0F8B80278B1FFE70398D0F830
:10558000BC02406880470398D0F8B80201F022FDC1
:1055900003990020C1F8B802FFE79DF80A0004B0A3
:1055A00080BD000080B582B001900198D0F8B802AB
:1055B00000900198D0F8BC02A8B1FFE7009890F8DD
:1055C0000002FF280FD0FFE70198D0F8BC028368E3
:1055D000009991F8000291F8012298470099FF2064
:1055E00081F80002FFE7002002B080BD81B000908A
:1055F00000990A20088040F2E800C2F2000001B0E1
:105600007047000081B0009000994320088040F26C
:105610006000C2F2000001B07047000081B000904D
:1056200000994320088040F2A400C2F2000001B0BB
:105630007047000081B0009000994320088040F23C
:10564000FC00C2F2000001B07047000080B58AB0D3
:1056500009908DF8231000208DF822000998007C15
:10566000B8B9FFE709988121022204924FF4007330
:10567000059300F081FF049A059B0998012106918A
:10568000C162099800F078FF06980999C1F86C0189
:1056900015E009988121022201924023029300F033
:1056A0006BFF019A029B099801210391C16209983D
:1056B00000F062FF03980999C1F86C01FFE70998AF
:1056C00082210322082300F057FF09990120086472
:1056D0004FF4077001F082FC0999C1F8B8020998EB
:1056E000D0F8B80220B9FFE701208DF8220027E0AA
:1056F0000998D0F8B80207900998D0F8BC02006861
:10570000804707990020C1F814020799C1F81802D0
:105710000998007C50B9FFE709980799D1F804224D
:1057200001214FF4007300F04DFF08E0099807993C
:10573000D1F804220121402300F044FFFFE7FFE7F6
:105740009DF822000AB080BD80B584B00290029816
:10575000D0F8B80201900298D0F8B802D8B1FFE7AB
:105760000298007C50B9FFE702980199D1F8042211
:1057700001214FF4007300F025FF08E00298019921
:10578000D1F804220121402300F01CFFFFE7002094
:105790008DF80F0003E002208DF80F00FFE79DF861
:1057A0000F0004B080BD000083B002900191022080
:1057B0008DF80300019840B1FFE701980299C1F804
:1057C000BC0200208DF80300FFE79DF8030003B042
:1057D0007047000083B0029001910298D0F8B8029F
:1057E000009001980099C1F80402002003B07047AE
:1057F00084B003900291ADF806200398D0F8B80267
:10580000009002980099C1F80802BDF806000099BE
:10581000C1F81002002004B07047000080B588B0C5
:10582000079006910798D0F8B802059000208DF8EF
:105830001300ADF810008DF80F000698007800F006
:10584000600001460291D8B3FFE70298202840F09B
:105850008880FFE70698C08840B3FFE70698007885
:105860000006002810D5FFE70798D0F8BC0283682F
:10587000069A50780599D288984707980599069A0C
:10588000D28800F00FF910E006984078059981F869
:10589000000206988079059981F801020798059918
:1058A000069AD28800F0CCF8FFE708E00798D0F815
:1058B000BC0283680699487800229847FFE758E0C1
:1058C000069840780146019140B1FFE701980A2807
:1058D00019D0FFE701980B282BD039E0079890F8F2
:1058E0009C02032806D1FFE7079804A9022200F0D2
:1058F000D9F807E00798069900F094F802208DF88F
:105900000F00FFE72CE0079890F89C02032807D1CE
:10591000FFE707980DF11301012200F0C3F807E03B
:105920000798069900F07EF802208DF80F00FFE737
:1059300016E0079890F89C02032808D0FFE7079824
:10594000069900F06FF802208DF80F00FFE707E0DE
:105950000798069900F066F802208DF80F00FFE71F
:1059600007E00798069900F05DF802208DF80F0017
:10597000FFE79DF80F0008B080BD000080B582B041
:1059800001908DF803100198D0F8B4124A689DF880
:1059900003109047002002B080BD000080B582B0A7
:1059A00001900091019890F89C02013802280ED8CD
:1059B000FFE700984088012808D1FFE701990020FF
:1059C000C1F8A402019800F08BF8FFE704E0019809
:1059D000009900F027F8FFE702B080BD80B584B0E1
:1059E00003900291ADF806200398029ABDF80630A4
:1059F0000021009100F0E6FD009804B080BD000099
:105A000080B584B003900291ADF806200398029A05
:105A1000BDF806300021009100F010FF009804B09E
:105A200080BD000080B582B0019000910198802176
:105A300000F0BEFE0198002100F0BAFE02B080BD69
:105A400080B584B003900291ADF80620039903203D
:105A5000C1F89402BDF806000399C1F85C01BDF8D5
:105A600006000399C1F860010398029ABDF8063058
:105A70000021009100F0A6FD009804B080BD000058
:105A800080B582B0019001990520C1F89402019877
:105A90000023009319461A4600F094FD009802B0C6
:105AA00080BD000080B584B003900291ADF806205F
:105AB00003990220C1F89402BDF806000399C86159
:105AC000BDF80600039908620398029ABDF80630F3
:105AD0000021009100F0B2FE009804B080BD0000EB
