:020000040800F2
:10000000985100204501000845490008E5430008D3
:100010004149000859030008F59500080000000058
:100020000000000000000000000000002163000844
:10003000C103000800000000D15000088D690008CD
:100040005F0100085F0100085F0100085F01000810
:100050005F0100085F0100085F0100085F01000800
:100060005F0100085F0100085F0100085F010008F0
:100070005F0100085D0300085F0100085F010008E0
:100080005F0100085F0100085F0100085F010008D0
:10009000599400085F0100085F0100085F01000833
:1000A0005F0100085F0100085F0100085F010008B0
:1000B0005F0100085F0100085F0100085F010008A0
:1000C0005F0100085F0100085F0100085F01000890
:1000D0005F0100085F0100085F0100085F01000880
:1000E0005F0100085F0100085F0100085F01000870
:1000F000616A00085F0100085F0100085F010008F5
:100100005F0100085F0100085F0100085F0100084F
:100110005F0100085F0100085F0100085F0100083F
:100120005F0100085F0100085F0100085F0100082F
:10013000DFF80CD000F052F800480047BDC60008B8
:10014000985100200648804706480047FEE7FEE732
:10015000FEE7FEE7FEE7FEE7FEE7FEE7FEE7FEE777
:100160005D6A00083101000840EA01039B0703D0E3
:1001700009E008C9121F08C0042AFAD203E011F8E6
:10018000013B00F8013B521EF9D27047D2B201E0A8
:1001900000F8012B491EFBD270470022F6E710B58C
:1001A00013460A4604461946FFF7F0FF204610BDE5
:1001B000421C10F8011B0029FBD1801A704710B5B2
:1001C000002200E0521C835C8C5CA34201D1002B16
:1001D000F8D1D8B2E1B2401A10BD0000064C074D6C
:1001E00006E0E06840F0010394E807009847103407
:1001F000AC42F6D3FFF7A0FF6C0701088C0701089B
:1002000070B58C1810F8015B15F0070301D110F8D8
:10021000013B2A1106D110F8012B03E010F8016B05
:1002200001F8016B5B1EF9D12B0705D40023521E88
:100230000DD401F8013BFAE710F8013BCB1A921CF0
:1002400003E013F8015B01F8015B521EF9D5A142EE
:10025000D8D3002070BD000080B582B00190019914
:1002600042F2E010C2F2000002F0F6FF02B080BDE0
:1002700080B542F2E010C2F2000003F013F8043837
:1002800018BF012080BD000080B582B000208DF82D
:10029000060000F019F8012804D0FFE701208DF8CE
:1002A00007000CE042F2E010C2F2000003F014F884
:1002B0008DF806009DF806008DF80700FFE79DF811
:1002C000070002B080BD000081B001208DF803005E
:1002D0009DF8030001B0704780B586B00590049189
:1002E0000392029300208DF807000599049A039B5E
:1002F0000298EC46CCF8000042F2E010C2F2000096
:1003000003F000F920B1FFE701208DF80700FFE7B7
:100310009DF8070006B080BD80B586B005900491B9
:100320000392029300208DF807000599049A039B1D
:100330000298EC46CCF8000042F2E010C2F2000055
:1003400003F0E4FA20B1FFE701208DF80700FFE792
:100350009DF8070006B080BDFFE7FEE780B50CF012
:100360007DF841F6AC60C2F2000000F031F980BDCA
:1003700084B003900291019200930398C16B026CC8
:1003800001209040486000980399096848600398EC
:100390004068102809D1FFE701980399096888602F
:1003A000029803990968C86008E0029803990968EF
:1003B0008860019803990968C860FFE704B0704736
:1003C0007047000080B500F09DF800F003F800F0E1
:1003D00047F880BD80B540F23800C2F200000BF053
:1003E00081FB40F21000C2F200000BF07BFB40F2F8
:1003F0009800C2F200000BF075FB40F25800C2F208
:1004000000000BF06FFB40F27800C2F200000BF02E
:1004100069FB80BD80B582B08DF807009DF807208C
:1004200041F20000C4F20100102100F0D9FE02B038
:1004300080BD000080B582B08DF80700FFE70BF0AB
:10044000F7FF08B1FFE7FAE79DF8072040F6000044
:10045000C4F20100102100F0C3FE02B080BD000014
:1004600080B582B040F2E540C0F600006946086001
:1004700040F23540C0F6000040F21541C0F60001E0
:1004800040F2A542C0F6000240F2C543C0F60003A8
:100490000BF0A6FE49F2AD50C0F600000BF086FD51
:1004A00002B080BD80B582B08DF807009DF80720AE
:1004B00041F20000C4F20100082100F091FE02B0F8
:1004C00080BD000080B582B08DF807009DF8072040
:1004D00041F20000C4F20100202100F081FE02B0D0
:1004E00080BD000080B582B00190ADF80210019986
:1004F000BDF8022042F26420C2F2000003F090FC3A
:1005000002B080BD80B540F2B800C2F200000BF02E
:1005100049FB40F2E050C2F200000BF043FB40F612
:100520000830C2F200000BF03DFB80BD81B0EFF35C
:10053000108072B60090FFE7FEE7000080B582B041
:100540000190009101980099002200F003F802B098
:1005500080BD000084B0039002918DF80720012037
:100560008DF8060000208DF8050041F65060C2F2BB
:100570000000407A012827DCFFE741F65063C2F211
:1005800000030093597A0020585403995A7A03EBD8
:10059000820251609DF807105A7A1A441172597AF2
:1005A0004A1C5A728DF805109DF805103031029AD8
:1005B0001170029A3A215170029A2F21917002997A
:1005C000C8708DF80600FFE79DF8060004B070477C
:1005D00080B5ACB02B902B98C06B00682A902B98FC
:1005E0000068006829902A982B99096CC840400738
:1005F000002840F17581FFE79DF8A400400700281E
:1006000040F16E81FFE72B980068006880060028A3
:1006100007D4FFE72B980168086820F00400086001
:10062000FFE72B9800688121C4F202018842C0F0E4
:10063000A880FFE72B9800680821C4F202018842D5
:1006400003D1FFE70420289094E02B9800681C2138
:10065000C4F20201884203D1FFE74020279086E0E0
:100660002B9800683021C4F20201884204D1FFE7D0
:100670004FF48060269077E02B9800684421C4F204
:100680000201884204D1FFE74FF48040259068E0E2
:100690002B9800685821C4F20201884204D1FFE778
:1006A0004FF48020249059E02B9800686C21C4F20C
:1006B0000201884204D1FFE74FF4800023904AE012
:1006C0002B9800688021C4F20201884204D1FFE720
:1006D0004FF0806022903BE02B98006840F2084188
:1006E000C4F20201884203D1FFE7042021902CE0EC
:1006F0002B98006840F21C41C4F20201884203D1E9
:10070000FFE7402020901DE02B98006840F2304128
:10071000C4F20201884204D1FFE74FF480601F90C9
:100720000DE02B98016840F24442C4F202024FF4FB
:100730008020914208BF4FF480401F90FFE71F9830
:100740002090FFE720982190FFE721982290FFE773
:1007500022982390FFE723982490FFE72498259080
:10076000FFE725982690FFE726982790FFE7279830
:100770002890FFE7289840F20441C4F20201086083
:10078000A5E02B9800680821C4F20201884203D139
:10079000FFE704201E9094E02B9800681C21C4F20F
:1007A0000201884203D1FFE740201D9086E02B988C
:1007B00000683021C4F20201884204D1FFE74FF4FF
:1007C00080601C9077E02B9800684421C4F20201FD
:1007D000884204D1FFE74FF480401B9068E02B98DB
:1007E00000685821C4F20201884204D1FFE74FF4A7
:1007F00080201A9059E02B9800686C21C4F2020105
:10080000884204D1FFE74FF4800019904AE02B980A
:1008100000688021C4F20201884204D1FFE74FF052
:10082000806018903BE02B98006840F20841C4F2C9
:100830000201884203D1FFE7042017902CE02B9897
:10084000006840F21C41C4F20201884203D1FFE774
:10085000402016901DE02B98006840F23041C4F211
:100860000201884204D1FFE74FF4806015900DE04B
:100870002B98016840F24442C4F202024FF48020F7
:10088000914208BF4FF480401590FFE715981690ED
:10089000FFE716981790FFE717981890FFE718984A
:1008A0001990FFE719981A90FFE71A981B90FFE735
:1008B0001B981C90FFE71C981D90FFE71D981E9049
:1008C000FFE71E980421C4F202010860FFE72B989D
:1008D000C06A20B1FFE72B98C16A8847FFE7B7E1FC
:1008E0002A982B99096CC8408007002840F17F8125
:1008F000FFE79DF8A4008007002840F17881FFE71A
:100900002B9800680068800600280BD4FFE72B981E
:100910000168086820F00A0008602B99012081F81E
:100920002100FFE72B9800688121C4F20201884270
:10093000C0F0A880FFE72B9800680821C4F20201EC
:10094000884203D1FFE70220149094E02B980068BE
:100950001C21C4F20201884203D1FFE7202013903A
:1009600086E02B9800683021C4F20201884204D14D
:10097000FFE74FF40070129077E02B980068442155
:10098000C4F20201884204D1FFE74FF400501190F5
:1009900068E02B9800685821C4F20201884204D113
:1009A000FFE74FF40030109059E02B9800686C215D
:1009B000C4F20201884204D1FFE74FF400100F9007
:1009C0004AE02B9800688021C4F20201884204D1D9
:1009D000FFE74FF000700E903BE02B98006840F26C
:1009E0000841C4F20201884203D1FFE702200D90C2
:1009F0002CE02B98006840F21C41C4F202018842AE
:100A000003D1FFE720200C901DE02B98006840F2F6
:100A10003041C4F20201884204D1FFE74FF4007074
:100A20000B900DE02B98016840F24442C4F20202A0
:100A30004FF40030914208BF4FF400500B90FFE795
:100A40000B980C90FFE70C980D90FFE70D980E9017
:100A5000FFE70E980F90FFE70F981090FFE71098B0
:100A60001190FFE711981290FFE712981390FFE79B
:100A700013981490FFE7149840F20441C4F2020165
:100A80000860A5E02B9800680821C4F202018842A2
:100A900003D1FFE702200A9094E02B9800681C2104
:100AA000C4F20201884203D1FFE72020099086E0CA
:100AB0002B9800683021C4F20201884204D1FFE77C
:100AC0004FF40070089077E02B9800684421C4F23E
:100AD0000201884204D1FFE74FF40050079068E01C
:100AE0002B9800685821C4F20201884204D1FFE724
:100AF0004FF40030069059E02B9800686C21C4F246
:100B00000201884204D1FFE74FF4001005904AE04B
:100B10002B9800688021C4F20201884204D1FFE7CB
:100B20004FF0007004903BE02B98006840F20841C1
:100B3000C4F20201884203D1FFE7022003902CE0B7
:100B40002B98006840F21C41C4F20201884203D194
:100B5000FFE7202002901DE02B98006840F2304112
:100B6000C4F20201884204D1FFE74FF40070019003
:100B70000DE02B98016840F24442C4F202024FF4A7
:100B80000030914208BF4FF400500190FFE70198F8
:100B90000290FFE702980390FFE703980490FFE7B5
:100BA00004980590FFE705980690FFE706980790E0
:100BB000FFE707980890FFE708980990FFE7099872
:100BC0000A90FFE70A980421C4F202010860FFE7D7
:100BD000FFE72B99002081F82000FFE72B98806A1F
:100BE00020B1FFE72B98816A8847FFE72FE02A981A
:100BF0002B99096CC8400007002827D5FFE79DF80E
:100C0000A4000007002821D5FFE72B980168086899
:100C100020F00E0008602B98C26B016C012000FAD6
:100C200001F151602B9988632B9981F82100FFE72E
:100C30002B99002081F82000FFE72B98006B20B152
:100C4000FFE72B98016B8847FFE7FFE7FFE7FFE728
:100C50002CB080BD83B0019000200090019820B995
:100C6000FFE701208DF80B006AE00198006840F270
:100C70000741C4F20201884218D8FFE701990868C9
:100C80004FF6F872CBF6FD7210444CF6CD42CCF61E
:100C9000CC42A0FB02026FF0030000EA920008645D
:100CA00001990020C4F20200C86318E001990868A5
:100CB0004FF6F832CBF6FD7210444CF6CD42CCF62E
:100CC000CC42A0FB02026FF0030000EA920008642D
:100CD000019940F20040C4F20200C863FFE70199A5
:100CE000022081F8210001980068006800900098B7
:100CF00043F6F0718843009001994868D1F808C024
:100D0000CB680A6940EA0C00184310434A69104353
:100D10008A691043C969014300980843009000980C
:100D2000019909680860019900208863019A0121EE
:100D300082F82110019981F820008DF80B00FFE75F
:100D40009DF80B0003B0704780B586B00490039106
:100D50000292019300208DF80300FFE7049890F8B9
:100D60002000012804D1FFE702208DF817004CE095
:100D70000499012081F82000FFE7FFE7049890F82C
:100D80002100012832D1FFE70499022081F82100D7
:100D900004990020886304980168086820F0010025
:100DA000086004980399029A019BFFF7E1FA0498FE
:100DB000C06A38B1FFE704980168086840F00E0087
:100DC00008600CE004980168086820F004000860DE
:100DD00004980168086840F00A000860FFE704987A
:100DE0000168086840F00100086009E0FFE7049925
:100DF000002081F82000FFE702208DF80300FFE7C4
:100E00009DF803008DF81700FFE79DF8170006B066
:100E100080BD000080B584B0039000F0F9F9029025
:100E2000039801900198013048B1FFE741F22E008C
:100E3000C2F200000178019808440190FFE7FFE743
:100E400000F0E6F90299401A0199884201D2FFE7C1
:100E5000F6E704B080BD000092B011901091002020
:100E60000F900B90FFE7109800680F99C84000287A
:100E700000F09B81FFE70F99012088400E901098A9
:100E800000680E9908400D900D980E99884240F028
:100E90008881FFE7109840680790002851D0FFE74D
:100EA000079801283AD0FFE7079802283FD0FFE7CC
:100EB000079803285FD0FFE70798112832D0FFE793
:100EC0000798122838D0FFE707980021C1F21101D6
:100ED000884236D0FFE707980021C1F2120188420C
:100EE0002FD0FFE707980021C1F22101884228D0C6
:100EF000FFE707980021C1F22201884221D0FFE7D5
:100F000007980021C1F2310188421AD0FFE7079803
:100F10000021C1F23201884213D02FE01098C0683E
:100F20000B902CE01098C06804300B9027E01098CC
:100F3000C06808300B9022E01098C0680C300B900D
:100F40001DE01098806818B9FFE704200B9011E0AD
:100F500010988068012806D1FFE708200B900E98B2
:100F60001199086105E008200B900E9811994861CD
:100F7000FFE7FFE703E000200B9000E0FFE70D989C
:100F8000FF2803D8FFE71198069003E0119804307A
:100F90000690FFE706980A900D98FF2804D8FFE70F
:100FA0000F988000059006E00F996FF01F0000EB8E
:100FB00081000590FFE7059809900A980068099A52
:100FC0000F21914088430B99914008430A9908608A
:100FD0001098C079C006002840F1E280FFE7FFE7E3
:100FE00041F21800C4F20200016841F00101016001
:100FF000006800F0010008900898FFE70F9820F0C3
:1010000003000821C4F2010140580C900F9800F031
:10101000030081000F2000FA01F10C9888430C9026
:10102000119840F60001C4F20101884203D1FFE7A4
:101030000020049042E0119840F60041C4F2010102
:10104000884203D1FFE70120039034E0119841F278
:101050000001C4F20101884203D1FFE7022002909F
:1010600026E0119841F20041C4F20101884203D107
:10107000FFE70320019018E0119841F60001C4F247
:101080000101884203D1FFE7042000900AE0119992
:1010900041F60042C4F201020620914208BF052039
:1010A0000090FFE700980190FFE701980290FFE7AA
:1010B00002980390FFE703980490FFE704980F99C4
:1010C00001F00301890000FA01F10C9808430C902B
:1010D0000C980F9921F003010822C4F201028850F4
:1010E00010988079C006002809D5FFE70D9A40F2D4
:1010F0000841C4F2010108681043086008E00D9A35
:1011000040F20841C4F20101086890430860FFE71B
:10111000109880798006002809D5FFE70D9A40F2E3
:101120000C41C4F2010108681043086008E00D9A00
:1011300040F20C41C4F20101086890430860FFE7E7
:10114000109880798007002809D5FFE70D9A40F2B2
:101150000441C4F2010108681043086008E00D9AD8
:1011600040F20441C4F20101086890430860FFE7BF
:1011700010988079C00748B1FFE70D9A40F200410E
:10118000C4F2010108681043086008E00D9A40F2BB
:101190000041C4F20101086890430860FFE7FFE7DF
:1011A000FFE70F9801300F905DE612B07047000026
:1011B00082B00190ADF8021001988068BDF802106D
:1011C000084204D0FFE701208DF8010003E0002071
:1011D0008DF80100FFE79DF8010002B070470000A4
:1011E00082B00190ADF802108DF801209DF8010049
:1011F00028B1FFE7BDF802000199086105E0BDF8DC
:101200000200000401990861FFE702B07047000086
:1012100043F27C40C2F200000068704741F22E00A9
:10122000C2F20000027843F27C41C2F20001086879
:10123000104408607047000080B542F20001C4F21B
:101240000201086840F010000860032000F0D4F8A4
:101250000F2000F005F800F071F8002080BD0000BC
:1012600080B58CB00B900020059004908DF80B0099
:10127000FFE741F21800C4F20200016841F4005196
:101280000160006800F4005001900198FFE706A893
:1012900003A901F0BDFA01F0EBFA059005984DF6AF
:1012A0008361C4F21B31A0FB01014FF0FF3000EB62
:1012B0009140049042F2BC20C2F2000043F200418F
:1012C000C4F20101016040F2E731C160049941605C
:1012D000002101618160816102F068FE8DF80B00E0
:1012E0009DF80B0028BBFFE742F2BC20C2F20000D1
:1012F00002F0AEFE8DF80B009DF80B00C0B9FFE7C1
:101300002C2000F055F80B980F280CD8FFE70B990C
:101310002C20002200F056F80B9841F23001C2F266
:101320000001086003E001208DF80B00FFE7FFE7F4
:10133000FFE79DF80B000CB080BD000080B584B0C5
:10134000FFE741F21800C4F20200016841F0010118
:101350000160006800F0010003900398FFE7FFE7D9
:1013600041F21C00C4F20200016841F080510160AA
:10137000006800F0805002900298FFE76FF00100D3
:101380000F21002200F01EF8FFE70421C4F2010142
:1013900008680190019820F0E0600190019840F009
:1013A0000070019001980860FFE704B080BD000064
:1013B00080B582B08DF807009DF9070008F054F958
:1013C00002B080BD80B586B08DF8170004910392FD
:1013D0000020029008F060F902909DF9170001903A
:1013E00002980499039A03F0AFFA0146019808F0B5
:1013F0005BF906B080BD000080B582B00190019815
:1014000008F074F902B080BD80B582B001908DF80B
:101410000310019AD2F8EC029DF8031001EB81034E
:1014200002EBC302D26B05F07FFE02B080BD00006C
:1014300080B582B001908DF80310019AD2F8EC02C9
:101440009DF8031001EB810302EBC302D2F87C216B
:1014500005F01CFF02B080BD80B584B002908DF80D
:1014600007109DF8070000F00F00029949688842B4
:1014700004D9FFE701208DF80F004DE09DF807002B
:10148000000600280FD5FFE702989DF8071001F02D
:10149000070101EB810100EBC100283000900099A9
:1014A000012048700FE002989DF8071001F0070135
:1014B00001EB810100EBC10000F5B47000900099D0
:1014C00000204870FFE70099002088709DF8070011
:1014D00000F0070000990870FFE7029890F8A80252
:1014E000012804D1FFE702208DF80F0014E00299D3
:1014F000012081F8A802FFE7FFE702980068009941
:1015000006F0B6FFFFE70299002081F8A802FFE786
:1015100000208DF80F00FFE79DF80F0004B080BD9C
:1015200080B586B005900491ADF80E20BDF80E0090
:101530004004002877D5FFE705980068B0F8500010
:101540000499097800EBC1010598006800EB41009F
:10155000B0F804046FF39F20ADF80C000498806984
:10156000BDF80C10884207D3FFE7BDF80C200499A2
:101570008869801A886103E0049900208861FFE788
:1015800004988069F8B9FFE7FFE7059800680499B7
:10159000097830F821004BF68F710840ADF80A0049
:1015A000BDF80A0080F40050ADF80A00BDF80A004A
:1015B00048F28001084305990968049A127821F8D5
:1015C0002200FFE7FFE7BDF80E00400600281BD50C
:1015D000FFE7FFE7FFE7059800680499097830F80E
:1015E000210048F68F710840ADF80800BDF80800EA
:1015F00048F2C001084305990968049A127821F855
:101600002200FFE7FFE7FFE7BDF80C0050B1FFE75E
:1016100005980068049A51691289BDF80C3007F0EA
:101620002DFFFFE776E005980068B0F850000499B8
:10163000097800EBC1010598006800EB4100B0F8A3
:101640000C046FF39F20ADF80C0004988069BDF87E
:101650000C10884207D3FFE7BDF80C200499886975
:10166000801A886103E0049900208861FFE70498EC
:101670008069F8B9FFE7FFE70598006804990978E1
:1016800030F821004BF68F710840ADF80600BDF828
:10169000060080F40050ADF80600BDF8060048F2E0
:1016A0008001084305990968049A127821F82200FC
:1016B000FFE7FFE7BDF80E00400600281BD4FFE758
:1016C000FFE7FFE7059800680499097830F82100E2
:1016D00048F68F710840ADF80400BDF8040048F2E8
:1016E000C001084305990968049A127821F822007C
:1016F000FFE7FFE7FFE7BDF80C0050B1FFE70598F3
:101700000068049A51695289BDF80C3007F0B6FEA2
:10171000FFE7FFE7BDF80C0006B080BD80B5A6B0BE
:1017200025902491ADF88E20BDF88E00400600284B
:1017300040F1BB81FFE725980068B0F8500024997C
:10174000097800EBC1012598006800EB4100B0F872
:1017500004046FF39F20ADF8860024988069BDF8DB
:101760008610884207D9FFE7BDF88620249988694A
:10177000801A886103E0249900208861FFE724989B
:101780008069002840F0B080FFE7FFE724984078A8
:1017900008BBFFE7FFE725980068209025980068C0
:1017A000B0F8501020980844209020982499097887
:1017B00000EB011000F204401F90FFE71F9908881A
:1017C0006FF39F2008801F99088840F4004008802C
:1017D000FFE7FFE71DE024984078012818D1FFE7D4
:1017E000FFE7259800681D9025980068B0F8501014
:1017F0001D9808441D901D982499097800EB01104C
:1018000000F204401C901C9900200880FFE7FFE7CD
:10181000FFE7FFE7FFE7259800681B9024984078D2
:1018200008BBFFE7FFE72598006819902598006836
:10183000B0F850101998084419901998249909780B
:1018400000EB011000F20C401890FFE7189908888F
:101850006FF39F2008801899088840F400400880A2
:10186000FFE7FFE718E024984078012813D1FFE74D
:1018700025980068B0F850101B9808441B901B98DE
:101880002499097800EB011000F20C401A901A9983
:1018900000200880FFE7FFE7FFE7259824990978F3
:1018A000FFF7B2FDBDF88E00400400281BD5FFE70E
:1018B000FFE7FFE7259800682499097830F82100B0
:1018C00048F68F710840ADF85A00BDF85A004CF246
:1018D0008001084325990968249A127821F822008A
:1018E000FFE7FFE7FFE7DFE0BDF88E0040040028D8
:1018F0001BD5FFE7FFE7FFE72598006824990978E3
:1019000030F8210048F68F710840ADF85800BDF856
:1019100058004CF28001084325990968249A1278EE
:1019200021F82200FFE7FFE7FFE7249890F8240062
:10193000012840F0B880FFE7BDF886202499486967
:1019400010444861BDF886202499C8691044C861D4
:1019500024980169006A884209D3FFE72498006946
:101960002290229A2499086A801A086216E0249824
:10197000006A40B9FFE7BDF8860022902499002054
:1019800081F8240009E02499002081F8240024999A
:10199000096A229124990862FFE7FFE7FFE724988C
:1019A0004078002856D1FFE7FFE72598006815909A
:1019B00025980068B0F850101598084415901598AF
:1019C0002499097800EB011000F204401490FFE71D
:1019D000149908886FF39F20088022983F2817D316
:1019E000FFE7FFE72298400913909DF88800C006A2
:1019F00020B9FFE7139801381390FFE7139A149961
:101A0000088840EA822040F400400880FFE71EE09A
:101A1000229830B9FFE71499088840F40040088004
:101A200014E0FFE72298400813909DF88800C00753
:101A300020B1FFE7139801301390FFE7139A149930
:101A4000088840EA82200880FFE7FFE7FFE7FFE71A
:101A5000FFE71DE024984078012818D1FFE7FFE751
:101A600025980068129025980068B0F850101298D8
:101A70000844129012982499097800EB011000F2A2
:101A800004401190229811990880FFE7FFE7FFE7D3
:101A9000FFE725980068249A51691289BDF88830BB
:101AA00007F042FDFFE7FFE7B7E125980068B0F8CF
:101AB00050002499097800EBC1012598006800EBDB
:101AC0004100B0F80C046FF39F20ADF88600249815
:101AD0008069BDF88610884207D3FFE7BDF88620ED
:101AE00024998869801A886103E02499002088611C
:101AF000FFE724988069002840F0B080FFE7FFE707
:101B00002498407808BBFFE7FFE72598006810900D
:101B100025980068B0F8501010980844109010985C
:101B20002499097800EB011000F204400F90FFE7C0
:101B30000F9908886FF39F2008800F99088840F458
:101B400000400880FFE7FFE71DE024984078012867
:101B500018D1FFE7FFE7259800680D9025980068E9
:101B6000B0F850100D9808440D900D9824990978FC
:101B700000EB011000F204400C900C99002008804A
:101B8000FFE7FFE7FFE7FFE7FFE7259800680B9017
:101B90002498407808BBFFE7FFE725980068099084
:101BA00025980068B0F850100998084409900998E1
:101BB0002499097800EB011000F20C400890FFE72F
:101BC000089908886FF39F2008800899088840F4D6
:101BD00000400880FFE7FFE718E0249840780128DC
:101BE00013D1FFE725980068B0F850100B9808440F
:101BF0000B900B982499097800EB011000F20C402F
:101C00000A900A9900200880FFE7FFE7FFE7259880
:101C100024990978FFF7F8FBBDF88E0040040028EE
:101C20001BD4FFE7FFE7FFE72598006824990978B0
:101C300030F8210048F68F710840ADF81A00BDF861
:101C40001A004CF28001084325990968249A1278F9
:101C500021F82200FFE7FFE7FFE7DDE0BDF88E0097
:101C6000400400281BD4FFE7FFE7FFE72598006842
:101C70002499097830F8210048F68F710840ADF8B2
:101C80001800BDF818004CF2800108432599096836
:101C9000249A127821F82200FFE7FFE7FFE7249853
:101CA00090F82400012840F0B680FFE7BDF88620B8
:101CB0002499486910444861BDF886202499C86970
:101CC0001044C86124980169006A884209D3FFE77B
:101CD000249800692290229A2499086A801A08623E
:101CE00016E02498006A40B9FFE7BDF8860022900C
:101CF0002499002081F8240009E02498006A2290A9
:101D0000249900200862249981F82400FFE7FFE766
:101D1000FFE725980068059024984078002856D160
:101D2000FFE7FFE725980068039025980068B0F862
:101D3000501003980844039003982499097800EB05
:101D4000011000F20C400290FFE7029908886FF33F
:101D50009F20088022983F2817D3FFE7FFE72298AB
:101D6000400901909DF88800C00620B9FFE701985E
:101D700001380190FFE7019A0299088840EA822021
:101D800040F400400880FFE71EE0229830B9FFE7EA
:101D90000299088840F40040088014E0FFE7229888
:101DA000400801909DF88800C00720B1FFE7019826
:101DB00001300190FFE7019A0299088840EA8220E9
:101DC0000880FFE7FFE7FFE7FFE7FFE718E0249859
:101DD0004078012813D1FFE725980068B0F850102B
:101DE00005980844059005982499097800EB01109E
:101DF00000F20C400490229804990880FFE7FFE766
:101E0000FFE725980068249A51695289BDF8883007
:101E100007F08AFBFFE7FFE7FFE7FFE72598006889
:101E20002499097830F8210048F6BF710840ADF8D0
:101E30000200BDF8020080F01000ADF80200BDF80D
:101E4000020080F02000ADF80200BDF8020048F268
:101E50008001084325990968249A127821F8220004
:101E6000FFE7002026B080BD80B586B004908DF8D5
:101E70000F10ADF80C208DF80B3000208DF80A0003
:101E80009DF80F00000600280FD5FFE704989DF885
:101E90000F1001F0070101EB810100EBC1002830B8
:101EA00001900199012048700FE004989DF80F10EF
:101EB00001F0070101EB810100EBC10000F5B470F6
:101EC0000190019900204870FFE79DF80F0000F095
:101ED000070001990870BDF80C00019908619DF890
:101EE0000B000199C8709DF80B00022804D1FFE790
:101EF000019900200871FFE7FFE7049890F8A80215
:101F0000012804D1FFE702208DF8170015E004999D
:101F1000012081F8A802FFE7FFE704980068019913
:101F200005F054FFFFE70499002081F8A802FFE7BD
:101F30009DF80A008DF81700FFE79DF8170006B01E
:101F400080BD000080B586B005908DF81310039217
:101F5000029305989DF8131001F0070101EB810130
:101F600000EBC10000F5B47001900398019948613D
:101F7000029801998861019900200090C861019937
:101F800048709DF8130000F007000199087005984B
:101F90000068019906F054FB009806B080BD00006F
:101FA00080B584B002908DF807109DF8070000F00E
:101FB000070002994968884204D9FFE701208DF89B
:101FC0000F0057E09DF80700000600280FD5FFE737
:101FD00002989DF8071001F0070101EB810100EB69
:101FE000C100283000900099012048700DE002984F
:101FF0009DF8071001EB810100EBC10000F5B47002
:102000000090009900204870FFE700990120887037
:102010009DF8070000F0070000990870FFE702989C
:1020200090F8A802012804D1FFE702208DF80F00E4
:1020300020E00299012081F8A802FFE7FFE702985B
:102040000068009906F0B8FA9DF80700400738B913
:10205000FFE70299086801F52C7106F003FAFFE723
:10206000FFE70299002081F8A802FFE700208DF821
:102070000F00FFE79DF80F0004B080BD80B586B06B
:1020800005908DF813100392029305989DF8131094
:1020900001F0070101EB810100EBC1002830019044
:1020A000039801994861029801998861019901207A
:1020B00081F824000299019A1162019A002100918D
:1020C000D161019948709DF8130000F00700019953
:1020D000087005980068019906F0B2FA009806B0F9
:1020E00080BD000080B588B007900798006807F0B1
:1020F000BBF906909DF819000006002804D5FFE7FB
:10210000079802F057FCEDE09DF819004007002801
:1021100010D5FFE707980168B1F8440020F480600B
:10212000A1F84400079800F0DFF80798002100F0BC
:102130000BF9D7E09DF819004006002809D5FFE704
:1021400007980168B1F8440020F48040A1F84400E9
:10215000C8E09DF819008006002809D5FFE7079818
:102160000168B1F8440020F40050A1F84400B9E03F
:102170009DF81900C00600281CD5FFE707980168E4
:10218000B1F8400020F00400A1F840000798016871
:10219000B1F8400020F00800A1F84000079800F0D6
:1021A000BFF807980168B1F8440020F48050A1F806
:1021B000440097E09DF819000007002872D5FFE75A
:1021C00000208DF80700FFE79DF80700072812D8C8
:1021D000FFE7079800689DF8071030F821009DF888
:1021E000072002A921F81200FFE79DF8070001303F
:1021F0008DF80700E8E707980168B1F8400040F063
:102200000100A1F8400007980168B1F8400020F0F3
:102210000100A1F84000FFE707980068B0F844000B
:102220004005002801D4FFE7F6E707980168B1F8F8
:10223000440020F48060A1F8440000208DF80700DD
:10224000FFE79DF80700072810D8FFE79DF8072053
:1022500002A830F812000799096821F82200FFE768
:102260009DF8070001308DF80700EAE7079801683C
:10227000B1F8400040F00800A1F84000079801685C
:10228000B1F8440020F40060A1F844000798016808
:10229000B1F8400040F00400A1F84000079800F0B9
:1022A0008FF81FE09DF81900800700280CD5FFE784
:1022B00007980168B1F8440020F40070A1F84400C8
:1022C000079800F037F80DE09DF81900C00748B1F5
:1022D000FFE707980168B1F8440020F48070A1F886
:1022E0004400FFE708B080BD80B582B001900120B6
:1022F0008DF8030001988068022803D0FFE7FEF7FD
:1023000015F9FFE70198D0F8EC029DF8031005F0ED
:102310001DF90198D0F8EC0205F0B2F802B080BDCA
:1023200080B582B001900198D0F8EC0205F0E2F897
:1023300002B080BD80B582B001900198D0F8EC0267
:1023400005F0EAF802B080BD80B584B002908DF847
:102350000710FFE7029890F8A802012804D1FFE7D0
:1023600002208DF80F001AE00299012081F8A802DE
:10237000FFE7FFE79DF80700029981F82400029823
:1023800000689DF8071007F0BFF8FFE702990020EA
:1023900081F8A802FFE700208DF80F00FFE79DF805
:1023A0000F0004B080BD000080B582B0019001999B
:1023B000D1F8EC0201F52C7105F0F2F802B080BD05
:1023C00080B582B001900198D0F8EC0205F048F990
:1023D0000198806948B1FFE74EF61051CEF2000136
:1023E000086840F006000860FFE702B080BD00000A
:1023F00080B586B004900020039002900498007885
:10240000C007002800F0AC80FFE700208DF807002F
:1024100041F21C00C4F202000068C000002813D47E
:10242000FFE7FFE741F21C00C4F20200016841F03F
:1024300080510160006800F0805000900098FFE734
:1024400001208DF80700FFE747F20000C4F200000A
:102450000068C005002822D4FFE747F20001C4F25B
:102460000001086840F480700860FEF7D1FE039018
:10247000FFE747F20000C4F200000068C005002832
:102480000CD4FFE7FEF7C4FE0399401A652804D375
:10249000FFE703208DF817008AE0EAE7FFE741F243
:1024A0002000C4F20200006800F44070029002981C
:1024B000E0B3FFE702980499496801F4407188424B
:1024C00034D0FFE741F22001C4F20201086820F491
:1024D0004070029040F24042C4F24222012010605B
:1024E00000201060029808609DF80800C007E0B165
:1024F000FFE7FEF78DFE0390FFE741F22000C4F2F4
:1025000002000068800700280ED4FFE7FEF780FE77
:102510000399401A41F28931884204D3FFE703202E
:102520008DF8170044E0E8E7FFE7FFE741F22001FC
:10253000C4F20201086820F44070049A5268104303
:1025400008609DF80700012809D1FFE741F21C014E
:10255000C4F20201086820F080500860FFE7FFE73E
:1025600004980078800700280CD5FFE741F20401A9
:10257000C4F20201086820F44040049A92681043B3
:102580000860FFE704980078C00600280CD5FFE734
:1025900041F20401C4F20201086820F48000049AA8
:1025A000526910430860FFE700208DF81700FFE72D
:1025B0009DF8170006B080BD80B584B002900191EF
:1025C000029820B9FFE701208DF80F001BE1019868
:1025D00042F20001C4F20201096801F007018842D9
:1025E00016D9FFE742F20000C4F20200016821F0B0
:1025F0000701019A11430160006800F0070001998A
:10260000884204D0FFE701208DF80F00FBE0FFE7D0
:1026100002980078800700282AD5FFE70298007802
:102620004007002809D5FFE741F20401C4F2020186
:10263000086840F4E0600860FFE70298007800074F
:10264000002809D5FFE741F20401C4F2020108683D
:1026500040F460500860FFE741F20401C4F2020157
:10266000086820F0F000029A926810430860FFE7C3
:1026700002980078C007002860D0FFE70298406801
:1026800001280ED1FFE741F20000C4F20200006809
:102690008003002804D4FFE701208DF80F00B2E08A
:1026A00021E00298406802280ED1FFE741F20000C5
:1026B000C4F2020000688001002804D4FFE7012072
:1026C0008DF80F009FE00DE041F20000C4F202001F
:1026D00000688007002804D4FFE701208DF80F0070
:1026E00091E0FFE7FFE741F20401C4F2020108684C
:1026F00020F00300029A526810430860FEF788FD3C
:102700000090FFE741F20400C4F20200006800F00C
:102710000C0002994968B0EB810F0ED0FFE7FEF77D
:1027200077FD0099401A41F28931884204D3FFE7CE
:1027300003208DF80F0066E0E4E7FFE7019842F21E
:102740000001C4F20201096801F00701884216D2B3
:10275000FFE742F20000C4F20200016821F0070125
:10276000019A11430160006800F007000199884256
:1027700004D0FFE701208DF80F0044E0FFE7029846
:102780000078400700280CD5FFE741F20401C4F2AD
:102790000201086820F4E060029AD26810430860E1
:1027A000FFE702980078000700280DD5FFE741F207
:1027B0000401C4F20201086820F46050029A126910
:1027C00040EAC2000860FFE700F064F841F204014B
:1027D000C4F202010968C9B20A0940F22861C0F6D0
:1027E0000101895CC84040F20C01C2F2000108609E
:1027F00041F23000C2F200000068FEF731FD002017
:102800008DF80F00FFE79DF80F0004B080BD0000B9
:1028100082B00190009101990F20086041F20400FC
:10282000C4F20200016801F00301019A51600168DD
:1028300001F0F001019A9160016801F4E061019AF0
:10284000D160006800F46050C0080199086142F24C
:102850000000C4F20200006800F007000099086060
:1028600002B0704740F20C00C2F2000000687047EE
:1028700080B5FFF7F7FF41F20401C4F202010968D5
:10288000C1F3C22240F23861C0F60101895CC84040
:1028900080BD000086B00020059004900390029057
:1028A000019041F20400C4F202000068059005980E
:1028B00000F00C000146009100283FD0FFE700988F
:1028C000042804D0FFE70098082806D037E041F23A
:1028D0000020C0F27A00019037E00598C0F38341F0
:1028E00040F24060C0F60100405C02909DF8160086
:1028F000C007C0B1FFE741F20400C4F20200006863
:10290000C0F3404140F25060C0F60100405C0490CA
:10291000029841F20021C0F27A0148430499B0FBC9
:10292000F1F0039007E0029840F60011C0F23D017B
:1029300048430390FFE70398019006E0FFE741F268
:102940000020C0F27A000190FFE7019806B07047BE
:1029500080B586B00490049820B9FFE701208DF877
:1029600017002EE304980078C007002800F0AE801E
:10297000FFE741F20400C4F20200006800F00C001E
:10298000042813D0FFE741F20400C4F202000068FB
:1029900000F00C0008281BD1FFE741F20400C4F24C
:1029A00002000068C003002812D5FFE741F20000D2
:1029B000C4F2020000688003002808D5FFE70498ED
:1029C000406820B9FFE701208DF81700F9E27CE0AC
:1029D000FFE704984068B0F5803F09D1FFE741F276
:1029E0000001C4F20201086840F48030086032E05F
:1029F0000498406868B9FFE741F20001C4F202019F
:102A0000086820F480300860086820F4802008609E
:102A100020E004984068B0F5A02F0DD1FFE741F207
:102A20000001C4F20201086840F4802008600868D0
:102A300040F4803008600CE041F20001C4F2020171
:102A4000086820F480300860086820F4802008605E
:102A5000FFE7FFE7FFE7FFE704984068D0B1FFE733
:102A6000FEF7D6FB0390FFE741F20000C4F202003C
:102A70000068800300280CD4FFE7FEF7C9FB039928
:102A8000401A652804D3FFE703208DF8170098E269
:102A9000EAE719E0FEF7BCFB0390FFE741F2000014
:102AA000C4F202000068800300280CD5FFE7FEF79F
:102AB000AFFB0399401A652804D3FFE703208DF884
:102AC00017007EE2EAE7FFE7FFE7FFE704980078F8
:102AD0008007002840F18D80FFE741F20400C4F236
:102AE0000200006810F00C0F13D0FFE741F2040061
:102AF000C4F20200006800F00C00082829D1FFE7AA
:102B000041F20400C4F202000068C003002820D48F
:102B1000FFE741F20000C4F20200006880070028CD
:102B200009D5FFE704980069012804D0FFE70120D8
:102B30008DF8170045E241F20001C4F20201086875
:102B400020F0F800049A526940EAC2000860FFE7EA
:102B50004EE00498006958B3FFE70021C4F2422117
:102B600001200860FEF754FB0390FFE741F20000EC
:102B7000C4F202000068800700280CD4FFE7FEF7CB
:102B800047FB0399401A032804D3FFE703208DF87D
:102B9000170016E2EAE741F20001C4F202010868F8
:102BA00020F0F800049A526940EAC20008601EE072
:102BB0000021C4F2422100200860FEF729FB0390A7
:102BC000FFE741F20000C4F202000068800700281D
:102BD0000CD5FFE7FEF71CFB0399401A032804D32A
:102BE000FFE703208DF81700EBE1EAE7FFE7FFE7D7
:102BF000FFE7049800780007002848D5FFE704980D
:102C0000806918B3FFE740F28041C4F242210120FD
:102C10000860FEF7FDFA0390FFE741F22400C4F2DA
:102C200002000068800700280CD4FFE7FEF7F0FAE6
:102C30000399401A032804D3FFE703208DF81700F7
:102C4000BFE1EAE7012002F065FA1FE040F28041AF
:102C5000C4F2422100200860FEF7DAFA0390FFE791
:102C600041F22400C4F202000068800700280CD55D
:102C7000FFE7FEF7CDFA0399401A032804D3FFE7D4
:102C800003208DF817009CE1EAE7FFE7FFE70498CF
:102C900000784007002840F1D880FFE700208DF839
:102CA000070041F21C00C4F202000068C0000028C6
:102CB00013D4FFE7FFE741F21C00C4F202000168F1
:102CC00041F080510160006800F080500090009851
:102CD000FFE701208DF80700FFE747F20000C4F28C
:102CE00000000068C005002822D4FFE747F2000179
:102CF000C4F20001086840F480700860FEF788FAAA
:102D00000390FFE747F20000C4F200000068C0052E
:102D100000280CD4FFE7FEF77BFA0399401A6528D8
:102D200004D3FFE703208DF817004AE1EAE7FFE745
:102D3000FFE70498C068012809D1FFE741F22001AC
:102D4000C4F20201086840F00100086031E0049814
:102D5000C06868B9FFE741F22001C4F202010868C7
:102D600020F001000860086820F0040008601FE0FF
:102D70000498C06805280DD1FFE741F22001C4F294
:102D80000201086840F004000860086840F0010093
:102D900008600CE041F22001C4F20201086820F052
:102DA00001000860086820F004000860FFE7FFE702
:102DB000FFE7FFE70498C068E0B1FFE7FEF728FAF5
:102DC0000390FFE741F22000C4F202000068800790
:102DD00000280ED4FFE7FEF71BFA0399401A41F2D0
:102DE0008931884204D3FFE703208DF81700E8E01B
:102DF000E8E71BE0FEF70CFA0390FFE741F2200042
:102E0000C4F202000068800700280ED5FFE7FEF735
:102E1000FFF90399401A41F28931884204D3FFE750
:102E200003208DF81700CCE0E8E7FFE79DF80700E6
:102E3000012809D1FFE741F21C01C4F20201086830
:102E400020F080500860FFE7FFE70498C069002881
:102E500000F0B380FFE741F20400C4F20200006812
:102E600000F00C00082800F08280FFE70498C06999
:102E700002285CD1FFE76021C4F2422100200860F3
:102E8000FEF7C6F90390FFE741F20000C4F202002A
:102E90000068800100280CD5FFE7FEF7B9F9039917
:102EA000401A032804D3FFE703208DF8170088E0B9
:102EB000EAE70498006AB0F5803F0CD1FFE741F2E1
:102EC0000401C4F20201086820F40030049A9268F8
:102ED00010430860FFE741F20401C4F202010868F0
:102EE00020F47410049B1A6A5B6A1A43104308604A
:102EF0006021C4F2422101200860FEF789F90390A5
:102F0000FFE741F20000C4F20200006880010028DF
:102F10000CD4FFE7FEF77CF90399401A032804D389
:102F2000FFE703208DF817004BE0EAE71EE0602181
:102F3000C4F2422100200860FEF76AF90390FFE71F
:102F400041F20000C4F202000068800100280CD5A4
:102F5000FFE7FEF75DF90399401A032804D3FFE762
:102F600003208DF817002CE0EAE7FFE724E004983F
:102F7000C069012804D1FFE701208DF8170020E087
:102F800041F20400C4F2020000680290029800F4CA
:102F900080300499096A884208D1FFE7029800F45A
:102FA00070100499496A884204D0FFE701208DF827
:102FB000170006E0FFE7FFE7FFE700208DF81700A6
:102FC000FFE79DF8170006B080BD000083B00190B8
:102FD00000910198406E800F009908700198406E32
:102FE000C0F38360009948700198406EC0F301609F
:102FF000009988700198B0F866000099C87001982F
:10300000406E000A009908710198406E009948715D
:103010000198806E000D0099C8800198806EC0F301
:103020000340009908720198B0F86800C00B00993D
:1030300048720198806EC0F38030009988720198C0
:10304000806EC0F340300099C8720198806EC0F362
:103050000030009908730099002048730198406C73
:1030600000284BD1FFE70199886EC96E6FF39F204E
:10307000800040EA9170009908610198C06EC0F329
:10308000C260009908750198C06EC0F30260009993
:1030900048750198C06EC0F3425000998875019838
:1030A000C06EC0F382400099C8750198C06EC0F32D
:1030B000C23000990876009800690130019948658E
:1030C0000098007E00F00700811C012000FA01F347
:1030D000019A516D594351650099097A01F00F0128
:1030E0008840019988650199486D8A6D520A50435C
:1030F000C86501994FF40070086635E00198406C8E
:1031000001281DD1FFE70198816E01F03F01B0F861
:103110006E0040EA014000990861009801694FF48F
:10312000806000EB8120019948650199486DC86570
:1031300001994FF4007088650199886D086612E066
:103140000198016840F2FF50C0F240008863019985
:10315000886B40F0805088630199012081F8340029
:103160008DF80B0073E0FFE70198C06EC0F380306C
:10317000009948760198C06EC0F3C6100099887611
:103180000198C06E00F07F000099C8760198006F2A
:10319000C00F009908770198006FC0F34170009943
:1031A00048770198006FC0F3826000998877019892
:1031B000006FC0F383500099C8770198006FC0F387
:1031C0004050009981F820000099002081F82100EA
:1031D0000199096FC1F30041009A82F82210019908
:1031E000B1F87010C90B009A82F823100199096F89
:1031F000C1F38031009A82F824100199096FC1F35C
:103200004031009A82F825100199096FC1F300310D
:10321000009A82F826100199096FC1F38121009A62
:1032200082F827100199096FC1F30121009A82F8F1
:103230002810019991F870104908009A82F8291015
:10324000009A012182F82A108DF80B00FFE79DF803
:103250000B0003B07047000082B00190009101980C
:10326000406C009908600198806C00994860019852
:10327000C06C009988600198006D0099C860019841
:10328000406D009908610198806D0099486101982E
:10329000C06D009988610198006E0099C861002096
:1032A00002B0704780B584B003900020009003986E
:1032B000694602F0E1FD0190019830B1FFE7019A03
:1032C0000399886B10438863FFE70098C0F343209D
:1032D0000290029804B080BD80B582B00090009842
:1032E00020B9FFE701208DF8070024E0009890F84E
:1032F000340038B9FFE7009900200877009800F003
:10330000A1F8FFE70099032081F83400009800F04D
:1033100017F820B1FFE701208DF807000BE00099B6
:103320000020886300990863009A012182F8341014
:103330008DF80700FFE79DF8070002B080BD000090
:10334000B0B58EB00C9000200490059006900790C8
:103350000890762009900C9800680499059A069BBD
:10336000DDF81CC0089C099DEE46CEF80850CEF84A
:103370000440CEF800C001F02BFF8DF82B009DF823
:103380002B0020B1FFE701208DF8370056E0A02187
:10339000C4F230210391002008600C98006801F00D
:1033A00045FF0399012008600220FDF733FD0C98CA
:1033B00002F0C2FC0B900B9860B1FFE70C99012062
:1033C00081F834000B9B0C9A916B194391638DF833
:1033D000370033E00C9802F0E9FB0B900B9860B1DA
:1033E000FFE70C99012081F834000B9B0C9A916B3C
:1033F000194391638DF8370020E00C9800684FF472
:10340000007101F08DFF0B900B9898B1FFE70C98BD
:10341000016840F2FF50C0F2400088630B9A0C999B
:10342000886B104388630C99012081F834008DF873
:10343000370003E000208DF83700FFE79DF83700E4
:103440000EB0B0BD80B58CB00B9000200A900990F2
:10345000089007900B98006848F20001C4F201013F
:1034600088424CD1FFE7FFE741F21400C4F20200AA
:10347000016841F480610160006800F4806006909A
:103480000698FFE7FFE741F21800C4F20200016866
:1034900041F010010160006800F0100005900598EF
:1034A000FFE7FFE741F21800C4F20200016841F0B3
:1034B00020010160006800F0200004900498FFE7FC
:1034C0004FF488500790022001900890032002904A
:1034D0000A9041F20000C4F2010007A90391FDF730
:1034E000BBFC019A029803990423079308920A905F
:1034F00041F20040C4F20100FDF7AEFCFFE70CB062
:1035000080BD000080B594B0DDF858C012901191D4
:1035100010920F93FDF77CFE07901098039011987E
:103520000290119848B9FFE71299886B40F000604B
:10353000886301208DF84F00E3E1129890F8340081
:10354000012840F0D581FFE7129900208863039895
:103550000F9908441299C96D884209D9FFE7129959
:10356000886B40F00070886301208DF84F00C8E13F
:103570001299032081F83400129801680020C86273
:103580001298406C012804D0FFE703984002039092
:10359000FFE74FF0FF3009900F9840020A9090200B
:1035A0000B9002200C9000200D9001200E9012989C
:1035B000006809A901F0CCFD0F9802280AD3FFE7A3
:1035C00012990220086312980068039901F0F6FE30
:1035D000089009E012990120086312980068039985
:1035E00001F00AFF0890FFE70898B0B1FFE71298D2
:1035F000016840F2FF50C0F240008863089A1299B7
:10360000886B104388631299012081F83400129A64
:10361000002111638DF84F0073E10A980490FFE7D1
:1036200012980068406B40F22A31084266D1FFE7E9
:1036300012980068406B000400283CD5FFE704980E
:10364000C8B3FFE700200690FFE70698072831D8A7
:10365000FFE71298006801F0F1FD059005980299C6
:10366000087002980130029004980138049005987F
:10367000000A0299087002980130029004980138FB
:103680000490BDF81600029908700298013002906B
:103690000498013804909DF8170002990870029868
:1036A00001300290049801380490FFE70698013039
:1036B0000690CAE7FFE7FDF7ABFD0799401A169998
:1036C000884203D2FFE71698B8B9FFE7129801685D
:1036D00040F2FF50C0F2400088631299886B40F0BE
:1036E000004088631299012081F83400129900206B
:1036F000086303208DF84F0003E191E712980068FA
:10370000406BC005002829D5FFE70F98022825D374
:10371000FFE71298406C03281FD0FFE7129800685B
:1037200001F014FF08900898B0B1FFE71298016803
:1037300040F2FF50C0F240008863089A1299886BEB
:10374000104388631299012081F83400129A0021F5
:1037500011638DF84F00D4E0FFE7FFE7129800688F
:10376000406B0007002816D5FFE71298016840F269
:10377000FF50C0F2400088631299886B40F0080047
:1037800088631299012081F83400129A0021116394
:103790008DF84F00B5E012980068406B8007002854
:1037A00016D5FFE71298016840F2FF50C0F24000C2
:1037B00088631299886B40F0020088631299012097
:1037C00081F83400129A002111638DF84F0098E0BF
:1037D00012980068406B8006002816D5FFE7129803
:1037E000016840F2FF50C0F2400088631299886B74
:1037F00040F0200088631299012081F83400129A69
:10380000002111638DF84F007BE0FFE7FFE7FFE742
:10381000FFE712980068416B00208902002901909F
:1038200006D5FFE70498002818BF01200190FFE7A4
:103830000198C00700284ED0FFE71298006801F0F9
:10384000FDFC0590059802990870029801300290DD
:103850000498013804900598000A029908700298AB
:1038600001300290049801380490BDF816000299C6
:1038700008700298013002900498013804909DF875
:1038800017000299087002980130029004980138DC
:103890000490FDF7BDFC0799401A1699884203D29F
:1038A000FFE71698B0B9FFE71298016840F2FF50A1
:1038B000C0F2400088631299886B40F00040886332
:1038C0001299012081F83400129A002111638DF8B9
:1038D0004F0016E09DE71298016840F23A50886365
:1038E0001299012081F8340000208DF84F0008E083
:1038F0001299886B40F00050886301208DF84F00CA
:10390000FFE79DF84F0014B080BD000080B592B075
:10391000DDF850C010900F910E920D93FDF778FCDA
:1039200005900E9801900F9800900F9848B9FFE706
:103930001099886B40F00060886301208DF8470083
:1039400086E1109890F83400012840F07881FFE774
:1039500010990020886301980D9908441099C96D49
:10396000884209D9FFE71099886B40F0007088639E
:1039700001208DF847006BE11099032081F8340095
:10398000109801680020C8621098406C012804D08B
:10399000FFE7019840020190FFE74FF0FF300790EA
:1039A0000D98400208909020099000200A900B90FA
:1039B00001200C901098006807A901F0C9FB0D9830
:1039C00002280AD3FFE710992020086310980068A6
:1039D000019901F0D9FD069009E0109910200863C3
:1039E00010980068019901F0EDFD0690FFE7069838
:1039F000B0B1FFE71098016840F2FF50C0F24000FC
:103A00008863069A1099886B104388631099012087
:103A100081F83400109A002111638DF8470017E1F6
:103A200008980290FFE710980068406B40F21A3146
:103A300008426DD1FFE710980068406B40040028F1
:103A400043D5FFE7029800283FD0FFE7002004900D
:103A5000FFE70498072837D8FFE70098007803901D
:103A60000098013000900298013802900098017887
:103A7000039840EA012003900098013000900298DA
:103A80000138029000980178039840EA01400390C1
:103A90000098013000900298013802900098017857
:103AA000039840EA0160039000980130009002986A
:103AB000013802901098006803A901F0E9FBFFE7C4
:103AC000049801300490C4E7FFE7FDF7A1FB0599D6
:103AD000401A1499884203D2FFE71498B8B9FFE757
:103AE0001098016840F2FF50C0F240008863069AC7
:103AF0001099886B104388631099012081F8340075
:103B000010990020086303208DF84700A0E08AE7A1
:103B100010980068406BC005002829D5FFE70D9874
:103B2000022825D3FFE71098406C03281FD0FFE739
:103B30001098006801F00AFD06900698B0B1FFE702
:103B40001098016840F2FF50C0F240008863069A66
:103B50001099886B104388631099012081F8340014
:103B6000109A002111638DF8470071E0FFE7FFE72D
:103B700010980068406B0007002816D5FFE71098E2
:103B8000016840F2FF50C0F2400088631099886BD2
:103B900040F0080088631099012081F83400109AE1
:103BA000002111638DF8470052E010980068406BC7
:103BB0008007002816D5FFE71098016840F2FF50F3
:103BC000C0F2400088631099886B40F0020088635F
:103BD0001099012081F83400109A002111638DF8AA
:103BE000470035E010980068406BC006002816D5E5
:103BF000FFE71098016840F2FF50C0F24000886370
:103C00001099886B40F0100088631099012081F8AA
:103C10003400109A002111638DF8470018E0FFE787
:103C2000FFE7FFE71098016840F23A508863109967
:103C3000012081F8340000208DF8470008E0109939
:103C4000886B40F00050886301208DF84700FFE743
:103C50009DF8470012B080BD81B0009001B0704760
:103C600080B584B00290029820B9FFE701208DF85A
:103C70000F006DE00298406A60B9FFE70298406863
:103C8000B0F5827F01D1FFE703E002990020C8610F
:103C9000FFE705E002990020086102994861FFE70B
:103CA000029900208862029890F8510040B9FFE71D
:103CB0000299002081F85000029800F04DF8FFE7CB
:103CC0000299022081F8510002980168086820F0EA
:103CD00040000860029A019211685068D2F808C04A
:103CE000D36800F482700CF4044C604403F4006365
:103CF0001844136903F002031844536903F00103E5
:103D00001844936903F400731844D36903F038032B
:103D10001844136A03F080031843926A02F40052B5
:103D2000104308600299488B00F00400096848605D
:103D300002980168C86920F40060C86102990020F7
:103D40004865029A012182F851108DF80F00FFE7B3
:103D50009DF80F0004B080BD80B588B007900020AA
:103D600006900590049003900798006843F20001C4
:103D7000C4F20101884250D1FFE7FFE741F2180089
:103D8000C4F20200016841F480510160006800F44F
:103D9000805002900298FFE7FFE741F21800C4F25A
:103DA0000200016841F004010160006800F00400B5
:103DB00001900198FFE7A0200390022004900320C7
:103DC000069040F60000C4F2010003A9FDF744F894
:103DD00041F6AC60C2F2000000903021C4F2020152
:103DE000016010214160002181608022C260016178
:103DF00041618161C161FCF72DFF18B1FFE7FCF75C
:103E000095FBFFE7FFE7079841F6AC61C2F20001BE
:103E1000816407984862FFE7FFE708B080BD0000B3
:103E200080B584B002900191ADF8022000208DF899
:103E30000100FFE7029890F85000012804D1FFE745
:103E400002208DF80F009CE00299012081F85000BB
:103E5000FFE7FFE7029890F85100012804D0FFE740
:103E600002208DF8010081E0019820B1FFE7BDF844
:103E7000020020B9FFE701208DF8010076E00299E9
:103E8000032081F851000299002048650199029AA7
:103E90001163BDF80210029A9186BDF80210029AD1
:103EA000D18602998863029948640299086402994C
:103EB00088870299C88702988068B0F5004F0DD1B5
:103EC000FFE702980168086820F040000860029847
:103ED0000168086840F480400860FFE70298816C40
:103EE00046F2ED00C0F60000C8620298816C46F20E
:103EF0000510C0F6000088620298816C46F2B90095
:103F0000C0F6000008630298816C00204863029BA1
:103F10001A68196B986C0C32DB8EFCF715FF48B1F0
:103F2000FFE70299486D40F01000486501208DF8C8
:103F300001001BE002980068006800F04000402883
:103F400007D0FFE702980168086840F04000086069
:103F5000FFE702980168486840F020004860029836
:103F60000168486840F002004860FFE7FFE70299F7
:103F7000002081F85000FFE79DF801008DF80F0048
:103F8000FFE79DF80F0004B080BD000081B00090F5
:103F900001B0704781B0009001B0704781B00090CF
:103FA00001B0704781B0009001B0704780B582B019
:103FB0000090009820B9FFE701208DF807003FE04E
:103FC000009890F83D0040B9FFE70099002081F883
:103FD0003C00009800F038F8FFE70099022081F8D3
:103FE0003D00009951F8040B02F042FD00990120B8
:103FF00081F84600FFE70099012081F83E00009912
:1040000081F83F00009981F84000009981F8410053
:10401000FFE7FFE70099012081F84200009981F84D
:104020004300009981F84400009981F84500FFE7BA
:104030000099012081F83D0000208DF80700FFE77E
:104040009DF8070002B080BD81B0009001B07047BC
:1040500083B00190019890F83D00012804D0FFE75B
:1040600001208DF80B0059E00199022081F83D00F4
:1040700001980168C86840F00100C86001980068B4
:1040800042F60041C4F2010188422AD0FFE70198BC
:10409000006843F20041C4F20101884221D0FFE7E9
:1040A00001980068B0F1804F1BD0FFE701980068CD
:1040B00040F20041C4F20001884212D0FFE70198AB
:1040C000006840F60001C4F20001884209D0FFE711
:1040D0000198006840F60041C4F20001884212D104
:1040E000FFE701980068806800F0070000900098E2
:1040F000062807D0FFE701980168086840F0010032
:104100000860FFE706E001980168086840F00100D8
:104110000860FFE700208DF80B00FFE79DF80B001B
:1041200003B0704781B0009001B0704780B582B095
:10413000019001980068006900F002010020B0EBD6
:10414000510F28D0FFE701980068C06800F0020115
:104150000020B0EB510F1DD0FFE7019801686FF010
:1041600002000861019901200877019800688069C0
:10417000800720B1FFE70198FFF7D4FF06E0019820
:1041800000F012F9019800F013F9FFE701990020FF
:104190000877FFE7FFE701980068006900F0040175
:1041A0000020B0EB910F29D0FFE701980068C068AC
:1041B00000F004010020B0EB910F1ED0FFE7019842
:1041C00001686FF0040008610199022008770198E6
:1041D0000068806910F4407F04D0FFE70198FFF782
:1041E000A1FF06E0019800F0DFF8019800F0E0F888
:1041F000FFE7019900200877FFE7FFE701980068D3
:10420000006900F008010020B0EBD10F28D0FFE7D3
:1042100001980068C06800F008010020B0EBD10FE1
:104220001DD0FFE7019801686FF00800086101994F
:104230000420087701980068C069800720B1FFE773
:104240000198FFF76FFF06E0019800F0ADF80198C4
:1042500000F0AEF8FFE7019900200877FFE7FFE7DD
:1042600001980068006900F010010020B0EB111FF8
:1042700029D0FFE701980068C06800F01001002015
:10428000B0EB111F1ED0FFE7019801686FF010001E
:10429000086101990820087701980068C06910F446
:1042A000407F04D0FFE70198FFF73CFF06E001984C
:1042B00000F07AF8019800F07BF8FFE70199002000
:1042C0000877FFE7FFE7019800680069C00780B141
:1042D000FFE701980068C068C00748B1FFE7019890
:1042E00001686FF001000861019800F065F8FFE7D0
:1042F000FFE7019800680069C1B20020B0EBD11F50
:1043000013D0FFE701980068C068C1B20020B0EB8D
:10431000D11F09D0FFE7019801686FF080000861A4
:104320000198FFF73BFEFFE7FFE70198006800698F
:1043300000F040010020B0EB911F14D0FFE701987E
:104340000068C06800F040010020B0EB911F09D068
:10435000FFE7019801686FF040000861019800F0E4
:104360003DF8FFE7FFE701980068006900F02001D1
:104370000020B0EB511F14D0FFE701980068C0681F
:1043800000F020010020B0EB511F09D0FFE7019899
:1043900001686FF0200008610198FFF703FEFFE756
:1043A000FFE702B080BD000081B0009001B070470F
:1043B00081B0009001B0704780B582B00190019843
:1043C000006843F20041C4F20101884203D1FFE7D3
:1043D000FCF724FFFFE702B080BD000081B0009031
:1043E00001B07047FFE7FEE780B584B08DF80F009D
:1043F0009DF80F000146029106281DD80299DFE8BA
:1044000001F00405161718191A0015E06946012372
:104410004B600020086040F21C70C0F6010040F2C2
:104420002D71C0F60101322207F01CFC04E003E00C
:1044300002E001E000E0FFE704B080BD80B584B099
:104440008DF80F009DF80F000146029106281DD837
:104450000299DFE801F00405161718191A0015E093
:10446000694601234B600020086040F21670C0F6D8
:10447000010040F22D71C0F60101322207F0F2FB7B
:1044800004E003E002E001E000E0FFE704B080BDEB
:1044900080B584B08DF80F009DF80F0001460291A1
:1044A00006281DD80299DFE801F00405161718192F
:1044B0001A0015E0694601234B600020086040F2B5
:1044C0001C70C0F6010040F22871C0F601011E22E6
:1044D00007F0C8FB04E003E002E001E000E0FFE7D2
:1044E00004B080BD80B584B08DF80F009DF80F003A
:1044F0000146029106281DD80299DFE801F0040563
:10450000161718191A0015E0694601234B600020A0
:10451000086040F21970C0F6010040F22871C0F640
:1045200001011E2207F09EFB04E003E002E001E02F
:1045300000E0FFE704B080BD80B584B08DF80F00C7
:104540009DF80F000146029106281DD80299DFE868
:1045500001F00405161718191A0015E06946012321
:104560004B600020086040F21970C0F6010040F274
:104570002D71C0F60101322207F074FB04E003E064
:1045800002E001E000E0FFE704B080BD80B541F249
:104590000040C4F201002021FCF70AFE80BD0000AB
:1045A00080B541F20040C4F201008021FCF700FE1A
:1045B00080BD000080B540F60000C4F2010001217A
:1045C000FCF7F6FD80BD000080B541F60000C4F2A6
:1045D00001000121FCF7ECFD80BD000080B541F237
:1045E0000040C4F201004021FCF7E2FD80BD000064
:1045F00080B582B08DF807009DF8072041F2004099
:10460000C4F201000221FCF7EBFD02B080BD000006
:1046100080B582B08DF807009DF8072041F2004078
:10462000C4F201000821FCF7DBFD02B080BD0000F0
:1046300080B582B08DF807009DF8072041F2004058
:10464000C4F201001021FCF7CBFD02B080BD0000D8
:1046500080B582B008200BF0A9FF0090009818B92F
:10466000FFE70020019005E00099002048600098D5
:104670000190FFE7019802B080BD000080B586B0D0
:104680000490039104980290049820B9FFE7012058
:104690008DF817001FE008200BF088FF01900198AB
:1046A00020B9FFE701208DF8170014E0FFE702981A
:1046B000406820B1FFE7029840680290F7E703984E
:1046C000019908600199002048600199029A51609F
:1046D0008DF81700FFE79DF8170006B080BD0000B9
:1046E00080B582B0FFE741F21400C4F20200016815
:1046F00041F001010160006800F0010001900198A3
:10470000FFE70D20009005210022FCF75BFE0098DA
:10471000FCF74EFE02B080BD80B540F2C060C0F62E
:10472000010041F6D011C2F20001FBF707FF42F68B
:104730007301C2F20001087080BD000080B546F22E
:104740004530C0F6000040F2D462C0F601020021FC
:1047500008F0ACFA41F64C61C2F20001086080BD7D
:1047600080B592B00020119010900F900E90FFE74E
:1047700041F21800C4F20200016841F0100101602A
:10478000006800F010000D900D98FFE7FFE741F280
:104790001800C4F20200016841F0040101600068E1
:1047A00000F004000C900C98FFE7FFE741F21800BE
:1047B000C4F20200016841F020010160006800F0CD
:1047C00020000B900B98FFE7FFE741F21800C4F2BE
:1047D0000200016841F040010160006800F0400003
:1047E0000A900A98FFE741F20000C4F2010001902C
:1047F0003821009100220792FCF7F2FC079A40F65C
:104800000000C4F20100039010210291FCF7E8FCC3
:1048100041F20040C4F2010004901A2105910122E6
:104820000692FCF7DDFC009A019806990E920F9112
:1048300002210891109111910EA90991FCF70CFB2E
:104840000398DDF818C0079B089A0999CDF838C07D
:104850000F931092FCF700FBDDF808C00398069B4D
:10486000089A0999CDF838C00F9310921192FCF76D
:10487000F3FA0498079B089A09994FF40E6CCDF847
:1048800038C00F931092FCF7E7FA0498DDF818C0CF
:10489000079B089A0999DDF814E0CDF838E0CDF8C7
:1048A0003CC010931192FCF7D7FA069B079A089820
:1048B00009990E930F92109041F60000C4F2010086
:1048C000FCF7CAFA12B080BD42F2E011C2F2000158
:1048D00048F20000C4F201000860002048608860CF
:1048E000C86008614FF480404861062088617047C5
:1048F00080B582B042F26420C2F20000019043F21F
:104900000001C4F2010101604FF482714160002195
:104910008160C160016141614FF4007282610822CF
:10492000C2610162416281620A21C162FFF798F9A6
:1049300018B1FFE7FBF7FAFDFFE702B080BD00000A
:10494000FFE7FEE7FFE7FEE788B0079006910592D4
:10495000079800F0070004900498C0F107000528AC
:1049600003D3FFE70420019004E00498C0F107009E
:104970000190FFE70198039004980430062803D8BB
:10498000FFE70020009003E0049803380090FFE761
:104990000098029006980399012202FA01F1013968
:1049A0000840029B984005999A40013A11400843FB
:1049B00008B0704780B596B01590FFE7159800686D
:1049C000B0F844000004002840F17A83FFE715980E
:1049D0000068B0F84400ADF84C00BDF84C0000F0A1
:1049E0000F008DF847009DF84700002840F05981DE
:1049F000FFE7BDF84C00C006002846D4FFE7FFE7FC
:104A000015980068008848F60F710840ADF844001A
:104A1000BDF8440040F40040159909680880FFE79C
:104A200015982830149015980068B0F85000149923
:104A30000A7800EBC2021598006800EB4200B0F85B
:104A400004046FF39F20C86114994869CA6910442F
:104A5000486115980021FCF7D7FC159890F82400C0
:104A600090B1FFE71498806970B9FFE7159890F846
:104A7000240040F0800015990968A1F84C001599B0
:104A8000002081F82400FFE70AE1159800F5B470D2
:104A90001490159800680088ADF84A00BDF84A00E7
:104AA000000500282FD5FFE715980068B0F85000E2
:104AB00014990A7800EBC2021598006800EB4200D6
:104AC000B0F80C046FF39F20C8611599086801F5D0
:104AD0002C71149BDA889B8B04F0D0FCFFE71598AF
:104AE0000068008840F68F710840ADF84200BDF8BC
:104AF000420040F08000159909680880FFE715988A
:104B0000FDF752FCCBE0BDF84A000004002840F15C
:104B1000C580FFE7FFE715980068008840F68F71B1
:104B20000840ADF84000BDF8400040F08000159905
:104B300009680880FFE715980068B0F850001499DC
:104B40000A7800EBC2021598006800EB4200B0F84A
:104B50000C046FF39F20C8611498C069B0B1FFE7DF
:104B60001498406990B1FFE715980068149B596943
:104B7000DA889B8B04F082FC14994869CA69104456
:104B8000486115980021FCF753FCFFE71598006871
:104B90000088ADF84A00BDF84A00000500287CD422
:104BA000FFE7BDF84A0000F44050B0F5405F74D014
:104BB000FFE7FFE7159800680F9015980068B0F8B8
:104BC00050100F9808440F900F9800F20C400E9070
:104BD000FFE70E9908886FF39F20088014980069FA
:104BE0003F2818D3FFE7FFE71498006940090D90AC
:104BF0001498007CC00620B9FFE70D9801380D908D
:104C0000FFE70D9A0E99088840EA822040F40040A0
:104C10000880FFE720E01498006930B9FFE70E999B
:104C2000088840F40040088015E0FFE71498006908
:104C300040080D901498007CC00720B1FFE70D9844
:104C400001300D90FFE70D9A0E99088840EA822006
:104C50000880FFE7FFE7FFE7FFE7FFE7FFE71598BB
:104C6000006800884BF68F710840ADF83200BDF83F
:104C7000320080F48050ADF83200BDF8320080F48C
:104C80000050ADF83200BDF8320048F28001084310
:104C9000159909680880FFE7FFE7FFE7FFE7FFE7EF
:104CA0000CE2159800689DF8471030F82100ADF827
:104CB0004A00BDF84A000004002840F1E180FFE707
:104CC000FFE7159800689DF8471030F8210040F67E
:104CD0008F710840ADF83000BDF8300040F0800022
:104CE000159909689DF8472021F82200FFE71598DB
:104CF0009DF8471001EB810100EBC10000F5B47095
:104D000014901498007B08BBFFE715980068B0F872
:104D100050001499097800EBC1011598006800EB68
:104D20004100B0F80C046FF39F20ADF84E00BDF8C1
:104D30004E0050B1FFE715980068149A5169D28867
:104D4000BDF84E3004F09AFBFFE775E01498C07888
:104D5000022809D1FFE715981499BDF84A20FCF7FD
:104D6000DFFBADF84E0066E0FFE7FFE7159800684F
:104D70001499097830F8210048F68F710840ADF891
:104D80002E00BDF82E0048F2C001084315990968AD
:104D9000149A127821F82200FFE7FFE715980068BF
:104DA0001499097830F821004004002821D5FFE744
:104DB00015980068B0F850001499097800EBC1010B
:104DC0001598006800EB4100B0F804046FF39F20D1
:104DD000ADF84E00BDF84E0050B1FFE715980068E1
:104DE000149A51691289BDF84E3004F047FBFFE771
:104DF00020E015980068B0F850001499097800EB8D
:104E0000C1011598006800EB4100B0F80C046FF385
:104E10009F20ADF84E00BDF84E0050B1FFE7159849
:104E20000068149A51695289BDF84E3004F026FB8F
:104E3000FFE7FFE7FFE7FFE7BDF84E201499C869D9
:104E40001044C861BDF84E20149948691044486167
:104E50001498806938B1FFE7BDF84E0014990969CC
:104E6000884206D2FFE7159814990978FCF7E0FA12
:104E700005E015980068149903F0E2FBFFE7FFE7EF
:104E8000BDF84A000006002840F11781FFE7159899
:104E90009DF8471001EB810100EBC1002830149010
:104EA000FFE7159800689DF8471030F8210048F694
:104EB0000F710840ADF82C00BDF82C0040F4004004
:104EC000159909689DF8472021F82200FFE71498FA
:104ED000C078012840F0A180FFE714990020886184
:104EE0001498007B002800F09280FFE7BDF84A008C
:104EF0004006002846D5FFE7FFE71498407808BB36
:104F0000FFE7FFE7159800680A9015980068B0F869
:104F100050100A9808440A900A981499097800EBEE
:104F2000011000F204400990FFE7099908886FF327
:104F30009F2008800999088840F400400880FFE716
:104F4000FFE71DE014984078012818D1FFE7FFE73C
:104F500015980068079015980068B0F850100798E9
:104F60000844079007981499097800EB011000F2A3
:104F700004400690069900200880FFE7FFE7FFE75E
:104F8000FFE743E0FFE71598006805901498407824
:104F900008BBFFE7FFE715980068039015980068C5
:104FA000B0F85010039808440390039814990978B6
:104FB00000EB011000F20C400290FFE70299088814
:104FC0006FF39F2008800299088840F40040088011
:104FD000FFE7FFE718E014984078012813D1FFE7B6
:104FE00015980068B0F85010059808440590059889
:104FF0001499097800EB011000F20C400490049918
:1050000000200880FFE7FFE7FFE7FFE7FFE71598CD
:1050100014990978FCF7F8F94EE0BDF84A00C0058C
:10502000002841D4FFE715980068B0F850001499A3
:10503000097800EBC1011598006800EB4100B0F859
:1050400004046FF39F20ADF8480014988069BDF800
:105050004810884207D9FFE7BDF8482014998869AD
:10506000801A886103E0149900208861FFE7149892
:10507000806930B9FFE7159814990978FCF7C4F9ED
:1050800011E0BDF848201499486910444861BDF802
:1050900048201499C8691044C8611598006814998B
:1050A00003F0CEFAFFE706E015981499BDF84A2000
:1050B000FCF734FBFFE7FFE7FFE7FFE7FFF77EBC06
:1050C000002016B080BD00000000000000000000BD
:1050D000EFF30980BFF36F8F0D4B1A6820E9F00FD3
:1050E00010602DE908404FF0500080F3118809F05E
:1050F000E1FD4FF0000080F31188BDE80840196819
:105100000868B0E8F00F80F30988BFF36F8F70472D
:10511000F823002082B00190019840F20C01C2F205
:1051200000010968C90844F6D352C1F26202A1FB2A
:105130000221890948430090FFE700BFFFE700987C
:10514000411E00910028F8D1FFE702B0704700002F
:1051500083B0029001910020009001990968029AA1
:10516000516201994968029A9162019A9168D2F854
:105170000CC01369526941EA0C0119430A430099B2
:10518000114300910299C96A21F0F701009A114375
:10519000029AD16203B0704781B000900098006914
:1051A000C0B201B07047000081B000900098006864
:1051B00000F0030001B0704783B0029001910298A3
:1051C00001990844143000900098006803B07047BB
:1051D000B0B588B00E9CDDF834E0DDF830C007943F
:1051E000CDF818E0CDF814C0049303920291019019
:1051F000002000900299DDF80CC0049B059A41EA5A
:105200000C0119431143069A1143079A0A43009966
:10521000114300910199496847F6FF629143009A52
:105220001143019A516008B0B0BD000081B00090F8
:10523000009903200860002001B0704781B0009001
:105240000098D0F8800001B07047000083B0029051
:1052500001910020009001990968029A9160019AD9
:105260005168D2F808C0D368126941EA0C011943A9
:105270000A430099114300910299C96840F6FF72F0
:105280009143009A1143029AD16003B07047000025
:1052900082B001900091009800680199C1F88000E7
:1052A000002002B07047000080B58AB009900891D4
:1052B000089803903720019004904020059000202A
:1052C00006904FF480600790099803A9FFF7BEFF8E
:1052D0000199099841F2883200F0C0F902900298D1
:1052E0000AB080BD80B588B007900691069800216D
:1052F000C8F2100108430190292002904020039039
:10530000002004904FF480600590079801A9FFF7F2
:105310009DFF079800F01AFB0090009808B080BD30
:1053200080B58AB0099008910898039010200190E8
:10533000049040200590002006904FF48060079074
:10534000099803A9FFF782FF0199099841F2883271
:1053500000F084F9029002980AB080BD80B588B050
:105360000790002002900390049005904FF4806015
:105370000690079802A9FFF769FF079800F040F927
:105380000190019808B080BD80B588B007904FF4B7
:10539000D5700290082003904020049000200590D2
:1053A0004FF480600690079802A9FFF74FFF079817
:1053B00000F0A0FB0190019808B080BD80B58AB0D4
:1053C00009900891089803901220019004904020C1
:1053D0000590002006904FF480600790099803A97B
:1053E000FFF734FF0199099841F2883200F036F94D
:1053F000029002980AB080BD80B58AB009900891E9
:1054000008980390112001900490402005900020FE
:1054100006904FF480600790099803A9FFF716FFE4
:105420000199099841F2883200F018F90290029827
:105430000AB080BD80B58CB00B9009930892089893
:1054400003900720019004904020059000200690D2
:105450004FF4806007900B9803A9FFF7F7FE0199BE
:105460000B9841F2883200F0F9F8029002980CB0E3
:1054700080BD000080B588B0079000200290022116
:105480000391C021049105904FF480600690079825
:1054900002A9FFF7DBFE079800F004FA01900198DB
:1054A00008B080BD80B588B007900691069801903D
:1054B00009200290C0200390002004904FF48060E7
:1054C0000590079801A9FFF7C1FE079800F0EAF9D7
:1054D0000090009808B080BD80B58AB0099008910E
:1054E000089803900D200190049040200590002022
:1054F00006904FF480600790099803A9FFF7A6FE75
:105500000199099841F2883200F0A8F802900298B7
:105510000AB080BD80B58AB0099008910020039040
:105520000321019104914021059106904FF4806080
:105530000790099803A9FFF789FE01990998089A2D
:1055400000F04EFA029002980AB080BD80B588B093
:105550000790002002900C210091039140210491BA
:1055600005904FF480600690079802A9FFF76EFE41
:10557000009907984EF20012C0F2F55200F06EF852
:105580000190019808B080BD80B58AB0099008915B
:105590000898039019200190049040200590002065
:1055A00006904FF480600790099803A9FFF74EFE1C
:1055B0000199099841F2883200F050F8029002985F
:1055C0000AB080BD80B58AB0099008910898039010
:1055D00018200190049040200590002006904FF480
:1055E00080600790099803A9FFF730FE0199099898
:1055F00041F2883200F032F8029002980AB080BD81
:1056000083B0019040F20C00C2F200000068C008B4
:1056100044F6D351C1F26201A0FB0110800941F2AE
:10562000883148430090FFE70098411E009120B95F
:10563000FFE74FF0004002900CE0FFE70198406B5D
:1056400000060028F0D5FFE70199C52088630020F7
:105650000290FFE7029803B07047000080B588B061
:1056600006908DF817100492049840F20C01C2F2D3
:1056700000010968C90844F6D352C1F26202A1FBD5
:105680000221890948430190FFE70198411E0191D9
:1056900020B9FFE74FF000400790FFE00698406B0D
:1056A0000290FFE701209DF8081011F0450F0090CF
:1056B00006D0FFE79DF80900C0F3C0000090FFE7A7
:1056C0000098C0070028E0D1FFE70698406B40072C
:1056D000002805D5FFE70699042088630790DDE0E0
:1056E0000698406BC00728B1FFE706990120886340
:1056F0000790D3E0FFE7FFE70699C5208863069887
:10570000FFF74AFD9DF81710884203D0FFE70120FC
:105710000790C3E006980021FFF74EFD0390039821
:105720004EF20801CFF6FF51084203D1FFE70020F7
:105730000790B3E09DF80F000006002804D5FFE7AE
:105740004FF000700790A9E09DF80F004006002878
:1057500003D5FFE740200790A0E09DF80F008006EA
:10576000002803D5FFE78020079097E09DF80F0001
:10577000C006002804D5FFE74FF4807007908DE045
:105780009DF80F000007002804D5FFE74FF40070D4
:10579000079083E09DF80F004007002804D5FFE73D
:1057A0004FF48060079079E09DF80F00C00720B1AA
:1057B000FFE74FF40060079070E09DF80E000006D0
:1057C000002804D5FFE74FF48050079066E09DF86D
:1057D0000E004006002804D5FFE74FF40050079064
:1057E0005CE09DF80E008006002804D5FFE74FF42A
:1057F0008040079052E09DF80E00C006002804D5B6
:10580000FFE74FF40040079048E09DF80E00400786
:10581000002804D5FFE74FF4003007903EE09DF8E4
:105820000E008007002804D5FFE74FF48020079082
:1058300034E09DF80E00C00720B1FFE74FF40020D0
:1058400007902BE09DF80D000006002804D5FFE727
:105850004FF48010079021E09DF80D0040060028CD
:1058600004D5FFE74FF40010079017E09DF80D00F6
:105870008006002804D5FFE74FF4800007900DE074
:105880009DF80C000007002804D5FFE74FF4000046
:10589000079003E04FF480300790FFE7079808B0C7
:1058A00080BD000085B0039040F20C00C2F2000001
:1058B0000068C00844F6D351C1F26201A0FB011098
:1058C000800941F2883148430190FFE70198411E69
:1058D000019120B9FFE74FF00040049033E00398B6
:1058E000406B0290FFE701209DF8081011F0450F72
:1058F000009006D0FFE79DF80900C0F3C0000090BB
:10590000FFE70098C0070028E0D1FFE70398406B4D
:105910004007002805D5FFE7039904208863049019
:1059200011E00398406BC00728B1FFE703990120FD
:105930008863049007E00399C5208863FFE7FFE7C9
:1059400000200490FFE7049805B0704785B00390ED
:1059500040F20C00C2F200000068C00844F6D351C7
:10596000C1F26201A0FB0110800941F28831484375
:105970000190FFE70198411E019120B9FFE74FF028
:105980000040049028E00398406B0290FFE701205C
:105990009DF8081011F0450F009006D0FFE79DF824
:1059A0000900C0F3C0000090FFE70098C00700287E
:1059B000E0D1FFE70398406B4007002805D5FFE7DB
:1059C000039904208863049006E00399C520886346
:1059D000FFE700200490FFE7049805B0704700003F
:1059E00080B588B006908DF81710049240F20C0034
:1059F000C2F200000068C00844F6D351C1F262014F
:105A0000A0FB0110800941F2883148430190FFE773
:105A10000198411E019120B9FFE74FF00040079027
:105A200065E00698406B0290FFE701209DF80810A2
:105A300011F0450F009006D0FFE79DF80900C0F374
:105A4000C0000090FFE70098C0070028E0D1FFE702
:105A50000698406B4007002805D5FFE7069904200B
:105A60008863079043E00698406BC00728B1FFE7C2
:105A7000069901208863079039E0FFE7FFE7069861
:105A8000FFF78AFB9DF81710884203D0FFE701203B
:105A900007902CE00699C520886306980021FFF73F
:105AA0008BFB03909DF80D0010F0E00F07D1FFE78E
:105AB000BDF80E00049908800020079017E09DF8BB
:105AC0000D004006002804D5FFE74FF40050079072
:105AD0000DE09DF80D000006002804D5FFE74FF407
