:020000040800F2
:10000000103B002045010008CD2B0008B925000851
:10001000C92B000859020008A5390008000000009B
:10002000000000000000000000000000212F000878
:10003000C102000800000000412C0008AD37000894
:100040005F0100085F0100085F0100085F01000810
:100050005F0100085F0100085F0100085F01000800
:100060005F0100085F0100085F0100085F010008F0
:100070005F0100085D0200085F0100085F010008E1
:100080005F0100085F0100085F0100085F010008D0
:100090005F0100085F0100085F0100085F010008C0
:1000A0005F0100085F0100085F0100085F010008B0
:1000B0005F0100085F0100085F0100085F010008A0
:1000C0005F0100085F0100085F0100085F01000890
:1000D0005F0100085F0100085F0100085F01000880
:1000E0005F0100085F0100085F0100085F01000870
:1000F000553800085F0100085F0100085F01000833
:100100005F0100085F0100085F0100085F0100084F
:100110005F0100085F0100085F0100085F0100083F
:100120005F0100085F0100085F0100085F0100082F
:10013000DFF80CD000F052F800480047313F0008CB
:10014000103B00200648804706480047FEE7FEE7D0
:10015000FEE7FEE7FEE7FEE7FEE7FEE7FEE7FEE777
:10016000513800083101000840EA01039B0703D021
:1001700009E008C9121F08C0042AFAD203E011F8E6
:10018000013B00F8013B521EF9D27047D2B201E0A8
:1001900000F8012B491EFBD270470022F6E710B58C
:1001A00013460A4604461946FFF7F0FF204610BDE5
:1001B000421C10F8011B0029FBD1801A704710B5B2
:1001C000002200E0521C835C8C5CA34201D1002B16
:1001D000F8D1D8B2E1B2401A10BD0000064C074D6C
:1001E00006E0E06840F0010394E807009847103407
:1001F000AC42F6D3FFF7A0FF406C0008606C00082B
:1002000070B58C1810F8015B15F0070301D110F8D8
:10021000013B2A1106D110F8012B03E010F8016B05
:1002200001F8016B5B1EF9D12B0705D40023521E88
:100230000DD401F8013BFAE710F8013BCB1A921CF0
:1002400003E013F8015B01F8015B521EF9D5A142EE
:10025000D8D3002070BD0000FFE7FEE780B502F0B4
:1002600013FB41F20C70C2F2000000F06DF880BD8B
:1002700084B003900291019200930398C16B026CC9
:1002800001209040486000980399096848600398ED
:100290004068102809D1FFE7019803990968886030
:1002A000029803990968C86008E0029803990968F0
:1002B0008860019803990968C860FFE704B0704737
:1002C0007047000080B500F023F800F001F880BD11
:1002D00080B540F23400C2F2000003F025FC40F289
:1002E0000C00C2F2000003F01FFC40F29400C2F2C6
:1002F000000003F019FC40F25400C2F2000003F0C9
:1003000013FC40F27400C2F2000003F00DFC80BD4B
:1003100080B540F2B800C2F2000003F065FC40F284
:10032000E050C2F2000003F05FFC40F60830C2F279
:10033000000003F059FC80BD81B0EFF3108072B66D
:100340000090FFE7FEE7000080B5ACB02B902B9843
:10035000C06B00682A902B980068006829902A9842
:100360002B99096CC8404007002840F17581FFE7D0
:100370009DF8A4004007002840F16E81FFE72B980C
:10038000006800688006002807D4FFE72B98016802
:10039000086820F004000860FFE72B9800688121BE
:1003A000C4F202018842C0F0A880FFE72B980068E1
:1003B0000821C4F20201884203D1FFE704202890FB
:1003C00094E02B9800681C21C4F20201884203D1FA
:1003D000FFE74020279086E02B9800683021C4F288
:1003E0000201884204D1FFE74FF48060269077E055
:1003F0002B9800684421C4F20201884204D1FFE72F
:100400004FF48040259068E02B9800685821C4F292
:100410000201884204D1FFE74FF48020249059E084
:100420002B9800686C21C4F20201884204D1FFE7D6
:100430004FF4800023904AE02B9800688021C4F29A
:100440000201884204D1FFE74FF0806022903BE038
:100450002B98006840F20841C4F20201884203D19F
:10046000FFE7042021902CE02B98006840F21C410B
:10047000C4F20201884203D1FFE7402020901DE032
:100480002B98006840F23041C4F20201884204D146
:10049000FFE74FF480601F900DE02B98016840F259
:1004A0004442C4F202024FF48020914208BF4FF44C
:1004B00080401F90FFE71F982090FFE72098219031
:1004C000FFE721982290FFE722982390FFE72398E7
:1004D0002490FFE724982590FFE725982690FFE7D2
:1004E00026982790FFE727982890FFE7289840F262
:1004F0000441C4F202010860A5E02B9800680821BD
:10050000C4F20201884203D1FFE704201E9094E068
:100510002B9800681C21C4F20201884203D1FFE736
:1005200040201D9086E02B9800683021C4F2020123
:10053000884204D1FFE74FF480601C9077E02B984D
:1005400000684421C4F20201884204D1FFE74FF45D
:1005500080401B9068E02B9800685821C4F202018B
:10056000884204D1FFE74FF480201A9059E02B987D
:1005700000686C21C4F20201884204D1FFE74FF405
:10058000800019904AE02B9800688021C4F2020193
:10059000884204D1FFE74FF0806018903BE02B9831
:1005A000006840F20841C4F20201884203D1FFE72B
:1005B000042017902CE02B98006840F21C41C4F2F4
:1005C0000201884203D1FFE7402016901DE02B98DE
:1005D000006840F23041C4F20201884204D1FFE7D2
:1005E0004FF4806015900DE02B98016840F2444272
:1005F000C4F202024FF48020914208BF4FF48040C1
:100600001590FFE715981690FFE716981790FFE7EB
:1006100017981890FFE718981990FFE719981A9003
:10062000FFE71A981B90FFE71B981C90FFE71C98A8
:100630001D90FFE71D981E90FFE71E980421C4F24D
:1006400002010860FFE72B98C06A20B1FFE72B98F2
:10065000C16A8847FFE7B7E12A982B99096CC8401F
:100660008007002840F17F81FFE79DF8A400800704
:10067000002840F17881FFE72B9800680068800629
:1006800000280BD4FFE72B980168086820F00A00C7
:1006900008602B99012081F82100FFE72B98006862
:1006A0008121C4F202018842C0F0A880FFE72B98A4
:1006B00000680821C4F20201884203D1FFE702204A
:1006C000149094E02B9800681C21C4F20201884227
:1006D00003D1FFE72020139086E02B98006830219B
:1006E000C4F20201884204D1FFE74FF40070129077
:1006F00077E02B9800684421C4F20201884204D1BB
:10070000FFE74FF40050119068E02B9800685821E3
:10071000C4F20201884204D1FFE74FF40030109088
:1007200059E02B9800686C21C4F20201884204D180
:10073000FFE74FF400100F904AE02B9800688021EB
:10074000C4F20201884204D1FFE74FF000700E901E
:100750003BE02B98006840F20841C4F20201884255
:1007600003D1FFE702200D902CE02B98006840F2A7
:100770001C41C4F20201884203D1FFE720200C9003
:100780001DE02B98006840F23041C4F2020188421B
:1007900004D1FFE74FF400700B900DE02B98016837
:1007A00040F24442C4F202024FF40030914208BFCA
:1007B0004FF400500B90FFE70B980C90FFE70C985C
:1007C0000D90FFE70D980E90FFE70E980F90FFE752
:1007D0000F981090FFE710981190FFE71198129072
:1007E000FFE712981390FFE713981490FFE714980F
:1007F00040F20441C4F202010860A5E02B980068B1
:100800000821C4F20201884203D1FFE702200A90C6
:1008100094E02B9800681C21C4F20201884203D1A5
:10082000FFE72020099086E02B9800683021C4F271
:100830000201884204D1FFE74FF40070089077E08E
:100840002B9800684421C4F20201884204D1FFE7DA
:100850004FF40050079068E02B9800685821C4F2CC
:100860000201884204D1FFE74FF40030069059E0BE
:100870002B9800686C21C4F20201884204D1FFE782
:100880004FF4001005904AE02B9800688021C4F2D4
:100890000201884204D1FFE74FF0007004903BE072
:1008A0002B98006840F20841C4F20201884203D14B
:1008B000FFE7022003902CE02B98006840F21C41D7
:1008C000C4F20201884203D1FFE7202002901DE01C
:1008D0002B98006840F23041C4F20201884204D1F2
:1008E000FFE74FF4007001900DE02B98016840F293
:1008F0004442C4F202024FF40030914208BF4FF468
:1009000000500190FFE701980290FFE702980390E2
:10091000FFE703980490FFE704980590FFE7059828
:100920000690FFE706980790FFE707980890FFE713
:1009300008980990FFE709980A90FFE70A980421B0
:10094000C4F202010860FFE7FFE72B99002081F85D
:100950002000FFE72B98806A20B1FFE72B98816A7F
:100960008847FFE72FE02A982B99096CC8400007B9
:10097000002827D5FFE79DF8A4000007002821D50F
:10098000FFE72B980168086820F00E0008602B989C
:10099000C26B016C012000FA01F151602B99886350
:1009A0002B9981F82100FFE72B99002081F8200086
:1009B000FFE72B98006B20B1FFE72B98016B88476E
:1009C000FFE7FFE7FFE7FFE72CB080BD83B00190B2
:1009D00000200090019820B9FFE701208DF80B005E
:1009E0006AE00198006840F20741C4F202018842BF
:1009F00018D8FFE7019908684FF6F872CBF6FD7238
:100A000010444CF6CD42CCF6CC42A0FB02026FF073
:100A1000030000EA9200086401990020C4F2020079
:100A2000C86318E0019908684FF6F832CBF6FD72FA
:100A300010444CF6CD42CCF6CC42A0FB02026FF043
:100A4000030000EA92000864019940F20040C4F2F9
:100A50000200C863FFE70199022081F82100019894
:100A6000006800680090009843F6F0718843009099
:100A700001994868D1F808C0CB680A6940EA0C00BF
:100A8000184310434A6910438A691043C9690143F6
:100A9000009808430090009801990968086001993E
:100AA00000208863019A012182F82110019981F8C0
:100AB00020008DF80B00FFE79DF80B0003B0704796
:100AC00080B586B0049003910292019300208DF8C6
:100AD0000300FFE7049890F82000012804D1FFE705
:100AE00002208DF817004CE00499012081F82000C5
:100AF000FFE7FFE7049890F82100012832D1FFE7D3
:100B00000499022081F82100049900208863049848
:100B10000168086820F00100086004980399029AAF
:100B2000019BFFF7A5FB0498C06A38B1FFE7049862
:100B30000168086840F00E0008600CE00498016845
:100B4000086820F00400086004980168086840F014
:100B50000A000860FFE704980168086840F0010097
:100B6000086009E0FFE70499002081F82000FFE712
:100B700002208DF80300FFE79DF803008DF81700B1
:100B8000FFE79DF8170006B080BD000080B584B077
:100B9000039000F0F9F90290039801900198013058
:100BA00048B1FFE741F22E00C2F20000017801983F
:100BB00008440190FFE7FFE700F0E6F90299401AC8
:100BC0000199884201D2FFE7F6E704B080BD00003A
:100BD00092B01190109100200F900B90FFE71098A9
:100BE00000680F99C840002800F09B81FFE70F992B
:100BF000012088400E90109800680E9908400D90D2
:100C00000D980E99884240F08881FFE7109840685F
:100C10000790002851D0FFE7079801283AD0FFE756
:100C2000079802283FD0FFE7079803285FD0FFE727
:100C30000798112832D0FFE70798122838D0FFE72D
:100C400007980021C1F21101884236D0FFE70798CA
:100C50000021C1F2120188422FD0FFE7079800213E
:100C6000C1F22101884228D0FFE707980021C1F294
:100C70002201884221D0FFE707980021C1F231010B
:100C800088421AD0FFE707980021C1F2320188425A
:100C900013D02FE01098C0680B902CE01098C0681B
:100CA00004300B9027E01098C06808300B9022E0C9
:100CB0001098C0680C300B901DE01098806818B92F
:100CC000FFE704200B9011E010988068012806D1FE
:100CD000FFE708200B900E981199086105E00820A5
:100CE0000B900E9811994861FFE7FFE703E00020A1
:100CF0000B9000E0FFE70D98FF2803D8FFE711985D
:100D0000069003E0119804300690FFE706980A90D9
:100D10000D98FF2804D8FFE70F988000059006E0A3
:100D20000F996FF01F0000EB81000590FFE7059819
:100D300009900A980068099A0F21914088430B99FD
:100D4000914008430A9908601098C079C0060028AD
:100D500040F1E280FFE7FFE741F21800C4F2020031
:100D6000016841F001010160006800F00100089095
:100D70000898FFE70F9820F003000821C4F2010152
:100D800040580C900F9800F0030081000F2000FAEB
:100D900001F10C9888430C90119840F60001C4F2C0
:100DA0000101884203D1FFE70020049042E011983E
:100DB00040F60041C4F20101884203D1FFE701205F
:100DC000039034E0119841F20001C4F2010188421D
:100DD00003D1FFE70220029026E0119841F2004182
:100DE000C4F20101884203D1FFE70320019018E01B
:100DF000119841F60001C4F20101884203D1FFE7D6
:100E0000042000900AE0119941F60042C4F2010268
:100E10000620914208BF05200090FFE7009801904E
:100E2000FFE701980290FFE702980390FFE703981D
:100E30000490FFE704980F9901F00301890000FA7C
:100E400001F10C9808430C900C980F9921F00301C4
:100E50000822C4F20102885010988079C006002848
:100E600009D5FFE70D9A40F20841C4F20101086874
:100E70001043086008E00D9A40F20841C4F20101F5
:100E8000086890430860FFE7109880798006002882
:100E900009D5FFE70D9A40F20C41C4F20101086840
:100EA0001043086008E00D9A40F20C41C4F20101C1
:100EB000086890430860FFE7109880798007002851
:100EC00009D5FFE70D9A40F20441C4F20101086818
:100ED0001043086008E00D9A40F20441C4F2010199
:100EE000086890430860FFE710988079C00748B110
:100EF000FFE70D9A40F20041C4F201010868104377
:100F0000086008E00D9A40F20041C4F2010108684F
:100F100090430860FFE7FFE7FFE70F9801300F906D
:100F20005DE612B07047000082B00190ADF802108B
:100F300001988068BDF80210084204D0FFE7012044
:100F40008DF8010003E000208DF80100FFE79DF817
:100F5000010002B07047000082B00190ADF80210AD
:100F60008DF801209DF8010028B1FFE7BDF80200CF
:100F70000199086105E0BDF80200000401990861CB
:100F8000FFE702B07047000043F2F030C2F2000009
:100F90000068704741F22E00C2F20000027843F26E
:100FA000F031C2F200010868104408607047000088
:100FB00080B542F20001C4F20201086840F010005E
:100FC0000860032000F0D4F80F2000F005F800F0CE
:100FD00071F8002080BD000080B58CB00B9000201F
:100FE000059004908DF80B00FFE741F21800C4F261
:100FF0000200016841F400510160006800F40050F3
:1010000001900198FFE706A803A900F0E5F900F0B8
:1010100013FA059005984DF68361C4F21B31A0FBCD
:1010200001014FF0FF3000EB9140049041F2A870B5
:10103000C2F2000043F20041C4F20101016040F23B
:10104000E731C160049941600021016181608161E3
:1010500001F096F88DF80B009DF80B0028BBFFE718
:1010600041F2A870C2F2000001F0DCF88DF80B002C
:101070009DF80B00C0B9FFE72C2000F055F80B9845
:101080000F280CD8FFE70B992C20002200F056F80F
:101090000B9841F23001C2F20001086003E0012028
:1010A0008DF80B00FFE7FFE7FFE79DF80B000CB0A2
:1010B00080BD000080B584B0FFE741F21800C4F2A3
:1010C0000200016841F001010160006800F00100C8
:1010D00003900398FFE7FFE741F21C00C4F202000F
:1010E000016841F080510160006800F0805002907A
:1010F0000298FFE76FF001000F21002200F01EF8B8
:10110000FFE70421C4F2010108680190019820F072
:10111000E0600190019840F0007001900198086033
:10112000FFE704B080BD000080B582B08DF80700F5
:101130009DF9070002F070FC02B080BD80B586B05A
:101140008DF81700049103920020029002F07CFCBD
:1011500002909DF91700019002980499039A01F0FA
:1011600037FD0146019802F077FC06B080BD000013
:1011700080B582B00190019802F090FC02B080BD71
:1011800080B584B002900191029820B9FFE7012058
:101190008DF80F001BE1019842F20001C4F2020138
:1011A000096801F00701884216D9FFE742F2000002
:1011B000C4F20200016821F00701019A11430160A5
:1011C000006800F007000199884204D0FFE7012081
:1011D0008DF80F00FBE0FFE70298007880070028F9
:1011E0002AD5FFE7029800784007002809D5FFE7D5
:1011F00041F20401C4F20201086840F4E0600860B2
:10120000FFE7029800780007002809D5FFE741F2C0
:101210000401C4F20201086840F460500860FFE76E
:1012200041F20401C4F20201086820F0F000029AC1
:10123000926810430860FFE702980078C007002812
:1012400060D0FFE70298406801280ED1FFE741F225
:101250000000C4F2020000688003002804D4FFE705
:1012600001208DF80F00B2E021E0029840680228CA
:101270000ED1FFE741F20000C4F2020000688001D5
:10128000002804D4FFE701208DF80F009FE00DE057
:1012900041F20000C4F2020000688007002804D474
:1012A000FFE701208DF80F0091E0FFE7FFE741F233
:1012B0000401C4F20201086820F00300029A526897
:1012C00010430860FFF760FE0090FFE741F2040062
:1012D000C4F20200006800F00C0002994968B0EB0B
:1012E000810F0ED0FFE7FFF74FFE0099401A41F241
:1012F0008931884204D3FFE703208DF80F0066E0B0
:10130000E4E7FFE7019842F20001C4F20201096834
:1013100001F00701884216D2FFE742F20000C4F252
:101320000200016821F00701019A11430160006881
:1013300000F007000199884204D0FFE701208DF8F2
:101340000F0044E0FFE702980078400700280CD522
:10135000FFE741F20401C4F20201086820F4E060F2
:10136000029AD26810430860FFE7029800780007ED
:1013700000280DD5FFE741F20401C4F2020108681C
:1013800020F46050029A126940EAC2000860FFE748
:1013900000F064F841F20401C4F202010968C9B224
:1013A0000A0946F65431C0F60001895CC84040F293
:1013B0000801C2F20001086041F23000C2F20000F0
:1013C0000068FFF709FE00208DF80F00FFE79DF889
:1013D0000F0004B080BD000082B00190009101991F
:1013E0000F20086041F20400C4F20200016801F01D
:1013F0000301019A5160016801F0F001019A9160C6
:10140000016801F4E061019AD160006800F4605065
:10141000C0080199086142F20000C4F202000068AD
:1014200000F007000099086002B0704740F2080021
:10143000C2F200000068704780B5FFF7F7FF41F285
:101440000401C4F202010968C1F3C22246F6643104
:10145000C0F60001895CC84080BD000086B0002055
:101460000590049003900290019041F20400C4F2B0
:10147000020000680590059800F00C0001460091FC
:1014800000283FD0FFE70098042804D0FFE7009829
:10149000082806D037E041F20020C0F27A0001901F
:1014A00037E00598C0F3834146F66C30C0F6000083
:1014B000405C02909DF81600C007C0B1FFE741F202
:1014C0000400C4F202000068C0F3404146F67C30DC
:1014D000C0F60000405C0490029841F20021C0F286
:1014E0007A0148430499B0FBF1F0039007E00298B9
:1014F00040F60011C0F23D0148430390FFE7039816
:10150000019006E0FFE741F20020C0F27A0001906E
:10151000FFE7019806B0704780B586B00490049844
:1015200020B9FFE701208DF817002EE3049800781A
:10153000C007002800F0AE80FFE741F20400C4F2CB
:101540000200006800F00C00042813D0FFE741F20D
:101550000400C4F20200006800F00C0008281BD14F
:10156000FFE741F20400C4F202000068C003002853
:1015700012D5FFE741F20000C4F2020000688003C8
:10158000002808D5FFE70498406820B9FFE701204C
:101590008DF81700F9E27CE0FFE704984068B0F5A9
:1015A000803F09D1FFE741F20001C4F2020108685F
:1015B00040F48030086032E00498406868B9FFE782
:1015C00041F20001C4F20201086820F48030086092
:1015D000086820F48020086020E004984068B0F596
:1015E000A02F0DD1FFE741F20001C4F2020108680B
:1015F00040F480200860086840F4803008600CE007
:1016000041F20001C4F20201086820F48030086051
:10161000086820F480200860FFE7FFE7FFE7FFE7A6
:1016200004984068D0B1FFE7FFF7AEFC0390FFE7F6
:1016300041F20000C4F202000068800300280CD4CC
:10164000FFE7FFF7A1FC0399401A652804D3FFE7E1
:1016500003208DF8170098E2EAE719E0FFF794FC01
:101660000390FFE741F20000C4F20200006880032B
:1016700000280CD5FFE7FFF787FC0399401A65287F
:1016800004D3FFE703208DF817007EE2EAE7FFE7C7
:10169000FFE7FFE7049800788007002840F18D807D
:1016A000FFE741F20400C4F20200006810F00C0FE2
:1016B00013D0FFE741F20400C4F20200006800F01A
:1016C0000C00082829D1FFE741F20400C4F202000F
:1016D0000068C003002820D4FFE741F20000C4F2F4
:1016E000020000688007002809D5FFE70498006918
:1016F000012804D0FFE701208DF8170045E241F2F0
:101700000001C4F20201086820F0F800049A52694E
:1017100040EAC2000860FFE74EE00498006958B351
:10172000FFE70021C4F2422101200860FFF72CFCF2
:101730000390FFE741F20000C4F202000068800756
:1017400000280CD4FFE7FFF71FFC0399401A032879
:1017500004D3FFE703208DF8170016E2EAE741F211
:101760000001C4F20201086820F0F800049A5269EE
:1017700040EAC20008601EE00021C4F242210020BD
:101780000860FFF701FC0390FFE741F20000C4F29C
:1017900002000068800700280CD5FFE7FFF7F4FB84
:1017A0000399401A032804D3FFE703208DF817009C
:1017B000EBE1EAE7FFE7FFE7FFE7049800780007BF
:1017C000002848D5FFE70498806918B3FFE740F286
:1017D0008041C4F2422101200860FFF7D5FB03904D
:1017E000FFE741F22400C4F20200006880070028ED
:1017F0000CD4FFE7FFF7C8FB0399401A032804D372
:10180000FFE703208DF81700BFE1EAE7012001F0B0
:1018100039FA1FE040F28041C4F242210020086002
:10182000FFF7B2FB0390FFE741F22400C4F202008D
:101830000068800700280CD5FFE7FFF7A5FB039998
:10184000401A032804D3FFE703208DF817009CE11A
:10185000EAE7FFE7FFE7049800784007002840F137
:10186000D880FFE700208DF8070041F21C00C4F289
:1018700002000068C000002813D4FFE7FFE741F230
:101880001C00C4F20200016841F080510160006850
:1018900000F0805000900098FFE701208DF80700CD
:1018A000FFE747F20000C4F200000068C00500280E
:1018B00022D4FFE747F20001C4F20001086840F4B7
:1018C00080700860FFF760FB0390FFE747F20000BD
:1018D000C4F200000068C00500280CD4FFE7FFF741
:1018E00053FB0399401A652804D3FFE703208DF8C2
:1018F00017004AE1EAE7FFE7FFE70498C06801281C
:1019000009D1FFE741F22001C4F20201086840F06A
:101910000100086031E00498C06868B9FFE741F24F
:101920002001C4F20201086820F001000860086884
:1019300020F0040008601FE00498C06805280DD15D
:10194000FFE741F22001C4F20201086840F0040000
:101950000860086840F0010008600CE041F22001D6
:10196000C4F20201086820F001000860086820F055
:1019700004000860FFE7FFE7FFE7FFE70498C0689F
:10198000E0B1FFE7FFF700FB0390FFE741F2200023
:10199000C4F202000068800700280ED4FFE7FFF7BA
:1019A000F3FA0399401A41F28931884204D3FFE7E0
:1019B00003208DF81700E8E0E8E71BE0FFF7E4FA02
:1019C0000390FFE741F22000C4F2020000688007A4
:1019D00000280ED5FFE7FFF7D7FA0399401A41F226
:1019E0008931884204D3FFE703208DF81700CCE04B
:1019F000E8E7FFE79DF80700012809D1FFE741F27A
:101A00001C01C4F20201086820F080500860FFE762
:101A1000FFE70498C069002800F0B380FFE741F2B7
:101A20000400C4F20200006800F00C00082800F076
:101A30008280FFE70498C06902285CD1FFE760213B
:101A4000C4F2422100200860FFF79EFA0390FFE7EE
:101A500041F20000C4F202000068800100280CD5A9
:101A6000FFE7FFF791FA0399401A032804D3FFE731
:101A700003208DF8170088E0EAE70498006AB0F5C3
:101A8000803F0CD1FFE741F20401C4F20201086873
:101A900020F40030049A926810430860FFE741F296
:101AA0000401C4F20201086820F47410049B1A6A4D
:101AB0005B6A1A43104308606021C4F2422101208E
:101AC0000860FFF761FA0390FFE741F20000C4F2FB
:101AD00002000068800100280CD4FFE7FFF754FAE9
:101AE0000399401A032804D3FFE703208DF8170059
:101AF0004BE0EAE71EE06021C4F2422100200860CA
:101B0000FFF742FA0390FFE741F20000C4F202003F
:101B10000068800100280CD5FFE7FFF735FA03992C
:101B2000401A032804D3FFE703208DF817002CE0A8
:101B3000EAE7FFE724E00498C069012804D1FFE741
:101B400001208DF8170020E041F20400C4F20200E9
:101B500000680290029800F480300499096A884273
:101B600008D1FFE7029800F470100499496A88428E
:101B700004D0FFE701208DF8170006E0FFE7FFE73C
:101B8000FFE700208DF81700FFE79DF8170006B06B
:101B900080BD000081B0009001B0704780B584B076
:101BA0000290029820B9FFE701208DF80F006DE048
:101BB0000298406A60B9FFE702984068B0F5827FFA
:101BC00001D1FFE703E002990020C861FFE705E0CB
:101BD00002990020086102994861FFE702990020FC
:101BE0008862029890F8510040B9FFE702990020FE
:101BF00081F85000029800F04DF8FFE702990220AA
:101C000081F8510002980168086820F040000860DF
:101C1000029A019211685068D2F808C0D36800F4A3
:101C200082700CF4044C604403F40063184413699C
:101C300003F002031844536903F001031844936945
:101C400003F400731844D36903F038031844136A8B
:101C500003F080031843926A02F4005210430860B4
:101C60000299488B00F004000968486002980168F6
:101C7000C86920F40060C861029900204865029A92
:101C8000012182F851108DF80F00FFE79DF80F0039
:101C900004B080BD80B588B0079000200690059004
:101CA000049003900798006843F20001C4F2010118
:101CB000884250D1FFE7FFE741F21800C4F202006A
:101CC000016841F480510160006800F48050029086
:101CD0000298FFE7FFE741F21800C4F20200016832
:101CE00041F004010160006800F0040001900198D7
:101CF000FFE7A0200390022004900320069040F606
:101D00000000C4F2010003A9FEF762FF41F20C706B
:101D1000C2F2000000903021C4F2020101601021E3
:101D20004160002181608022C26001614161816166
:101D3000C161FEF74BFE18B1FFE7FEF7FDFAFFE7C2
:101D4000FFE7079841F20C71C2F200018164079825
:101D50004862FFE7FFE708B080BD000080B588B0AB
:101D600006900591ADF81220039300208DF807002E
:101D7000FFE7069890F85000012804D1FFE7022001
:101D80008DF81F0031E10699012081F85000FFE72E
:101D9000FFE7FFF7F9F80290BDF81200ADF8040074
:101DA000069890F85100012804D0FFE702208DF832
:101DB00007000FE1059820B1FFE7BDF8120020B938
:101DC000FFE701208DF8070004E10699032081F860
:101DD00051000699002048650599069A1163BDF8DF
:101DE0001210069A9186BDF81210069AD1860699AD
:101DF0008863069988870699C88706994864069972
:101E0000086406988068B0F5004F0DD1FFE706988A
:101E10000168086820F040000860069801680868BA
:101E200040F480400860FFE706980068006800F012
:101E30004000402807D0FFE706980168086840F096
:101E400040000860FFE70698C068B0F5006F4BD10E
:101E5000FFE70698406828B1FFE7BDF804000128B5
:101E60000ED1FFE706980168006B0088C8600699EC
:101E7000086B023008630699C88E0138C886FFE7F0
:101E8000FFE70698C08E70B3FFE706980068806889
:101E9000800700280ED5FFE706980168006B0088D0
:101EA000C8600699086B023008630699C88E01382D
:101EB000C88617E0FFF768F80299401A039988422C
:101EC00004D3FFE70398013018B9FFE7039840B93E
:101ED000FFE703208DF807000699012081F85100E3
:101EE00078E0FFE7CDE74AE00698406828B1FFE7D1
:101EF000BDF8040001280ED1FFE706980168006BC9
:101F0000007808730699086B013008630699C88E3B
:101F10000138C886FFE7FFE70698C08E70B3FFE779
:101F2000069800688068800700280ED5FFE70698AD
:101F30000168006B007808730699086B013008632C
:101F40000699C88E0138C88617E0FFF71DF8029978
:101F5000401A0399884204D3FFE70398013018B967
:101F6000FFE7039840B9FFE703208DF807000699C3
:101F7000012081F851002DE0FFE7CDE7FFE706984B
:101F80000399029A00F014FF20B1FFE70699202080
:101F90004865FFE70698806870B9FFE7FFE7002013
:101FA000009006980068C0680090069800688068F5
:101FB00000900098FFE7FFE70698406D20B1FFE72B
:101FC00001208DF8070004E00699012081F85100F6
:101FD000FFE7FFE7FFE70699002081F85000FFE7E1
:101FE0009DF807008DF81F00FFE79DF81F0008B05F
:101FF00080BD000080B584B002900191ADF8022050
:1020000000208DF80100FFE7029890F850000128A9
:1020100004D1FFE702208DF80F009CE00299012017
:1020200081F85000FFE7FFE7029890F8510001287F
:1020300004D0FFE702208DF8010081E0019820B173
:10204000FFE7BDF8020020B9FFE701208DF801008D
:1020500076E00299032081F851000299002048653A
:102060000199029A1163BDF80210029A9186BDF897
:102070000210029AD18602998863029948640299F3
:102080000864029988870299C88702988068B0F529
:10209000004F0DD1FFE702980168086820F040006A
:1020A000086002980168086840F480400860FFE713
:1020B0000298816C42F6F540C0F60000C8620298B2
:1020C000816C42F60D50C0F6000088620298816C67
:1020D00042F6C140C0F6000008630298816C0020FF
:1020E0004863029B1A68196B986C0C32DB8EFEF702
:1020F000E7FC48B1FFE70299486D40F010004865E1
:1021000001208DF801001BE002980068006800F0D3
:102110004000402807D0FFE702980168086840F0B7
:1021200040000860FFE702980168486840F020001E
:10213000486002980168486840F002004860FFE784
:10214000FFE70299002081F85000FFE79DF80100A9
:102150008DF80F00FFE79DF80F0004B080BD000070
:1021600081B0009001B0704781B0009001B070471D
:1021700081B0009001B0704781B0009001B070470D
:1021800080B582B00090009820B9FFE701208DF85B
:1021900007003FE0009890F83D0040B9FFE7009944
:1021A000002081F83C00009800F038F8FFE7009923
:1021B000022081F83D00009951F8040B01F052FB18
:1021C0000099012081F84600FFE70099012081F87D
:1021D0003E00009981F83F00009981F84000009985
:1021E00081F84100FFE7FFE70099012081F84200F4
:1021F000009981F84300009981F84400009981F822
:102200004500FFE70099012081F83D0000208DF88E
:102210000700FFE79DF8070002B080BD81B0009085
:1022200001B0704783B00190019890F83D000128FB
:1022300004D0FFE701208DF80B0059E0019902203E
:1022400081F83D0001980168C86840F00100C8604D
:102250000198006842F60041C4F2010188422AD088
:10226000FFE70198006843F20041C4F2010188428F
:1022700021D0FFE701980068B0F1804F1BD0FFE745
:102280000198006840F20041C4F20001884212D077
:10229000FFE70198006840F60001C4F2000188429F
:1022A00009D0FFE70198006840F60041C4F2000140
:1022B000884212D1FFE701980068806800F00700AB
:1022C00000900098062807D0FFE701980168086889
:1022D00040F001000860FFE706E001980168086827
:1022E00040F001000860FFE700208DF80B00FFE7D9
:1022F0009DF80B0003B0704781B0009001B07047AB
:1023000080B582B0019001980068006900F0020178
:102310000020B0EB510F28D0FFE701980068C0689B
:1023200000F002010020B0EB510F1DD0FFE7019833
:1023300001686FF002000861019901200877019897
:1023400000688069800720B1FFE70198FFF7D4FF9C
:1023500006E0019800F012F9019800F013F9FFE788
:10236000019900200877FFE7FFE7019800680069FE
:1023700000F004010020B0EB910F29D0FFE7019895
:102380000068C06800F004010020B0EB910F1ED07F
:10239000FFE7019801686FF00400086101990220CD
:1023A000087701980068806910F4407F04D0FFE747
:1023B0000198FFF7A1FF06E0019800F0DFF801980F
:1023C00000F0E0F8FFE7019900200877FFE7FFE75A
:1023D00001980068006900F008010020B0EBD10FFF
:1023E00028D0FFE701980068C06800F008010020CD
:1023F000B0EBD10F1DD0FFE7019801686FF0080026
:10240000086101990420087701980068C069800775
:1024100020B1FFE70198FFF76FFF06E0019800F099
:10242000ADF8019800F0AEF8FFE7019900200877B9
:10243000FFE7FFE701980068006900F01001002045
:10244000B0EB111F29D0FFE701980068C06800F0C9
:1024500010010020B0EB111F1ED0FFE701980168AA
:102460006FF0100008610199082008770198006852
:10247000C06910F4407F04D0FFE70198FFF73CFFEC
:1024800006E0019800F07AF8019800F07BF8FFE789
:10249000019900200877FFE7FFE7019800680069CD
:1024A000C00780B1FFE701980068C068C00748B165
:1024B000FFE7019801686FF001000861019800F0E2
:1024C00065F8FFE7FFE7019800680069C1B20020E6
:1024D000B0EBD11F13D0FFE701980068C068C1B20C
:1024E0000020B0EBD11F09D0FFE7019801686FF021
:1024F000800008610198FFF73BFEFFE7FFE70198C6
:102500000068006900F040010020B0EB911F14D07A
:10251000FFE701980068C06800F040010020B0EBC0
:10252000911F09D0FFE7019801686FF04000086132
:10253000019800F03DF8FFE7FFE7019800680069A7
:1025400000F020010020B0EB511F14D0FFE70198EC
:102550000068C06800F020010020B0EB511F09D0D6
:10256000FFE7019801686FF0200008610198FFF70C
:1025700003FEFFE7FFE702B080BD000081B00090DE
:1025800001B0704781B0009001B0704780B582B053
:1025900001900198006843F20041C4F201018842B1
:1025A00003D1FFE7FEF7F6FCFFE702B080BD0000B5
:1025B00081B0009001B07047FFE7FEE780B584B0BE
:1025C0008DF80F009DF80F000146029106281DD8D6
:1025D0000299DFE801F00405161718191A0015E032
:1025E000694601234B600020086046F61040C0F6A3
:1025F000000046F61841C0F60001322201F054FBFB
:1026000004E003E002E001E000E0FFE704B080BD89
:1026100080B584B08DF80F009DF80F00014602913F
:1026200006281DD80299DFE801F0040516171819CD
:102630001A0015E0694601234B600020086046F649
:102640000A40C0F6000046F61841C0F600013222EA
:1026500001F02AFB04E003E002E001E000E0FFE714
:1026600004B080BD80B584B08DF80F009DF80F00D8
:102670000146029106281DD80299DFE801F0040501
:10268000161718191A0015E0694601234B6000203F
:10269000086046F61040C0F6000046F61341C0F64A
:1026A00000011E2201F000FB04E003E002E001E073
:1026B00000E0FFE704B080BD80B584B08DF80F0066
:1026C0009DF80F000146029106281DD80299DFE807
:1026D00001F00405161718191A0015E069460123C0
:1026E0004B600020086046F60D40C0F6000046F63C
:1026F0001341C0F600011E2201F0D6FA04E003E007
:1027000002E001E000E0FFE704B080BD80B584B0E6
:102710008DF80F009DF80F000146029106281DD884
:102720000299DFE801F00405161718191A0015E0E0
:10273000694601234B600020086046F60D40C0F654
:10274000000046F61841C0F60001322201F0ACFA52
:1027500004E003E002E001E000E0FFE704B080BD38
:1027600080B541F20040C4F201002021FEF7DCFBFD
:1027700080BD000080B541F20040C4F2010080211C
:10278000FEF7D2FB80BD000080B540F60000C4F229
:1027900001000121FEF7C8FB80BD000080B541F6B5
:1027A0000000C4F201000121FEF7BEFB80BD000065
:1027B00080B541F20040C4F201004021FEF7B4FBB5
:1027C00080BD000080B586B08DF8170041F2000092
:1027D000C4F201001021029100220192FEF7BCFB1D
:1027E000019A029940F60000C4F201000490FEF73D
:1027F000B3FB41F25070C2F200000DF1170101224B
:1028000003924FF47A73FFF7A9FA0299039A049896
:10281000FEF7A2FB06B080BD80B584B08DF80F0036
:1028200041F20000C4F20100102100910122019246
:10283000FEF792FB009940F60000C4F201000290FE
:102840000022FEF789FB019A41F25070C2F20000AB
:102850000DF10F014FF47A73FFF780FA0099019A96
:102860000298FEF779FB04B080BD000040F2B4008E
:10287000C2F200000078704740F2B401C2F20001D9
:10288000002008707047000041F20C71C2F2000194
:10289000C86B0068096CC8408007002811D5FFE7A5
:1028A00041F20C70C2F20000006800688007002846
:1028B00007D5FFE740F2B401C2F200010120087021
:1028C000FFE7704780B582B08DF807009DF80720BC
:1028D00041F20040C4F201000221FEF73DFB02B0CC
:1028E00080BD000080B582B08DF807009DF80720FC
:1028F00041F20040C4F201000821FEF72DFB02B0B6
:1029000080BD000080B582B08DF807009DF80720DB
:1029100041F20040C4F201001021FEF71DFB02B09D
:1029200080BD000080B582B0082004F0DDF8009082
:10293000009818B9FFE70020019005E000990020F9
:10294000486000980190FFE7019802B080BD000048
:1029500080B586B00490039104980290049820B941
:10296000FFE701208DF817001FE0082004F0BCF8F5
:102970000190019820B9FFE701208DF8170014E0BD
:10298000FFE70298406820B1FFE702984068029094
:10299000F7E70398019908600199002048600199C0
:1029A000029A51608DF81700FFE79DF8170006B0F6
:1029B00080BD000080B582B0FFE741F21400C4F290
:1029C0000200016841F001010160006800F00100AF
:1029D00001900198FFE70D20009005210022FEF7ED
:1029E000ADFB0098FEF7A0FB02B080BD80B542F6BB
:1029F0004570C0F6000046F6C832C0F6000200215D
:102A000001F052FB41F20871C2F20001086080BD82
:102A100080B592B00020119010900F900E90FFE7BB
:102A200041F21800C4F20200016841F01001016097
:102A3000006800F010000D900D98FFE7FFE741F2ED
:102A40001800C4F20200016841F00401016000684E
:102A500000F004000C900C98FFE7FFE741F218002B
:102A6000C4F20200016841F020010160006800F03A
:102A700020000B900B98FFE7FFE741F21800C4F22B
:102A80000200016841F040010160006800F0400070
:102A90000A900A98FFE741F20000C4F20100019099
:102AA0003821009100220792FEF756FA079A40F665
:102AB0000000C4F20100039010210291FEF74CFACD
:102AC00041F20040C4F2010005901A210491012254
:102AD0000692FEF741FA009A019806990E920F911C
:102AE00002210891109111910EA90991FEF770F839
:102AF0000398DDF818C0079B089A0999CDF838C0EB
:102B00000F931092FEF764F8DDF808C00398069B57
:102B1000089A0999CDF838C00F9310921192FEF7D8
:102B200057F80598DDF818C0079B089A0999DDF851
:102B300010E0CDF838E0CDF83CC010931192FEF7CC
:102B400047F80598079B089A09994FF0E00CCDF8D3
:102B500038C00F931092FEF73BF8069B079A08982F
:102B600009990E930F92109041F60000C4F20100F3
:102B7000FEF72EF812B080BD80B582B041F25070E1
:102B8000C2F20000019043F20001C4F201010160B1
:102B90004FF48271416000218160C1600161416137
:102BA0004FF4007282610822C26101624162816257
:102BB0000A21C162FEF7F2FF18B1FFE7FDF7BCFB87
:102BC000FFE702B080BD0000FFE7FEE7FFE7FEE79A
:102BD00088B0079006910592079800F007000490CE
:102BE0000498C0F10700052803D3FFE704200190F3
:102BF00004E00498C0F107000190FFE701980390FA
:102C000004980430062803D8FFE70020009003E072
:102C1000049803380090FFE7009802900698039903
:102C2000012202FA01F101390840029B98400599FE
:102C30009A40013A1140084308B070470000000074
:102C4000EFF30980BFF36F8F0D4B1A6820E9F00F87
:102C500010602DE908404FF0500080F3118802F019
:102C600067FE4FF0000080F31188BDE80840196846
:102C70000868B0E8F00F80F30988BFF36F8F7047E2
:102C80007023002082B00190019840F20801C2F246
:102C900000010968C90844F6D352C1F26202A1FBDF
:102CA0000221890948430090FFE700BFFFE7009831
:102CB000411E00910028F8D1FFE702B070470000E4
:102CC00080B582B001900198406A00900098016838
:102CD000486820F0030048600099486D40F01000FB
:102CE00048650099012081F851000098FEF752FFD5
:102CF00002B080BD80B582B001900198406A00901A
:102D00000098FFF731FA02B080BD000080B584B0B2
:102D100003900398406A0290FEF736F901900398F9
:102D20000068006800F0200020283BD0FFE70298F0
:102D30000168486820F020004860029801684868EF
:102D400020F0020048600298019A642100F030F8F7
:102D500030B1FFE70299486D40F020004865FFE779
:102D60000298806870B9FFE7FFE7002000900298A2
:102D70000068C06800900298006880680090009821
:102D8000FFE7FFE702990020C8860299012081F839
:102D900051000298406D20B1FFE70298FEF7FAFE5D
:102DA00004E0FFE70298FFF7DBF9FFE704B080BD1E
:102DB00080B586B00490039102920498039B029917
:102DC0006A4611608021002200F014F848B1FFE744
:102DD0000499486D40F02000486503208DF81700E5
:102DE00003E000208DF81700FFE79DF8170006B0FC
:102DF00080BD000080B58AB0DDF830C00890079132
:102E00008DF81B20059305980190FEF7BDF802464A
:102E100001980C99891A08440390FEF7B5F80290BE
:102E2000039840F20801C2F200010968C1F3CB31F6
:102E300048430490FFE708980068806807990840B5
:102E4000401AB0FA80F040099DF81B1088425ED00D
:102E5000FFE705980130002858D0FFE7FEF794F807
:102E60000299401A0399884204D2FFE70398002888
:102E700042D1FFE708980168486820F0E000486008
:102E800008984068B0F5827F13D1FFE70898806802
:102E9000B0F5004F06D0FFE708988068B0F5806F66
:102EA00007D1FFE708980168086820F04000086033
:102EB000FFE70898806AB0F5005F0FD1FFE7FFE7F2
:102EC00008980168086820F40050086008980168B4
:102ED000086840F400500860FFE7FFE70899012008
:102EE00081F85100FFE70899002081F85000FFE7C2
:102EF00003208DF827000EE0049818B9FFE70020A2
:102F00000390FFE7049801380490FFE793E700205F
:102F10008DF82700FFE79DF827000AB080BD00006C
:102F2000074B19680868B0E8F00F80F30988BFF311
:102F30006F8F4FF0000080F311884EF00D0E704738
:102F40007023002080B59AB0199046F60A40C0F66A
:102F5000000002210E9100F091FF0E9946F60D40FF
:102F6000C0F6000000F08AFF0E9946F61040C0F649
:102F7000000000F083FF40F60000C4F201001021C1
:102F800001220992FDF7E8FF099A41F20000C4F21C
:102F9000010004900821FDF7DFFF0498099A202121
:102FA0000A91FDF7D9FF05201090FDF7EFFD049879
:102FB0000A9900221392FDF7CFFF1098FDF7E6FD66
:102FC0000498099A0A99FDF7C7FF1098FDF7DEFDEE
:102FD0000998FFF7F7FB0A200590FDF7D7FD1120B0
:102FE000FFF7F0FB0598FDF7D1FD3620FFF7EAFB70
:102FF0006020FFF711FC3A20FFF7E4FB5520FFF7B4
:103000000BFC0A98FFF7DEFBB220FFF7DBFB0C207E
:103010000690FFF701FC0698FFF7FEFB1398FFF7F9
:10302000FBFB33200790FFF7F7FB0798FFF7F4FB54
:10303000B720FFF7C7FB35200890FFF7EDFBBB205B
:10304000FFF7C0FB0898FFF7E7FBC020FFF7BAFBCC
:103050002C20FFF7E1FBC220FFF7B4FB0998FFF734
:10306000DBFBC320FFF7AEFB0B200B90FFF7D4FB7D
:10307000C420FFF7A7FB0A98FFF7CEFB5120FFF70C
:10308000A1FB0F20FFF7C8FBC620FFF79BFB13989F
:10309000FFF7C2FBD0200D90FFF794FBA420FFF7B1
:1030A000BBFBA120FFF7B8FBE020FFF78BFB0D98DF
:1030B000FFF7B2FB1398FFF7AFFB0E98FFF7ACFBDF
:1030C00007200F90FFF7A8FB0B98FFF7A5FB1A202E
:1030D000FFF7A2FB3120FFF79FFB5420FFF79CFB7B
:1030E0004020FFF799FB29201290FFF795FB122053
:1030F0000C90FFF791FB0C98FFF78EFB1720FFF762
:103100008BFBE120FFF75EFB0D98FFF785FB139823
:10311000FFF782FB0E98FFF77FFB0F98FFF77CFB12
:103120001098FFF779FB2520FFF776FB2D20FFF79E
:1031300073FB4420FFF770FB4520FFF76DFB1C205D
:103140001190FFF769FB1820FFF766FB1620FFF7C9
:1031500063FB1198FFF760FB2120FFF733FB129808
:10316000FFF730FB9620FDF711FD1398ADF86200D4
:10317000FDF70AFF1790FFE72A20FFF723FB002047
:103180000390FFF749FB2820FFF746FB0120019041
:10319000FFF742FB1720FFF73FFB2B20FFF712FB47
:1031A0000398FFF739FB3520FFF736FB0398FFF74D
:1031B00033FBBC20FFF730FB2C20FFF703FB019A09
:1031C00041F20000C4F2010010210291FDF7C4FE9B
:1031D0000299039A40F60000C4F20100FDF7BCFE1C
:1031E00003981590FFE7159840F24551884214DC8A
:1031F000FFE79DF86300159A41F2F071C2F20001F9
:1032000001F81200BDF86200159A01EB4201487006
:10321000FFE7159801301590E5E700201490FFE7CF
:103220001498172819DCFFE741F25070C2F2000031
:1032300041F2F071C2F2000140F68C22FEF7DAFE94
:10324000FFF71AFBFFE7FFF711FB08B9FFE7FAE703
:10325000FFE7149801301490E2E740F60000C4F252
:10326000010010210122FDF777FEBDF86200013058
:10327000ADF862000A2000F075FE7DE780B586B0EB
:103280000590FFE741F29820C2F200000068406814
:103290000190FFE70198002800F01B81FFE70198EB
:1032A000006804900498406908B9FFE70DE10498AC
:1032B000406980478DF80B009DF80B000499098A3E
:1032C000C1F34001884210D0FFE79DF80B2004991C
:1032D000088A02F0010220F0020040EA420008825F
:1032E000FDF752FE04998860EFE0FDF74DFE04996A
:1032F0008968401A03900398049A5168138A382207
:1033000002EA9322895C884240F2C180FFE79DF87F
:103310000B200499088A62F3000008820498007C5C
:10332000C007002800F08880FFE70498008A800822
:10333000000740B9FFE70499088A40F0040020F034
:103340003800088277E00498008AC0F383000128DF
:1033500034D1FFE70398049A5168138A382202EAAD
:1033600093221144497864225143884226D9FFE7C9
:103370000499088A40F0080020F034000882FDF724
:1033800003FE049A5168D368C01A138A382202EAED
:1033900093221144897964225143884208D2FFE77D
:1033A0000499088A40F0180020F02400088204E004
:1033B000FDF7EAFD0499C860FFE73BE00498008A46
:1033C000C0F38300022816D1FFE70398049A5168DE
:1033D000138A382202EA9322114449886422514315
:1033E000884208D9FFE70499088A40F00C0020F0D1
:1033F000300008821DE00498008AC0F3830003288F
:1034000016D1FFE70398049A5168138A382202EA1A
:1034100093221144898864225143884208D9FFE7E6
:103420000499088A40F0100020F02C000882FFE781
:10343000FFE7FFE7FFE729E00498007CC00720BB17
:10344000FFE70498008A8008000778B1FFE7049836
:10345000008AC0F38300052808D0FFE70499088A92
:1034600040F0140020F0280008820DE00498008A43
:10347000C0F38300052806D1FFE70499088A20F0ED
:103480003C000882FFE7FFE7FFE7FFE7FFE704985C
:10349000018AC1F38310C1F3830188420BD0FFE797
:1034A0000498806938B1FFE704988169008AC0F305
:1034B00083008847FFE70499088A00F03C0220F463
:1034C000707040EA02100882FFE70198406801909E
:1034D000E0E6012000F046FDD4E6000080B586B0AD
:1034E0000590FFE741F2A020C2F2000000684068AA
:1034F0000390FFE70398002800F05481FFE703984A
:10350000006804900498C06850B9FFE704990869FE
:1035100040F400200861FDF737FD0499C86080E0A1
:10352000FDF732FD049A5168D3681269C01AC2F3DC
:10353000841202EBC21201EB420191F8001101EB7F
:103540008101B0EB410F6BD9FFE704984168006936
:10355000C0F3841242EAC21201EB4201C0F3C72059
:1035600008444078B0BBFFE7049948680969C1F393
:10357000841141EAC11100EB410090F8010180087B
:10358000C00758B1FFE70499086920F4FF200861DB
:103590000499086940F4002008611AE00498006961
:1035A0004009C00778B1FFE70499086900F01F02DD
:1035B00020F4F86040EA821008610499086920F05C
:1035C00020000861FFE70499086920F400200861E1
:1035D000E4E020E0049841680069C0F3841242EA04
:1035E000C21201EB4201C0F3C7200844407888B101
:1035F000FFE704990869012202EBD022D2B220F43D
:10360000FF2040EAC22008610499086940F40020C4
:103610000861FFE7FFE7FDF7B7FC0499C860FFE723
:10362000FFE7049948680969C1F3841202EBC212EA
:1036300000EB4200C1F3C721405C303801460291E3
:10364000112857D80299DFE801F0090F161D242B25
:1036500032394047555555555555554E04990869C9
:1036600020F4700008615EE004990869012262F3A9
:103670001750086157E004990869022262F3175055
:10368000086150E004990869032262F31750086149
:1036900049E004990869042262F31750086142E086
:1036A00004990869052262F3175008613BE0049908
:1036B0000869062262F31750086134E0049908692A
:1036C000072262F3175008612DE004990869082267
:1036D00062F31750086126E004990869092262F331
:1036E000175008611FE0049908690A2262F3175015
:1036F000086118E00499086940F4700008610498B2
:10370000806978B1FFE7049948680A698969C2F35A
:10371000841303EBC31300EB4300C2F3C72210442E
:103720008847FFE7FFE704980069C0F3035041F2C0
:10373000A821C2F200010978884210DCFFE7049852
:103740000069C0F303500A2809DCFFE704984069C8
:1037500028B1FFE7049841690120884704E00498F4
:10376000416900208847FFE741F2A820C2F200002B
:1037700000780A2803D1FFE70020019007E041F21A
:10378000A820C2F20000007801300190FFE7019804
:1037900041F2A821C2F200010870FFE703984068D7
:1037A0000390A7E6012000F0DDFB9BE680B582B028
:1037B0004FF0500080F31188BFF36F8FBFF34F8F2E
:1037C000009002F05BFE40B1FFE74EF60451CEF2EE
:1037D00000014FF080500860FFE700200190019841
:1037E00080F3118802B080BD80B590B006A800902B
:1037F0002821FCF7D2FC0098002105910491039147
:10380000029101910222069201230A9310230B9345
:103810000D920E914FF460110F91FDF77DFE18B1DE
:10382000FFE7FCF789FDFFE70F20019002210291DD
:10383000002003904FF480620492059001A8FDF7E8
:103840009FFC18B1FFE7FCF777FDFFE710B080BDE4
:103850007047000080B541F2A870C2F20000FEF788
:103860004FFD80BD83B002900191029800680090E6
:10387000029842F60041C4F20101884225D0FFE7D8
:10388000029843F20041C4F2010188421DD0FFE7D3
:103890000298B0F1804F18D0FFE7029840F2004143
:1038A000C4F20001884210D0FFE7029840F6000100
:1038B000C4F20001884208D0FFE7029840F60041B8
:1038C000C4F2000188420AD1FFE7009820F070009E
:1038D000009001984168009808430090FFE7029823
:1038E00042F60041C4F20101884225D0FFE7029868
:1038F00043F20041C4F2010188421DD0FFE7029863
:10390000B0F1804F18D0FFE7029840F20041C4F2B6
:103910000001884210D0FFE7029840F60001C4F28F
:103920000001884208D0FFE7029840F60041C4F247
:10393000000188420AD1FFE7009820F4407000900F
:103940000198C168009808430090FFE7009820F0B4
:103950008000019949690843009000980299086025
:10396000019880680299C86201980068029988628B
:10397000029842F60041C4F20101884208D0FFE7F4
:10398000029843F20041C4F20101884205D1FFE7E9
:103990000198006902990863FFE7029901204861D4
:1039A00003B07047FFE7FEE780B500F001F880BD87
:1039B00080B546F62B40C0F6000042F21161C0F619
:1039C000000100F089F846F62A40C0F6000042F2F5
:1039D000BD51C0F6000100F07FF846F62540C0F664
:1039E000000042F20D71C0F6000100F075F846F6D5
:1039F0001B40C0F6000042F26561C0F6000100F015
:103A00006BF846F62040C0F6000042F2B961C0F6FD
:103A1000000100F061F880BD81B08DF803009DF9D0
:103A2000030000280ED4FFE79DF9031001F01F02E8
:103A3000012090404A094EF20011CEF2000141F8F7
:103A40002200FFE701B070474EF60C50CEF20000A6
:103A50000068C0F30220704782B08DF80700009123
:103A60009DF9070000280AD4FFE7009800019DF99E
:103A700007104EF20042CEF2000288540BE000988C
:103A800000019DF8071001F00F014EF61452CEF21E
:103A900000028854FFE702B07047000083B0029034
:103AA000029800F0070000904EF60C51CEF2000193
:103AB0000868019001984FF6FF02104001900198AC
:103AC000009A40EA02200022C0F2FA52104301900C
:103AD0000198086003B0704780B584B003900291EC
:103AE000029808B9FFE71DE041F29820C2F20000F9
:103AF000006840680090FFE7009898B1FFE70098E1
:103B000000680190019800680399FCF758FB20B900
:103B1000FFE702980199886104E0FFE70098406898
:103B20000090E9E704B080BD80B584B0029041F216
:103B30009820C2F20000006840B9FFE7FEF7F2FEED
:103B400041F29821C2F200010860FFE741F298209B
:103B5000C2F20000006840680090FFE70098A0B142
:103B6000FFE70098006801900198006802990968D1
:103B7000FCF725FB20B9FFE700208DF80F002FE0B0
:103B8000FFE7009840680090E8E741F29820C2F211
:103B9000000000680299FEF7DBFE41F29C20C2F2B1
:103BA00000000068C0B9FFE741F29820C2F20000AF
:103BB000006888B1FFE743F27D20C0F6000046F6BA
:103BC0008032C0F60002002100F06EFA41F29C2122
:103BD000C2F200010860FFE701208DF80F00FFE747
:103BE0009DF80F0004B080BD80B584B0029041F212
:103BF000A020C2F20000006840B9FFE7FEF792FE85
:103C000041F2A021C2F200010860FFE741F2A020CA
:103C1000C2F20000006840680090FFE70098A0B181
:103C2000FFE7009800680190019800680299096810
:103C3000FCF7C5FA20B9FFE700208DF80F002FE050
:103C4000FFE7009840680090E8E741F2A020C2F248
:103C5000000000680299FEF77BFE41F2A420C2F248
:103C600000000068C0B9FFE741F2A020C2F20000E6
:103C7000006888B1FFE743F2DD40C0F6000046F679
:103C8000A432C0F60002002100F00EFA41F2A42195
:103C9000C2F200010860FFE701208DF80F00FFE786
:103CA0009DF80F0004B080BD10B586B08C468646E6
:103CB00009980899CDF814E0CDF810C08DF80F20C0
:103CC0008DF80E308DF80D108DF80C00059818B198
:103CD000FFE7049808B9FFE7CEE00498FCF768FA1C
:103CE0008DF8070041F2A020C2F200000068406891
:103CF0000090FFE70098002800F0BE80FFE70098E2
:103D000000680290029800680599FCF758FA0028AC
:103D100040F0AD80FFE7029948680969C1F384115A
:103D200001EBC11100EB410090F8010100F003002C
:103D30009DF80E10884200F39980FFE702994868C9
:103D4000097A01EBC11100EB4100A0F581700499E3
:103D50009DF80720FCF708FA02994868097A01EBF8
:103D6000C11100EB41009DF8071001444FF6FE62BF
:103D7000CFF6FF72002088549DF80F00029A516818
:103D8000127A02EBC21201EB420101F8020C9DF81B
:103D90000E2002994868097A01EBC11100EB41013C
:103DA00011F8010C02F0030200F0FC00104401F8CD
:103DB000010C9DF80D2002994868097A01EBC111A8
:103DC00000EB410111F8010C02F0010200F0FB00D0
:103DD00040EA820001F8010C9DF80C0060B3FFE797
:103DE00002994868097A01EBC11100EB410010F813
:103DF000010C8008C007F8B9FFE70299086940F094
:103E00002000086102990869820962F304000861D0
:103E10000299087A421E086902F01F0220F4F86035
:103E200040EA821008610299086920F4FF200861C5
:103E300002990020C86018E00299086940F020004B
:103E400008610299087A421E086902F01F0220F4F4
:103E5000F86040EA821008610299086920F4FF20A6
:103E6000086102990020C860FFE7FFE704E0FFE770
:103E70000098406800903DE706B010BD80B584B062
:103E800003908DF80B1041F2A020C2F200000068F0
:103E900040680090FFE70098002846D0FFE70098B0
:103EA00000680190019800680399FCF788F9B8BB95
:103EB000FFE70198007A9DF80B1088422FDDFFE79D
:103EC000019841680069C0F3841000EBC01001EB59
:103ED000400090F8010100F003009DF80B2002EB78
:103EE000C21201EB420191F8011101F00301884275
:103EF00014DCFFE79DF80B200199086902F01F020E
:103F000020F4F86040EA821008610199086920F401
:103F1000FF20086101990020C860FFE7FFE704E087
:103F2000FFE7009840680090B5E704B080BD00004E
:103F300080B582B000200190FDF73AF8FFF754FCFD
:103F4000FEF766FDFEF736FDFEF716FEFCF7BAF942
:103F5000FFF72AFD00F034F8FEF748FD00F068F89E
:103F6000FFE7FEE780B586B00290EFF3058003908F
:103F70000398A0B9FFE7EFF310800490049870B99C
:103F8000FFE741F29420C2F20000006802280AD143
:103F9000FFE7EFF311800590059820B1FFE76FF080
:103FA0000500019009E000200190029820B1FFE790
:103FB000029801F0A7FBFFE7FFE7019806B080BD7C
:103FC00084B0EFF3058001900198A0B9FFE7EFF30B
:103FD00010800290029870B9FFE741F29420C2F27B
:103FE0000000006802280AD1FFE7EFF31180039078
:103FF000039820B1FFE76FF00500009014E041F254
:104000009420C2F20000006848B9FFE741F2942111
:10401000C2F20001012008600020009003E04FF090
:10402000FF300090FFE7FFE7009804B07047000002
:1040300080B584B0EFF3058001900198A0B9FFE747
:10404000EFF310800290029870B9FFE741F29420DC
:10405000C2F20000006802280AD1FFE7EFF31180E6
:104060000390039820B1FFE76FF00500009017E080
:1040700041F29420C2F20000006801280BD1FFE752
:1040800041F29421C2F200010220086001F0D8FB45
:104090000020009003E04FF0FF300090FFE7FFE7C3
:1040A000009804B080BD0000B0B590B00B900A91AC
:1040B000099200200590EFF305800D900D980028DF
:1040C00040F0B580FFE7EFF310800E900E980028C7
:1040D00040F0AD80FFE741F29420C2F2000000689A
:1040E000022808D1FFE7EFF311800F900F98002806
:1040F00040F09D80FFE70B98002800F09880FFE7D4
:10410000802006901820049000208DF823000DF1E7
:10411000230007904FF0FF300390099800284DD0FE
:10412000FFE70998006820B1FFE709980068079049
:10413000FFE70998806920B1FFE70998806904903A
:10414000FFE7049848B1FFE70498382805D8FFE74F
:1041500009980079C00718B1FFE700200C9069E0CA
:104160000998406928B1FFE70998406980080690DE
:10417000FFE70998806880B1FFE70998C0685C286C
:104180000BD3FFE70998006938B1FFE70998406948
:1041900018B1FFE7012003900FE00998806858B933
:1041A000FFE70998C06838B9FFE70998006918B9AE
:1041B000FFE700200390FFE7FFE702E00020039005
:1041C000FFE70398012817D1FFE70B980799069A94
:1041D0000A9BDDF810C0DDF824E0DEF80850DEF8B8
:1041E0001040EE46CEF80850CEF80440CEF800C09D
:1041F00002F0B8F8059019E00398B0B9FFE70B9802
:104200000799BDF818200A9BDDF810C0EE4605ACF2
:10421000CEF80440CEF800C002F054F8012803D0D4
:10422000FFE700200590FFE7FFE7FFE7FFE70598BE
:104230000C90FFE70C9810B0B0BD000080B584B0C2
:104240000390029143F2FC40C2F20000006800902B
:1042500042F27030C2F200000068043001F01CF835
:1042600008B9FFE700E0FFE70398013080B9FFE7F6
:10427000029868B1FFE742F27030C2F200000068B5
:10428000011D43F2D440C2F2000001F0ABF83DE062
:104290000098039908440190019842F27031C2F2EB
:1042A0000001096848600198009988420ED2FFE732
:1042B00042F28030C2F20000006842F27031C2F275
:1042C00000010968043101F057F81EE042F278302D
:1042D000C2F20000006842F27031C2F200010968C7
:1042E000043101F049F8019843F26C41C2F2000137
:1042F0000968884207D2FFE7019843F26C41C2F295
:104300000001086000E0FFE7FFE7FFE704B080BDC1
:1043100080B582B0019001F083F843F2F431C2F22B
:10432000000108680130086042F27030C2F20000FB
:10433000006898B9FFE7019842F27031C2F20001BB
:10434000086043F2F430C2F200000068012803D193
:10435000FFE700F0EDFA00E0FFE71CE043F2C840A1
:10436000C2F200000068A0B9FFE742F27030C2F26A
:1043700000000068C06A0199C96A884207D8FFE74F
:10438000019842F27031C2F20001086000E0FFE7DC
:1043900000E0FFE7FFE743F20440C2F200000168DB
:1043A000013101600068019948640198C06A43F2D4
:1043B0000841C2F200010968884208D9FFE7019864
:1043C000C06A43F20841C2F200010860FFE70199A8
:1043D000C86A00EB800242F28830C2F2000000EBB3
:1043E0008200043100F0FEFF01F046F843F2C840BD
:1043F000C2F200000068C8B1FFE742F27030C2F2BA
:1044000000000068C06A0199C96A88420CD2FFE7BF
:104410004EF60451CEF200014FF080500860BFF319
:104420004F8FBFF36F8F00E0FFE700E0FFE702B0C0
:1044300080BD000080B584B000F0F2FF43F2005070
:10444000C2F200000068002840D1FFE743F20C40B0
:10445000C2F20000029000F06FFF43F22040C2F26F
:104460000000039000F068FF0299039842F2743252
:10447000C2F20002116042F28431C2F2000108600F
:1044800069460020086042F27C22C2F2000242F239
:104490001C33C2F200030A20102101F021FB014667
:1044A00043F20050C2F200000160006860B1FFE713
:1044B00043F20050C2F20000006846F6FD31C0F63B
:1044C000000101F0C3F800E0FFE700E0FFE700F0C3
:1044D000D3FF04B080BD000080B582B0FFE743F297
:1044E000F830C2F20000006808B3FFE700F098FF60
:1044F00043F2E840C2F20000C068C0680190019831
:10450000043000F0C9FE43F2F431C2F20001086841
:104510000138086043F2F831C2F20001086801383E
:10452000086000F0A9FF019800F08CF8D7E702B00E
:1045300080BD000080B582B0019000910198006CB0
:10454000B8B1FFE70199C8680A6C1044C8600198C7
:104550004168C068884204D3FFE701990868C860D1
:1045600000E0FFE70098019AD168126CFBF7FCFDB0
:10457000FFE702B080BD000080B586B005900491D1
:104580000392002002900598806B01900598006CC2
:1045900078B9FFE70598006848B9FFE705984068D3
:1045A00002F04EF8029005990020486000E0FFE715
:1045B00041E00398B8B9FFE7059A04999068126C36
:1045C000FBF7D2FD059988680A6C1044886005984D
:1045D00041688068884204D3FFE7059908688860CD
:1045E00000E0FFE726E0059A0499D068126CFBF71B
:1045F000BBFD0599C8680A6C801AC86005980168F7
:10460000C068884206D2FFE7059948680A6C801A9C
:10461000C86000E0FFE70398022809D1FFE701988E
:1046200020B1FFE701980138019000E0FFE700E0CA
:10463000FFE7FFE7FFE701980130059988630298DB
:1046400006B080BD80B582B00090009890F8590007
:1046500040B9FFE70098006B00F034FF009800F0CD
:1046600031FF1CE0009890F85900012804D1FFE7C1
:10467000009800F027FF11E0009890F859000228F8
:104680000BD0FFE74FF0500080F31188BFF36F8F1E
:10469000BFF34F8F0190FFE7FEE7FFE7FFE702B0B0
:1046A00080BD000082B0019042F27430C2F200007E
:1046B00000680068B0FA80F040090199086001982C
:1046C000006848B9FFE742F27430C2F200000068A7
:1046D000C0680068009002E000200090FFE70098AA
:1046E00002B0704784B04FF44060009042F2E8702E
:1046F000C2F2000001909DF80400400788B1FFE776
:10470000019807300190019820F007000190019A6C
:1047100042F2E871C2F200010098891A0844009040
:10472000FFE701980290029943F2CC40C2F20000E8
:104730000160002141600298009A104401900198A4
:1047400008380190019820F007000190019A42F288
:104750007C30C2F2000002600268516002681160A1
:10476000029903910199039A891A5160006803998B
:1047700008600398406843F26841C2F20001086093
:104780000398406843F26041C2F20001086043F2BE
:104790003441C2F200014FF00040086004B070479D
:1047A00080B582B00190FFE7FFF796FE42F28830B5
:1047B000C2F20000006802280CD3FFE74EF6045155
:1047C000CEF200014FF080500860BFF34F8FBFF36F
:1047D0006F8F00E0FFE7E7E780B584B0DDF818C031
:1047E0000390029101928DF80330029818B9FFE707
:1047F0000698006003E0019806990860FFE70398B7
:104800000699C8630298069908640698012101F088
:10481000EDF99DF80300069981F84C0004B080BDC5
:1048200080B588B0DDF834C0DDF830C0DDF82CC0CC
:10483000DDF828C006900591049203930C98006B54
:1048400004998900A522FBF7A1FC0C98006B049940
:1048500000EB810004380290029820F007000290DB
:104860009DF80800400758B1FFE74FF0500080F373
:104870001188BFF36F8FBFF34F8F0790FFE7FEE7FD
:1048800000200190FFE701980F2813D8FFE7059853
:10489000019A805C0C99114481F8340005980199C3
:1048A000405C08B9FFE705E0FFE7FFE7019801304A
:1048B0000190E8E70C99002081F843000A98382815
:1048C00003D3FFE737200A9000E0FFE70A980C992E
:1048D000C8620A980C99C8640C9900200090086579
:1048E0000C98043000F040FD0C98183000F03CFDAE
:1048F00000980C9909610A99C1F138010C9A9161EB
:104900000C9949620C9948650C9981F858000298F5
:104910000699039A00F098FC0C9908600B9820B156
:10492000FFE70C980B99086000E0FFE708B080BD36
:1049300080B584B000200390FFE70398372810D893
:10494000FFE7039800EB800142F28830C2F20000DA
:1049500000EB810000F0F0FCFFE7039801300390CA
:10496000EBE743F23840C2F20000019000F0E4FCB3
:1049700043F24C40C2F20000029000F0DDFC43F232
:104980007440C2F2000000F0D7FC43F2E840C2F2EB
:10499000000000F0D1FC43F2D440C2F2000000F06D
:1049A000CBFC0199029842F27832C2F20002116007
:1049B00042F28031C2F20001086004B080BD000004
:1049C00083B0029043F2CC40C2F200000190FFE7B6
:1049D000019800680299884205D2FFE7FFE7019835
:1049E00000680190F4E701980090009801994968E7
:1049F00008440299884209D1FFE702984268019968
:104A00004868104448600198029000E0FFE702986F
:104A10000090009802994968084401990968884201
:104A200020D1FFE70198006842F27C31C2F2000118
:104A3000096888420DD0FFE7019800684268029932
:104A4000486810444860019800680068029908604E
:104A500007E042F27C30C2F2000000680299086070
:104A6000FFE704E00198006802990860FFE70198F9
:104A70000299884204D0FFE702980199086000E09B
:104A8000FFE703B07047000080B586B00590049141
:104A900003920293002001900498059948600598BC
:104AA000006104980399884216D8FFE70398029999
:104AB000401A05998969884203D3FFE701200190D4
:104AC00009E042F28430C2F2000000680599043126
:104AD00000F052FCFFE717E003980299884208D2E1
:104AE000FFE704980299884203D3FFE70120019071
:104AF00009E042F27430C2F2000000680599043106
:104B000000F03AFCFFE7FFE7019806B080BD000027
:104B100080B582B0019000F083FC0198806B18B9D9
:104B2000FFE70120009002E000200090FFE700F086
:104B3000A3FC009802B080BD80B582B0019000F067
:104B40006FFC0198806B0199C96B884203D1FFE724
:104B50000120009002E000200090FFE700F08CFCB4
:104B6000009802B080BD000006480068006880F32D
:104B7000088862B661B6BFF34F8FBFF36F8F00DF57
:104B800000BF000008ED00E080B586B004900391FE
:104B900042F27430C2F200000068C068C068019040
:104BA0000198043000F078FB0198C069012823D1F6
:104BB000FFE70198049B81691944039AFFF764FF9A
:104BC000C0B1FFE70198049A694600230B601946BB
:104BD00001F022FF0290029858B9FFE74FF0500011
:104BE00080F31188BFF36F8FBFF34F8F0590FFE7FE
:104BF000FEE700E0FFE700E0FFE70198416A884731
:104C000006B080BD80B58EB0FFE743F20050C2F21F
:104C10000000006807A9002201F000FA002800F057
:104C20009780FFE70798B0F1FF3F17DCFFE707A881
:104C300004300290029858B9FFE74FF0500080F31B
:104C40001188BFF36F8FBFF34F8F0D90FFE7FEE723
:104C500002990A6848688968904700E0FFE707986A
:104C6000002800F17480FFE70998069006984069D3
:104C700028B1FFE70698043000F00EFB00E0FFE7E4
:104C800005A800F0D9F803900798019009285CD88E
:104C90000199DFE801F005050534354F0505343588
:104CA0000698089B81691944039AFFF7EDFE20B32B
:104CB000FFE70698416A88470698C06901281AD11B
:104CC000FFE70698089982690A44694600230B6049
:104CD000194601F0A1FE0490049858B9FFE74FF07F
:104CE000500080F31188BFF36F8FBFF34F8F0C908C
:104CF000FFE7FEE700E0FFE700E0FFE726E025E052
:104D00000898069988610698806958B9FFE74FF0BE
:104D1000500080F31188BFF36F8FBFF34F8F0B905C
:104D2000FFE7FEE70698039B816919441A46FFF7DF
:104D3000ABFE0BE0069890F82C0020B9FFE7069830
:104D400000F0C0FB00E0FFE700E0FFE7FFE75CE703
:104D50000EB080BD80B584B00390029100F0E0FDFC
:104D6000684600F069F801900098D8BBFFE7029808
:104D700060B9FFE703980199884207D8FFE701F07F
:104D80003DFD03980199FFF7FFFE2AE0029858B114
:104D9000FFE742F28430C2F2000000680068B0FA17
:104DA00080F040090290FFE743F20050C2F2000099
:104DB00000680399019A891A029A00F071FC01F0C7
:104DC0001DFD60B9FFE74EF60451CEF200014FF031
:104DD00080500860BFF34F8FBFF36F8F00E0FFE795
:104DE000FFE702E001F00AFDFFE704B080BD00002C
:104DF00081B042F27830C2F200000068006840B929
:104E0000FFE743F26C41C2F200014FF0FF3008604F
:104E10000FE042F27830C2F200000068C068C0685B
:104E200000900098406843F26C41C2F200010860B3
:104E3000FFE701B07047000080B582B0019001F03B
:104E400013FB0090009842F26C31C2F20001096835
:104E5000884206D2FFE700F011F8019901200860AE
:104E600003E0019900200860FFE7009842F26C31EE
:104E7000C2F200010860009802B080BD80B588B021
:104E8000FFE742F27430C2F20000006800680028B8
:104E90004CD0FFE742F27430C2F200000168C968EA
:104EA000096806910068C068C068039003980430E0
:104EB00000F0F2F90398416A88470398C069012815
:104EC00032D1FFE70698039989690844059005984F
:104ED000069988420FD9FFE705980399486003981F
:104EE000006142F27430C2F200000068039904319C
:104EF00000F042FA17E00398069A694600230B6017
:104F0000194601F089FD0290029858B9FFE74FF069
:104F1000500080F31188BFF36F8FBFF34F8F07905E
:104F2000FFE7FEE7FFE700E0FFE7AAE742F274329F
:104F3000C2F200021068049042F28431C2F2000111
:104F4000086810600498086008B080BD83B0002035
:104F5000009041F23400C2F200000068013058B104
:104F6000FFE74FF0500080F31188BFF36F8FBFF35E
:104F70004F8F0290FFE7FEE74FF0500080F311885B
:104F8000BFF36F8FBFF34F8F0190FFE7009808B911
:104F9000FFE7FBE703B0704780B584B00390FFE7FD
:104FA00001A8FFF77FFB029002980199FFF7D2FE5C
:104FB000FFF728FEF4E7000080B582B0019000F012
:104FC0002FFA019890F845008DF80300FFE79DF94E
:104FD0000300012816DBFFE70198406A58B1FFE79C
:104FE0000198243001F0A2FB18B1FFE700F0D4FBD8
:104FF00000E0FFE700E005E09DF8030001388DF8D0
:105000000300E4E70199FF2081F8450000F034FA3D
:1050100000F006FA019890F844008DF80200FFE7CE
:105020009DF90200012816DBFFE70198006980B1B5
:10503000FFE70198103001F079FB18B1FFE700F0AD
:10504000ABFB00E0FFE79DF8020001388DF802009D
:1050500000E000E0E4E70199FF2081F8440000F05F
:105060000BFA02B080BD000080B58AB00690002027
:10507000029000F055FC42F27C30C2F20000006861
:1050800018B9FFE7FFF72EFB00E0FFE7069843F2B1
:105090003441C2F200010968084240F0BE80FFE7D7
:1050A000069800B3FFE70698083006909DF81800B0
:1050B0004007B0B1FFE7069820F0070008300690DF
:1050C0009DF81800400758B1FFE74FF0500080F3FB
:1050D0001188BFF36F8FBFF34F8F0990FFE7FEE793
:1050E00000E0FFE700E0FFE70698002800F093806B
:1050F000FFE7069843F26041C2F200010968884266
:1051000000F28980FFE743F2CC40C2F20000049035
:1051100000680590FFE705984168069A00209142D3
:10512000019007D2FFE705980068002818BF01200A
:105130000190FFE70198C00730B1FFE705980490A0
:10514000059800680590E6E7059842F27C31C2F2C6
:105150000001096888425CD0FFE7049800680830C5
:1051600002900598006804990860059840680699BF
:10517000401A112821D3FFE70598069908440390A7
:105180009DF80C00400758B1FFE74FF0500080F346
:105190001188BFF36F8FBFF34F8F0890FFE7FEE7D3
:1051A000059840680699401A039948600698059941
:1051B00048600398FFF704FC00E0FFE705984268A9
:1051C00043F26040C2F200000168891A0160006881
:1051D00043F26841C2F20001096888420BD2FFE73E
:1051E00043F26040C2F20000006843F26841C2F23C
:1051F0000001086000E0FFE743F23440C2F2000023
:1052000002680599486810434860059900200860C5
:1052100000E0FFE700E0FFE700E0FFE701F0EEFA63
:105220009DF80800400758B1FFE74FF0500080F3A9
:105230001188BFF36F8FBFF34F8F0790FFE7FEE733
:1052400002980AB080BD000083B0029001910092E4
:1052500002980438029002994FF08070086002981A
:1052600004380290019820F0010002990860029829
:1052700004380290029944F64D70C0F600000860B0
:105280000298143802900098029908600298203819
:105290000290029803B0704782B0019001980069B3
:1052A0000090019841688068886001994868896821
:1052B0004860009840680199884205D1FFE701984D
:1052C00080680099486000E0FFE7019900200861CC
:1052D00000990868013808600098006802B07047BB
:1052E00083B0029001910092029941F23820C2F2FB
:1052F00000000860019941F23800C2F20000086025
:1053000000998020086003B07047000083B00290CD
:1053100001910092029941F2AC60C2F20000086073
:10532000019941F2AC20C2F20000086000994FF4EC
:105330008070086003B0704781B00090009901F15F
:105340000800486000994FF0FF308860009901F133
:105350000800C860009901F1080008610099002068
:10536000086001B07047000081B0009000990020F3
:10537000086101B07047000084B003900291029868
:10538000006800900098013020B9FFE70398006999
:10539000019010E0039808300190FFE70198406801
:1053A00000680099884205D8FFE7FFE70198406848
:1053B0000190F3E7FFE7019840680299486002987E
:1053C0004168886001980299886002980199486054
:1053D000039802990861039908680130086004B0D5
:1053E0007047000083B002900191029840680090DD
:1053F0000098019948600098806801998860019838
:10540000009989684860019800998860029801991C
:105410000861029908680130086003B07047000015
:1054200082B04FF0500080F31188BFF36F8FBFF34D
:105430004F8F019041F23400C2F200000168013147
:1054400001600068012814D1FFE74EF60450CEF247
:1054500000000068000658B1FFE74FF0500080F3ED
:105460001188BFF36F8FBFF34F8F0090FFE7FEE708
:10547000FFE702B07047000082B041F23400C2F290
:105480000000006858B9FFE74FF0500080F3118822
:10549000BFF36F8FBFF34F8F0090FFE7FEE741F23E
:1054A0003400C2F20000016801390160006830B9BF
:1054B000FFE700200190019880F31188FFE702B018
:1054C0007047000080B586B003900398029003985F
:1054D000002855D0FFE70298083802900298019002
:1054E0000198406843F23441C2F200010968084261
:1054F0000BD1FFE74FF0500080F31188BFF36F8F9F
:10550000BFF34F8F0590FFE7FEE70198006858B1A1
:10551000FFE74FF0500080F31188BFF36F8FBFF3A8
:105520004F8F0490FFE7FEE70198406843F2344153
:10553000C2F200010968084220D0FFE70198006824
:10554000D0B9FFE743F23440C2F20000026801998B
:1055500048689043486000F0E3F90198426843F2DC
:105560006041C2F200010868104408600198FFF72A
:1055700027FA01F043F900E0FFE700E0FFE7FFE76B
:1055800006B080BD4EF21001CEF20001002008608E
:105590004EF21802CEF20002106040F20800C2F291
:1055A0000000006844F6D352C1F26202A0FB02027E
:1055B0004FF0FF3000EB92104EF21402CEF20002D8
:1055C000106007200860704784B0EFF305800190F9
:1055D000019810281ED3FFE701984EF2F031CEF269
:1055E0000001405C8DF803009DF8030043F2E831B0
:1055F000C2F20001097888420BDAFFE74FF0500051
:1056000080F31188BFF36F8FBFF34F8F0390FFE7D5
:10561000FEE7FFE74EF60C50CEF20000006800F403
:10562000E06043F2EC31C2F20001096888420BD914
:10563000FFE74FF0500080F31188BFF36F8FBFF387
:105640004F8F0290FFE7FEE704B0704783B00290EF
:10565000019100200090FFE7009807281DD8FFE780
:10566000009943F28840C2F2000050F8310070B94E
:10567000FFE70198009A43F28841C2F2000141F825
:1056800032000298009A01EBC201486005E0FFE792
:10569000FFE7009801300090DEE703B0704700009C
:1056A00080B584B003900291019203980090FFF7B7
:1056B000B7FE009890F94400013028B9FFE700993F
:1056C000002081F84400FFE7009890F94500013080
:1056D00028B9FFE70099002081F84500FFE7FFF7B0
:1056E000CBFE0098806B38B9FFE700982430029910
:1056F000019A00F07BF800E0FFE70098FFF75CFC00
:1057000004B080BD80B584B0029000200190029862
:10571000E0B1FFE743F20040C2F20000006858B178
:10572000FFE74FF0500080F31188BFF36F8FBFF396
:105730004F8F0390FFE7FEE700F0F2F80298002198
:10574000FEF77CFD01F05AF8019000E0FFE70198B8
:1057500060B9FFE74EF60451CEF200014FF08050E1
:105760000860BFF34F8FBFF36F8F00E0FFE704B017
:1057700080BD000081B0009043F27040C2F2000092
:1057800000680099086043F2FC40C2F20000006823
:105790000099486001B0704743F20851C2F200011D
:1057A000012008607047000080B584B0029001912C
:1057B000029858B9FFE74FF0500080F31188BFF30B
:1057C0006F8FBFF34F8F0390FFE7FEE7029842F21F
:1057D0007031C2F2000109681831FFF7CDFD019860
:1057E0000121FEF72BFD04B080BD000080B584B020
:1057F000029001910092029858B9FFE74FF05000D3
:1058000080F31188BFF36F8FBFF34F8F0390FFE7D3
:10581000FEE7029842F27031C2F2000109681831C5
:10582000FFF7E0FD009820B1FFE74FF0FF30019057
:10583000FFE701980099FEF701FD04B080BD00006C
:1058400080B58AB0002003900690059006A805A9AF
:1058500004AAFFF745FD039B049A0599DDF818C0DB
:105860006846C0F808C04160036044F2A170C0F609
:10587000000046F6F831C0F6000100F073FD014665
:1058800043F26440C2F200000160006818B1FFE713
:105890000120079002E000200790FFE70798012809
:1058A00004D1FFE701F06EF8079000E0FFE70798EA
:1058B000012823D1FFE74FF0500080F31188BFF398
:1058C0006F8FBFF34F8F099043F26C41C2F200011A
:1058D0004FF0FF30086043F2C841C2F200010120DE
:1058E000086043F2FC41C2F200010020086000F0B1
:1058F00083F808B1FFE700E0FFE70FE00798013009
:1059000058B9FFE74FF0500080F31188BFF36F8F55
:10591000BFF34F8F0890FFE7FEE7FFE70AB080BDB7
:1059200043F20041C2F2000108680130086070478C
:1059300083B043F20040C2F20000006838B1FFE7D4
:1059400043F20851C2F200010120086051E043F225
:105950000851C2F200010020086043F20840C2F280
:10596000000000680190FFE7019800EB800142F21F
:105970008830C2F2000050F8210090B9FFE701988A
:1059800058B9FFE74FF0500080F31188BFF36F8FD5
:10599000BFF34F8F0290FFE7FEE7019801380190B7
:1059A000E2E7019800EB800142F28830C2F2000089
:1059B00000EB8100009000994868406848600099B9
:1059C00048680831884205D1FFE700994868406877
:1059D0004860FFE700984068C06842F27031C2F248
:1059E00000010860019843F20841C2F2000108601A
:1059F000FFE703B07047000080B586B04EF200406C
:105A0000CEF20000039001780491FF21017000782C
:105A10008DF80B009DF80B0000F0500043F2E831C8
:105A2000C2F20001087043F2EC31C2F2000107201B
:105A30000860FFE79DF80B00000600280DD5FFE782
:105A400043F2EC31C2F200010868013808609DF8A9
:105A50000B0040008DF80B00ECE743F2EC30C2F293
:105A60000000006803280BD0FFE74FF0500080F3E0
:105A70001188BFF36F8FBFF34F8F0590FFE7FEE7ED
:105A800043F2EC31C2F200010868000208600868C5
:105A900000F4E060086004984EF20041CEF200018C
:105AA00008704EF62051CEF20001086840F47000F4
:105AB0000860086840F070400860FFF763FD41F23D
:105AC0003401C2F20001002001900860FFF74CF899
:105AD000FFF72EFFFFF73AFA019806B080BD0000ED
