:020000040800F2
:10000000B820002045010008B91900085D17000854
:10001000B5190008F10100080120000800000000E7
:10002000000000000000000000000000B11A0008FD
:10003000F501000800000000311A0008091E000840
:100040005F0100085F0100085F0100085F01000810
:100050005F0100085F0100085F0100085F01000800
:100060005F0100085F0100085F0100085F010008F0
:100070005F0100085F0100085F0100085F010008E0
:100080005F0100085F0100085F0100085F010008D0
:100090005F0100085F0100085F0100085F010008C0
:1000A0005F0100085F0100085F0100085F010008B0
:1000B0005F0100085F0100085F0100085F010008A0
:1000C0005F0100085F0100085F0100085F01000890
:1000D0005F0100085F0100085F0100085F01000880
:1000E0005F0100085F0100085F0100085F01000870
:1000F000B11E00085F0100085F0100085F010008F1
:100100005F0100085F0100085F0100085F0100084F
:100110005F0100085F0100085F0100085F0100083F
:100120005F0100085F0100085F0100085F0100082F
:10013000DFF80CD000F04AF800480047E52100083D
:10014000B82000200648804706480047FEE7FEE743
:10015000FEE7FEE7FEE7FEE7FEE7FEE7FEE7FEE777
:10016000AD1E00083101000840EA01039B0703D0DF
:1001700009E008C9121F08C0042AFAD203E011F8E6
:10018000013B00F8013B521EF9D27047D2B201E0A8
:1001900000F8012B491EFBD270470022F6E710B58C
:1001A00013460A4604461946FFF7F0FF204610BDE5
:1001B00010B5002200E0521C835C8C5CA34201D18C
:1001C000002BF8D1D8B2E1B2401A10BD064C074D51
:1001D00006E0E06840F0010394E807009847103417
:1001E000AC42F6D3FFF7A8FFE84E0008084F00081E
:1001F000FFE7FEE77047000081B0EFF3108072B6B2
:100200000090FFE7FEE7000092B0119010910020EF
:100210000F900B90FFE7109800680F99C8400028D6
:1002200000F09B81FFE70F99012088400E90109805
:1002300000680E9908400D900D980E99884240F084
:100240008881FFE7109840680790002851D0FFE7A9
:10025000079801283AD0FFE7079802283FD0FFE728
:10026000079803285FD0FFE70798112832D0FFE7EF
:100270000798122838D0FFE707980021C1F2110132
:10028000884236D0FFE707980021C1F21201884268
:100290002FD0FFE707980021C1F22101884228D022
:1002A000FFE707980021C1F22201884221D0FFE731
:1002B00007980021C1F2310188421AD0FFE7079860
:1002C0000021C1F23201884213D02FE01098C0689B
:1002D0000B902CE01098C06804300B9027E0109829
:1002E000C06808300B9022E01098C0680C300B906A
:1002F0001DE01098806818B9FFE704200B9011E00A
:1003000010988068012806D1FFE708200B900E980E
:100310001199086105E008200B900E981199486129
:10032000FFE7FFE703E000200B9000E0FFE70D98F8
:10033000FF2803D8FFE71198069003E011980430D6
:100340000690FFE706980A900D98FF2804D8FFE76B
:100350000F988000059006E00F996FF01F0000EBEA
:1003600081000590FFE7059809900A980068099AAE
:100370000F21914088430B99914008430A990860E6
:100380001098C079C006002840F1E280FFE7FFE73F
:1003900041F21800C4F20200016841F0010101605D
:1003A000006800F0010008900898FFE70F9820F01F
:1003B00003000821C4F2010140580C900F9800F08E
:1003C000030081000F2000FA01F10C9888430C9083
:1003D000119840F60001C4F20101884203D1FFE701
:1003E0000020049042E0119840F60041C4F201015F
:1003F000884203D1FFE70120039034E0119841F2D5
:100400000001C4F20101884203D1FFE702200290FB
:1004100026E0119841F20041C4F20101884203D163
:10042000FFE70320019018E0119841F60001C4F2A3
:100430000101884203D1FFE7042000900AE01199EE
:1004400041F60042C4F201020620914208BF052095
:100450000090FFE700980190FFE701980290FFE706
:1004600002980390FFE703980490FFE704980F9920
:1004700001F00301890000FA01F10C9808430C9087
:100480000C980F9921F003010822C4F20102885050
:1004900010988079C006002809D5FFE70D9A40F230
:1004A0000841C4F2010108681043086008E00D9A91
:1004B00040F20841C4F20101086890430860FFE778
:1004C000109880798006002809D5FFE70D9A40F240
:1004D0000C41C4F2010108681043086008E00D9A5D
:1004E00040F20C41C4F20101086890430860FFE744
:1004F000109880798007002809D5FFE70D9A40F20F
:100500000441C4F2010108681043086008E00D9A34
:1005100040F20441C4F20101086890430860FFE71B
:1005200010988079C00748B1FFE70D9A40F200416A
:10053000C4F2010108681043086008E00D9A40F217
:100540000041C4F20101086890430860FFE7FFE73B
:10055000FFE70F9801300F905DE612B07047000082
:1005600082B00190ADF802108DF801209DF80100D5
:1005700028B1FFE7BDF802000199086105E0BDF868
:100580000200000401990861FFE702B07047000013
:1005900041F69810C2F200000068704740F2A800CF
:1005A000C2F20000027841F69811C2F20001086818
:1005B000104408607047000080B542F20001C4F2A8
:1005C0000201086840F010000860032000F0D4F831
:1005D0000F2000F005F800F071F8002080BD000049
:1005E00080B58CB00B900020059004908DF80B0026
:1005F000FFE741F21800C4F20200016841F4005123
:100600000160006800F4005001900198FFE706A81F
:1006100003A900F0E5F900F013FA059005984DF6EE
:100620008361C4F21B31A0FB01014FF0FF3000EBEE
:100630009140049040F2D870C2F2000043F20041B1
:10064000C4F20101016040F2E731C16004994160E8
:10065000002101618160816100F064FE8DF80B0072
:100660009DF80B0028BBFFE740F2D870C2F20000F3
:1006700000F0AAFE8DF80B009DF80B00C0B9FFE753
:100680002C2000F055F80B980F280CD8FFE70B9999
:100690002C20002200F056F80B9840F2AC01C2F278
:1006A0000001086003E001208DF80B00FFE7FFE781
:1006B000FFE79DF80B000CB080BD000080B584B052
:1006C000FFE741F21800C4F20200016841F00101A5
:1006D0000160006800F0010003900398FFE7FFE766
:1006E00041F21C00C4F20200016841F08051016037
:1006F000006800F0805002900298FFE76FF0010060
:100700000F21002200F01EF8FFE70421C4F20101CE
:1007100008680190019820F0E0600190019840F095
:100720000070019001980860FFE704B080BD0000F0
:1007300080B582B08DF807009DF9070001F062FCDA
:1007400002B080BD80B586B08DF817000491039289
:100750000020029001F06EFC02909DF917000190BC
:1007600002980499039A01F029F90146019801F0D1
:1007700069FC06B080BD000080B582B00190019890
:1007800001F082FC02B080BD80B584B0029001917E
:10079000029820B9FFE701208DF80F001BE10198B6
:1007A00042F20001C4F20201096801F00701884227
:1007B00016D9FFE742F20000C4F20200016821F0FE
:1007C0000701019A11430160006800F007000199D8
:1007D000884204D0FFE701208DF80F00FBE0FFE71F
:1007E00002980078800700282AD5FFE70298007851
:1007F0004007002809D5FFE741F20401C4F20201D5
:10080000086840F4E0600860FFE70298007800079D
:10081000002809D5FFE741F20401C4F2020108688B
:1008200040F460500860FFE741F20401C4F20201A5
:10083000086820F0F000029A926810430860FFE711
:1008400002980078C007002860D0FFE7029840684F
:1008500001280ED1FFE741F20000C4F20200006857
:100860008003002804D4FFE701208DF80F00B2E0D8
:1008700021E00298406802280ED1FFE741F2000013
:10088000C4F2020000688001002804D4FFE70120C0
:100890008DF80F009FE00DE041F20000C4F202006D
:1008A00000688007002804D4FFE701208DF80F00BE
:1008B00091E0FFE7FFE741F20401C4F2020108689A
:1008C00020F00300029A526810430860FFF760FEB0
:1008D0000090FFE741F20400C4F20200006800F05B
:1008E0000C0002994968B0EB810F0ED0FFE7FFF7CB
:1008F0004FFE0099401A41F28931884204D3FFE744
:1009000003208DF80F0066E0E4E7FFE7019842F26C
:100910000001C4F20201096801F00701884216D201
:10092000FFE742F20000C4F20200016821F0070173
:10093000019A11430160006800F0070001998842A4
:1009400004D0FFE701208DF80F0044E0FFE7029894
:100950000078400700280CD5FFE741F20401C4F2FB
:100960000201086820F4E060029AD268104308602F
:10097000FFE702980078000700280DD5FFE741F255
:100980000401C4F20201086820F46050029A12695E
:1009900040EAC2000860FFE700F064F841F2040199
:1009A000C4F202010968C9B20A0944F6FC51C0F652
:1009B0000001895CC84040F20801C2F200010860F1
:1009C00040F2AC00C2F200000068FFF709FE002010
:1009D0008DF80F00FFE79DF80F0004B080BD000008
:1009E00082B00190009101990F20086041F204004B
:1009F000C4F20200016801F00301019A516001682C
:100A000001F0F001019A9160016801F4E061019A3E
:100A1000D160006800F46050C0080199086142F29A
:100A20000000C4F20200006800F0070000990860AE
:100A300002B0704740F20800C2F200000068704740
:100A400080B5FFF7F7FF41F20401C4F20201096823
:100A5000C1F3C22244F60C61C0F60001895CC840B3
:100A600080BD000086B000200590049003900290A5
:100A7000019041F20400C4F202000068059005985C
:100A800000F00C000146009100283FD0FFE70098DD
:100A9000042804D0FFE70098082806D037E041F288
:100AA0000020C0F27A00019037E00598C0F383413E
:100AB00044F61460C0F60000405C02909DF81600F9
:100AC000C007C0B1FFE741F20400C4F202000068B1
:100AD000C0F3404144F62460C0F60000405C04903E
:100AE000029841F20021C0F27A0148430499B0FB18
:100AF000F1F0039007E0029840F60011C0F23D01CA
:100B000048430390FFE70398019006E0FFE741F2B6
:100B10000020C0F27A000190FFE7019806B070470C
:100B200080B586B00490049820B9FFE701208DF8C5
:100B300017002EE304980078C007002800F0AE806C
:100B4000FFE741F20400C4F20200006800F00C006C
:100B5000042813D0FFE741F20400C4F20200006849
:100B600000F00C0008281BD1FFE741F20400C4F29A
:100B700002000068C003002812D5FFE741F2000020
:100B8000C4F2020000688003002808D5FFE704983B
:100B9000406820B9FFE701208DF81700F9E27CE0FA
:100BA000FFE704984068B0F5803F09D1FFE741F2C4
:100BB0000001C4F20201086840F48030086032E0AD
:100BC0000498406868B9FFE741F20001C4F20201ED
:100BD000086820F480300860086820F480200860ED
:100BE00020E004984068B0F5A02F0DD1FFE741F256
:100BF0000001C4F20201086840F48020086008681F
:100C000040F4803008600CE041F20001C4F20201BF
:100C1000086820F480300860086820F480200860AC
:100C2000FFE7FFE7FFE7FFE704984068D0B1FFE781
:100C3000FFF7AEFC0390FFE741F20000C4F20200B0
:100C40000068800300280CD4FFE7FFF7A1FC03999C
:100C5000401A652804D3FFE703208DF8170098E2B7
:100C6000EAE719E0FFF794FC0390FFE741F2000088
:100C7000C4F202000068800300280CD5FFE7FFF7EC
:100C800087FC0399401A652804D3FFE703208DF8F9
:100C900017007EE2EAE7FFE7FFE7FFE70498007846
:100CA0008007002840F18D80FFE741F20400C4F284
:100CB0000200006810F00C0F13D0FFE741F20400AF
:100CC000C4F20200006800F00C00082829D1FFE7F8
:100CD00041F20400C4F202000068C003002820D4DE
:100CE000FFE741F20000C4F202000068800700281C
:100CF00009D5FFE704980069012804D0FFE7012027
:100D00008DF8170045E241F20001C4F202010868C3
:100D100020F0F800049A526940EAC2000860FFE738
:100D20004EE00498006958B3FFE70021C4F2422165
:100D300001200860FFF72CFC0390FFE741F2000060
:100D4000C4F202000068800700280CD4FFE7FFF718
:100D50001FFC0399401A032804D3FFE703208DF8F2
:100D6000170016E2EAE741F20001C4F20201086846
:100D700020F0F800049A526940EAC20008601EE0C0
:100D80000021C4F2422100200860FFF701FC03901B
:100D9000FFE741F20000C4F202000068800700286B
:100DA0000CD5FFE7FFF7F4FB0399401A032804D39F
:100DB000FFE703208DF81700EBE1EAE7FFE7FFE725
:100DC000FFE7049800780007002848D5FFE704985B
:100DD000806918B3FFE740F28041C4F2422101204C
:100DE0000860FFF7D5FB0390FFE741F22400C4F24F
:100DF00002000068800700280CD4FFE7FFF7C8FB5B
:100E00000399401A032804D3FFE703208DF8170045
:100E1000BFE1EAE7012000F02DFE1FE040F2804133
:100E2000C4F2422100200860FFF7B2FB0390FFE705
:100E300041F22400C4F202000068800700280CD5AB
:100E4000FFE7FFF7A5FB0399401A032804D3FFE748
:100E500003208DF817009CE1EAE7FFE7FFE704981D
:100E600000784007002840F1D880FFE700208DF887
:100E7000070041F21C00C4F202000068C000002814
:100E800013D4FFE7FFE741F21C00C4F2020001683F
:100E900041F080510160006800F08050009000989F
:100EA000FFE701208DF80700FFE747F20000C4F2DA
:100EB00000000068C005002822D4FFE747F20001C7
:100EC000C4F20001086840F480700860FFF760FB1E
:100ED0000390FFE747F20000C4F200000068C0057D
:100EE00000280CD4FFE7FFF753FB0399401A65284D
:100EF00004D3FFE703208DF817004AE1EAE7FFE794
:100F0000FFE70498C068012809D1FFE741F22001FA
:100F1000C4F20201086840F00100086031E0049862
:100F2000C06868B9FFE741F22001C4F20201086815
:100F300020F001000860086820F0040008601FE04D
:100F40000498C06805280DD1FFE741F22001C4F2E2
:100F50000201086840F004000860086840F00100E1
:100F600008600CE041F22001C4F20201086820F0A0
:100F700001000860086820F004000860FFE7FFE750
:100F8000FFE7FFE70498C068E0B1FFE7FFF700FB69
:100F90000390FFE741F22000C4F2020000688007DE
:100FA00000280ED4FFE7FFF7F3FA0399401A41F245
:100FB0008931884204D3FFE703208DF81700E8E069
:100FC000E8E71BE0FFF7E4FA0390FFE741F22000B7
:100FD000C4F202000068800700280ED5FFE7FFF783
:100FE000D7FA0399401A41F28931884204D3FFE7C6
:100FF00003208DF81700CCE0E8E7FFE79DF8070035
:10100000012809D1FFE741F21C01C4F2020108687E
:1010100020F080500860FFE7FFE70498C0690028CF
:1010200000F0B380FFE741F20400C4F20200006860
:1010300000F00C00082800F08280FFE70498C069E7
:1010400002285CD1FFE76021C4F242210020086041
:10105000FFF79EFA0390FFE741F20000C4F202009E
:101060000068800100280CD5FFE7FFF791FA03998B
:10107000401A032804D3FFE703208DF8170088E007
:10108000EAE70498006AB0F5803F0CD1FFE741F22F
:101090000401C4F20201086820F40030049A926846
:1010A00010430860FFE741F20401C4F2020108683E
:1010B00020F47410049B1A6A5B6A1A431043086098
:1010C0006021C4F2422101200860FFF761FA039019
:1010D000FFE741F20000C4F202000068800100282E
:1010E0000CD4FFE7FFF754FA0399401A032804D3FE
:1010F000FFE703208DF817004BE0EAE71EE06021D0
:10110000C4F2422100200860FFF742FA0390FFE793
:1011100041F20000C4F202000068800100280CD5F2
:10112000FFE7FFF735FA0399401A032804D3FFE7D6
:1011300003208DF817002CE0EAE7FFE724E004988D
:10114000C069012804D1FFE701208DF8170020E0D5
:1011500041F20400C4F2020000680290029800F418
:1011600080300499096A884208D1FFE7029800F4A8
:1011700070100499496A884204D0FFE701208DF875
:10118000170006E0FFE7FFE7FFE700208DF81700F4
:10119000FFE79DF8170006B080BD000080B584B061
:1011A0000290029820B9FFE701208DF80F006DE052
:1011B0000298406A60B9FFE702984068B0F5827F04
:1011C00001D1FFE703E002990020C861FFE705E0D5
:1011D00002990020086102994861FFE70299002006
:1011E0008862029890F8510040B9FFE70299002008
:1011F00081F85000029800F04DF8FFE702990220B4
:1012000081F8510002980168086820F040000860E9
:10121000029A019211685068D2F808C0D36800F4AD
:1012200082700CF4044C604403F4006318441369A6
:1012300003F002031844536903F00103184493694F
:1012400003F400731844D36903F038031844136A95
:1012500003F080031843926A02F4005210430860BE
:101260000299488B00F00400096848600298016800
:10127000C86920F40060C861029900204865029A9C
:10128000012182F851108DF80F00FFE79DF80F0043
:1012900004B080BD80B588B007900020069005900E
:1012A000049003900798006843F20001C4F2010122
:1012B00088422CD1FFE7FFE741F21800C4F2020098
:1012C000016841F480510160006800F48050029090
:1012D0000298FFE7FFE741F21800C4F2020001683C
:1012E00041F004010160006800F0040001900198E1
:1012F000FFE7A0200390022004900320069040F610
:101300000000C4F2010003A9FEF77EFFFFE708B06A
:1013100080BD000081B0009001B0704781B00090A6
:1013200001B0704780B582B00090009820B9FFE707
:1013300001208DF807003FE0009890F83D0040B98B
:10134000FFE70099002081F83C00009800F038F891
:10135000FFE70099022081F83D00009951F8040B45
:1013600000F0AEFD0099012081F84600FFE70099EA
:10137000012081F83E00009981F83F00009981F832
:101380004000009981F84100FFE7FFE70099012044
:1013900081F84200009981F84300009981F84400E7
:1013A000009981F84500FFE70099012081F83D0090
:1013B00000208DF80700FFE79DF8070002B080BD10
:1013C00081B0009001B0704783B00190019890F80F
:1013D0003D00012804D0FFE701208DF80B0059E003
:1013E0000199022081F83D0001980168C86840F029
:1013F0000100C8600198006842F60041C4F2010192
:1014000088422AD0FFE70198006843F20041C4F205
:101410000101884221D0FFE701980068B0F1804FB8
:101420001BD0FFE70198006840F20041C4F20001C0
:10143000884212D0FFE70198006840F60001C4F22C
:101440000001884209D0FFE70198006840F600419A
:10145000C4F20001884212D1FFE701980068806859
:1014600000F0070000900098062807D0FFE70198D9
:101470000168086840F001000860FFE706E0019895
:101480000168086840F001000860FFE700208DF85F
:101490000B00FFE79DF80B0003B0704781B0009090
:1014A00001B0704780B582B0019001980068006972
:1014B00000F002010020B0EB510F28D0FFE70198A7
:1014C0000068C06800F002010020B0EB510F1DD091
:1014D000FFE7019801686FF002000861019901209F
:1014E0000877019800688069800720B1FFE70198BC
:1014F000FFF7D4FF06E0019800F012F9019800F020
:1015000013F9FFE7019900200877FFE7FFE701984B
:101510000068006900F004010020B0EB910F29D0B1
:10152000FFE701980068C06800F004010020B0EBFC
:10153000910F1ED0FFE7019801686FF00400086169
:1015400001990220087701980068806910F4407FB3
:1015500004D0FFE70198FFF7A1FF06E0019800F033
:10156000DFF8019800F0E0F8FFE701990020087724
:10157000FFE7FFE701980068006900F0080100201C
:10158000B0EBD10F28D0FFE701980068C06800F0E9
:1015900008010020B0EBD10F1DD0FFE701980168D2
:1015A0006FF008000861019904200877019800682D
:1015B000C069800720B1FFE70198FFF76FFF06E0E1
:1015C000019800F0ADF8019800F0AEF8FFE701993E
:1015D00000200877FFE7FFE701980068006900F046
:1015E00010010020B0EB111F29D0FFE7019800681F
:1015F000C06800F010010020B0EB111F1ED0FFE703
:10160000019801686FF010000861019908200877BF
:1016100001980068C06910F4407F04D0FFE701988A
:10162000FFF73CFF06E0019800F07AF8019800F01F
:101630007BF8FFE7019900200877FFE7FFE70198B3
:1016400000680069C00780B1FFE701980068C068C2
:10165000C00748B1FFE7019801686FF00100086119
:10166000019800F065F8FFE7FFE70198006800695E
:10167000C1B20020B0EBD11F13D0FFE70198006882
:10168000C068C1B20020B0EBD11F09D0FFE70198BC
:1016900001686FF0800008610198FFF73BFEFFE7EB
:1016A000FFE701980068006900F040010020B0EBFE
:1016B000911F14D0FFE701980068C06800F0400156
:1016C0000020B0EB911F09D0FFE7019801686FF08F
:1016D00040000861019800F03DF8FFE7FFE701983E
:1016E0000068006900F020010020B0EB511F14D009
:1016F000FFE701980068C06800F020010020B0EB0F
:10170000511F09D0FFE7019801686FF020000861C0
:101710000198FFF703FEFFE7FFE702B080BD00007E
:1017200081B0009001B0704781B0009001B0704767
:1017300080B582B001900198006843F20041C4F284
:101740000101884203D1FFE7FEF728FFFFE702B05F
:1017500080BD000081B0009001B07047FFE7FEE758
:1017600080B582B08DF807009DF8072041F2004057
:10177000C4F201000221FEF7F3FE02B080BD0000BA
:1017800080B582B08DF807009DF8072041F2004037
:10179000C4F201000821FEF7E3FE02B080BD0000A4
:1017A00080B582B08DF807009DF8072041F2004017
:1017B000C4F201001021FEF7D3FE02B080BD00008C
:1017C00080B582B0082003F0E3FA0090009818B9C1
:1017D000FFE70020019005E0009900204860009894
:1017E0000190FFE7019802B080BD000080B586B08F
:1017F0000490039104980290049820B9FFE7012017
:101800008DF817001FE0082003F0C2FA019001983C
:1018100020B9FFE701208DF8170014E0FFE70298D8
:10182000406820B1FFE7029840680290F7E703980C
:10183000019908600199002048600199029A51605D
:101840008DF81700FFE79DF8170006B080BD000077
:1018500080B541F6D520C0F6000044F62862C0F6F7
:101860000002002100F074FD40F27C71C2F2000120
:10187000086080BD80B590B000200F900E900D9054
:101880000C90FFE741F21800C4F20200016841F039
:1018900004010160006800F004000B900B98FFE762
:1018A000FFE741F21800C4F20200016841F01001A4
:1018B0000160006800F010000A900A98FFE7FFE757
:1018C00041F21800C4F20200016841F020010160F9
:1018D000006800F0200009900998FFE741F200003D
:1018E000C4F2010002903021019100220592FEF71E
:1018F00037FE059A41F20040C4F2010007901A2118
:101900000491FEF72DFE019902980C91012103919B
:101910000D91022106910E910F910CA90891FEF7ED
:1019200073FCDDF80CC0059B069A07980899DDF852
:1019300010E0CDF830E0CDF834C00E930F92FEF7F2
:1019400063FC059B069A079808994FF0E00CCDF8C8
:1019500030C00D930E92FEF757FC10B080BD000012
:1019600080B582B040F28070C2F20000019043F274
:101970000001C4F2010101604FF4827141604FF433
:10198000004181600021C160016141614FF400723A
:1019900082613822C2610162416281620A21C162B0
:1019A000FFF7FCFB18B1FFE7FEF726FCFFE702B0EC
:1019B00080BD0000FFE7FEE7FFE7FEE788B0079085
:1019C00006910592079800F0070004900498C0F172
:1019D0000700052803D3FFE70420019004E00498E2
:1019E000C0F107000190FFE70198039004980430CC
:1019F000062803D8FFE70020009003E0049803388E
:101A00000090FFE70098029006980399012202FADD
:101A100001F101390840029B984005999A40013A2A
:101A20001140084308B070470000000000000000AB
:101A3000EFF30980BFF36F8F0D4B1A6820E9F00FA9
:101A400010602DE908404FF0500080F3118802F03B
:101A5000C3F84FF0000080F31188BDE80840196812
:101A60000868B0E8F00F80F30988BFF36F8F704704
:101A70001809002082B00190019840F20801C2F2DA
:101A800000010968C90844F6D352C1F26202A1FB01
:101A90000221890948430090FFE700BFFFE7009853
:101AA000411E00910028F8D1FFE702B07047000006
:101AB000074B19680868B0E8F00F80F30988BFF396
:101AC0006F8F4FF0000080F311884EF00D0E7047BD
:101AD0001809002080B582B0019040F20C00C2F2DB
:101AE000000000F0EFFA40F24000C2F2000000F007
:101AF000E9FA40F27400C2F2000000F0E3FA44F6A2
:101B00009160C0F600000121009100F017FB0099E0
:101B100044F69460C0F6000000F010FB009944F613
:101B2000AA60C0F6000000F009FBFFE7012000F00A
:101B30006DFBFBE780B586B0059000208DF81300A3
:101B4000FFE740F21830C2F20000006840680290DF
:101B5000FFE70298002800F05281FFE70298006832
:101B600003900398408AC00AC00708B9FFE742E122
:101B70000398007C4009C00738B9FFE70398807CD0
:101B800000F01F008DF8130006E00398007C00F0C1
:101B90001F008DF81300FFE70398C06850B9FFE7F6
:101BA0000399488A40F480604882FEF7F1FC03996B
:101BB000C8606EE0FEF7ECFC039A5168D268801AA8
:101BC0009DF8132001EBC201097901F01F01642285
:101BD000514388425CD9FFE7039841689DF8132080
:101BE00051F83210408AC0F344100844407850BB8A
:101BF000FFE7039840689DF8131000EBC1000179DE
:101C00000120B0EBD11F0BD1FFE70399488A20F4E4
:101C1000787048820399488A40F48060488211E0D5
:101C20000398007C4009C00730B1FFE70399087CA6
:101C300000F0DF000874FFE70399488A20F4806011
:101C40004882FFE71FE0039841689DF8132051F890
:101C50003210408AC0F344100844407890B1FFE746
:101C60000399488A012202EB501202F01F0220F46D
:101C7000787040EA421048820399488A40F48060B4
:101C80004882FFE7FFE7FEF783FC0399C860FFE7A0
:101C9000FFE7039948689DF8132050F83200498AFD
:101CA000C1F34411405C303801460191112857D8E6
:101CB0000199DFE801F0090F161D242B3239404746
:101CC000555555555555554E0399488A6FF31F3054
:101CD000488257E00399488A012262F31F30488204
:101CE00050E00399488A022262F31F30488249E09B
:101CF0000399488A032262F31F30488242E0039925
:101D0000488A042262F31F3048823BE00399488AE4
:101D1000052262F31F30488234E00399488A062284
:101D200062F31F3048822DE00399488A072262F34C
:101D30001F30488226E00399488A082262F31F3048
:101D400048821FE00399488A092262F31F304882C3
:101D500018E00399488A0A2262F31F30488211E092
:101D60000399488A40F470404882039A5068916908
:101D70009DF8133050F83300528AC2F344121044D5
:101D80008847FFE70398418A40F21C30C2F2000006
:101D90000078B0EB113F0FDBFFE70398408A000BA0
:101DA0000A2809DCFFE70398406928B1FFE7039898
:101DB00041690120884704E0039841690020884771
:101DC000FFE740F21C30C2F2000000780A2803D17D
:101DD000FFE70020009007E040F21C30C2F2000054
:101DE000007801300090FFE7009840F21C31C2F209
:101DF00000010870FFE7029840680290A9E6012000
:101E000000F004FA9DE6000080B582B04FF050006B
:101E100080F31188BFF36F8FBFF34F8F009002F0F4
:101E200081FC40B1FFE74EF60451CEF200014FF0C5
:101E300080500860FFE700200190019880F311882E
:101E400002B080BD80B590B006A800902821FEF7B2
:101E5000A4F9009800210591049103910291019148
:101E60000222069201230A9310230B930D920E91E6
:101E70004FF460110F91FEF753FE18B1FFE7FEF724
:101E8000BBF9FFE70F20019002210291002003908F
:101E90004FF480620492059001A8FEF775FC18B11A
:101EA000FFE7FEF7A9F9FFE710B080BD704700001B
:101EB00080B540F2D870C2F20000FFF7F3FA80BD9F
:101EC00083B002900191029800680090029842F657
:101ED0000041C4F20101884225D0FFE7029843F295
:101EE0000041C4F2010188421DD0FFE70298B0F121
:101EF000804F18D0FFE7029840F20041C4F2000181
:101F0000884210D0FFE7029840F60001C4F20001B9
:101F1000884208D0FFE7029840F60041C4F2000171
:101F200088420AD1FFE7009820F0700000900198E5
:101F30004168009808430090FFE7029842F600418C
:101F4000C4F20101884225D0FFE7029843F2004124
:101F5000C4F2010188421DD0FFE70298B0F1804F22
:101F600018D0FFE7029840F20041C4F20001884215
:101F700010D0FFE7029840F60001C4F20001884249
:101F800008D0FFE7029840F60041C4F20001884201
:101F90000AD1FFE7009820F4407000900198C168D2
:101FA000009808430090FFE7009820F08000019916
:101FB0004969084300900098029908600198806878
:101FC0000299C8620198006802998862029842F6F4
:101FD0000041C4F20101884208D0FFE7029843F2B1
:101FE0000041C4F20101884205D1FFE70198006970
:101FF00002990863FFE702990120486103B0704726
:10200000FFE7FEE781B08DF803009DF9030000288B
:102010000ED4FFE79DF9031001F01F02012090404C
:102020004A094EF20011CEF2000141F82200FFE70A
:1020300001B070474EF60C50CEF200000068C0F3BD
:102040000220704782B08DF8070000919DF90700CB
:1020500000280AD4FFE7009800019DF907104EF20E
:102060000042CEF2000288540BE0009800019DF877
:10207000071001F00F014EF61452CEF20002885400
:10208000FFE702B07047000083B00290029800F0B2
:10209000070000904EF60C51CEF200010868019046
:1020A00001984FF6FF02104001900198009A40EA13
:1020B00002200022C0F2FA521043019001980860F9
:1020C00003B0704780B582B0019040F21830C2F280
:1020D0000000006840B9FFE7FFF772FB40F21831DB
:1020E000C2F200010860FFE740F21830C2F20000BF
:1020F00000680199FFF77AFB40F62000C2F2000069
:102100000068C0B9FFE740F21830C2F20000006872
:1021100088B1FFE741F63530C0F6000044F64C6266
:10212000C0F60002002100F013F940F62001C2F2CF
:1021300000010860FFE702B080BD000080B584B0F8
:1021400003908DF80B1040F21830C2F200000068C6
:1021500040680090FFE70098002841D0FFE7009812
:1021600000680190019800680399FEF721F890BB80
:10217000FFE70198007A9DF80B1088422ADDFFE7FF
:1021800001984168408A00F01F0001EBC00000790F
:10219000C0F341109DF80B2001EBC2010979C1F396
:1021A0004111884215DCFFE70199488A40F400603C
:1021B00048829DF80B200199488A62F30400488206
:1021C0000199488A20F47870488201990020C860FB
:1021D000FFE7FFE704E0FFE7009840680090BAE7F8
:1021E00004B080BD80B582B000200190FEF7E4F914
:1021F000FFF728FEFFF73EFBFFF7B2FB00F034F8D5
:10220000FFF726FB00F068F8FFE7FEE780B586B031
:102210000290EFF3058003900398A0B9FFE7EFF376
:1022200010800490049870B9FFE740F21430C2F2B5
:102230000000006802280AD1FFE7EFF31180059043
:10224000059820B1FFE76FF00500019009E000203C
:102250000190029820B1FFE7029801F0A7FBFFE789
:10226000FFE7019806B080BD84B0EFF305800190D0
:102270000198A0B9FFE7EFF310800290029870B9BF
:10228000FFE740F21430C2F20000006802280AD1D1
:10229000FFE7EFF311800390039820B1FFE76FF0A1
:1022A0000500009014E040F21430C2F20000006813
:1022B00048B9FFE740F21431C2F200010120086082
:1022C0000020009003E04FF0FF300090FFE7FFE7B1
:1022D000009804B07047000080B584B0EFF305802B
:1022E00001900198A0B9FFE7EFF3108002900298E7
:1022F00070B9FFE740F21430C2F200000068022813
:102300000AD1FFE7EFF311800390039820B1FFE7B4
:102310006FF00500009017E040F21430C2F20000A8
:10232000006801280BD1FFE740F21431C2F200012E
:102330000220086001F0D8FB0020009003E04FF07D
:10234000FF300090FFE7FFE7009804B080BD000079
:10235000B0B590B00B900A91099200200590EFF370
:1023600005800D900D98002840F0B580FFE7EFF351
:1023700010800E900E98002840F0AD80FFE740F2EC
:102380001430C2F200000068022808D1FFE7EFF322
:1023900011800F900F98002840F09D80FFE70B9868
:1023A000002800F09880FFE7802006901820049015
:1023B00000208DF823000DF1230007904FF0FF302F
:1023C0000390099800284DD0FFE70998006820B1D4
:1023D000FFE7099800680790FFE70998806920B136
:1023E000FFE7099880690490FFE7049848B1FFE788
:1023F0000498382805D8FFE709980079C00718B174
:10240000FFE700200C9069E00998406928B1FFE7D8
:102410000998406980080690FFE70998806880B1B4
:10242000FFE70998C0685C280BD3FFE709980069AB
:1024300038B1FFE70998406918B1FFE70120039020
:102440000FE00998806858B9FFE70998C06838B963
:10245000FFE70998006918B9FFE700200390FFE73C
:10246000FFE702E000200390FFE70398012817D15F
:10247000FFE70B980799069A0A9BDDF810C0DDF874
:1024800024E0DEF80850DEF81040EE46CEF80850A2
:10249000CEF80440CEF800C002F0B8F8059019E07C
:1024A0000398B0B9FFE70B980799BDF818200A9B6D
:1024B000DDF810C0EE4605ACCEF80440CEF800C002
:1024C00002F054F8012803D0FFE700200590FFE751
:1024D000FFE7FFE7FFE705980C90FFE70C9810B0C7
:1024E000B0BD000080B584B00390029141F6A420F5
:1024F000C2F200000068009040F61810C2F200001E
:102500000068043001F01CF808B9FFE700E0FFE7BD
:102510000398013080B9FFE7029868B1FFE740F601
:102520001810C2F200000068011D41F67C20C2F2C2
:10253000000001F0ABF83DE00098039908440190D9
:10254000019840F61811C2F200010968486001982C
:10255000009988420ED2FFE740F62810C2F2000030
:10256000006840F61811C2F200010968043101F058
:1025700057F81EE040F62010C2F20000006840F656
:102580001811C2F200010968043101F049F80198FC
:1025900041F61421C2F200010968884207D2FFE720
:1025A000019841F61421C2F20001086000E0FFE743
:1025B000FFE7FFE704B080BD80B582B0019001F075
:1025C00083F841F69C11C2F20001086801300860EE
:1025D00040F61810C2F20000006898B9FFE70198B1
:1025E00040F61811C2F20001086041F69C10C2F2D8
:1025F00000000068012803D1FFE700F0EDFA00E0D9
:10260000FFE71CE041F67020C2F200000068A0B9AC
:10261000FFE740F61810C2F200000068C06A019996
:10262000C96A884207D8FFE7019840F61811C2F23C
:102630000001086000E0FFE700E0FFE7FFE741F688
:10264000AC10C2F20000016801310160006801991C
:1026500048640198C06A41F6B011C2F200010968ED
:10266000884208D9FFE70198C06A41F6B011C2F26A
:1026700000010860FFE70199C86A00EB800240F69C
:102680003010C2F2000000EB8200043100F0FEFFC7
:1026900001F046F841F67020C2F200000068C8B1AF
:1026A000FFE740F61810C2F200000068C06A019906
:1026B000C96A88420CD2FFE74EF60451CEF20001FF
:1026C0004FF080500860BFF34F8FBFF36F8F00E073
:1026D000FFE700E0FFE702B080BD000080B584B0F6
:1026E00000F0F2FF41F6A820C2F2000000680028C6
:1026F00040D1FFE741F6B410C2F20000029000F0B2
:102700006FFF41F6C810C2F20000039000F068FFAE
:102710000299039840F61C12C2F20002116040F6C2
:102720002C11C2F20001086069460020086040F6E2
:102730002402C2F2000240F6C403C2F200030A20DF
:10274000102101F021FB014641F6A820C2F2000051
:102750000160006860B1FFE741F6A820C2F2000006
:10276000006844F68161C0F6000101F0C3F800E0A2
:10277000FFE700E0FFE700F0D3FF04B080BD0000FA
:1027800080B582B0FFE741F6A010C2F200000068F9
:1027900008B3FFE700F098FF41F69020C2F2000076
:1027A000C068C06801900198043000F0C9FE41F68D
:1027B0009C11C2F2000108680138086041F6A011BE
:1027C000C2F2000108680138086000F0A9FF019812
:1027D00000F08CF8D7E702B080BD000080B582B071
:1027E000019000910198006CB8B1FFE70199C868A9
:1027F0000A6C1044C86001984168C068884204D3DC
:10280000FFE701990868C86000E0FFE70098019AB7
:10281000D168126CFDF7A8FCFFE702B080BD000094
:1028200080B586B00590049103920020029005982F
:10283000806B01900598006C78B9FFE705980068F7
:1028400048B9FFE70598406802F04EF802900599F4
:102850000020486000E0FFE741E00398B8B9FFE7D7
:10286000059A04999068126CFDF77EFC05998868BA
:102870000A6C10448860059841688068884204D3D7
:10288000FFE705990868886000E0FFE726E0059A01
:102890000499D068126CFDF767FC0599C8680A6C4A
:1028A000801AC86005980168C068884206D2FFE7B0
:1028B000059948680A6C801AC86000E0FFE7039831
:1028C000022809D1FFE7019820B1FFE701980138FC
:1028D000019000E0FFE700E0FFE7FFE7FFE7019876
:1028E000013005998863029806B080BD80B582B03A
:1028F0000090009890F8590040B9FFE70098006BED
:1029000000F034FF009800F031FF1CE0009890F8D0
:102910005900012804D1FFE7009800F027FF11E0DB
:10292000009890F8590002280BD0FFE74FF05000B4
:1029300080F31188BFF36F8FBFF34F8F0190FFE7D4
:10294000FEE7FFE7FFE702B080BD000082B0019024
:1029500040F61C10C2F2000000680068B0FA80F077
:102960004009019908600198006848B9FFE740F6FE
:102970001C10C2F200000068C0680068009002E00D
:1029800000200090FFE7009802B0704784B04FF439
:102990004060009040F69050C2F2000001909DF817
:1029A0000400400788B1FFE70198073001900198C3
:1029B00020F007000190019A40F69051C2F2000108
:1029C0000098891A08440090FFE701980290029944
:1029D00041F67420C2F200000160002141600298BB
:1029E000009A10440190019808380190019820F055
:1029F00007000190019A40F62410C2F20000026024
:102A00000268516002681160029903910199039A6A
:102A1000891A51600068039908600398406841F67C
:102A20001021C2F2000108600398406841F60821B5
:102A3000C2F20001086041F6DC11C2F200014FF061
:102A40000040086004B0704780B582B00190FFE795
:102A5000FFF796FE40F63010C2F200000068022830
:102A60000CD3FFE74EF60451CEF200014FF0805038
:102A70000860BFF34F8FBFF36F8F00E0FFE7E7E71A
:102A800080B584B0DDF818C00390029101928DF8F2
:102A90000330029818B9FFE70698006003E0019838
:102AA00006990860FFE703980699C863029806999B
:102AB00008640698012101F0EDF99DF803000699DC
:102AC00081F84C0004B080BD80B588B0DDF834C01A
:102AD000DDF830C0DDF82CC0DDF828C00690059187
:102AE000049203930C98006B04998900A522FDF7CA
:102AF0004DFB0C98006B049900EB810004380290A8
:102B0000029820F0070002909DF80800400758B195
:102B1000FFE74FF0500080F31188BFF36F8FBFF3D2
:102B20004F8F0790FFE7FEE700200190FFE7019835
:102B30000F2813D8FFE70598019A805C0C9911447F
:102B400081F8340005980199405C08B9FFE705E079
:102B5000FFE7FFE7019801300190E8E70C990020BA
:102B600081F843000A98382803D3FFE737200A90FA
:102B700000E0FFE70A980C99C8620A980C99C864AB
:102B80000C990020009008650C98043000F040FD7E
:102B90000C98183000F03CFD00980C9909610A99D6
:102BA000C1F138010C9A91610C9949620C99486500
:102BB0000C9981F8580002980699039A00F098FC45
:102BC0000C9908600B9820B1FFE70C980B990860EE
:102BD00000E0FFE708B080BD80B584B0002003901E
:102BE000FFE70398372810D8FFE7039800EB800130
:102BF00040F63010C2F2000000EB810000F0F0FC63
:102C0000FFE7039801300390EBE741F6E010C2F2D2
:102C10000000019000F0E4FC41F6F410C2F2000064
:102C2000029000F0DDFC41F61C20C2F2000000F032
:102C3000D7FC41F69020C2F2000000F0D1FC41F632
:102C40007C20C2F2000000F0CBFC0199029840F613
:102C50002012C2F20002116040F62811C2F20001F7
:102C6000086004B080BD000083B0029041F674207B
:102C7000C2F200000190FFE70198006802998842C3
:102C800005D2FFE7FFE7019800680190F4E701989B
:102C9000009000980199496808440299884209D136
:102CA000FFE702984268019948681044486001981B
:102CB000029000E0FFE702980090009802994968AE
:102CC000084401990968884220D1FFE7019800680B
:102CD00040F62411C2F20001096888420DD0FFE7D6
:102CE0000198006842680299486810444860019859
:102CF000006800680299086007E040F62410C2F2FC
:102D00000000006802990860FFE704E0019800688D
:102D100002990860FFE701980299884204D0FFE712
:102D200002980199086000E0FFE703B070470000D7
:102D300080B586B005900491039202930020019023
:102D400004980599486005980061049803998842A1
:102D500016D8FFE703980299401A059989698842B5
:102D600003D3FFE70120019009E040F62C10C2F2E6
:102D7000000000680599043100F052FCFFE717E0FD
:102D800003980299884208D2FFE704980299884282
:102D900003D3FFE70120019009E040F61C10C2F2C6
:102DA000000000680599043100F03AFCFFE7FFE7F6
:102DB000019806B080BD000080B582B0019000F09F
:102DC00083FC0198806B18B9FFE70120009002E0B6
:102DD00000200090FFE700F0A3FC009802B080BD47
:102DE00080B582B0019000F06FFC0198806B019972
:102DF000C96B884203D1FFE70120009002E0002068
:102E00000090FFE700F08CFC009802B080BD00004D
:102E100006480068006880F3088862B661B6BFF3B0
:102E20004F8FBFF36F8F00DF00BF000008ED00E0A1
:102E300080B586B00490039140F61C10C2F20000E9
:102E40000068C068C06801900198043000F078FB09
:102E50000198C069012823D1FFE70198049B81698B
:102E60001944039AFFF764FFC0B1FFE70198049A81
:102E7000694600230B60194601F022FF0290029878
:102E800058B9FFE74FF0500080F31188BFF36F8F00
:102E9000BFF34F8F0590FFE7FEE700E0FFE700E09C
:102EA000FFE70198416A884706B080BD80B58EB0C3
:102EB000FFE741F6A820C2F20000006807A900223F
:102EC00001F000FA002800F09780FFE70798B0F1C2
:102ED000FF3F17DCFFE707A804300290029858B9BB
:102EE000FFE74FF0500080F31188BFF36F8FBFF3FF
:102EF0004F8F0D90FFE7FEE702990A6848688968DE
:102F0000904700E0FFE70798002800F17480FFE792
:102F1000099806900698406928B1FFE706980430A2
:102F200000F00EFB00E0FFE705A800F0D9F80390E1
:102F30000798019009285CD80199DFE801F00505A0
:102F40000534354F050534350698089B81691944C9
:102F5000039AFFF7EDFE20B3FFE70698416A884722
:102F60000698C06901281AD1FFE706980899826976
:102F70000A44694600230B60194601F0A1FE049043
:102F8000049858B9FFE74FF0500080F31188BFF361
:102F90006F8FBFF34F8F0C90FFE7FEE700E0FFE776
:102FA00000E0FFE726E025E008980699886106988A
:102FB000806958B9FFE74FF0500080F31188BFF3E4
:102FC0006F8FBFF34F8F0B90FFE7FEE70698039BD1
:102FD000816919441A46FFF7ABFE0BE0069890F89A
:102FE0002C0020B9FFE7069800F0C0FB00E0FFE7E7
:102FF00000E0FFE7FFE75CE70EB080BD80B584B07E
:103000000390029100F0E0FD684600F069F801903D
:103010000098D8BBFFE7029860B9FFE703980199D1
:10302000884207D8FFE701F03DFD03980199FFF7BB
:10303000FFFE2AE0029858B1FFE740F62C10C2F2DA
:10304000000000680068B0FA80F040090290FFE7D5
:1030500041F6A820C2F2000000680399019A891A7B
:10306000029A00F071FC01F01DFD60B9FFE74EF619
:103070000451CEF200014FF080500860BFF34F8F33
:10308000BFF36F8F00E0FFE7FFE702E001F00AFD0A
:10309000FFE704B080BD000081B040F62010C2F20E
:1030A00000000068006840B9FFE741F61421C2F251
:1030B00000014FF0FF3008600FE040F62010C2F230
:1030C00000000068C068C06800900098406841F641
:1030D0001421C2F200010860FFE701B07047000050
:1030E00080B582B0019001F013FB0090009840F68B
:1030F0001411C2F200010968884206D2FFE700F00D
:1031000011F801990120086003E00199002008608E
:10311000FFE7009840F61411C2F200010860009821
:1031200002B080BD80B588B0FFE740F61C10C2F247
:1031300000000068006800284CD0FFE740F61C1033
:10314000C2F200000168C968096806910068C06899
:10315000C06803900398043000F0F2F90398416AC4
:1031600088470398C069012832D1FFE70698039980
:103170008969084405900598069988420FD9FFE7A8
:103180000598039948600398006140F61C10C2F24C
:10319000000000680399043100F042FA17E0039838
:1031A000069A694600230B60194601F089FD0290DA
:1031B000029858B9FFE74FF0500080F31188BFF331
:1031C0006F8FBFF34F8F0790FFE7FEE7FFE700E049
:1031D000FFE7AAE740F61C12C2F200021068049052
:1031E00040F62C11C2F200010868106004980860D3
:1031F00008B080BD83B00020009040F2B000C2F261
:1032000000000068013058B1FFE74FF0500080F334
:103210001188BFF36F8FBFF34F8F0290FFE7FEE778
:103220004FF0500080F31188BFF36F8FBFF34F8FC3
:103230000190FFE7009808B9FFE7FBE703B070478C
:1032400080B584B00390FFE701A8FFF77FFB0290F1
:1032500002980199FFF7D2FEFFF728FEF4E700007D
:1032600080B582B0019000F02FFA019890F84500E7
:103270008DF80300FFE79DF90300012816DBFFE747
:103280000198406A58B1FFE70198243001F0A2FB91
:1032900018B1FFE700F0D4FB00E0FFE700E005E035
:1032A0009DF8030001388DF80300E4E70199FF2041
:1032B00081F8450000F034FA00F006FA019890F821
:1032C00044008DF80200FFE79DF90200012816DB9B
:1032D000FFE70198006980B1FFE70198103001F025
:1032E00079FB18B1FFE700F0ABFB00E0FFE79DF8CA
:1032F000020001388DF8020000E000E0E4E70199E7
:10330000FF2081F8440000F00BFA02B080BD0000FD
:1033100080B58AB006900020029000F055FC40F67F
:103320002410C2F20000006818B9FFE7FFF72EFB77
:1033300000E0FFE7069841F6DC11C2F200010968DF
:10334000084240F0BE80FFE7069800B3FFE706980A
:10335000083006909DF818004007B0B1FFE70698C6
:1033600020F00700083006909DF81800400758B17B
:10337000FFE74FF0500080F31188BFF36F8FBFF36A
:103380004F8F0990FFE7FEE700E0FFE700E0FFE76F
:103390000698002800F09380FFE7069841F6082180
:1033A000C2F200010968884200F28980FFE741F615
:1033B0007420C2F20000049000680590FFE70598B1
:1033C0004168069A00209142019007D2FFE70598D4
:1033D0000068002818BF01200190FFE70198C0078E
:1033E00030B1FFE705980490059800680590E6E77E
:1033F000059840F62411C2F20001096888425CD0A9
:10340000FFE7049800680830029005980068049966
:103410000860059840680699401A112821D3FFE7F3
:1034200005980699084403909DF80C00400758B190
:10343000FFE74FF0500080F31188BFF36F8FBFF3A9
:103440004F8F0890FFE7FEE7059840680699401AFD
:10345000039948600698059948600398FFF704FCB3
:1034600000E0FFE70598426841F60820C2F200003C
:103470000168891A0160006841F61021C2F200015A
:10348000096888420BD2FFE741F60820C2F200002B
:10349000006841F61021C2F20001086000E0FFE779
:1034A00041F6DC10C2F2000002680599486810433A
:1034B000486005990020086000E0FFE700E0FFE7B2
:1034C00000E0FFE701F0EEFA9DF80800400758B170
:1034D000FFE74FF0500080F31188BFF36F8FBFF309
:1034E0004F8F0790FFE7FEE702980AB080BD00000B
:1034F00083B00290019100920298043802900299E0
:103500004FF080700860029804380290019820F013
:10351000010002990860029804380290029943F26F
:10352000F510C0F600000860029814380290009868
:1035300002990860029820380290029803B0704700
:1035400082B00190019800690090019841688068FC
:1035500088600199486889684860009840680199C6
:10356000884205D1FFE7019880680099486000E033
:10357000FFE7019900200861009908680138086098
:103580000098006802B0704783B0029001910092E9
:10359000029940F2B820C2F200000860019940F29E
:1035A000B800C2F20000086000998020086003B0F3
:1035B0007047000083B0029001910092029940F29E
:1035C0002070C2F200000860019940F22030C2F27F
:1035D0000000086000994FF48070086003B07047E5
:1035E00081B00090009901F10800486000994FF007
:1035F000FF308860009901F10800C860009901F16E
:103600000800086100990020086001B070470000C0
:1036100081B0009000990020086101B0704700005F
:1036200084B00390029102980068009000980130E5
:1036300020B9FFE703980069019010E00398083073
:103640000190FFE70198406800680099884205D81A
:10365000FFE7FFE7019840680190F3E7FFE7019873
:103660004068029948600298416888600198029910
:10367000886002980199486003980299086103994B
:1036800008680130086004B07047000083B0029001
:103690000191029840680090009801994860009854
:1036A000806801998860019800998968486001984C
:1036B00000998860029801990861029908680130B0
:1036C000086003B07047000082B04FF0500080F3F4
:1036D0001188BFF36F8FBFF34F8F019040F2B0009E
:1036E000C2F200000168013101600068012814D1B4
:1036F000FFE74EF60450CEF200000068000658B115
:10370000FFE74FF0500080F31188BFF36F8FBFF3D6
:103710004F8F0090FFE7FEE7FFE702B07047000021
:1037200082B040F2B000C2F20000006858B9FFE772
:103730004FF0500080F31188BFF36F8FBFF34F8FAE
:103740000090FFE7FEE740F2B000C2F2000001681F
:1037500001390160006830B9FFE70020019001984D
:1037600080F31188FFE702B07047000080B586B093
:103770000390039802900398002855D0FFE7029821
:1037800008380290029801900198406841F6DC11D7
:10379000C2F20001096808420BD1FFE74FF0500068
:1037A00080F31188BFF36F8FBFF34F8F0590FFE752
:1037B000FEE70198006858B1FFE74FF0500080F332
:1037C0001188BFF36F8FBFF34F8F0490FFE7FEE7C1
:1037D0000198406841F6DC11C2F200010968084214
:1037E00020D0FFE701980068D0B9FFE741F6DC1070
:1037F000C2F200000268019948689043486000F0F6
:10380000E3F90198426841F60821C2F20001086814
:10381000104408600198FFF727FA01F043F900E02F
:10382000FFE700E0FFE7FFE706B080BD4EF21001C2
:10383000CEF20001002008604EF21802CEF2000223
:10384000106040F20800C2F20000006844F6D35253
:10385000C1F26202A0FB02024FF0FF3000EB9210B7
:103860004EF21402CEF2000210600720086070478A
:1038700084B0EFF305800190019810281ED3FFE774
:1038800001984EF2F031CEF20001405C8DF8030059
:103890009DF8030041F69011C2F2000109788842B8
:1038A0000BDAFFE74FF0500080F31188BFF36F8F02
:1038B000BFF34F8F0390FFE7FEE7FFE74EF60C5094
:1038C000CEF20000006800F4E06041F69411C2F20C
:1038D0000001096888420BD9FFE74FF0500080F3E0
:1038E0001188BFF36F8FBFF34F8F0290FFE7FEE7A2
:1038F00004B0704783B00290019100200090FFE770
:10390000009807281DD8FFE7009941F63020C2F241
:10391000000050F8310070B9FFE70198009A41F6B5
:103920003021C2F2000141F832000298009A01EB06
:10393000C201486005E0FFE7FFE700980130009012
:10394000DEE703B07047000080B584B003900291B9
:10395000019203980090FFF7B7FE009890F9440099
:10396000013028B9FFE70099002081F84400FFE703
:10397000009890F94500013028B9FFE70099002030
:1039800081F84500FFE7FFF7CBFE0098806B38B960
:10399000FFE7009824300299019A00F07BF800E0DC
:1039A000FFE70098FFF75CFC04B080BD80B584B0F1
:1039B0000290002001900298E0B1FFE741F6A810C4
:1039C000C2F20000006858B1FFE74FF0500080F3EA
:1039D0001188BFF36F8FBFF34F8F0390FFE7FEE7B0
:1039E00000F0F2F802980021FEF77CFD01F05AF891
:1039F000019000E0FFE7019860B9FFE74EF604513F
:103A0000CEF200014FF080500860BFF34F8FBFF33C
:103A10006F8F00E0FFE704B080BD000081B0009030
:103A200041F61820C2F2000000680099086041F6D3
:103A3000A420C2F2000000680099486001B07047FD
:103A400041F6B021C2F20001012008607047000079
:103A500080B584B002900191029858B9FFE74FF009
:103A6000500080F31188BFF36F8FBFF34F8F039027
:103A7000FFE7FEE7029840F61811C2F2000109685C
:103A80001831FFF7CDFD01980121FEF72BFD04B0A1
:103A900080BD000080B584B0029001910092029830
:103AA00058B9FFE74FF0500080F31188BFF36F8FD4
:103AB000BFF34F8F0390FFE7FEE7029840F618111F
:103AC000C2F2000109681831FFF7E0FD009820B14B
:103AD000FFE74FF0FF300190FFE701980099FEF7F4
:103AE00001FD04B080BD000080B58AB000200390C5
:103AF0000690059006A805A904AAFFF745FD039BBB
:103B0000049A0599DDF818C06846C0F808C04160FD
:103B1000036042F64920C0F6000044F67C61C0F61E
:103B2000000100F073FD014641F60C20C2F20000D6
:103B30000160006818B1FFE70120079002E0002053
:103B40000790FFE70798012804D1FFE701F06EF81E
:103B5000079000E0FFE70798012823D1FFE74FF027
:103B6000500080F31188BFF36F8FBFF34F8F099020
:103B700041F61421C2F200014FF0FF30086041F617
:103B80007021C2F200010120086041F6A421C2F2B6
:103B900000010020086000F083F808B1FFE700E0B2
:103BA000FFE70FE00798013058B9FFE74FF05000EA
:103BB00080F31188BFF36F8FBFF34F8F0890FFE73B
:103BC000FEE7FFE70AB080BD41F6A811C2F200018E
:103BD000086801300860704783B041F6A810C2F24F
:103BE0000000006838B1FFE741F6B021C2F20001E1
:103BF0000120086051E041F6B021C2F2000100202E
:103C0000086041F6B010C2F2000000680190FFE7C2
:103C1000019800EB800140F63010C2F2000050F82D
:103C2000210090B9FFE7019858B9FFE74FF0500025
:103C300080F31188BFF36F8FBFF34F8F0290FFE7C0
:103C4000FEE7019801380190E2E7019800EB80015E
:103C500040F63010C2F2000000EB810000900099A5
:103C6000486840684860009948680831884205D132
:103C7000FFE70099486840684860FFE7009840689F
:103C8000C06840F61811C2F200010860019841F6C0
:103C9000B011C2F200010860FFE703B070470000F6
:103CA00080B586B04EF20040CEF20000039001785D
:103CB0000491FF21017000788DF80B009DF80B0036
:103CC00000F0500041F69011C2F20001087041F678
:103CD0009411C2F2000107200860FFE79DF80B0075
:103CE000000600280DD5FFE741F69411C2F200014D
:103CF0000868013808609DF80B0040008DF80B0043
:103D0000ECE741F69410C2F20000006803280BD0E3
:103D1000FFE74FF0500080F31188BFF36F8FBFF3C0
:103D20004F8F0590FFE7FEE741F69411C2F20001C4
:103D3000086800020860086800F4E0600860049801
:103D40004EF20041CEF2000108704EF62051CEF244
:103D50000001086840F470000860086840F0704096
:103D60000860FFF763FD40F2B001C2F200010020DD
:103D700001900860FFF74CF8FFF72EFFFFF73AFAC3
:103D8000019806B080BD000080B590B084461298BE
:103D9000CDF828C00991089207938DF81B000A9866
:103DA00058B9FFE74FF0500080F31188BFF36F8FD1
:103DB000BFF34F8F0F90FFE7FEE7079858B9FFE773
:103DC0004FF0500080F31188BFF36F8FBFF34F8F18
:103DD0000E90FFE7FEE708990020039031B1FFE75E
:103DE0000998B0FA80F040090390FFE70398C007F4
:103DF00058B1FFE74FF0500080F31188BFF36F8F89
:103E0000BFF34F8F0D90FFE7FEE708990020029067
:103E100031B9FFE70998002818BF01200290FFE799
:103E20000298C00758B1FFE74FF0500080F31188A7
:103E3000BFF36F8FBFF34F8F0C90FFE7FEE750206B
:103E40000490049850280BD0FFE74FF0500080F307
:103E50001188BFF36F8FBFF34F8F0B90FFE7FEE723
:103E600007980590059888B1FFE70599012081F82A
:103E700046000A980999089A9DF81B30DDF814C08D
:103E8000EE46CEF800C0FEF7FBFD00E0FFE7059828
:103E900010B080BD80B584B002900191029800906E
:103EA000009858B9FFE74FF0500080F31188BFF336
:103EB0006F8FBFF34F8F0390FFE7FEE7FFF704FC20
:103EC00000990B68C86B0A6C00FB023048600099CF
:103ED0000020886300990868886000990B68C86BA7
:103EE0000A6C013800FB0230C8600099FF2081F89D
:103EF0004400009981F845000198D0B9FFE7009887
:103F00000069A0B1FFE70098103000F063FD60B1D8
:103F1000FFE74EF60451CEF200014FF080500860EA
:103F2000BFF34F8FBFF36F8F00E0FFE700E0FFE7C5
:103F300008E000981030FFF753FB00982430FFF79B
:103F40004FFBFFE7FFF7ECFB012004B080BD000052
:103F500080B592B00C900B910A92099300200890C2
:103F60000C980490049858B9FFE74FF0500080F384
:103F70001188BFF36F8FBFF34F8F1190FFE7FEE7FC
:103F80000B990020039039B9FFE70498006C0028D2
:103F900018BF01200390FFE70398C00758B1FFE75F
:103FA0004FF0500080F31188BFF36F8FBFF34F8F36
:103FB0001090FFE7FEE7099900200229029007D13F
:103FC000FFE70498C06B013818BF01200290FFE79B
:103FD0000298C00758B1FFE74FF0500080F31188F6
:103FE000BFF36F8FBFF34F8F0F90FFE7FEE700F037
:103FF00073FB01460020019031B9FFE70A980028C1
:1040000018BF01200190FFE70198C00758B1FFE7F2
:104010004FF0500080F31188BFF36F8FBFF34F8FC5
:104020000E90FFE7FEE7FFE7FFF74EFB0498806B7B
:104030000499C96B884204D3FFE70998022834D158
:10404000FFE704980B99099AFEF7EAFB079004989A
:10405000406AA0B1FFE70498243000F0BBFC60B1D7
:10406000FFE74EF60451CEF200014FF08050086099
:10407000BFF34F8FBFF36F8F00E0FFE710E00798AB
:1040800060B1FFE74EF60451CEF200014FF08050D0
:104090000860BFF34F8FBFF36F8F00E0FFE7FFE7CC
:1040A000FFF73EFB01200D9065E00A9828B9FFE775
:1040B000FFF736FB00200D905DE0089830B9FFE770
:1040C00005A8FFF7ABFC0120089000E0FFE7FFE741
:1040D000FFE7FFF725FBFFF777FDFFF7F5FA0498F9
:1040E00090F94400013028B9FFE70499002081F8D5
:1040F0004400FFE7049890F94500013028B9FFE734
:104100000499002081F84500FFE7FFF709FB05A8A7
:104110000AA900F0C5F928BBFFE70498FEF760FE86
:10412000C8B1FFE7049810300A99FFF791FC049892
:10413000FFF796F800F0B6FC60B9FFE74EF60451C1
:10414000CEF200014FF080500860BFF34F8FBFF3F5
:104150006F8FFFE705E00498FFF782F800F0A2FCFC
:10416000FFE707E00498FFF77BF800F09BFC0020D6
:104170000D9000E058E70D9812B080BD80B590B06A
:10418000099008910792069309980390039858B9EB
:10419000FFE74FF0500080F31188BFF36F8FBFF33C
:1041A0004F8F0C90FFE7FEE708990020019039B986
:1041B000FFE70398006C002818BF01200190FFE77B
:1041C0000198C00758B1FFE74FF0500080F3118805
:1041D000BFF36F8FBFF34F8F0B90FFE7FEE706999A
:1041E00000200229009007D1FFE70398C06B013837
:1041F00018BF01200090FFE70098C00758B1FFE703
:104200004FF0500080F31188BFF36F8FBFF34F8FD3
:104210000A90FFE7FEE7FFF72BFBEFF311814FF06A
:10422000500080F31188BFF36F8FBFF34F8F0E9153
:104230000D900E9804900398806B0399C96B884287
:1042400004D3FFE70698022830D1FFE7039890F8DF
:1042500045008DF80B0003980899069AFEF7E0FADE
:104260009DF90B000130B8B9FFE70398406A88B1A7
:10427000FFE70398243000F0ADFB48B1FFE7079853
:1042800020B1FFE707990120086000E0FFE700E0A8
:10429000FFE700E0FFE706E09DF80B00013003991F
:1042A00081F84500FFE70120059002E0002005901D
:1042B000FFE704980F900F9880F31188059810B0CD
:1042C00080BD000080B58EB0099008910792002053
:1042D000069009980390039858B9FFE74FF05000F3
:1042E00080F31188BFF36F8FBFF34F8F0D90FFE7FF
:1042F000FEE708990020019039B9FFE70398006CA8
:10430000002818BF01200190FFE70198C00758B1AD
:10431000FFE74FF0500080F31188BFF36F8FBFF3BA
:104320004F8F0C90FFE7FEE700F0D6F90146002022
:10433000009031B9FFE70798002818BF01200090CE
:10434000FFE70098C00758B1FFE74FF0500080F337
:104350001188BFF36F8FBFF34F8F0B90FFE7FEE71E
:10436000FFE7FFF7B1F90398806B0290029830B332
:10437000FFE703980899FEF731FA0298013803998C
:10438000886303980069A0B1FFE70398103000F03C
:1043900021FB60B1FFE74EF60451CEF200014FF071
:1043A00080500860BFF34F8FBFF36F8F00E0FFE7CF
:1043B00000E0FFE7FFF7B4F901200A906DE00798ED
:1043C00028B9FFE7FFF7ACF900200A9065E00698EE
:1043D00030B9FFE704A8FFF721FB0120069000E0B9
:1043E000FFE7FFE7FFE7FFF79BF9FFF7EDFBFFF7BD
:1043F0006BF9039890F94400013028B9FFE703995D
:10440000002081F84400FFE7039890F9450001304F
:1044100028B9FFE70399002081F84500FFE7FFF77F
:104420007FF904A807A900F03BF830BBFFE7039829
:10443000FEF7C2FCD0B1FFE7039824300799FFF7DD
:1044400007FB0398FEF70CFF00F02CFB60B9FFE7B9
:104450004EF60451CEF200014FF080500860BFF3D9
:104460004F8FBFF36F8F00E0FFE705E00398FEF783
:10447000F7FE00F017FBFFE70EE00398FEF7F0FEF3
:1044800000F010FB0398FEF797FC18B1FFE700203F
:104490000A9002E0FFE7FFE763E70A980EB080BDED
:1044A00080B588B005900491059858B9FFE74FF0A2
:1044B000500080F31188BFF36F8FBFF34F8F0790C9
:1044C000FFE7FEE7049858B9FFE74FF0500080F38C
:1044D0001188BFF36F8FBFF34F8F0690FFE7FEE7A2
:1044E000FFF7F2F841F6A420C2F200000068029043
:1044F000029805994968401A0190049800680130B3
:1045000018B9FFE7002003902BE041F61820C2F213
:104510000000006805990968884209D0FFE7029801
:1045200005994968884203D3FFE70120039017E00B
:1045300001980499096888420BD2FFE7019A04990F
:104540000868801A08600598FFF768FA0020039051
:1045500005E004990020086001200390FFE7FFE7D1
:10456000FFE7FFF7DDF8039808B080BD70B58CB0A9
:10457000DDF844C0DDF840C00B900A91ADF826206C
:104580000893BDF826008000FEF7C2FE059005984E
:1045900080B1FFE75C20FEF7BBFE0790079820B1D3
:1045A000FFE705980799086303E00598FFF7DEF831
:1045B000FFE702E000200790FFE70798F0B1FFE770
:1045C0000798002680F859600B980A99BDF82620B4
:1045D000089BDDF840C0119C079DEE46CEF80C60AC
:1045E000CEF80850CEF80440CEF800C0FEF76CFAC2
:1045F0000798FDF7E1FF0120069003E04FF0FF3040
:104600000690FFE706980CB070BD0000B0B58EB004
:10461000DDF850C0DDF84CC0DDF848C00A900991C3
:1046200008920793139858B9FFE74FF0500080F3B2
:104630001188BFF36F8FBFF34F8F0D90FFE7FEE739
:10464000149858B9FFE74FF0500080F31188BFF37A
:104650006F8FBFF34F8F0C90FFE7FEE75C20049055
:1046600004985C280BD0FFE74FF0500080F31188CE
:10467000BFF36F8FBFF34F8F0B90FFE7FEE71498E8
:1046800020B3FFE7139808B3FFE714980690139838
:10469000069908630699022081F859000A98099939
:1046A000089A079BDDF848C0069CEE460025CEF828
:1046B0000C50CEF8084005ACCEF80440CEF800C04F
:1046C000FEF702FA0698FDF777FF02E0002005905A
:1046D000FFE705980EB0B0BD81B041F67020C2F280
:1046E0000000006818B9FFE7012000900DE041F6D6
:1046F000A810C2F20000006818B9FFE7022000907D
:1047000002E000200090FFE7FFE7009801B070474B
:1047100081B041F6A420C2F2000000680090009829
:1047200001B0704780B586B00020029041F6A81015
:10473000C2F200000068002840F0C080FFE741F6A8
:10474000A421C2F2000108680130019001980860BC
:10475000019858BBFFE740F62010C2F20000006845
:10476000006858B1FFE74FF0500080F31188BFF3A5
:104770006F8FBFF34F8F0590FFE7FEE740F62012E3
:10478000C2F200021068009040F62811C2F2000147
:10479000086810600098086041F61821C2F2000114
:1047A000086801300860FEF777FC00E0FFE7019839
:1047B00041F61421C2F200010968884268D3FFE77C
:1047C000FFE740F62010C2F200000068006840B920
:1047D000FFE741F61421C2F200014FF0FF300860FC
:1047E00055E040F62010C2F200000068C068C068C2
:1047F000049004984068039001980399884207D276
:10480000FFE7039841F61421C2F2000108603EE080
:10481000FFE704980430FEF793FE0498806A28B1FD
:10482000FFE704981830FEF78BFE00E0FFE70498DE
:10483000C06A41F6B011C2F200010968884208D985
:10484000FFE70498C06A41F6B011C2F200010860A7
:10485000FFE70499C86A00EB800240F63010C2F20C
:10486000000000EB82000431FEF710FF0498C06ADC
:1048700040F61811C2F200010968C96A884203D3E0
:10488000FFE70120029000E0FFE7FFE799E7FFE77D
:1048900040F61810C2F200000068C06A00EB800108
:1048A00040F63010C2F2000050F82100022803D375
:1048B000FFE70120029000E0FFE707E041F6A411C6
:1048C000C2F20001086801300860FFE741F6B0203D
:1048D000C2F20000006818B1FFE70120029000E07A
:1048E000FFE7029806B080BD80B586B003900398BC
:1048F0000290002001900398002867D0FFE70298FB
:1049000040F61811C2F20001096888420BD0FFE797
:104910004FF0500080F31188BFF36F8FBFF34F8FBC
:104920000590FFE7FEE70298006D58B9FFE74FF0EA
:10493000500080F31188BFF36F8FBFF34F8F049047
:10494000FFE7FEE70299086D013808650299C86A19
:10495000C96C884238D0FFE70298006D90BBFFE732
:1049600002980430FEF7ECFD08B9FFE700E0FFE72E
:104970000299C86CC8620299C86AC0F1380088619F
:104980000298C06A41F6B011C2F20001096888427B
:1049900008D9FFE70298C06A41F6B011C2F20001DF
:1049A0000860FFE70299C86A00EB800240F6301009
:1049B000C2F2000000EB82000431FEF767FE012026
:1049C000019000E0FFE700E0FFE700E0FFE701986B
:1049D00006B080BD80B584B002900298C068C068FF
:1049E0000190019858B9FFE74FF0500080F311880B
:1049F000BFF36F8FBFF34F8F0390FFE7FEE7019880
:104A00001830FEF79DFD41F6A810C2F200000068C4
:104A100020BBFFE701980430FEF792FD0198C06AC1
:104A200041F6B011C2F200010968884208D9FFE7D7
:104A30000198C06A41F6B011C2F200010860FFE7B8
:104A40000199C86A00EB800240F63010C2F2000003
:104A500000EB82000431FEF719FE09E0019800F135
:104A6000180141F61C20C2F20000FEF70FFEFFE71E
:104A70000198C06A40F61811C2F200010968C96ABB
:104A8000884208D9FFE70120009041F6B021C2F228
:104A90000001086002E000200090FFE7009804B0E9
:104AA00080BD000080B584B000200290019041F6E6
:104AB000A810C2F20000006858B9FFE74FF050009C
:104AC00080F31188BFF36F8FBFF34F8F0390FFE721
:104AD000FEE7FEF7F9FD41F6A810C2F200000168FA
:104AE000013901600068002840F09980FFE741F635
:104AF0009C10C2F200000068002800F08F80FFE7E1
:104B0000FFE741F61C20C2F200000068002842D0F6
:104B1000FFE741F61C20C2F20000C068C0680290A6
:104B200002981830FEF70CFD02980430FEF708FDDD
:104B30000298C06A41F6B011C2F2000109688842C9
:104B400008D9FFE70298C06A41F6B011C2F200012D
:104B50000860FFE70299C86A00EB800240F6301057
:104B6000C2F2000000EB82000431FEF78FFD0298D4
:104B7000C06A40F61811C2F200010968C96A884289
:104B800007D3FFE741F6B021C2F20001012008601F
:104B900000E0FFE7B5E7029818B1FFE7FEF77CFAFF
:104BA000FFE741F6A410C2F20000006800900098F0
:104BB000E0B1FFE7FFE7FFF7B5FD38B1FFE741F6EA
:104BC000B021C2F200010120086000E0FFE7009878
:104BD00001380090FFE700980028ECD1FFE741F68C
:104BE000A411C2F200010020086000E0FFE741F6D6
:104BF000B020C2F20000006870B1FFE70120019010
:104C00004EF60451CEF200014FF080500860BFF321
:104C10004F8FBFF36F8F00E0FFE7FFE700E0FFE794
:104C2000FEF77EFD019804B080BD000080B58AB01B
:104C300000200890FDF752FD41F6A820C2F20000C6
:104C4000006858B3FFE7002004900790069007A87B
:104C500006A905AAFEF7AEFC049B059A0698DDF8A6
:104C60001CC06946C1F808C048600220086043F2D1
:104C70004120C0F6000044F68661C0F60001FFF74F
:104C8000C5FC014641F6AC20C2F20000016000689C
:104C900018B1FFE701200890FFE700E0FFE7089860
:104CA00058B9FFE74FF0500080F31188BFF36F8FC2
:104CB000BFF34F8F0990FFE7FEE708980AB080BD69
:104CC00080B58AB0DDF830C0089007910692059350
:104CD00000200490089858B9FFE74FF0500080F387
:104CE0001188BFF36F8FBFF34F8F0990FFE7FEE787
:104CF00041F6A820C2F200000068A8B3FFE70798B9
:104D000000900698019008980290079805281EDCEC
:104D1000FFE7FFF7E1FC02280CD1FFE741F6A820EE
:104D2000C2F2000000680C9A69460023FFF710F9F0
:104D300004900BE041F6A820C2F20000006869462A
:104D400000231A46FFF704F90490FFE70BE041F651
:104D5000A820C2F200000068059A69460023FFF708
:104D60000DFA0490FFE700E0FFE704980AB080BD69
:104D700002E008C8121F08C1002AFAD17047704724
:104D8000002001E001C1121F002AFBD17047000082
:104D9000F0B50B30154D20F007010024144A0FE048
:104DA00003688B420BD38B4205D95E1A43184768C0
:104DB000C3E9006700E04368136002C004E0021D1D
:104DC00010680028ECD12046002802D1286808B1DC
:104DD0000020F0BD064A07481060074A121A22F068
:104DE0000702C0E9002401202860D7E70400002062
:104DF00000000020BC1A0020B81C002000000000A9
:104E0000000000000102030406070809000000007A
:104E10000102030402030405060708090A0B0C0D2E
:104E20000E0F101001020000704E0008000000007C
:104E30000000000000000000000000000002000070
:104E4000180000000000000000000000DE4E000816
:104E50000000000000000000000000000000000052
:104E60000002000018000000000000000000000028
:104E700064656661756C745461736B0049444C459C
:104E800000546D725100546D7220537663004130AE
:104E90000057300057310031323334353637383926
:104EA00041393837363534333200573200353637EA
:104EB00038394139383736353433323132333400CA
:104EC0003839413938373635343332313233343585
:104ED00036370031323334353637383941006C6576
:104EE000645461736B000000084F0008000000204C
:104EF000B8000000704D0008C04F0008B800002046
:104F000000200000804D00080000000000000000AC
:104F10000024F400914E0008280000200300000047
:104F20000000000000000000611700080000000001
:104F30008E4E000885000000974E0008810000009A
:104F4000D34E000882000000944E00085C00002050
:104F500003000000000000000000000081170008AE
:104F6000000000008E4E000885000000AD4E0008D5
:104F700081000000D34E000882000000AA4E000805
:104F8000900000200300000000000000000000006E
:104F9000A1170008000000008E4E000885000000E8
:104FA000C04E000881000000D34E000882000000BF
:104FB0000100000010000000AAAAAAAA0000000038
:0400000508000131BD
:00000001FF
